{
	"contracts/periphery/ERC3525MetadataDescriptor.sol": {
		"ERC3525MetadataDescriptor": {
			"abi": [
				{
					"inputs": [],
					"name": "constructContractURI",
					"outputs": [
						{
							"internalType": "string",
							"name": "",
							"type": "string"
						}
					],
					"stateMutability": "view",
					"type": "function"
				},
				{
					"inputs": [
						{
							"internalType": "uint256",
							"name": "slot_",
							"type": "uint256"
						}
					],
					"name": "constructSlotURI",
					"outputs": [
						{
							"internalType": "string",
							"name": "",
							"type": "string"
						}
					],
					"stateMutability": "view",
					"type": "function"
				},
				{
					"inputs": [
						{
							"internalType": "uint256",
							"name": "tokenId_",
							"type": "uint256"
						}
					],
					"name": "constructTokenURI",
					"outputs": [
						{
							"internalType": "string",
							"name": "",
							"type": "string"
						}
					],
					"stateMutability": "view",
					"type": "function"
				}
			],
			"devdoc": {
				"kind": "dev",
				"methods": {},
				"version": 1
			},
			"evm": {
				"assembly": "    /* \"contracts/periphery/ERC3525MetadataDescriptor.sol\":260:4923  contract ERC3525MetadataDescriptor is IERC3525MetadataDescriptor {... */\n  mstore(0x40, 0x80)\n  callvalue\n  dup1\n  iszero\n  tag_1\n  jumpi\n  0x00\n  dup1\n  revert\ntag_1:\n  pop\n  dataSize(sub_0)\n  dup1\n  dataOffset(sub_0)\n  0x00\n  codecopy\n  0x00\n  return\nstop\n\nsub_0: assembly {\n        /* \"contracts/periphery/ERC3525MetadataDescriptor.sol\":260:4923  contract ERC3525MetadataDescriptor is IERC3525MetadataDescriptor {... */\n      mstore(0x40, 0x80)\n      callvalue\n      dup1\n      iszero\n      tag_1\n      jumpi\n      0x00\n      dup1\n      revert\n    tag_1:\n      pop\n      jumpi(tag_2, lt(calldatasize, 0x04))\n      shr(0xe0, calldataload(0x00))\n      dup1\n      0x6c037f8a\n      eq\n      tag_3\n      jumpi\n      dup1\n      0x725fa09c\n      eq\n      tag_4\n      jumpi\n      dup1\n      0x894b4c2e\n      eq\n      tag_5\n      jumpi\n    tag_2:\n      0x00\n      dup1\n      revert\n        /* \"contracts/periphery/ERC3525MetadataDescriptor.sol\":1262:2074  function constructSlotURI(uint256 slot_) external view override returns (string memory) {... */\n    tag_3:\n      tag_6\n      tag_7\n      calldatasize\n      0x04\n      tag_8\n      jump\t// in\n    tag_7:\n      tag_9\n      jump\t// in\n    tag_6:\n      mload(0x40)\n      tag_10\n      swap2\n      swap1\n      tag_11\n      jump\t// in\n    tag_10:\n      mload(0x40)\n      dup1\n      swap2\n      sub\n      swap1\n      return\n        /* \"contracts/periphery/ERC3525MetadataDescriptor.sol\":364:1256  function constructContractURI() external view override returns (string memory) {... */\n    tag_4:\n      tag_6\n      tag_13\n      jump\t// in\n        /* \"contracts/periphery/ERC3525MetadataDescriptor.sol\":2080:3183  function constructTokenURI(uint256 tokenId_) public view override returns (string memory) {... */\n    tag_5:\n      tag_6\n      tag_16\n      calldatasize\n      0x04\n      tag_8\n      jump\t// in\n    tag_16:\n      tag_17\n      jump\t// in\n        /* \"contracts/periphery/ERC3525MetadataDescriptor.sol\":1262:2074  function constructSlotURI(uint256 slot_) external view override returns (string memory) {... */\n    tag_9:\n        /* \"contracts/periphery/ERC3525MetadataDescriptor.sol\":1335:1348  string memory */\n      0x60\n        /* \"contracts/periphery/ERC3525MetadataDescriptor.sol\":1503:2018  Base64.encode(... */\n      tag_20\n        /* \"contracts/periphery/ERC3525MetadataDescriptor.sol\":1630:1646  _slotName(slot_) */\n      tag_21\n        /* \"contracts/periphery/ERC3525MetadataDescriptor.sol\":3507:3516  return \"\" */\n      0x40\n      dup1\n      mload\n      0x20\n      dup2\n      add\n      swap1\n      swap2\n      mstore\n      0x00\n      dup2\n      mstore\n      swap1\n        /* \"contracts/periphery/ERC3525MetadataDescriptor.sol\":3402:3523  function _slotName(uint256 slot_) internal view virtual returns (string memory) {... */\n      jump\n        /* \"contracts/periphery/ERC3525MetadataDescriptor.sol\":1630:1646  _slotName(slot_) */\n    tag_21:\n        /* \"contracts/periphery/ERC3525MetadataDescriptor.sol\":3507:3516  return \"\" */\n      0x40\n      dup1\n      mload\n      0x20\n      dup2\n      add\n      swap1\n      swap2\n      mstore\n      0x00\n      dup2\n      mstore\n        /* \"contracts/periphery/ERC3525MetadataDescriptor.sol\":1821:1838  _slotImage(slot_) */\n      tag_25\n        /* \"contracts/periphery/ERC3525MetadataDescriptor.sol\":1832:1837  slot_ */\n      dup6\n        /* \"contracts/periphery/ERC3525MetadataDescriptor.sol\":1821:1831  _slotImage */\n      tag_26\n        /* \"contracts/periphery/ERC3525MetadataDescriptor.sol\":1821:1838  _slotImage(slot_) */\n      jump\t// in\n    tag_25:\n        /* \"contracts/periphery/ERC3525MetadataDescriptor.sol\":3952:3963  return \"[]\" */\n      0x40\n      dup1\n      mload\n      dup1\n      dup3\n      add\n      swap1\n      swap2\n      mstore\n      0x02\n      dup2\n      mstore\n      shl(0xf0, 0x5b5d)\n      0x20\n      dup3\n      add\n      mstore\n        /* \"contracts/periphery/ERC3525MetadataDescriptor.sol\":1542:1996  abi.encodePacked(... */\n      add(0x20, mload(0x40))\n      tag_29\n      swap5\n      swap4\n      swap3\n      swap2\n      swap1\n      tag_30\n      jump\t// in\n    tag_29:\n      mload(0x40)\n      0x20\n      dup2\n      dup4\n      sub\n      sub\n      dup2\n      mstore\n      swap1\n      0x40\n      mstore\n        /* \"contracts/periphery/ERC3525MetadataDescriptor.sol\":1503:1516  Base64.encode */\n      tag_31\n        /* \"contracts/periphery/ERC3525MetadataDescriptor.sol\":1503:2018  Base64.encode(... */\n      jump\t// in\n    tag_20:\n        /* \"contracts/periphery/ERC3525MetadataDescriptor.sol\":1403:2053  abi.encodePacked(... */\n      add(0x20, mload(0x40))\n      tag_32\n      swap2\n      swap1\n      tag_33\n      jump\t// in\n    tag_32:\n      mload(0x40)\n      0x20\n      dup2\n      dup4\n      sub\n      sub\n      dup2\n      mstore\n      swap1\n      0x40\n      mstore\n        /* \"contracts/periphery/ERC3525MetadataDescriptor.sol\":1360:2067  return... */\n      swap1\n      pop\n        /* \"contracts/periphery/ERC3525MetadataDescriptor.sol\":1262:2074  function constructSlotURI(uint256 slot_) external view override returns (string memory) {... */\n      swap2\n      swap1\n      pop\n      jump\t// out\n        /* \"contracts/periphery/ERC3525MetadataDescriptor.sol\":364:1256  function constructContractURI() external view override returns (string memory) {... */\n    tag_13:\n        /* \"contracts/periphery/ERC3525MetadataDescriptor.sol\":428:441  string memory */\n      0x60\n        /* \"contracts/periphery/ERC3525MetadataDescriptor.sol\":453:477  IERC3525Metadata erc3525 */\n      0x00\n        /* \"contracts/periphery/ERC3525MetadataDescriptor.sol\":497:507  msg.sender */\n      caller\n        /* \"contracts/periphery/ERC3525MetadataDescriptor.sol\":453:508  IERC3525Metadata erc3525 = IERC3525Metadata(msg.sender) */\n      swap1\n      pop\n        /* \"contracts/periphery/ERC3525MetadataDescriptor.sol\":670:1208  Base64.encode(... */\n      tag_35\n        /* \"contracts/periphery/ERC3525MetadataDescriptor.sol\":797:804  erc3525 */\n      dup2\n      sub(shl(0xa0, 0x01), 0x01)\n        /* \"contracts/periphery/ERC3525MetadataDescriptor.sol\":797:809  erc3525.name */\n      and\n      0x06fdde03\n        /* \"contracts/periphery/ERC3525MetadataDescriptor.sol\":797:811  erc3525.name() */\n      mload(0x40)\n      dup2\n      0xffffffff\n      and\n      0xe0\n      shl\n      dup2\n      mstore\n      0x04\n      add\n      0x00\n      mload(0x40)\n      dup1\n      dup4\n      sub\n      dup2\n      dup7\n      gas\n      staticcall\n      iszero\n      dup1\n      iszero\n      tag_37\n      jumpi\n      returndatasize\n      0x00\n      dup1\n      returndatacopy\n      revert(0x00, returndatasize)\n    tag_37:\n      pop\n      pop\n      pop\n      pop\n      mload(0x40)\n      returndatasize\n      0x00\n      dup3\n      returndatacopy\n      0x1f\n      returndatasize\n      swap1\n      dup2\n      add\n      not(0x1f)\n      and\n      dup3\n      add\n      0x40\n      mstore\n      tag_38\n      swap2\n      swap1\n      dup2\n      add\n      swap1\n      tag_39\n      jump\t// in\n    tag_38:\n        /* \"contracts/periphery/ERC3525MetadataDescriptor.sol\":3277:3286  return \"\" */\n      0x40\n      dup1\n      mload\n      0x20\n      dup2\n      add\n      swap1\n      swap2\n      mstore\n      0x00\n      dup2\n      mstore\n      0x40\n      dup1\n      mload\n      0x20\n      dup2\n      add\n      swap1\n      swap2\n      mstore\n      0x00\n      dup2\n      mstore\n        /* \"contracts/periphery/ERC3525MetadataDescriptor.sol\":1083:1126  uint256(erc3525.valueDecimals()).toString() */\n      tag_44\n        /* \"contracts/periphery/ERC3525MetadataDescriptor.sol\":1091:1098  erc3525 */\n      dup6\n      sub(shl(0xa0, 0x01), 0x01)\n        /* \"contracts/periphery/ERC3525MetadataDescriptor.sol\":1091:1112  erc3525.valueDecimals */\n      and\n      0x3e7e8669\n        /* \"contracts/periphery/ERC3525MetadataDescriptor.sol\":1091:1114  erc3525.valueDecimals() */\n      mload(0x40)\n      dup2\n      0xffffffff\n      and\n      0xe0\n      shl\n      dup2\n      mstore\n      0x04\n      add\n      0x20\n      mload(0x40)\n      dup1\n      dup4\n      sub\n      dup2\n      dup7\n      gas\n      staticcall\n      iszero\n      dup1\n      iszero\n      tag_46\n      jumpi\n      returndatasize\n      0x00\n      dup1\n      returndatacopy\n      revert(0x00, returndatasize)\n    tag_46:\n      pop\n      pop\n      pop\n      pop\n      mload(0x40)\n      returndatasize\n      not(0x1f)\n      0x1f\n      dup3\n      add\n      and\n      dup3\n      add\n      dup1\n      0x40\n      mstore\n      pop\n      dup2\n      add\n      swap1\n      tag_47\n      swap2\n      swap1\n      tag_48\n      jump\t// in\n    tag_47:\n        /* \"contracts/periphery/ERC3525MetadataDescriptor.sol\":1083:1115  uint256(erc3525.valueDecimals()) */\n      0xff\n      and\n        /* \"contracts/periphery/ERC3525MetadataDescriptor.sol\":1083:1124  uint256(erc3525.valueDecimals()).toString */\n      tag_49\n        /* \"contracts/periphery/ERC3525MetadataDescriptor.sol\":1083:1126  uint256(erc3525.valueDecimals()).toString() */\n      jump\t// in\n    tag_44:\n        /* \"contracts/periphery/ERC3525MetadataDescriptor.sol\":709:1186  abi.encodePacked(... */\n      add(0x20, mload(0x40))\n      tag_29\n      swap5\n      swap4\n      swap3\n      swap2\n      swap1\n      tag_51\n      jump\t// in\n        /* \"contracts/periphery/ERC3525MetadataDescriptor.sol\":670:1208  Base64.encode(... */\n    tag_35:\n        /* \"contracts/periphery/ERC3525MetadataDescriptor.sol\":562:1235  abi.encodePacked(... */\n      add(0x20, mload(0x40))\n      tag_52\n      swap2\n      swap1\n      tag_33\n      jump\t// in\n    tag_52:\n      mload(0x40)\n      0x20\n      dup2\n      dup4\n      sub\n      sub\n      dup2\n      mstore\n      swap1\n      0x40\n      mstore\n        /* \"contracts/periphery/ERC3525MetadataDescriptor.sol\":518:1249  return ... */\n      swap2\n      pop\n      pop\n        /* \"contracts/periphery/ERC3525MetadataDescriptor.sol\":364:1256  function constructContractURI() external view override returns (string memory) {... */\n      swap1\n      jump\t// out\n        /* \"contracts/periphery/ERC3525MetadataDescriptor.sol\":2080:3183  function constructTokenURI(uint256 tokenId_) public view override returns (string memory) {... */\n    tag_17:\n        /* \"contracts/periphery/ERC3525MetadataDescriptor.sol\":2155:2168  string memory */\n      0x60\n        /* \"contracts/periphery/ERC3525MetadataDescriptor.sol\":2224:2234  msg.sender */\n      caller\n        /* \"contracts/periphery/ERC3525MetadataDescriptor.sol\":2380:3144  Base64.encode(... */\n      tag_54\n        /* \"contracts/periphery/ERC3525MetadataDescriptor.sol\":2503:2523  _tokenName(tokenId_) */\n      tag_55\n        /* \"contracts/periphery/ERC3525MetadataDescriptor.sol\":2514:2522  tokenId_ */\n      dup5\n        /* \"contracts/periphery/ERC3525MetadataDescriptor.sol\":2503:2513  _tokenName */\n      tag_56\n        /* \"contracts/periphery/ERC3525MetadataDescriptor.sol\":2503:2523  _tokenName(tokenId_) */\n      jump\t// in\n    tag_55:\n        /* \"contracts/periphery/ERC3525MetadataDescriptor.sol\":3507:3516  return \"\" */\n      0x40\n      dup1\n      mload\n      0x20\n      dup2\n      add\n      swap1\n      swap2\n      mstore\n      0x00\n      dup2\n      mstore\n      0x40\n      dup1\n      mload\n      0x20\n      dup2\n      add\n      swap1\n      swap2\n      mstore\n      0x00\n      dup2\n      mstore\n        /* \"contracts/periphery/ERC3525MetadataDescriptor.sol\":2798:2825  erc3525.balanceOf(tokenId_) */\n      mload(0x40)\n      shl(0xe3, 0x1398fee1)\n      dup2\n      mstore\n      0x04\n      dup2\n      add\n        /* \"#utility.yul\":6783:6808   */\n      dup9\n      swap1\n      mstore\n        /* \"contracts/periphery/ERC3525MetadataDescriptor.sol\":2798:2836  erc3525.balanceOf(tokenId_).toString() */\n      tag_61\n      swap1\n      sub(shl(0xa0, 0x01), 0x01)\n        /* \"contracts/periphery/ERC3525MetadataDescriptor.sol\":2798:2815  erc3525.balanceOf */\n      dup8\n      and\n      swap1\n      0x9cc7f708\n      swap1\n        /* \"#utility.yul\":6756:6774   */\n      0x24\n      add\n        /* \"contracts/periphery/ERC3525MetadataDescriptor.sol\":2798:2825  erc3525.balanceOf(tokenId_) */\n    tag_62:\n      0x20\n      mload(0x40)\n      dup1\n      dup4\n      sub\n      dup2\n      dup7\n      gas\n      staticcall\n      iszero\n      dup1\n      iszero\n      tag_65\n      jumpi\n      returndatasize\n      0x00\n      dup1\n      returndatacopy\n      revert(0x00, returndatasize)\n    tag_65:\n      pop\n      pop\n      pop\n      pop\n      mload(0x40)\n      returndatasize\n      not(0x1f)\n      0x1f\n      dup3\n      add\n      and\n      dup3\n      add\n      dup1\n      0x40\n      mstore\n      pop\n      dup2\n      add\n      swap1\n      tag_66\n      swap2\n      swap1\n      tag_67\n      jump\t// in\n    tag_66:\n        /* \"contracts/periphery/ERC3525MetadataDescriptor.sol\":2798:2834  erc3525.balanceOf(tokenId_).toString */\n      tag_49\n        /* \"contracts/periphery/ERC3525MetadataDescriptor.sol\":2798:2836  erc3525.balanceOf(tokenId_).toString() */\n      jump\t// in\n    tag_61:\n        /* \"contracts/periphery/ERC3525MetadataDescriptor.sol\":2908:2932  erc3525.slotOf(tokenId_) */\n      mload(0x40)\n      shl(0xe1, 0x131f9f3f)\n      dup2\n      mstore\n      0x04\n      dup2\n      add\n        /* \"#utility.yul\":6783:6808   */\n      dup10\n      swap1\n      mstore\n        /* \"contracts/periphery/ERC3525MetadataDescriptor.sol\":2908:2943  erc3525.slotOf(tokenId_).toString() */\n      tag_68\n      swap1\n      sub(shl(0xa0, 0x01), 0x01)\n        /* \"contracts/periphery/ERC3525MetadataDescriptor.sol\":2908:2922  erc3525.slotOf */\n      dup9\n      and\n      swap1\n      0x263f3e7e\n      swap1\n        /* \"#utility.yul\":6756:6774   */\n      0x24\n      add\n        /* \"contracts/periphery/ERC3525MetadataDescriptor.sol\":2908:2932  erc3525.slotOf(tokenId_) */\n      tag_62\n        /* \"#utility.yul\":6637:6814   */\n      jump\n        /* \"contracts/periphery/ERC3525MetadataDescriptor.sol\":2908:2943  erc3525.slotOf(tokenId_).toString() */\n    tag_68:\n        /* \"contracts/periphery/ERC3525MetadataDescriptor.sol\":4903:4914  return \"{}\" */\n      0x40\n      dup1\n      mload\n      dup1\n      dup3\n      add\n      swap1\n      swap2\n      mstore\n      0x02\n      dup2\n      mstore\n      shl(0xf0, 0x7b7d)\n      0x20\n      dup3\n      add\n      mstore\n        /* \"contracts/periphery/ERC3525MetadataDescriptor.sol\":2419:3122  abi.encodePacked(... */\n      add(0x20, mload(0x40))\n      tag_29\n      swap7\n      swap6\n      swap5\n      swap4\n      swap3\n      swap2\n      swap1\n      tag_76\n      jump\t// in\n        /* \"contracts/periphery/ERC3525MetadataDescriptor.sol\":2380:3144  Base64.encode(... */\n    tag_54:\n        /* \"contracts/periphery/ERC3525MetadataDescriptor.sol\":2289:3162  abi.encodePacked(... */\n      add(0x20, mload(0x40))\n      tag_77\n      swap2\n      swap1\n      tag_33\n      jump\t// in\n    tag_77:\n      mload(0x40)\n      0x20\n      dup2\n      dup4\n      sub\n      sub\n      dup2\n      mstore\n      swap1\n      0x40\n      mstore\n        /* \"contracts/periphery/ERC3525MetadataDescriptor.sol\":2245:3176  return ... */\n      swap2\n      pop\n      pop\n        /* \"contracts/periphery/ERC3525MetadataDescriptor.sol\":2080:3183  function constructTokenURI(uint256 tokenId_) public view override returns (string memory) {... */\n      swap2\n      swap1\n      pop\n      jump\t// out\n        /* \"contracts/periphery/ERC3525MetadataDescriptor.sol\":3663:3835  function _slotImage(uint256 slot_) internal  virtual view  returns (bytes memory) {... */\n    tag_26:\n        /* \"contracts/periphery/ERC3525MetadataDescriptor.sol\":3784:3827  IERC3525Metadata(msg.sender).slotURI(slot_) */\n      mload(0x40)\n      shl(0xe0, 0x09c3dd87)\n      dup2\n      mstore\n      0x04\n      dup2\n      add\n        /* \"#utility.yul\":6783:6808   */\n      dup3\n      swap1\n      mstore\n        /* \"contracts/periphery/ERC3525MetadataDescriptor.sol\":3731:3743  bytes memory */\n      0x60\n      swap1\n        /* \"contracts/periphery/ERC3525MetadataDescriptor.sol\":3801:3811  msg.sender */\n      caller\n      swap1\n        /* \"contracts/periphery/ERC3525MetadataDescriptor.sol\":3784:3820  IERC3525Metadata(msg.sender).slotURI */\n      0x09c3dd87\n      swap1\n        /* \"#utility.yul\":6756:6774   */\n      0x24\n      add\n        /* \"contracts/periphery/ERC3525MetadataDescriptor.sol\":3784:3827  IERC3525Metadata(msg.sender).slotURI(slot_) */\n      0x00\n      mload(0x40)\n      dup1\n      dup4\n      sub\n      dup2\n      dup7\n      gas\n      staticcall\n      iszero\n      dup1\n      iszero\n      tag_83\n      jumpi\n      returndatasize\n      0x00\n      dup1\n      returndatacopy\n      revert(0x00, returndatasize)\n    tag_83:\n      pop\n      pop\n      pop\n      pop\n      mload(0x40)\n      returndatasize\n      0x00\n      dup3\n      returndatacopy\n      0x1f\n      returndatasize\n      swap1\n      dup2\n      add\n      not(0x1f)\n      and\n      dup3\n      add\n      0x40\n      mstore\n      tag_84\n      swap2\n      swap1\n      dup2\n      add\n      swap1\n      tag_39\n      jump\t// in\n    tag_84:\n        /* \"contracts/periphery/ERC3525MetadataDescriptor.sol\":3771:3828  return bytes(IERC3525Metadata(msg.sender).slotURI(slot_)) */\n      swap3\n        /* \"contracts/periphery/ERC3525MetadataDescriptor.sol\":3663:3835  function _slotImage(uint256 slot_) internal  virtual view  returns (bytes memory) {... */\n      swap2\n      pop\n      pop\n      jump\t// out\n        /* \"@openzeppelin/contracts/utils/Base64.sol\":476:3502  function encode(bytes memory data) internal pure returns (string memory) {... */\n    tag_31:\n        /* \"@openzeppelin/contracts/utils/Base64.sol\":534:547  string memory */\n      0x60\n        /* \"@openzeppelin/contracts/utils/Base64.sol\":766:770  data */\n      dup2\n        /* \"@openzeppelin/contracts/utils/Base64.sol\":766:777  data.length */\n      mload\n        /* \"@openzeppelin/contracts/utils/Base64.sol\":781:782  0 */\n      0x00\n        /* \"@openzeppelin/contracts/utils/Base64.sol\":766:782  data.length == 0 */\n      sub\n        /* \"@openzeppelin/contracts/utils/Base64.sol\":762:793  if (data.length == 0) return \"\" */\n      tag_87\n      jumpi\n      pop\n      pop\n        /* \"@openzeppelin/contracts/utils/Base64.sol\":784:793  return \"\" */\n      0x40\n      dup1\n      mload\n      0x20\n      dup2\n      add\n      swap1\n      swap2\n      mstore\n      0x00\n      dup2\n      mstore\n      swap1\n        /* \"@openzeppelin/contracts/utils/Base64.sol\":476:3502  function encode(bytes memory data) internal pure returns (string memory) {... */\n      jump\t// out\n        /* \"@openzeppelin/contracts/utils/Base64.sol\":762:793  if (data.length == 0) return \"\" */\n    tag_87:\n        /* \"@openzeppelin/contracts/utils/Base64.sol\":843:862  string memory table */\n      0x00\n        /* \"@openzeppelin/contracts/utils/Base64.sol\":865:871  _TABLE */\n      mload(0x40)\n      dup1\n      0x60\n      add\n      0x40\n      mstore\n      dup1\n      0x40\n      dup2\n      mstore\n      0x20\n      add\n      data_84d8a590de33e00cbdc16e1f28c3506f5ec15c599fab9a6a4bcd575cc2f110ce\n      0x40\n      swap2\n      codecopy\n        /* \"@openzeppelin/contracts/utils/Base64.sol\":843:871  string memory table = _TABLE */\n      swap1\n      pop\n        /* \"@openzeppelin/contracts/utils/Base64.sol\":1274:1294  string memory result */\n      0x00\n        /* \"@openzeppelin/contracts/utils/Base64.sol\":1333:1334  3 */\n      0x03\n        /* \"@openzeppelin/contracts/utils/Base64.sol\":1314:1318  data */\n      dup5\n        /* \"@openzeppelin/contracts/utils/Base64.sol\":1314:1325  data.length */\n      mload\n        /* \"@openzeppelin/contracts/utils/Base64.sol\":1328:1329  2 */\n      0x02\n        /* \"@openzeppelin/contracts/utils/Base64.sol\":1314:1329  data.length + 2 */\n      tag_88\n      swap2\n      swap1\n      tag_89\n      jump\t// in\n    tag_88:\n        /* \"@openzeppelin/contracts/utils/Base64.sol\":1313:1334  (data.length + 2) / 3 */\n      tag_90\n      swap2\n      swap1\n      tag_91\n      jump\t// in\n    tag_90:\n        /* \"@openzeppelin/contracts/utils/Base64.sol\":1308:1335  4 * ((data.length + 2) / 3) */\n      tag_92\n      swap1\n        /* \"@openzeppelin/contracts/utils/Base64.sol\":1308:1309  4 */\n      0x04\n        /* \"@openzeppelin/contracts/utils/Base64.sol\":1308:1335  4 * ((data.length + 2) / 3) */\n      tag_93\n      jump\t// in\n    tag_92:\n        /* \"@openzeppelin/contracts/utils/Base64.sol\":1297:1336  new string(4 * ((data.length + 2) / 3)) */\n      0xffffffffffffffff\n      dup2\n      gt\n      iszero\n      tag_95\n      jumpi\n      tag_95\n      tag_96\n      jump\t// in\n    tag_95:\n      mload(0x40)\n      swap1\n      dup1\n      dup3\n      mstore\n      dup1\n      0x1f\n      add\n      not(0x1f)\n      and\n      0x20\n      add\n      dup3\n      add\n      0x40\n      mstore\n      dup1\n      iszero\n      tag_97\n      jumpi\n      0x20\n      dup3\n      add\n      dup2\n      dup1\n      calldatasize\n      dup4\n      calldatacopy\n      add\n      swap1\n      pop\n    tag_97:\n      pop\n        /* \"@openzeppelin/contracts/utils/Base64.sol\":1274:1336  string memory result = new string(4 * ((data.length + 2) / 3)) */\n      swap1\n      pop\n        /* \"@openzeppelin/contracts/utils/Base64.sol\":1511:1512  1 */\n      0x01\n        /* \"@openzeppelin/contracts/utils/Base64.sol\":1504:1509  table */\n      dup3\n        /* \"@openzeppelin/contracts/utils/Base64.sol\":1500:1513  add(table, 1) */\n      add\n        /* \"@openzeppelin/contracts/utils/Base64.sol\":1612:1614  32 */\n      0x20\n        /* \"@openzeppelin/contracts/utils/Base64.sol\":1604:1610  result */\n      dup3\n        /* \"@openzeppelin/contracts/utils/Base64.sol\":1600:1615  add(result, 32) */\n      add\n        /* \"@openzeppelin/contracts/utils/Base64.sol\":1719:1723  data */\n      dup6\n        /* \"@openzeppelin/contracts/utils/Base64.sol\":1770:1774  data */\n      dup7\n        /* \"@openzeppelin/contracts/utils/Base64.sol\":1764:1775  mload(data) */\n      mload\n        /* \"@openzeppelin/contracts/utils/Base64.sol\":1758:1762  data */\n      dup8\n        /* \"@openzeppelin/contracts/utils/Base64.sol\":1754:1776  add(data, mload(data)) */\n      add\n        /* \"@openzeppelin/contracts/utils/Base64.sol\":1682:3085  for {... */\n    tag_98:\n        /* \"@openzeppelin/contracts/utils/Base64.sol\":1803:1809  endPtr */\n      dup1\n        /* \"@openzeppelin/contracts/utils/Base64.sol\":1794:1801  dataPtr */\n      dup3\n        /* \"@openzeppelin/contracts/utils/Base64.sol\":1791:1810  lt(dataPtr, endPtr) */\n      lt\n        /* \"@openzeppelin/contracts/utils/Base64.sol\":1682:3085  for {... */\n      iszero\n      tag_100\n      jumpi\n        /* \"@openzeppelin/contracts/utils/Base64.sol\":1905:1906  3 */\n      0x03\n        /* \"@openzeppelin/contracts/utils/Base64.sol\":1896:1903  dataPtr */\n      dup3\n        /* \"@openzeppelin/contracts/utils/Base64.sol\":1892:1907  add(dataPtr, 3) */\n      add\n        /* \"@openzeppelin/contracts/utils/Base64.sol\":1881:1907  dataPtr := add(dataPtr, 3) */\n      swap2\n      pop\n        /* \"@openzeppelin/contracts/utils/Base64.sol\":1943:1950  dataPtr */\n      dup2\n        /* \"@openzeppelin/contracts/utils/Base64.sol\":1937:1951  mload(dataPtr) */\n      mload\n        /* \"@openzeppelin/contracts/utils/Base64.sol\":2586:2590  0x3F */\n      0x3f\n        /* \"@openzeppelin/contracts/utils/Base64.sol\":2578:2583  input */\n      dup2\n        /* \"@openzeppelin/contracts/utils/Base64.sol\":2574:2576  18 */\n      0x12\n        /* \"@openzeppelin/contracts/utils/Base64.sol\":2570:2584  shr(18, input) */\n      shr\n        /* \"@openzeppelin/contracts/utils/Base64.sol\":2566:2591  and(shr(18, input), 0x3F) */\n      and\n        /* \"@openzeppelin/contracts/utils/Base64.sol\":2556:2564  tablePtr */\n      dup6\n        /* \"@openzeppelin/contracts/utils/Base64.sol\":2552:2592  add(tablePtr, and(shr(18, input), 0x3F)) */\n      add\n        /* \"@openzeppelin/contracts/utils/Base64.sol\":2546:2593  mload(add(tablePtr, and(shr(18, input), 0x3F))) */\n      mload\n        /* \"@openzeppelin/contracts/utils/Base64.sol\":2535:2544  resultPtr */\n      dup5\n        /* \"@openzeppelin/contracts/utils/Base64.sol\":2527:2594  mstore8(resultPtr, mload(add(tablePtr, and(shr(18, input), 0x3F)))) */\n      mstore8\n        /* \"@openzeppelin/contracts/utils/Base64.sol\":2639:2640  1 */\n      0x01\n        /* \"@openzeppelin/contracts/utils/Base64.sol\":2628:2637  resultPtr */\n      dup5\n        /* \"@openzeppelin/contracts/utils/Base64.sol\":2624:2641  add(resultPtr, 1) */\n      add\n        /* \"@openzeppelin/contracts/utils/Base64.sol\":2611:2641  resultPtr := add(resultPtr, 1) */\n      swap4\n      pop\n        /* \"@openzeppelin/contracts/utils/Base64.sol\":2729:2733  0x3F */\n      0x3f\n        /* \"@openzeppelin/contracts/utils/Base64.sol\":2721:2726  input */\n      dup2\n        /* \"@openzeppelin/contracts/utils/Base64.sol\":2717:2719  12 */\n      0x0c\n        /* \"@openzeppelin/contracts/utils/Base64.sol\":2713:2727  shr(12, input) */\n      shr\n        /* \"@openzeppelin/contracts/utils/Base64.sol\":2709:2734  and(shr(12, input), 0x3F) */\n      and\n        /* \"@openzeppelin/contracts/utils/Base64.sol\":2699:2707  tablePtr */\n      dup6\n        /* \"@openzeppelin/contracts/utils/Base64.sol\":2695:2735  add(tablePtr, and(shr(12, input), 0x3F)) */\n      add\n        /* \"@openzeppelin/contracts/utils/Base64.sol\":2689:2736  mload(add(tablePtr, and(shr(12, input), 0x3F))) */\n      mload\n        /* \"@openzeppelin/contracts/utils/Base64.sol\":2678:2687  resultPtr */\n      dup5\n        /* \"@openzeppelin/contracts/utils/Base64.sol\":2670:2737  mstore8(resultPtr, mload(add(tablePtr, and(shr(12, input), 0x3F)))) */\n      mstore8\n        /* \"@openzeppelin/contracts/utils/Base64.sol\":2782:2783  1 */\n      0x01\n        /* \"@openzeppelin/contracts/utils/Base64.sol\":2771:2780  resultPtr */\n      dup5\n        /* \"@openzeppelin/contracts/utils/Base64.sol\":2767:2784  add(resultPtr, 1) */\n      add\n        /* \"@openzeppelin/contracts/utils/Base64.sol\":2754:2784  resultPtr := add(resultPtr, 1) */\n      swap4\n      pop\n        /* \"@openzeppelin/contracts/utils/Base64.sol\":2871:2875  0x3F */\n      0x3f\n        /* \"@openzeppelin/contracts/utils/Base64.sol\":2863:2868  input */\n      dup2\n        /* \"@openzeppelin/contracts/utils/Base64.sol\":2860:2861  6 */\n      0x06\n        /* \"@openzeppelin/contracts/utils/Base64.sol\":2856:2869  shr(6, input) */\n      shr\n        /* \"@openzeppelin/contracts/utils/Base64.sol\":2852:2876  and(shr(6, input), 0x3F) */\n      and\n        /* \"@openzeppelin/contracts/utils/Base64.sol\":2842:2850  tablePtr */\n      dup6\n        /* \"@openzeppelin/contracts/utils/Base64.sol\":2838:2877  add(tablePtr, and(shr(6, input), 0x3F)) */\n      add\n        /* \"@openzeppelin/contracts/utils/Base64.sol\":2832:2878  mload(add(tablePtr, and(shr(6, input), 0x3F))) */\n      mload\n        /* \"@openzeppelin/contracts/utils/Base64.sol\":2821:2830  resultPtr */\n      dup5\n        /* \"@openzeppelin/contracts/utils/Base64.sol\":2813:2879  mstore8(resultPtr, mload(add(tablePtr, and(shr(6, input), 0x3F)))) */\n      mstore8\n        /* \"@openzeppelin/contracts/utils/Base64.sol\":2924:2925  1 */\n      0x01\n        /* \"@openzeppelin/contracts/utils/Base64.sol\":2913:2922  resultPtr */\n      dup5\n        /* \"@openzeppelin/contracts/utils/Base64.sol\":2909:2926  add(resultPtr, 1) */\n      add\n        /* \"@openzeppelin/contracts/utils/Base64.sol\":2896:2926  resultPtr := add(resultPtr, 1) */\n      swap4\n      pop\n        /* \"@openzeppelin/contracts/utils/Base64.sol\":3005:3009  0x3F */\n      0x3f\n        /* \"@openzeppelin/contracts/utils/Base64.sol\":2998:3003  input */\n      dup2\n        /* \"@openzeppelin/contracts/utils/Base64.sol\":2994:3010  and(input, 0x3F) */\n      and\n        /* \"@openzeppelin/contracts/utils/Base64.sol\":2984:2992  tablePtr */\n      dup6\n        /* \"@openzeppelin/contracts/utils/Base64.sol\":2980:3011  add(tablePtr, and(input, 0x3F)) */\n      add\n        /* \"@openzeppelin/contracts/utils/Base64.sol\":2974:3012  mload(add(tablePtr, and(input, 0x3F))) */\n      mload\n        /* \"@openzeppelin/contracts/utils/Base64.sol\":2963:2972  resultPtr */\n      dup5\n        /* \"@openzeppelin/contracts/utils/Base64.sol\":2955:3013  mstore8(resultPtr, mload(add(tablePtr, and(input, 0x3F)))) */\n      mstore8\n      pop\n        /* \"@openzeppelin/contracts/utils/Base64.sol\":3058:3059  1 */\n      0x01\n        /* \"@openzeppelin/contracts/utils/Base64.sol\":3047:3056  resultPtr */\n      dup4\n        /* \"@openzeppelin/contracts/utils/Base64.sol\":3043:3060  add(resultPtr, 1) */\n      add\n        /* \"@openzeppelin/contracts/utils/Base64.sol\":3030:3060  resultPtr := add(resultPtr, 1) */\n      swap3\n      pop\n        /* \"@openzeppelin/contracts/utils/Base64.sol\":1682:3085  for {... */\n      jump(tag_98)\n    tag_100:\n        /* \"@openzeppelin/contracts/utils/Base64.sol\":1686:1790  {... */\n      pop\n      pop\n        /* \"@openzeppelin/contracts/utils/Base64.sol\":3243:3244  3 */\n      0x03\n        /* \"@openzeppelin/contracts/utils/Base64.sol\":3236:3240  data */\n      dup7\n        /* \"@openzeppelin/contracts/utils/Base64.sol\":3230:3241  mload(data) */\n      mload\n        /* \"@openzeppelin/contracts/utils/Base64.sol\":3226:3245  mod(mload(data), 3) */\n      mod\n        /* \"@openzeppelin/contracts/utils/Base64.sol\":3263:3264  1 */\n      0x01\n        /* \"@openzeppelin/contracts/utils/Base64.sol\":3258:3378  case 1 {... */\n      dup2\n      eq\n      tag_102\n      jumpi\n        /* \"@openzeppelin/contracts/utils/Base64.sol\":3396:3397  2 */\n      0x02\n        /* \"@openzeppelin/contracts/utils/Base64.sol\":3391:3462  case 2 {... */\n      dup2\n      eq\n      tag_103\n      jumpi\n        /* \"@openzeppelin/contracts/utils/Base64.sol\":3219:3462  switch mod(mload(data), 3)... */\n      jump(tag_101)\n        /* \"@openzeppelin/contracts/utils/Base64.sol\":3258:3378  case 1 {... */\n    tag_102:\n        /* \"@openzeppelin/contracts/utils/Base64.sol\":3310:3314  0x3d */\n      0x3d\n        /* \"@openzeppelin/contracts/utils/Base64.sol\":3306:3307  1 */\n      0x01\n        /* \"@openzeppelin/contracts/utils/Base64.sol\":3295:3304  resultPtr */\n      dup4\n        /* \"@openzeppelin/contracts/utils/Base64.sol\":3291:3308  sub(resultPtr, 1) */\n      sub\n        /* \"@openzeppelin/contracts/utils/Base64.sol\":3283:3315  mstore8(sub(resultPtr, 1), 0x3d) */\n      mstore8\n        /* \"@openzeppelin/contracts/utils/Base64.sol\":3359:3363  0x3d */\n      0x3d\n        /* \"@openzeppelin/contracts/utils/Base64.sol\":3355:3356  2 */\n      0x02\n        /* \"@openzeppelin/contracts/utils/Base64.sol\":3344:3353  resultPtr */\n      dup4\n        /* \"@openzeppelin/contracts/utils/Base64.sol\":3340:3357  sub(resultPtr, 2) */\n      sub\n        /* \"@openzeppelin/contracts/utils/Base64.sol\":3332:3364  mstore8(sub(resultPtr, 2), 0x3d) */\n      mstore8\n        /* \"@openzeppelin/contracts/utils/Base64.sol\":3258:3378  case 1 {... */\n      jump(tag_101)\n        /* \"@openzeppelin/contracts/utils/Base64.sol\":3391:3462  case 2 {... */\n    tag_103:\n        /* \"@openzeppelin/contracts/utils/Base64.sol\":3443:3447  0x3d */\n      0x3d\n        /* \"@openzeppelin/contracts/utils/Base64.sol\":3439:3440  1 */\n      0x01\n        /* \"@openzeppelin/contracts/utils/Base64.sol\":3428:3437  resultPtr */\n      dup4\n        /* \"@openzeppelin/contracts/utils/Base64.sol\":3424:3441  sub(resultPtr, 1) */\n      sub\n        /* \"@openzeppelin/contracts/utils/Base64.sol\":3416:3448  mstore8(sub(resultPtr, 1), 0x3d) */\n      mstore8\n        /* \"@openzeppelin/contracts/utils/Base64.sol\":3219:3462  switch mod(mload(data), 3)... */\n    tag_101:\n      pop\n        /* \"@openzeppelin/contracts/utils/Base64.sol\":3489:3495  result */\n      swap2\n      swap6\n        /* \"@openzeppelin/contracts/utils/Base64.sol\":476:3502  function encode(bytes memory data) internal pure returns (string memory) {... */\n      swap5\n      pop\n      pop\n      pop\n      pop\n      pop\n      jump\t// out\n        /* \"@openzeppelin/contracts/utils/Strings.sol\":637:1335  function toString(uint256 value) internal pure returns (string memory) {... */\n    tag_49:\n        /* \"@openzeppelin/contracts/utils/Strings.sol\":693:706  string memory */\n      0x60\n        /* \"@openzeppelin/contracts/utils/Strings.sol\":742:756  uint256 length */\n      0x00\n        /* \"@openzeppelin/contracts/utils/Strings.sol\":759:776  Math.log10(value) */\n      tag_107\n        /* \"@openzeppelin/contracts/utils/Strings.sol\":770:775  value */\n      dup4\n        /* \"@openzeppelin/contracts/utils/Strings.sol\":759:769  Math.log10 */\n      tag_108\n        /* \"@openzeppelin/contracts/utils/Strings.sol\":759:776  Math.log10(value) */\n      jump\t// in\n    tag_107:\n        /* \"@openzeppelin/contracts/utils/Strings.sol\":779:780  1 */\n      0x01\n        /* \"@openzeppelin/contracts/utils/Strings.sol\":759:780  Math.log10(value) + 1 */\n      add\n        /* \"@openzeppelin/contracts/utils/Strings.sol\":742:780  uint256 length = Math.log10(value) + 1 */\n      swap1\n      pop\n        /* \"@openzeppelin/contracts/utils/Strings.sol\":794:814  string memory buffer */\n      0x00\n        /* \"@openzeppelin/contracts/utils/Strings.sol\":828:834  length */\n      dup2\n        /* \"@openzeppelin/contracts/utils/Strings.sol\":817:835  new string(length) */\n      0xffffffffffffffff\n      dup2\n      gt\n      iszero\n      tag_110\n      jumpi\n      tag_110\n      tag_96\n      jump\t// in\n    tag_110:\n      mload(0x40)\n      swap1\n      dup1\n      dup3\n      mstore\n      dup1\n      0x1f\n      add\n      not(0x1f)\n      and\n      0x20\n      add\n      dup3\n      add\n      0x40\n      mstore\n      dup1\n      iszero\n      tag_111\n      jumpi\n      0x20\n      dup3\n      add\n      dup2\n      dup1\n      calldatasize\n      dup4\n      calldatacopy\n      add\n      swap1\n      pop\n    tag_111:\n      pop\n        /* \"@openzeppelin/contracts/utils/Strings.sol\":794:835  string memory buffer = new string(length) */\n      swap1\n      pop\n        /* \"@openzeppelin/contracts/utils/Strings.sol\":955:983  add(buffer, add(32, length)) */\n      dup2\n      dup2\n      add\n        /* \"@openzeppelin/contracts/utils/Strings.sol\":971:973  32 */\n      0x20\n        /* \"@openzeppelin/contracts/utils/Strings.sol\":955:983  add(buffer, add(32, length)) */\n      add\n        /* \"@openzeppelin/contracts/utils/Strings.sol\":1010:1292  while (true) {... */\n    tag_112:\n      not(0x00)\n        /* \"@openzeppelin/contracts/utils/Strings.sol\":1041:1046  ptr-- */\n      add\n      shl(0x81, 0x181899199a1a9b1b9c1cb0b131b232b3)\n        /* \"@openzeppelin/contracts/utils/Strings.sol\":1175:1177  10 */\n      0x0a\n        /* \"@openzeppelin/contracts/utils/Strings.sol\":1164:1178  mod(value, 10) */\n      dup7\n      mod\n        /* \"@openzeppelin/contracts/utils/Strings.sol\":1159:1191  byte(mod(value, 10), HEX_DIGITS) */\n      byte\n        /* \"@openzeppelin/contracts/utils/Strings.sol\":1041:1046  ptr-- */\n      dup2\n        /* \"@openzeppelin/contracts/utils/Strings.sol\":1146:1192  mstore8(ptr, byte(mod(value, 10), HEX_DIGITS)) */\n      mstore8\n        /* \"@openzeppelin/contracts/utils/Strings.sol\":1236:1238  10 */\n      0x0a\n        /* \"@openzeppelin/contracts/utils/Strings.sol\":1227:1238  value /= 10 */\n      dup6\n      div\n      swap5\n      pop\n        /* \"@openzeppelin/contracts/utils/Strings.sol\":1256:1277  if (value == 0) break */\n      dup5\n        /* \"@openzeppelin/contracts/utils/Strings.sol\":1010:1292  while (true) {... */\n      tag_112\n        /* \"@openzeppelin/contracts/utils/Strings.sol\":1256:1277  if (value == 0) break */\n      jumpi\n      pop\n        /* \"@openzeppelin/contracts/utils/Strings.sol\":1312:1318  buffer */\n      swap4\n        /* \"@openzeppelin/contracts/utils/Strings.sol\":637:1335  function toString(uint256 value) internal pure returns (string memory) {... */\n      swap3\n      pop\n      pop\n      pop\n      jump\t// out\n        /* \"contracts/periphery/ERC3525MetadataDescriptor.sol\":3976:4282  function _tokenName(uint256 tokenId_) internal view virtual returns (string memory) {... */\n    tag_56:\n        /* \"contracts/periphery/ERC3525MetadataDescriptor.sol\":4045:4058  string memory */\n      0x60\n        /* \"contracts/periphery/ERC3525MetadataDescriptor.sol\":4177:4187  msg.sender */\n      caller\n      sub(shl(0xa0, 0x01), 0x01)\n        /* \"contracts/periphery/ERC3525MetadataDescriptor.sol\":4160:4193  IERC3525Metadata(msg.sender).name */\n      and\n      0x06fdde03\n        /* \"contracts/periphery/ERC3525MetadataDescriptor.sol\":4160:4195  IERC3525Metadata(msg.sender).name() */\n      mload(0x40)\n      dup2\n      0xffffffff\n      and\n      0xe0\n      shl\n      dup2\n      mstore\n      0x04\n      add\n      0x00\n      mload(0x40)\n      dup1\n      dup4\n      sub\n      dup2\n      dup7\n      gas\n      staticcall\n      iszero\n      dup1\n      iszero\n      tag_120\n      jumpi\n      returndatasize\n      0x00\n      dup1\n      returndatacopy\n      revert(0x00, returndatasize)\n    tag_120:\n      pop\n      pop\n      pop\n      pop\n      mload(0x40)\n      returndatasize\n      0x00\n      dup3\n      returndatacopy\n      0x1f\n      returndatasize\n      swap1\n      dup2\n      add\n      not(0x1f)\n      and\n      dup3\n      add\n      0x40\n      mstore\n      tag_121\n      swap2\n      swap1\n      dup2\n      add\n      swap1\n      tag_39\n      jump\t// in\n    tag_121:\n        /* \"contracts/periphery/ERC3525MetadataDescriptor.sol\":4224:4243  tokenId_.toString() */\n      tag_122\n        /* \"contracts/periphery/ERC3525MetadataDescriptor.sol\":4224:4232  tokenId_ */\n      dup4\n        /* \"contracts/periphery/ERC3525MetadataDescriptor.sol\":4224:4241  tokenId_.toString */\n      tag_49\n        /* \"contracts/periphery/ERC3525MetadataDescriptor.sol\":4224:4243  tokenId_.toString() */\n      jump\t// in\n    tag_122:\n        /* \"contracts/periphery/ERC3525MetadataDescriptor.sol\":4122:4261  abi.encodePacked(... */\n      add(0x20, mload(0x40))\n      tag_32\n      swap3\n      swap2\n      swap1\n      tag_124\n      jump\t// in\n        /* \"@openzeppelin/contracts/utils/math/Math.sol\":12214:13130  function log10(uint256 value) internal pure returns (uint256) {... */\n    tag_108:\n        /* \"@openzeppelin/contracts/utils/math/Math.sol\":12267:12274  uint256 */\n      0x00\n      dup1\n      shl(0x40, 0x184f03e93ff9f4daa797ed6e38ed64bf6a1f01)\n        /* \"@openzeppelin/contracts/utils/math/Math.sol\":12342:12359  value >= 10 ** 64 */\n      dup4\n      lt\n        /* \"@openzeppelin/contracts/utils/math/Math.sol\":12338:12441  if (value >= 10 ** 64) {... */\n      tag_129\n      jumpi\n      shl(0x40, 0x184f03e93ff9f4daa797ed6e38ed64bf6a1f01)\n        /* \"@openzeppelin/contracts/utils/math/Math.sol\":12379:12396  value /= 10 ** 64 */\n      dup4\n      div\n      swap3\n      pop\n        /* \"@openzeppelin/contracts/utils/math/Math.sol\":12424:12426  64 */\n      0x40\n        /* \"@openzeppelin/contracts/utils/math/Math.sol\":12414:12426  result += 64 */\n      add\n        /* \"@openzeppelin/contracts/utils/math/Math.sol\":12338:12441  if (value >= 10 ** 64) {... */\n    tag_129:\n        /* \"@openzeppelin/contracts/utils/math/Math.sol\":12467:12475  10 ** 32 */\n      0x04ee2d6d415b85acef8100000000\n        /* \"@openzeppelin/contracts/utils/math/Math.sol\":12458:12463  value */\n      dup4\n        /* \"@openzeppelin/contracts/utils/math/Math.sol\":12458:12475  value >= 10 ** 32 */\n      lt\n        /* \"@openzeppelin/contracts/utils/math/Math.sol\":12454:12557  if (value >= 10 ** 32) {... */\n      tag_132\n      jumpi\n        /* \"@openzeppelin/contracts/utils/math/Math.sol\":12504:12512  10 ** 32 */\n      0x04ee2d6d415b85acef8100000000\n        /* \"@openzeppelin/contracts/utils/math/Math.sol\":12495:12512  value /= 10 ** 32 */\n      dup4\n      div\n      swap3\n      pop\n        /* \"@openzeppelin/contracts/utils/math/Math.sol\":12540:12542  32 */\n      0x20\n        /* \"@openzeppelin/contracts/utils/math/Math.sol\":12530:12542  result += 32 */\n      add\n        /* \"@openzeppelin/contracts/utils/math/Math.sol\":12454:12557  if (value >= 10 ** 32) {... */\n    tag_132:\n        /* \"@openzeppelin/contracts/utils/math/Math.sol\":12583:12591  10 ** 16 */\n      0x2386f26fc10000\n        /* \"@openzeppelin/contracts/utils/math/Math.sol\":12574:12579  value */\n      dup4\n        /* \"@openzeppelin/contracts/utils/math/Math.sol\":12574:12591  value >= 10 ** 16 */\n      lt\n        /* \"@openzeppelin/contracts/utils/math/Math.sol\":12570:12673  if (value >= 10 ** 16) {... */\n      tag_135\n      jumpi\n        /* \"@openzeppelin/contracts/utils/math/Math.sol\":12620:12628  10 ** 16 */\n      0x2386f26fc10000\n        /* \"@openzeppelin/contracts/utils/math/Math.sol\":12611:12628  value /= 10 ** 16 */\n      dup4\n      div\n      swap3\n      pop\n        /* \"@openzeppelin/contracts/utils/math/Math.sol\":12656:12658  16 */\n      0x10\n        /* \"@openzeppelin/contracts/utils/math/Math.sol\":12646:12658  result += 16 */\n      add\n        /* \"@openzeppelin/contracts/utils/math/Math.sol\":12570:12673  if (value >= 10 ** 16) {... */\n    tag_135:\n        /* \"@openzeppelin/contracts/utils/math/Math.sol\":12699:12706  10 ** 8 */\n      0x05f5e100\n        /* \"@openzeppelin/contracts/utils/math/Math.sol\":12690:12695  value */\n      dup4\n        /* \"@openzeppelin/contracts/utils/math/Math.sol\":12690:12706  value >= 10 ** 8 */\n      lt\n        /* \"@openzeppelin/contracts/utils/math/Math.sol\":12686:12786  if (value >= 10 ** 8) {... */\n      tag_138\n      jumpi\n        /* \"@openzeppelin/contracts/utils/math/Math.sol\":12735:12742  10 ** 8 */\n      0x05f5e100\n        /* \"@openzeppelin/contracts/utils/math/Math.sol\":12726:12742  value /= 10 ** 8 */\n      dup4\n      div\n      swap3\n      pop\n        /* \"@openzeppelin/contracts/utils/math/Math.sol\":12770:12771  8 */\n      0x08\n        /* \"@openzeppelin/contracts/utils/math/Math.sol\":12760:12771  result += 8 */\n      add\n        /* \"@openzeppelin/contracts/utils/math/Math.sol\":12686:12786  if (value >= 10 ** 8) {... */\n    tag_138:\n        /* \"@openzeppelin/contracts/utils/math/Math.sol\":12812:12819  10 ** 4 */\n      0x2710\n        /* \"@openzeppelin/contracts/utils/math/Math.sol\":12803:12808  value */\n      dup4\n        /* \"@openzeppelin/contracts/utils/math/Math.sol\":12803:12819  value >= 10 ** 4 */\n      lt\n        /* \"@openzeppelin/contracts/utils/math/Math.sol\":12799:12899  if (value >= 10 ** 4) {... */\n      tag_141\n      jumpi\n        /* \"@openzeppelin/contracts/utils/math/Math.sol\":12848:12855  10 ** 4 */\n      0x2710\n        /* \"@openzeppelin/contracts/utils/math/Math.sol\":12839:12855  value /= 10 ** 4 */\n      dup4\n      div\n      swap3\n      pop\n        /* \"@openzeppelin/contracts/utils/math/Math.sol\":12883:12884  4 */\n      0x04\n        /* \"@openzeppelin/contracts/utils/math/Math.sol\":12873:12884  result += 4 */\n      add\n        /* \"@openzeppelin/contracts/utils/math/Math.sol\":12799:12899  if (value >= 10 ** 4) {... */\n    tag_141:\n        /* \"@openzeppelin/contracts/utils/math/Math.sol\":12925:12932  10 ** 2 */\n      0x64\n        /* \"@openzeppelin/contracts/utils/math/Math.sol\":12916:12921  value */\n      dup4\n        /* \"@openzeppelin/contracts/utils/math/Math.sol\":12916:12932  value >= 10 ** 2 */\n      lt\n        /* \"@openzeppelin/contracts/utils/math/Math.sol\":12912:13012  if (value >= 10 ** 2) {... */\n      tag_144\n      jumpi\n        /* \"@openzeppelin/contracts/utils/math/Math.sol\":12961:12968  10 ** 2 */\n      0x64\n        /* \"@openzeppelin/contracts/utils/math/Math.sol\":12952:12968  value /= 10 ** 2 */\n      dup4\n      div\n      swap3\n      pop\n        /* \"@openzeppelin/contracts/utils/math/Math.sol\":12996:12997  2 */\n      0x02\n        /* \"@openzeppelin/contracts/utils/math/Math.sol\":12986:12997  result += 2 */\n      add\n        /* \"@openzeppelin/contracts/utils/math/Math.sol\":12912:13012  if (value >= 10 ** 2) {... */\n    tag_144:\n        /* \"@openzeppelin/contracts/utils/math/Math.sol\":13038:13045  10 ** 1 */\n      0x0a\n        /* \"@openzeppelin/contracts/utils/math/Math.sol\":13029:13034  value */\n      dup4\n        /* \"@openzeppelin/contracts/utils/math/Math.sol\":13029:13045  value >= 10 ** 1 */\n      lt\n        /* \"@openzeppelin/contracts/utils/math/Math.sol\":13025:13091  if (value >= 10 ** 1) {... */\n      tag_84\n      jumpi\n        /* \"@openzeppelin/contracts/utils/math/Math.sol\":13075:13076  1 */\n      0x01\n        /* \"@openzeppelin/contracts/utils/math/Math.sol\":13065:13076  result += 1 */\n      add\n        /* \"@openzeppelin/contracts/utils/math/Math.sol\":13117:13123  result */\n      swap3\n        /* \"@openzeppelin/contracts/utils/math/Math.sol\":12214:13130  function log10(uint256 value) internal pure returns (uint256) {... */\n      swap2\n      pop\n      pop\n      jump\t// out\n        /* \"#utility.yul\":14:194   */\n    tag_8:\n        /* \"#utility.yul\":73:79   */\n      0x00\n        /* \"#utility.yul\":126:128   */\n      0x20\n        /* \"#utility.yul\":114:123   */\n      dup3\n        /* \"#utility.yul\":105:112   */\n      dup5\n        /* \"#utility.yul\":101:124   */\n      sub\n        /* \"#utility.yul\":97:129   */\n      slt\n        /* \"#utility.yul\":94:146   */\n      iszero\n      tag_155\n      jumpi\n        /* \"#utility.yul\":142:143   */\n      0x00\n        /* \"#utility.yul\":139:140   */\n      dup1\n        /* \"#utility.yul\":132:144   */\n      revert\n        /* \"#utility.yul\":94:146   */\n    tag_155:\n      pop\n        /* \"#utility.yul\":165:188   */\n      calldataload\n      swap2\n        /* \"#utility.yul\":14:194   */\n      swap1\n      pop\n      jump\t// out\n        /* \"#utility.yul\":199:449   */\n    tag_148:\n        /* \"#utility.yul\":284:285   */\n      0x00\n        /* \"#utility.yul\":294:407   */\n    tag_157:\n        /* \"#utility.yul\":308:314   */\n      dup4\n        /* \"#utility.yul\":305:306   */\n      dup2\n        /* \"#utility.yul\":302:315   */\n      lt\n        /* \"#utility.yul\":294:407   */\n      iszero\n      tag_159\n      jumpi\n        /* \"#utility.yul\":384:395   */\n      dup2\n      dup2\n      add\n        /* \"#utility.yul\":378:396   */\n      mload\n        /* \"#utility.yul\":365:376   */\n      dup4\n      dup3\n      add\n        /* \"#utility.yul\":358:397   */\n      mstore\n        /* \"#utility.yul\":330:332   */\n      0x20\n        /* \"#utility.yul\":323:333   */\n      add\n        /* \"#utility.yul\":294:407   */\n      jump(tag_157)\n    tag_159:\n      pop\n      pop\n        /* \"#utility.yul\":441:442   */\n      0x00\n        /* \"#utility.yul\":423:439   */\n      swap2\n      add\n        /* \"#utility.yul\":416:443   */\n      mstore\n        /* \"#utility.yul\":199:449   */\n      jump\t// out\n        /* \"#utility.yul\":454:850   */\n    tag_11:\n        /* \"#utility.yul\":603:605   */\n      0x20\n        /* \"#utility.yul\":592:601   */\n      dup2\n        /* \"#utility.yul\":585:606   */\n      mstore\n        /* \"#utility.yul\":566:570   */\n      0x00\n        /* \"#utility.yul\":635:641   */\n      dup3\n        /* \"#utility.yul\":629:642   */\n      mload\n        /* \"#utility.yul\":678:684   */\n      dup1\n        /* \"#utility.yul\":673:675   */\n      0x20\n        /* \"#utility.yul\":662:671   */\n      dup5\n        /* \"#utility.yul\":658:676   */\n      add\n        /* \"#utility.yul\":651:685   */\n      mstore\n        /* \"#utility.yul\":694:773   */\n      tag_161\n        /* \"#utility.yul\":766:772   */\n      dup2\n        /* \"#utility.yul\":761:763   */\n      0x40\n        /* \"#utility.yul\":750:759   */\n      dup6\n        /* \"#utility.yul\":746:764   */\n      add\n        /* \"#utility.yul\":741:743   */\n      0x20\n        /* \"#utility.yul\":733:739   */\n      dup8\n        /* \"#utility.yul\":729:744   */\n      add\n        /* \"#utility.yul\":694:773   */\n      tag_148\n      jump\t// in\n    tag_161:\n        /* \"#utility.yul\":834:836   */\n      0x1f\n        /* \"#utility.yul\":813:828   */\n      add\n      not(0x1f)\n        /* \"#utility.yul\":809:838   */\n      and\n        /* \"#utility.yul\":794:839   */\n      swap2\n      swap1\n      swap2\n      add\n        /* \"#utility.yul\":841:843   */\n      0x40\n        /* \"#utility.yul\":790:844   */\n      add\n      swap3\n        /* \"#utility.yul\":454:850   */\n      swap2\n      pop\n      pop\n      jump\t// out\n        /* \"#utility.yul\":855:1053   */\n    tag_149:\n        /* \"#utility.yul\":897:900   */\n      0x00\n        /* \"#utility.yul\":935:940   */\n      dup2\n        /* \"#utility.yul\":929:941   */\n      mload\n        /* \"#utility.yul\":950:1015   */\n      tag_163\n        /* \"#utility.yul\":1008:1014   */\n      dup2\n        /* \"#utility.yul\":1003:1006   */\n      dup6\n        /* \"#utility.yul\":996:1000   */\n      0x20\n        /* \"#utility.yul\":989:994   */\n      dup7\n        /* \"#utility.yul\":985:1001   */\n      add\n        /* \"#utility.yul\":950:1015   */\n      tag_148\n      jump\t// in\n    tag_163:\n        /* \"#utility.yul\":1031:1047   */\n      swap3\n      swap1\n      swap3\n      add\n      swap3\n        /* \"#utility.yul\":855:1053   */\n      swap2\n      pop\n      pop\n      jump\t// out\n        /* \"#utility.yul\":1336:3083   */\n    tag_30:\n      shl(0xb9, 0x3d913730b6b2911d11)\n        /* \"#utility.yul\":2132:2175   */\n      dup2\n      mstore\n        /* \"#utility.yul\":2198:2211   */\n      dup5\n      mload\n        /* \"#utility.yul\":2114:2117   */\n      0x00\n      swap1\n        /* \"#utility.yul\":2220:2294   */\n      tag_167\n        /* \"#utility.yul\":2198:2211   */\n      dup2\n        /* \"#utility.yul\":2283:2284   */\n      0x09\n        /* \"#utility.yul\":2274:2285   */\n      dup6\n      add\n        /* \"#utility.yul\":2267:2271   */\n      0x20\n        /* \"#utility.yul\":2255:2272   */\n      dup11\n      add\n        /* \"#utility.yul\":2220:2294   */\n      tag_148\n      jump\t// in\n    tag_167:\n      shl(0x79, 0x1116113232b9b1b934b83a34b7b7111d11)\n        /* \"#utility.yul\":2353:2354   */\n      0x09\n        /* \"#utility.yul\":2313:2329   */\n      swap2\n      dup5\n      add\n        /* \"#utility.yul\":2345:2355   */\n      swap2\n      dup3\n      add\n        /* \"#utility.yul\":2338:2404   */\n      mstore\n        /* \"#utility.yul\":2429:2442   */\n      dup6\n      mload\n        /* \"#utility.yul\":2451:2527   */\n      tag_168\n        /* \"#utility.yul\":2429:2442   */\n      dup2\n        /* \"#utility.yul\":2513:2515   */\n      0x1a\n        /* \"#utility.yul\":2505:2516   */\n      dup5\n      add\n        /* \"#utility.yul\":2498:2502   */\n      0x20\n        /* \"#utility.yul\":2486:2503   */\n      dup11\n      add\n        /* \"#utility.yul\":2451:2527   */\n      tag_148\n      jump\t// in\n    tag_168:\n      shl(0xa9, 0x11161134b6b0b3b2911d11)\n        /* \"#utility.yul\":2587:2589   */\n      0x1a\n        /* \"#utility.yul\":2546:2563   */\n      swap3\n      swap1\n      swap2\n      add\n        /* \"#utility.yul\":2579:2590   */\n      swap2\n      dup3\n      add\n        /* \"#utility.yul\":2572:2627   */\n      mstore\n        /* \"#utility.yul\":2652:2665   */\n      dup5\n      mload\n        /* \"#utility.yul\":2674:2750   */\n      tag_169\n        /* \"#utility.yul\":2652:2665   */\n      dup2\n        /* \"#utility.yul\":2736:2738   */\n      0x25\n        /* \"#utility.yul\":2728:2739   */\n      dup5\n      add\n        /* \"#utility.yul\":2721:2725   */\n      0x20\n        /* \"#utility.yul\":2709:2726   */\n      dup10\n      add\n        /* \"#utility.yul\":2674:2750   */\n      tag_148\n      jump\t// in\n    tag_169:\n      shl(0x89, 0x111611383937b832b93a34b2b9911d)\n        /* \"#utility.yul\":2810:2812   */\n      0x25\n        /* \"#utility.yul\":2769:2786   */\n      swap3\n      swap1\n      swap2\n      add\n        /* \"#utility.yul\":2802:2813   */\n      swap2\n      dup3\n      add\n        /* \"#utility.yul\":2795:2858   */\n      mstore\n        /* \"#utility.yul\":2883:2896   */\n      dup4\n      mload\n        /* \"#utility.yul\":2905:2981   */\n      tag_170\n        /* \"#utility.yul\":2883:2896   */\n      dup2\n        /* \"#utility.yul\":2967:2969   */\n      0x34\n        /* \"#utility.yul\":2959:2970   */\n      dup5\n      add\n        /* \"#utility.yul\":2952:2956   */\n      0x20\n        /* \"#utility.yul\":2940:2957   */\n      dup9\n      add\n        /* \"#utility.yul\":2905:2981   */\n      tag_148\n      jump\t// in\n    tag_170:\n      shl(0xf8, 0x7d)\n        /* \"#utility.yul\":3041:3043   */\n      0x34\n        /* \"#utility.yul\":3000:3017   */\n      swap3\n      swap1\n      swap2\n      add\n        /* \"#utility.yul\":3033:3044   */\n      swap2\n      dup3\n      add\n        /* \"#utility.yul\":3026:3050   */\n      mstore\n        /* \"#utility.yul\":3074:3076   */\n      0x35\n        /* \"#utility.yul\":3066:3077   */\n      add\n      swap7\n        /* \"#utility.yul\":1336:3083   */\n      swap6\n      pop\n      pop\n      pop\n      pop\n      pop\n      pop\n      jump\t// out\n        /* \"#utility.yul\":3088:3549   */\n    tag_33:\n        /* \"#utility.yul\":3350:3381   */\n      0x646174613a6170706c69636174696f6e2f6a736f6e3b6261736536342c000000\n        /* \"#utility.yul\":3345:3348   */\n      dup2\n        /* \"#utility.yul\":3338:3382   */\n      mstore\n        /* \"#utility.yul\":3320:3323   */\n      0x00\n        /* \"#utility.yul\":3411:3417   */\n      dup3\n        /* \"#utility.yul\":3405:3418   */\n      mload\n        /* \"#utility.yul\":3427:3502   */\n      tag_172\n        /* \"#utility.yul\":3495:3501   */\n      dup2\n        /* \"#utility.yul\":3490:3492   */\n      0x1d\n        /* \"#utility.yul\":3485:3488   */\n      dup6\n        /* \"#utility.yul\":3481:3493   */\n      add\n        /* \"#utility.yul\":3474:3478   */\n      0x20\n        /* \"#utility.yul\":3466:3472   */\n      dup8\n        /* \"#utility.yul\":3462:3479   */\n      add\n        /* \"#utility.yul\":3427:3502   */\n      tag_148\n      jump\t// in\n    tag_172:\n        /* \"#utility.yul\":3522:3538   */\n      swap2\n      swap1\n      swap2\n      add\n        /* \"#utility.yul\":3540:3542   */\n      0x1d\n        /* \"#utility.yul\":3518:3543   */\n      add\n      swap3\n        /* \"#utility.yul\":3088:3549   */\n      swap2\n      pop\n      pop\n      jump\t// out\n        /* \"#utility.yul\":3554:3681   */\n    tag_96:\n        /* \"#utility.yul\":3615:3625   */\n      0x4e487b71\n        /* \"#utility.yul\":3610:3613   */\n      0xe0\n        /* \"#utility.yul\":3606:3626   */\n      shl\n        /* \"#utility.yul\":3603:3604   */\n      0x00\n        /* \"#utility.yul\":3596:3627   */\n      mstore\n        /* \"#utility.yul\":3646:3650   */\n      0x41\n        /* \"#utility.yul\":3643:3644   */\n      0x04\n        /* \"#utility.yul\":3636:3651   */\n      mstore\n        /* \"#utility.yul\":3670:3674   */\n      0x24\n        /* \"#utility.yul\":3667:3668   */\n      0x00\n        /* \"#utility.yul\":3660:3675   */\n      revert\n        /* \"#utility.yul\":3686:4583   */\n    tag_39:\n        /* \"#utility.yul\":3766:3772   */\n      0x00\n        /* \"#utility.yul\":3819:3821   */\n      0x20\n        /* \"#utility.yul\":3807:3816   */\n      dup3\n        /* \"#utility.yul\":3798:3805   */\n      dup5\n        /* \"#utility.yul\":3794:3817   */\n      sub\n        /* \"#utility.yul\":3790:3822   */\n      slt\n        /* \"#utility.yul\":3787:3839   */\n      iszero\n      tag_175\n      jumpi\n        /* \"#utility.yul\":3835:3836   */\n      0x00\n        /* \"#utility.yul\":3832:3833   */\n      dup1\n        /* \"#utility.yul\":3825:3837   */\n      revert\n        /* \"#utility.yul\":3787:3839   */\n    tag_175:\n        /* \"#utility.yul\":3868:3877   */\n      dup2\n        /* \"#utility.yul\":3862:3878   */\n      mload\n        /* \"#utility.yul\":3897:3915   */\n      0xffffffffffffffff\n        /* \"#utility.yul\":3938:3940   */\n      dup1\n        /* \"#utility.yul\":3930:3936   */\n      dup3\n        /* \"#utility.yul\":3927:3941   */\n      gt\n        /* \"#utility.yul\":3924:3958   */\n      iszero\n      tag_176\n      jumpi\n        /* \"#utility.yul\":3954:3955   */\n      0x00\n        /* \"#utility.yul\":3951:3952   */\n      dup1\n        /* \"#utility.yul\":3944:3956   */\n      revert\n        /* \"#utility.yul\":3924:3958   */\n    tag_176:\n        /* \"#utility.yul\":3992:3998   */\n      dup2\n        /* \"#utility.yul\":3981:3990   */\n      dup5\n        /* \"#utility.yul\":3977:3999   */\n      add\n        /* \"#utility.yul\":3967:3999   */\n      swap2\n      pop\n        /* \"#utility.yul\":4037:4044   */\n      dup5\n        /* \"#utility.yul\":4030:4034   */\n      0x1f\n        /* \"#utility.yul\":4026:4028   */\n      dup4\n        /* \"#utility.yul\":4022:4035   */\n      add\n        /* \"#utility.yul\":4018:4045   */\n      slt\n        /* \"#utility.yul\":4008:4063   */\n      tag_177\n      jumpi\n        /* \"#utility.yul\":4059:4060   */\n      0x00\n        /* \"#utility.yul\":4056:4057   */\n      dup1\n        /* \"#utility.yul\":4049:4061   */\n      revert\n        /* \"#utility.yul\":4008:4063   */\n    tag_177:\n        /* \"#utility.yul\":4088:4090   */\n      dup2\n        /* \"#utility.yul\":4082:4091   */\n      mload\n        /* \"#utility.yul\":4110:4112   */\n      dup2\n        /* \"#utility.yul\":4106:4108   */\n      dup2\n        /* \"#utility.yul\":4103:4113   */\n      gt\n        /* \"#utility.yul\":4100:4136   */\n      iszero\n      tag_179\n      jumpi\n        /* \"#utility.yul\":4116:4134   */\n      tag_179\n      tag_96\n      jump\t// in\n    tag_179:\n        /* \"#utility.yul\":4191:4193   */\n      0x40\n        /* \"#utility.yul\":4185:4194   */\n      mload\n        /* \"#utility.yul\":4159:4161   */\n      0x1f\n        /* \"#utility.yul\":4245:4258   */\n      dup3\n      add\n      not(0x1f)\n        /* \"#utility.yul\":4241:4263   */\n      swap1\n      dup2\n      and\n        /* \"#utility.yul\":4265:4267   */\n      0x3f\n        /* \"#utility.yul\":4237:4268   */\n      add\n        /* \"#utility.yul\":4233:4273   */\n      and\n        /* \"#utility.yul\":4221:4274   */\n      dup2\n      add\n      swap1\n        /* \"#utility.yul\":4289:4307   */\n      dup4\n      dup3\n      gt\n        /* \"#utility.yul\":4309:4331   */\n      dup2\n      dup4\n      lt\n        /* \"#utility.yul\":4286:4332   */\n      or\n        /* \"#utility.yul\":4283:4355   */\n      iszero\n      tag_181\n      jumpi\n        /* \"#utility.yul\":4335:4353   */\n      tag_181\n      tag_96\n      jump\t// in\n    tag_181:\n        /* \"#utility.yul\":4375:4385   */\n      dup2\n        /* \"#utility.yul\":4371:4373   */\n      0x40\n        /* \"#utility.yul\":4364:4386   */\n      mstore\n        /* \"#utility.yul\":4410:4412   */\n      dup3\n        /* \"#utility.yul\":4402:4408   */\n      dup2\n        /* \"#utility.yul\":4395:4413   */\n      mstore\n        /* \"#utility.yul\":4450:4457   */\n      dup8\n        /* \"#utility.yul\":4445:4447   */\n      0x20\n        /* \"#utility.yul\":4440:4442   */\n      dup5\n        /* \"#utility.yul\":4436:4438   */\n      dup8\n        /* \"#utility.yul\":4432:4443   */\n      add\n        /* \"#utility.yul\":4428:4448   */\n      add\n        /* \"#utility.yul\":4425:4458   */\n      gt\n        /* \"#utility.yul\":4422:4475   */\n      iszero\n      tag_182\n      jumpi\n        /* \"#utility.yul\":4471:4472   */\n      0x00\n        /* \"#utility.yul\":4468:4469   */\n      dup1\n        /* \"#utility.yul\":4461:4473   */\n      revert\n        /* \"#utility.yul\":4422:4475   */\n    tag_182:\n        /* \"#utility.yul\":4484:4552   */\n      tag_183\n        /* \"#utility.yul\":4549:4551   */\n      dup4\n        /* \"#utility.yul\":4544:4546   */\n      0x20\n        /* \"#utility.yul\":4536:4542   */\n      dup4\n        /* \"#utility.yul\":4532:4547   */\n      add\n        /* \"#utility.yul\":4527:4529   */\n      0x20\n        /* \"#utility.yul\":4523:4525   */\n      dup9\n        /* \"#utility.yul\":4519:4530   */\n      add\n        /* \"#utility.yul\":4484:4552   */\n      tag_148\n      jump\t// in\n    tag_183:\n        /* \"#utility.yul\":4571:4577   */\n      swap8\n        /* \"#utility.yul\":3686:4583   */\n      swap7\n      pop\n      pop\n      pop\n      pop\n      pop\n      pop\n      pop\n      jump\t// out\n        /* \"#utility.yul\":4588:4861   */\n    tag_48:\n        /* \"#utility.yul\":4656:4662   */\n      0x00\n        /* \"#utility.yul\":4709:4711   */\n      0x20\n        /* \"#utility.yul\":4697:4706   */\n      dup3\n        /* \"#utility.yul\":4688:4695   */\n      dup5\n        /* \"#utility.yul\":4684:4707   */\n      sub\n        /* \"#utility.yul\":4680:4712   */\n      slt\n        /* \"#utility.yul\":4677:4729   */\n      iszero\n      tag_185\n      jumpi\n        /* \"#utility.yul\":4725:4726   */\n      0x00\n        /* \"#utility.yul\":4722:4723   */\n      dup1\n        /* \"#utility.yul\":4715:4727   */\n      revert\n        /* \"#utility.yul\":4677:4729   */\n    tag_185:\n        /* \"#utility.yul\":4757:4766   */\n      dup2\n        /* \"#utility.yul\":4751:4767   */\n      mload\n        /* \"#utility.yul\":4807:4811   */\n      0xff\n        /* \"#utility.yul\":4800:4805   */\n      dup2\n        /* \"#utility.yul\":4796:4812   */\n      and\n        /* \"#utility.yul\":4789:4794   */\n      dup2\n        /* \"#utility.yul\":4786:4813   */\n      eq\n        /* \"#utility.yul\":4776:4831   */\n      tag_186\n      jumpi\n        /* \"#utility.yul\":4827:4828   */\n      0x00\n        /* \"#utility.yul\":4824:4825   */\n      dup1\n        /* \"#utility.yul\":4817:4829   */\n      revert\n        /* \"#utility.yul\":4776:4831   */\n    tag_186:\n        /* \"#utility.yul\":4850:4855   */\n      swap4\n        /* \"#utility.yul\":4588:4861   */\n      swap3\n      pop\n      pop\n      pop\n      jump\t// out\n        /* \"#utility.yul\":4866:6632   */\n    tag_51:\n      shl(0xb9, 0x3d913730b6b2911d11)\n        /* \"#utility.yul\":5662:5705   */\n      dup2\n      mstore\n        /* \"#utility.yul\":5728:5741   */\n      dup5\n      mload\n        /* \"#utility.yul\":5644:5647   */\n      0x00\n      swap1\n        /* \"#utility.yul\":5750:5824   */\n      tag_188\n        /* \"#utility.yul\":5728:5741   */\n      dup2\n        /* \"#utility.yul\":5813:5814   */\n      0x09\n        /* \"#utility.yul\":5804:5815   */\n      dup6\n      add\n        /* \"#utility.yul\":5797:5801   */\n      0x20\n        /* \"#utility.yul\":5785:5802   */\n      dup11\n      add\n        /* \"#utility.yul\":5750:5824   */\n      tag_148\n      jump\t// in\n    tag_188:\n      shl(0x79, 0x1116113232b9b1b934b83a34b7b7111d11)\n        /* \"#utility.yul\":5883:5884   */\n      0x09\n        /* \"#utility.yul\":5843:5859   */\n      swap2\n      dup5\n      add\n        /* \"#utility.yul\":5875:5885   */\n      swap2\n      dup3\n      add\n        /* \"#utility.yul\":5868:5934   */\n      mstore\n        /* \"#utility.yul\":5959:5972   */\n      dup6\n      mload\n        /* \"#utility.yul\":5981:6057   */\n      tag_189\n        /* \"#utility.yul\":5959:5972   */\n      dup2\n        /* \"#utility.yul\":6043:6045   */\n      0x1a\n        /* \"#utility.yul\":6035:6046   */\n      dup5\n      add\n        /* \"#utility.yul\":6028:6032   */\n      0x20\n        /* \"#utility.yul\":6016:6033   */\n      dup11\n      add\n        /* \"#utility.yul\":5981:6057   */\n      tag_148\n      jump\t// in\n    tag_189:\n      shl(0xa9, 0x11161134b6b0b3b2911d11)\n        /* \"#utility.yul\":6117:6119   */\n      0x1a\n        /* \"#utility.yul\":6076:6093   */\n      swap3\n      swap1\n      swap2\n      add\n        /* \"#utility.yul\":6109:6120   */\n      swap2\n      dup3\n      add\n        /* \"#utility.yul\":6102:6157   */\n      mstore\n        /* \"#utility.yul\":6182:6195   */\n      dup5\n      mload\n        /* \"#utility.yul\":6204:6280   */\n      tag_190\n        /* \"#utility.yul\":6182:6195   */\n      dup2\n        /* \"#utility.yul\":6266:6268   */\n      0x25\n        /* \"#utility.yul\":6258:6269   */\n      dup5\n      add\n        /* \"#utility.yul\":6251:6255   */\n      0x20\n        /* \"#utility.yul\":6239:6256   */\n      dup10\n      add\n        /* \"#utility.yul\":6204:6280   */\n      tag_148\n      jump\t// in\n    tag_190:\n      shl(0x69, 0x1116113b30b63ab2a232b1b4b6b0b639911d11)\n        /* \"#utility.yul\":6340:6342   */\n      0x25\n        /* \"#utility.yul\":6299:6316   */\n      swap3\n      swap1\n      swap2\n      add\n        /* \"#utility.yul\":6332:6343   */\n      swap2\n      dup3\n      add\n        /* \"#utility.yul\":6325:6396   */\n      mstore\n        /* \"#utility.yul\":6421:6434   */\n      dup4\n      mload\n        /* \"#utility.yul\":6443:6519   */\n      tag_191\n        /* \"#utility.yul\":6421:6434   */\n      dup2\n        /* \"#utility.yul\":6505:6507   */\n      0x38\n        /* \"#utility.yul\":6497:6508   */\n      dup5\n      add\n        /* \"#utility.yul\":6490:6494   */\n      0x20\n        /* \"#utility.yul\":6478:6495   */\n      dup9\n      add\n        /* \"#utility.yul\":6443:6519   */\n      tag_148\n      jump\t// in\n    tag_191:\n      shl(0xf0, 0x227d)\n        /* \"#utility.yul\":6579:6581   */\n      0x38\n        /* \"#utility.yul\":6538:6555   */\n      swap3\n      swap1\n      swap2\n      add\n        /* \"#utility.yul\":6571:6582   */\n      swap2\n      dup3\n      add\n        /* \"#utility.yul\":6564:6599   */\n      mstore\n        /* \"#utility.yul\":6623:6625   */\n      0x3a\n        /* \"#utility.yul\":6615:6626   */\n      add\n      swap7\n        /* \"#utility.yul\":4866:6632   */\n      swap6\n      pop\n      pop\n      pop\n      pop\n      pop\n      pop\n      jump\t// out\n        /* \"#utility.yul\":6819:7003   */\n    tag_67:\n        /* \"#utility.yul\":6889:6895   */\n      0x00\n        /* \"#utility.yul\":6942:6944   */\n      0x20\n        /* \"#utility.yul\":6930:6939   */\n      dup3\n        /* \"#utility.yul\":6921:6928   */\n      dup5\n        /* \"#utility.yul\":6917:6940   */\n      sub\n        /* \"#utility.yul\":6913:6945   */\n      slt\n        /* \"#utility.yul\":6910:6962   */\n      iszero\n      tag_194\n      jumpi\n        /* \"#utility.yul\":6958:6959   */\n      0x00\n        /* \"#utility.yul\":6955:6956   */\n      dup1\n        /* \"#utility.yul\":6948:6960   */\n      revert\n        /* \"#utility.yul\":6910:6962   */\n    tag_194:\n      pop\n        /* \"#utility.yul\":6981:6997   */\n      mload\n      swap2\n        /* \"#utility.yul\":6819:7003   */\n      swap1\n      pop\n      jump\t// out\n        /* \"#utility.yul\":7008:9307   */\n    tag_76:\n      shl(0xb9, 0x3d913730b6b2911d11)\n        /* \"#utility.yul\":8104:8147   */\n      dup2\n      mstore\n        /* \"#utility.yul\":8170:8183   */\n      dup7\n      mload\n        /* \"#utility.yul\":8086:8089   */\n      0x00\n      swap1\n        /* \"#utility.yul\":8192:8266   */\n      tag_196\n        /* \"#utility.yul\":8170:8183   */\n      dup2\n        /* \"#utility.yul\":8255:8256   */\n      0x09\n        /* \"#utility.yul\":8246:8257   */\n      dup6\n      add\n        /* \"#utility.yul\":8239:8243   */\n      0x20\n        /* \"#utility.yul\":8227:8244   */\n      dup13\n      add\n        /* \"#utility.yul\":8192:8266   */\n      tag_148\n      jump\t// in\n    tag_196:\n      shl(0x79, 0x1116113232b9b1b934b83a34b7b7111d11)\n        /* \"#utility.yul\":8325:8326   */\n      0x09\n        /* \"#utility.yul\":8285:8301   */\n      swap2\n      dup5\n      add\n        /* \"#utility.yul\":8317:8327   */\n      swap2\n      dup3\n      add\n        /* \"#utility.yul\":8310:8376   */\n      mstore\n        /* \"#utility.yul\":8401:8414   */\n      dup8\n      mload\n        /* \"#utility.yul\":8423:8499   */\n      tag_197\n        /* \"#utility.yul\":8401:8414   */\n      dup2\n        /* \"#utility.yul\":8485:8487   */\n      0x1a\n        /* \"#utility.yul\":8477:8488   */\n      dup5\n      add\n        /* \"#utility.yul\":8470:8474   */\n      0x20\n        /* \"#utility.yul\":8458:8475   */\n      dup13\n      add\n        /* \"#utility.yul\":8423:8499   */\n      tag_148\n      jump\t// in\n    tag_197:\n      shl(0xa9, 0x11161134b6b0b3b2911d11)\n        /* \"#utility.yul\":8559:8561   */\n      0x1a\n        /* \"#utility.yul\":8518:8535   */\n      swap3\n      swap1\n      swap2\n      add\n        /* \"#utility.yul\":8551:8562   */\n      swap2\n      dup3\n      add\n        /* \"#utility.yul\":8544:8599   */\n      mstore\n        /* \"#utility.yul\":8624:8637   */\n      dup7\n      mload\n        /* \"#utility.yul\":8646:8722   */\n      tag_198\n        /* \"#utility.yul\":8624:8637   */\n      dup2\n        /* \"#utility.yul\":8708:8710   */\n      0x25\n        /* \"#utility.yul\":8700:8711   */\n      dup5\n      add\n        /* \"#utility.yul\":8693:8697   */\n      0x20\n        /* \"#utility.yul\":8681:8698   */\n      dup12\n      add\n        /* \"#utility.yul\":8646:8722   */\n      tag_148\n      jump\t// in\n    tag_198:\n      shl(0x99, 0x1116113130b630b731b2911d11)\n        /* \"#utility.yul\":8782:8784   */\n      0x25\n        /* \"#utility.yul\":8741:8758   */\n      swap3\n      swap1\n      swap2\n      add\n        /* \"#utility.yul\":8774:8785   */\n      swap2\n      dup3\n      add\n        /* \"#utility.yul\":8767:8826   */\n      mstore\n        /* \"#utility.yul\":8851:8864   */\n      dup6\n      mload\n        /* \"#utility.yul\":8873:8949   */\n      tag_199\n        /* \"#utility.yul\":8851:8864   */\n      dup2\n        /* \"#utility.yul\":8935:8937   */\n      0x32\n        /* \"#utility.yul\":8927:8938   */\n      dup5\n      add\n        /* \"#utility.yul\":8920:8924   */\n      0x20\n        /* \"#utility.yul\":8908:8925   */\n      dup11\n      add\n        /* \"#utility.yul\":8873:8949   */\n      tag_148\n      jump\t// in\n    tag_199:\n      shl(0xb1, 0x11161139b637ba111d11)\n        /* \"#utility.yul\":9009:9011   */\n      0x32\n        /* \"#utility.yul\":8968:8985   */\n      swap3\n      swap1\n      swap2\n      add\n        /* \"#utility.yul\":9001:9012   */\n      swap2\n      dup3\n      add\n        /* \"#utility.yul\":8994:9047   */\n      mstore\n        /* \"#utility.yul\":9072:9085   */\n      dup5\n      mload\n        /* \"#utility.yul\":9094:9170   */\n      tag_200\n        /* \"#utility.yul\":9072:9085   */\n      dup2\n        /* \"#utility.yul\":9156:9158   */\n      0x3c\n        /* \"#utility.yul\":9148:9159   */\n      dup5\n      add\n        /* \"#utility.yul\":9141:9145   */\n      0x20\n        /* \"#utility.yul\":9129:9146   */\n      dup10\n      add\n        /* \"#utility.yul\":9094:9170   */\n      tag_148\n      jump\t// in\n    tag_200:\n        /* \"#utility.yul\":9186:9301   */\n      tag_201\n        /* \"#utility.yul\":9216:9300   */\n      tag_202\n        /* \"#utility.yul\":9242:9299   */\n      tag_203\n        /* \"#utility.yul\":9295:9297   */\n      0x3c\n        /* \"#utility.yul\":9284:9292   */\n      dup5\n        /* \"#utility.yul\":9280:9282   */\n      dup7\n        /* \"#utility.yul\":9276:9293   */\n      add\n        /* \"#utility.yul\":9272:9298   */\n      add\n      shl(0x89, 0x111611383937b832b93a34b2b9911d)\n        /* \"#utility.yul\":1123:1178   */\n      dup2\n      mstore\n        /* \"#utility.yul\":1203:1205   */\n      0x0f\n        /* \"#utility.yul\":1194:1206   */\n      add\n      swap1\n        /* \"#utility.yul\":1058:1212   */\n      jump\n        /* \"#utility.yul\":9242:9299   */\n    tag_203:\n        /* \"#utility.yul\":9234:9240   */\n      dup8\n        /* \"#utility.yul\":9216:9300   */\n      tag_149\n      jump\t// in\n    tag_202:\n      shl(0xf8, 0x7d)\n        /* \"#utility.yul\":1282:1298   */\n      dup2\n      mstore\n        /* \"#utility.yul\":1323:1324   */\n      0x01\n        /* \"#utility.yul\":1314:1325   */\n      add\n      swap1\n        /* \"#utility.yul\":1217:1331   */\n      jump\n        /* \"#utility.yul\":9186:9301   */\n    tag_201:\n        /* \"#utility.yul\":9179:9301   */\n      swap11\n        /* \"#utility.yul\":7008:9307   */\n      swap10\n      pop\n      pop\n      pop\n      pop\n      pop\n      pop\n      pop\n      pop\n      pop\n      pop\n      jump\t// out\n        /* \"#utility.yul\":9312:9439   */\n    tag_152:\n        /* \"#utility.yul\":9373:9383   */\n      0x4e487b71\n        /* \"#utility.yul\":9368:9371   */\n      0xe0\n        /* \"#utility.yul\":9364:9384   */\n      shl\n        /* \"#utility.yul\":9361:9362   */\n      0x00\n        /* \"#utility.yul\":9354:9385   */\n      mstore\n        /* \"#utility.yul\":9404:9408   */\n      0x11\n        /* \"#utility.yul\":9401:9402   */\n      0x04\n        /* \"#utility.yul\":9394:9409   */\n      mstore\n        /* \"#utility.yul\":9428:9432   */\n      0x24\n        /* \"#utility.yul\":9425:9426   */\n      0x00\n        /* \"#utility.yul\":9418:9433   */\n      revert\n        /* \"#utility.yul\":9444:9569   */\n    tag_89:\n        /* \"#utility.yul\":9509:9518   */\n      dup1\n      dup3\n      add\n        /* \"#utility.yul\":9530:9540   */\n      dup1\n      dup3\n      gt\n        /* \"#utility.yul\":9527:9563   */\n      iszero\n      tag_84\n      jumpi\n        /* \"#utility.yul\":9543:9561   */\n      tag_84\n      tag_152\n      jump\t// in\n        /* \"#utility.yul\":9706:9923   */\n    tag_91:\n        /* \"#utility.yul\":9746:9747   */\n      0x00\n        /* \"#utility.yul\":9772:9773   */\n      dup3\n        /* \"#utility.yul\":9762:9894   */\n      tag_210\n      jumpi\n        /* \"#utility.yul\":9816:9826   */\n      0x4e487b71\n        /* \"#utility.yul\":9811:9814   */\n      0xe0\n        /* \"#utility.yul\":9807:9827   */\n      shl\n        /* \"#utility.yul\":9804:9805   */\n      0x00\n        /* \"#utility.yul\":9797:9828   */\n      mstore\n        /* \"#utility.yul\":9851:9855   */\n      0x12\n        /* \"#utility.yul\":9848:9849   */\n      0x04\n        /* \"#utility.yul\":9841:9856   */\n      mstore\n        /* \"#utility.yul\":9879:9883   */\n      0x24\n        /* \"#utility.yul\":9876:9877   */\n      0x00\n        /* \"#utility.yul\":9869:9884   */\n      revert\n        /* \"#utility.yul\":9762:9894   */\n    tag_210:\n      pop\n        /* \"#utility.yul\":9908:9917   */\n      div\n      swap1\n        /* \"#utility.yul\":9706:9923   */\n      jump\t// out\n        /* \"#utility.yul\":9928:10096   */\n    tag_93:\n        /* \"#utility.yul\":10001:10010   */\n      dup1\n      dup3\n      mul\n        /* \"#utility.yul\":10032:10041   */\n      dup2\n      iszero\n        /* \"#utility.yul\":10049:10064   */\n      dup3\n      dup3\n      div\n        /* \"#utility.yul\":10043:10065   */\n      dup5\n      eq\n        /* \"#utility.yul\":10029:10066   */\n      or\n        /* \"#utility.yul\":10019:10090   */\n      tag_84\n      jumpi\n        /* \"#utility.yul\":10070:10088   */\n      tag_84\n      tag_152\n      jump\t// in\n        /* \"#utility.yul\":10101:10742   */\n    tag_124:\n        /* \"#utility.yul\":10381:10384   */\n      0x00\n        /* \"#utility.yul\":10419:10425   */\n      dup4\n        /* \"#utility.yul\":10413:10426   */\n      mload\n        /* \"#utility.yul\":10435:10501   */\n      tag_215\n        /* \"#utility.yul\":10494:10500   */\n      dup2\n        /* \"#utility.yul\":10489:10492   */\n      dup5\n        /* \"#utility.yul\":10482:10486   */\n      0x20\n        /* \"#utility.yul\":10474:10480   */\n      dup9\n        /* \"#utility.yul\":10470:10487   */\n      add\n        /* \"#utility.yul\":10435:10501   */\n      tag_148\n      jump\t// in\n    tag_215:\n      shl(0xf0, 0x2023)\n        /* \"#utility.yul\":10523:10539   */\n      swap1\n      dup4\n      add\n        /* \"#utility.yul\":10548:10567   */\n      swap1\n      dup2\n      mstore\n        /* \"#utility.yul\":10592:10605   */\n      dup4\n      mload\n        /* \"#utility.yul\":10614:10692   */\n      tag_216\n        /* \"#utility.yul\":10592:10605   */\n      dup2\n        /* \"#utility.yul\":10679:10680   */\n      0x02\n        /* \"#utility.yul\":10668:10681   */\n      dup5\n      add\n        /* \"#utility.yul\":10661:10665   */\n      0x20\n        /* \"#utility.yul\":10649:10666   */\n      dup9\n      add\n        /* \"#utility.yul\":10614:10692   */\n      tag_148\n      jump\t// in\n    tag_216:\n        /* \"#utility.yul\":10712:10732   */\n      add\n        /* \"#utility.yul\":10734:10735   */\n      0x02\n        /* \"#utility.yul\":10708:10736   */\n      add\n      swap5\n        /* \"#utility.yul\":10101:10742   */\n      swap4\n      pop\n      pop\n      pop\n      pop\n      jump\t// out\n    stop\n    data_84d8a590de33e00cbdc16e1f28c3506f5ec15c599fab9a6a4bcd575cc2f110ce 4142434445464748494a4b4c4d4e4f505152535455565758595a6162636465666768696a6b6c6d6e6f707172737475767778797a303132333435363738392b2f\n\n    auxdata: 0xa26469706673582212205cdc7e2e734a4a48ba9a220034d430a43511a5a3b20d54f2962da169cac912cd64736f6c63430008180033\n}\n",
				"bytecode": {
					"linkReferences": {},
					"object": "608060405234801561000f575f80fd5b50610c9d8061001d5f395ff3fe608060405234801561000f575f80fd5b506004361061003f575f3560e01c80636c037f8a14610043578063725fa09c1461006c578063894b4c2e14610074575b5f80fd5b610056610051366004610706565b610087565b604051610063919061073f565b60405180910390f35b61005661011d565b610056610082366004610706565b610247565b60606100f76100a060408051602081019091525f815290565b60408051602081019091525f81526100b785610369565b6040805180820190915260028152615b5d60f01b60208201526040516020016100e3949392919061078c565b6040516020818303038152906040526103d2565b6040516020016101079190610859565b6040516020818303038152906040529050919050565b60605f339050610222816001600160a01b03166306fdde036040518163ffffffff1660e01b81526004015f60405180830381865afa158015610161573d5f803e3d5ffd5b505050506040513d5f823e601f3d908101601f1916820160405261018891908101906108b1565b60408051602081019091525f815260408051602081019091525f815261020f856001600160a01b0316633e7e86696040518163ffffffff1660e01b8152600401602060405180830381865afa1580156101e3573d5f803e3d5ffd5b505050506040513d601f19601f820116820180604052508101906102079190610959565b60ff16610521565b6040516020016100e39493929190610980565b6040516020016102329190610859565b60405160208183030381529060405291505090565b606033610342610256846105b1565b60408051602081019091525f815260408051602081019091525f8152604051631398fee160e31b8152600481018890526102e3906001600160a01b03871690639cc7f708906024015b602060405180830381865afa1580156102ba573d5f803e3d5ffd5b505050506040513d601f19601f820116820180604052508101906102de9190610a52565b610521565b60405163131f9f3f60e11b815260048101899052610314906001600160a01b0388169063263f3e7e9060240161029f565b6040805180820190915260028152617b7d60f01b60208201526040516020016100e396959493929190610a69565b6040516020016103529190610859565b604051602081830303815290604052915050919050565b6040516309c3dd8760e01b81526004810182905260609033906309c3dd87906024015f60405180830381865afa1580156103a5573d5f803e3d5ffd5b505050506040513d5f823e601f3d908101601f191682016040526103cc91908101906108b1565b92915050565b606081515f036103ef57505060408051602081019091525f815290565b5f604051806060016040528060408152602001610c286040913990505f60038451600261041c9190610ba2565b6104269190610bb5565b610431906004610bd4565b67ffffffffffffffff8111156104495761044961089d565b6040519080825280601f01601f191660200182016040528015610473576020820181803683370190505b509050600182016020820185865187015b808210156104df576003820191508151603f8160121c168501518453600184019350603f81600c1c168501518453600184019350603f8160061c168501518453600184019350603f8116850151845350600183019250610484565b50506003865106600181146104fb576002811461050e57610516565b603d6001830353603d6002830353610516565b603d60018303535b509195945050505050565b60605f61052d8361062f565b60010190505f8167ffffffffffffffff81111561054c5761054c61089d565b6040519080825280601f01601f191660200182016040528015610576576020820181803683370190505b5090508181016020015b5f19016f181899199a1a9b1b9c1cb0b131b232b360811b600a86061a8153600a850494508461058057509392505050565b6060336001600160a01b03166306fdde036040518163ffffffff1660e01b81526004015f60405180830381865afa1580156105ee573d5f803e3d5ffd5b505050506040513d5f823e601f3d908101601f1916820160405261061591908101906108b1565b61061e83610521565b604051602001610107929190610beb565b5f8072184f03e93ff9f4daa797ed6e38ed64bf6a1f0160401b831061066d5772184f03e93ff9f4daa797ed6e38ed64bf6a1f0160401b830492506040015b6d04ee2d6d415b85acef81000000008310610699576d04ee2d6d415b85acef8100000000830492506020015b662386f26fc1000083106106b757662386f26fc10000830492506010015b6305f5e10083106106cf576305f5e100830492506008015b61271083106106e357612710830492506004015b606483106106f5576064830492506002015b600a83106103cc5760010192915050565b5f60208284031215610716575f80fd5b5035919050565b5f5b8381101561073757818101518382015260200161071f565b50505f910152565b602081525f825180602084015261075d81604085016020870161071d565b601f01601f19169190910160400192915050565b5f815161078281856020860161071d565b9290920192915050565b683d913730b6b2911d1160b91b815284515f906107b0816009850160208a0161071d565b701116113232b9b1b934b83a34b7b7111d1160791b60099184019182015285516107e181601a840160208a0161071d565b6a11161134b6b0b3b2911d1160a91b601a9290910191820152845161080d81602584016020890161071d565b6e111611383937b832b93a34b2b9911d60891b60259290910191820152835161083d81603484016020880161071d565b607d60f81b603492909101918201526035019695505050505050565b7f646174613a6170706c69636174696f6e2f6a736f6e3b6261736536342c00000081525f825161089081601d85016020870161071d565b91909101601d0192915050565b634e487b7160e01b5f52604160045260245ffd5b5f602082840312156108c1575f80fd5b815167ffffffffffffffff808211156108d8575f80fd5b818401915084601f8301126108eb575f80fd5b8151818111156108fd576108fd61089d565b604051601f8201601f19908116603f011681019083821181831017156109255761092561089d565b8160405282815287602084870101111561093d575f80fd5b61094e83602083016020880161071d565b979650505050505050565b5f60208284031215610969575f80fd5b815160ff81168114610979575f80fd5b9392505050565b683d913730b6b2911d1160b91b815284515f906109a4816009850160208a0161071d565b701116113232b9b1b934b83a34b7b7111d1160791b60099184019182015285516109d581601a840160208a0161071d565b6a11161134b6b0b3b2911d1160a91b601a92909101918201528451610a0181602584016020890161071d565b721116113b30b63ab2a232b1b4b6b0b639911d1160691b602592909101918201528351610a3581603884016020880161071d565b61227d60f01b60389290910191820152603a019695505050505050565b5f60208284031215610a62575f80fd5b5051919050565b683d913730b6b2911d1160b91b815286515f90610a8d816009850160208c0161071d565b701116113232b9b1b934b83a34b7b7111d1160791b6009918401918201528751610abe81601a840160208c0161071d565b6a11161134b6b0b3b2911d1160a91b601a92909101918201528651610aea816025840160208b0161071d565b6c1116113130b630b731b2911d1160991b602592909101918201528551610b18816032840160208a0161071d565b6911161139b637ba111d1160b11b603292909101918201528451610b4381603c84016020890161071d565b610b80610b73610b6d603c848601016e111611383937b832b93a34b2b9911d60891b8152600f0190565b87610771565b607d60f81b815260010190565b9a9950505050505050505050565b634e487b7160e01b5f52601160045260245ffd5b808201808211156103cc576103cc610b8e565b5f82610bcf57634e487b7160e01b5f52601260045260245ffd5b500490565b80820281158282048414176103cc576103cc610b8e565b5f8351610bfc81846020880161071d565b61202360f01b9083019081528351610c1b81600284016020880161071d565b0160020194935050505056fe4142434445464748494a4b4c4d4e4f505152535455565758595a6162636465666768696a6b6c6d6e6f707172737475767778797a303132333435363738392b2fa26469706673582212205cdc7e2e734a4a48ba9a220034d430a43511a5a3b20d54f2962da169cac912cd64736f6c63430008180033",
					"opcodes": "PUSH1 0x80 PUSH1 0x40 MSTORE CALLVALUE DUP1 ISZERO PUSH2 0xF JUMPI PUSH0 DUP1 REVERT JUMPDEST POP PUSH2 0xC9D DUP1 PUSH2 0x1D PUSH0 CODECOPY PUSH0 RETURN INVALID PUSH1 0x80 PUSH1 0x40 MSTORE CALLVALUE DUP1 ISZERO PUSH2 0xF JUMPI PUSH0 DUP1 REVERT JUMPDEST POP PUSH1 0x4 CALLDATASIZE LT PUSH2 0x3F JUMPI PUSH0 CALLDATALOAD PUSH1 0xE0 SHR DUP1 PUSH4 0x6C037F8A EQ PUSH2 0x43 JUMPI DUP1 PUSH4 0x725FA09C EQ PUSH2 0x6C JUMPI DUP1 PUSH4 0x894B4C2E EQ PUSH2 0x74 JUMPI JUMPDEST PUSH0 DUP1 REVERT JUMPDEST PUSH2 0x56 PUSH2 0x51 CALLDATASIZE PUSH1 0x4 PUSH2 0x706 JUMP JUMPDEST PUSH2 0x87 JUMP JUMPDEST PUSH1 0x40 MLOAD PUSH2 0x63 SWAP2 SWAP1 PUSH2 0x73F JUMP JUMPDEST PUSH1 0x40 MLOAD DUP1 SWAP2 SUB SWAP1 RETURN JUMPDEST PUSH2 0x56 PUSH2 0x11D JUMP JUMPDEST PUSH2 0x56 PUSH2 0x82 CALLDATASIZE PUSH1 0x4 PUSH2 0x706 JUMP JUMPDEST PUSH2 0x247 JUMP JUMPDEST PUSH1 0x60 PUSH2 0xF7 PUSH2 0xA0 PUSH1 0x40 DUP1 MLOAD PUSH1 0x20 DUP2 ADD SWAP1 SWAP2 MSTORE PUSH0 DUP2 MSTORE SWAP1 JUMP JUMPDEST PUSH1 0x40 DUP1 MLOAD PUSH1 0x20 DUP2 ADD SWAP1 SWAP2 MSTORE PUSH0 DUP2 MSTORE PUSH2 0xB7 DUP6 PUSH2 0x369 JUMP JUMPDEST PUSH1 0x40 DUP1 MLOAD DUP1 DUP3 ADD SWAP1 SWAP2 MSTORE PUSH1 0x2 DUP2 MSTORE PUSH2 0x5B5D PUSH1 0xF0 SHL PUSH1 0x20 DUP3 ADD MSTORE PUSH1 0x40 MLOAD PUSH1 0x20 ADD PUSH2 0xE3 SWAP5 SWAP4 SWAP3 SWAP2 SWAP1 PUSH2 0x78C JUMP JUMPDEST PUSH1 0x40 MLOAD PUSH1 0x20 DUP2 DUP4 SUB SUB DUP2 MSTORE SWAP1 PUSH1 0x40 MSTORE PUSH2 0x3D2 JUMP JUMPDEST PUSH1 0x40 MLOAD PUSH1 0x20 ADD PUSH2 0x107 SWAP2 SWAP1 PUSH2 0x859 JUMP JUMPDEST PUSH1 0x40 MLOAD PUSH1 0x20 DUP2 DUP4 SUB SUB DUP2 MSTORE SWAP1 PUSH1 0x40 MSTORE SWAP1 POP SWAP2 SWAP1 POP JUMP JUMPDEST PUSH1 0x60 PUSH0 CALLER SWAP1 POP PUSH2 0x222 DUP2 PUSH1 0x1 PUSH1 0x1 PUSH1 0xA0 SHL SUB AND PUSH4 0x6FDDE03 PUSH1 0x40 MLOAD DUP2 PUSH4 0xFFFFFFFF AND PUSH1 0xE0 SHL DUP2 MSTORE PUSH1 0x4 ADD PUSH0 PUSH1 0x40 MLOAD DUP1 DUP4 SUB DUP2 DUP7 GAS STATICCALL ISZERO DUP1 ISZERO PUSH2 0x161 JUMPI RETURNDATASIZE PUSH0 DUP1 RETURNDATACOPY RETURNDATASIZE PUSH0 REVERT JUMPDEST POP POP POP POP PUSH1 0x40 MLOAD RETURNDATASIZE PUSH0 DUP3 RETURNDATACOPY PUSH1 0x1F RETURNDATASIZE SWAP1 DUP2 ADD PUSH1 0x1F NOT AND DUP3 ADD PUSH1 0x40 MSTORE PUSH2 0x188 SWAP2 SWAP1 DUP2 ADD SWAP1 PUSH2 0x8B1 JUMP JUMPDEST PUSH1 0x40 DUP1 MLOAD PUSH1 0x20 DUP2 ADD SWAP1 SWAP2 MSTORE PUSH0 DUP2 MSTORE PUSH1 0x40 DUP1 MLOAD PUSH1 0x20 DUP2 ADD SWAP1 SWAP2 MSTORE PUSH0 DUP2 MSTORE PUSH2 0x20F DUP6 PUSH1 0x1 PUSH1 0x1 PUSH1 0xA0 SHL SUB AND PUSH4 0x3E7E8669 PUSH1 0x40 MLOAD DUP2 PUSH4 0xFFFFFFFF AND PUSH1 0xE0 SHL DUP2 MSTORE PUSH1 0x4 ADD PUSH1 0x20 PUSH1 0x40 MLOAD DUP1 DUP4 SUB DUP2 DUP7 GAS STATICCALL ISZERO DUP1 ISZERO PUSH2 0x1E3 JUMPI RETURNDATASIZE PUSH0 DUP1 RETURNDATACOPY RETURNDATASIZE PUSH0 REVERT JUMPDEST POP POP POP POP PUSH1 0x40 MLOAD RETURNDATASIZE PUSH1 0x1F NOT PUSH1 0x1F DUP3 ADD AND DUP3 ADD DUP1 PUSH1 0x40 MSTORE POP DUP2 ADD SWAP1 PUSH2 0x207 SWAP2 SWAP1 PUSH2 0x959 JUMP JUMPDEST PUSH1 0xFF AND PUSH2 0x521 JUMP JUMPDEST PUSH1 0x40 MLOAD PUSH1 0x20 ADD PUSH2 0xE3 SWAP5 SWAP4 SWAP3 SWAP2 SWAP1 PUSH2 0x980 JUMP JUMPDEST PUSH1 0x40 MLOAD PUSH1 0x20 ADD PUSH2 0x232 SWAP2 SWAP1 PUSH2 0x859 JUMP JUMPDEST PUSH1 0x40 MLOAD PUSH1 0x20 DUP2 DUP4 SUB SUB DUP2 MSTORE SWAP1 PUSH1 0x40 MSTORE SWAP2 POP POP SWAP1 JUMP JUMPDEST PUSH1 0x60 CALLER PUSH2 0x342 PUSH2 0x256 DUP5 PUSH2 0x5B1 JUMP JUMPDEST PUSH1 0x40 DUP1 MLOAD PUSH1 0x20 DUP2 ADD SWAP1 SWAP2 MSTORE PUSH0 DUP2 MSTORE PUSH1 0x40 DUP1 MLOAD PUSH1 0x20 DUP2 ADD SWAP1 SWAP2 MSTORE PUSH0 DUP2 MSTORE PUSH1 0x40 MLOAD PUSH4 0x1398FEE1 PUSH1 0xE3 SHL DUP2 MSTORE PUSH1 0x4 DUP2 ADD DUP9 SWAP1 MSTORE PUSH2 0x2E3 SWAP1 PUSH1 0x1 PUSH1 0x1 PUSH1 0xA0 SHL SUB DUP8 AND SWAP1 PUSH4 0x9CC7F708 SWAP1 PUSH1 0x24 ADD JUMPDEST PUSH1 0x20 PUSH1 0x40 MLOAD DUP1 DUP4 SUB DUP2 DUP7 GAS STATICCALL ISZERO DUP1 ISZERO PUSH2 0x2BA JUMPI RETURNDATASIZE PUSH0 DUP1 RETURNDATACOPY RETURNDATASIZE PUSH0 REVERT JUMPDEST POP POP POP POP PUSH1 0x40 MLOAD RETURNDATASIZE PUSH1 0x1F NOT PUSH1 0x1F DUP3 ADD AND DUP3 ADD DUP1 PUSH1 0x40 MSTORE POP DUP2 ADD SWAP1 PUSH2 0x2DE SWAP2 SWAP1 PUSH2 0xA52 JUMP JUMPDEST PUSH2 0x521 JUMP JUMPDEST PUSH1 0x40 MLOAD PUSH4 0x131F9F3F PUSH1 0xE1 SHL DUP2 MSTORE PUSH1 0x4 DUP2 ADD DUP10 SWAP1 MSTORE PUSH2 0x314 SWAP1 PUSH1 0x1 PUSH1 0x1 PUSH1 0xA0 SHL SUB DUP9 AND SWAP1 PUSH4 0x263F3E7E SWAP1 PUSH1 0x24 ADD PUSH2 0x29F JUMP JUMPDEST PUSH1 0x40 DUP1 MLOAD DUP1 DUP3 ADD SWAP1 SWAP2 MSTORE PUSH1 0x2 DUP2 MSTORE PUSH2 0x7B7D PUSH1 0xF0 SHL PUSH1 0x20 DUP3 ADD MSTORE PUSH1 0x40 MLOAD PUSH1 0x20 ADD PUSH2 0xE3 SWAP7 SWAP6 SWAP5 SWAP4 SWAP3 SWAP2 SWAP1 PUSH2 0xA69 JUMP JUMPDEST PUSH1 0x40 MLOAD PUSH1 0x20 ADD PUSH2 0x352 SWAP2 SWAP1 PUSH2 0x859 JUMP JUMPDEST PUSH1 0x40 MLOAD PUSH1 0x20 DUP2 DUP4 SUB SUB DUP2 MSTORE SWAP1 PUSH1 0x40 MSTORE SWAP2 POP POP SWAP2 SWAP1 POP JUMP JUMPDEST PUSH1 0x40 MLOAD PUSH4 0x9C3DD87 PUSH1 0xE0 SHL DUP2 MSTORE PUSH1 0x4 DUP2 ADD DUP3 SWAP1 MSTORE PUSH1 0x60 SWAP1 CALLER SWAP1 PUSH4 0x9C3DD87 SWAP1 PUSH1 0x24 ADD PUSH0 PUSH1 0x40 MLOAD DUP1 DUP4 SUB DUP2 DUP7 GAS STATICCALL ISZERO DUP1 ISZERO PUSH2 0x3A5 JUMPI RETURNDATASIZE PUSH0 DUP1 RETURNDATACOPY RETURNDATASIZE PUSH0 REVERT JUMPDEST POP POP POP POP PUSH1 0x40 MLOAD RETURNDATASIZE PUSH0 DUP3 RETURNDATACOPY PUSH1 0x1F RETURNDATASIZE SWAP1 DUP2 ADD PUSH1 0x1F NOT AND DUP3 ADD PUSH1 0x40 MSTORE PUSH2 0x3CC SWAP2 SWAP1 DUP2 ADD SWAP1 PUSH2 0x8B1 JUMP JUMPDEST SWAP3 SWAP2 POP POP JUMP JUMPDEST PUSH1 0x60 DUP2 MLOAD PUSH0 SUB PUSH2 0x3EF JUMPI POP POP PUSH1 0x40 DUP1 MLOAD PUSH1 0x20 DUP2 ADD SWAP1 SWAP2 MSTORE PUSH0 DUP2 MSTORE SWAP1 JUMP JUMPDEST PUSH0 PUSH1 0x40 MLOAD DUP1 PUSH1 0x60 ADD PUSH1 0x40 MSTORE DUP1 PUSH1 0x40 DUP2 MSTORE PUSH1 0x20 ADD PUSH2 0xC28 PUSH1 0x40 SWAP2 CODECOPY SWAP1 POP PUSH0 PUSH1 0x3 DUP5 MLOAD PUSH1 0x2 PUSH2 0x41C SWAP2 SWAP1 PUSH2 0xBA2 JUMP JUMPDEST PUSH2 0x426 SWAP2 SWAP1 PUSH2 0xBB5 JUMP JUMPDEST PUSH2 0x431 SWAP1 PUSH1 0x4 PUSH2 0xBD4 JUMP JUMPDEST PUSH8 0xFFFFFFFFFFFFFFFF DUP2 GT ISZERO PUSH2 0x449 JUMPI PUSH2 0x449 PUSH2 0x89D JUMP JUMPDEST PUSH1 0x40 MLOAD SWAP1 DUP1 DUP3 MSTORE DUP1 PUSH1 0x1F ADD PUSH1 0x1F NOT AND PUSH1 0x20 ADD DUP3 ADD PUSH1 0x40 MSTORE DUP1 ISZERO PUSH2 0x473 JUMPI PUSH1 0x20 DUP3 ADD DUP2 DUP1 CALLDATASIZE DUP4 CALLDATACOPY ADD SWAP1 POP JUMPDEST POP SWAP1 POP PUSH1 0x1 DUP3 ADD PUSH1 0x20 DUP3 ADD DUP6 DUP7 MLOAD DUP8 ADD JUMPDEST DUP1 DUP3 LT ISZERO PUSH2 0x4DF JUMPI PUSH1 0x3 DUP3 ADD SWAP2 POP DUP2 MLOAD PUSH1 0x3F DUP2 PUSH1 0x12 SHR AND DUP6 ADD MLOAD DUP5 MSTORE8 PUSH1 0x1 DUP5 ADD SWAP4 POP PUSH1 0x3F DUP2 PUSH1 0xC SHR AND DUP6 ADD MLOAD DUP5 MSTORE8 PUSH1 0x1 DUP5 ADD SWAP4 POP PUSH1 0x3F DUP2 PUSH1 0x6 SHR AND DUP6 ADD MLOAD DUP5 MSTORE8 PUSH1 0x1 DUP5 ADD SWAP4 POP PUSH1 0x3F DUP2 AND DUP6 ADD MLOAD DUP5 MSTORE8 POP PUSH1 0x1 DUP4 ADD SWAP3 POP PUSH2 0x484 JUMP JUMPDEST POP POP PUSH1 0x3 DUP7 MLOAD MOD PUSH1 0x1 DUP2 EQ PUSH2 0x4FB JUMPI PUSH1 0x2 DUP2 EQ PUSH2 0x50E JUMPI PUSH2 0x516 JUMP JUMPDEST PUSH1 0x3D PUSH1 0x1 DUP4 SUB MSTORE8 PUSH1 0x3D PUSH1 0x2 DUP4 SUB MSTORE8 PUSH2 0x516 JUMP JUMPDEST PUSH1 0x3D PUSH1 0x1 DUP4 SUB MSTORE8 JUMPDEST POP SWAP2 SWAP6 SWAP5 POP POP POP POP POP JUMP JUMPDEST PUSH1 0x60 PUSH0 PUSH2 0x52D DUP4 PUSH2 0x62F JUMP JUMPDEST PUSH1 0x1 ADD SWAP1 POP PUSH0 DUP2 PUSH8 0xFFFFFFFFFFFFFFFF DUP2 GT ISZERO PUSH2 0x54C JUMPI PUSH2 0x54C PUSH2 0x89D JUMP JUMPDEST PUSH1 0x40 MLOAD SWAP1 DUP1 DUP3 MSTORE DUP1 PUSH1 0x1F ADD PUSH1 0x1F NOT AND PUSH1 0x20 ADD DUP3 ADD PUSH1 0x40 MSTORE DUP1 ISZERO PUSH2 0x576 JUMPI PUSH1 0x20 DUP3 ADD DUP2 DUP1 CALLDATASIZE DUP4 CALLDATACOPY ADD SWAP1 POP JUMPDEST POP SWAP1 POP DUP2 DUP2 ADD PUSH1 0x20 ADD JUMPDEST PUSH0 NOT ADD PUSH16 0x181899199A1A9B1B9C1CB0B131B232B3 PUSH1 0x81 SHL PUSH1 0xA DUP7 MOD BYTE DUP2 MSTORE8 PUSH1 0xA DUP6 DIV SWAP5 POP DUP5 PUSH2 0x580 JUMPI POP SWAP4 SWAP3 POP POP POP JUMP JUMPDEST PUSH1 0x60 CALLER PUSH1 0x1 PUSH1 0x1 PUSH1 0xA0 SHL SUB AND PUSH4 0x6FDDE03 PUSH1 0x40 MLOAD DUP2 PUSH4 0xFFFFFFFF AND PUSH1 0xE0 SHL DUP2 MSTORE PUSH1 0x4 ADD PUSH0 PUSH1 0x40 MLOAD DUP1 DUP4 SUB DUP2 DUP7 GAS STATICCALL ISZERO DUP1 ISZERO PUSH2 0x5EE JUMPI RETURNDATASIZE PUSH0 DUP1 RETURNDATACOPY RETURNDATASIZE PUSH0 REVERT JUMPDEST POP POP POP POP PUSH1 0x40 MLOAD RETURNDATASIZE PUSH0 DUP3 RETURNDATACOPY PUSH1 0x1F RETURNDATASIZE SWAP1 DUP2 ADD PUSH1 0x1F NOT AND DUP3 ADD PUSH1 0x40 MSTORE PUSH2 0x615 SWAP2 SWAP1 DUP2 ADD SWAP1 PUSH2 0x8B1 JUMP JUMPDEST PUSH2 0x61E DUP4 PUSH2 0x521 JUMP JUMPDEST PUSH1 0x40 MLOAD PUSH1 0x20 ADD PUSH2 0x107 SWAP3 SWAP2 SWAP1 PUSH2 0xBEB JUMP JUMPDEST PUSH0 DUP1 PUSH19 0x184F03E93FF9F4DAA797ED6E38ED64BF6A1F01 PUSH1 0x40 SHL DUP4 LT PUSH2 0x66D JUMPI PUSH19 0x184F03E93FF9F4DAA797ED6E38ED64BF6A1F01 PUSH1 0x40 SHL DUP4 DIV SWAP3 POP PUSH1 0x40 ADD JUMPDEST PUSH14 0x4EE2D6D415B85ACEF8100000000 DUP4 LT PUSH2 0x699 JUMPI PUSH14 0x4EE2D6D415B85ACEF8100000000 DUP4 DIV SWAP3 POP PUSH1 0x20 ADD JUMPDEST PUSH7 0x2386F26FC10000 DUP4 LT PUSH2 0x6B7 JUMPI PUSH7 0x2386F26FC10000 DUP4 DIV SWAP3 POP PUSH1 0x10 ADD JUMPDEST PUSH4 0x5F5E100 DUP4 LT PUSH2 0x6CF JUMPI PUSH4 0x5F5E100 DUP4 DIV SWAP3 POP PUSH1 0x8 ADD JUMPDEST PUSH2 0x2710 DUP4 LT PUSH2 0x6E3 JUMPI PUSH2 0x2710 DUP4 DIV SWAP3 POP PUSH1 0x4 ADD JUMPDEST PUSH1 0x64 DUP4 LT PUSH2 0x6F5 JUMPI PUSH1 0x64 DUP4 DIV SWAP3 POP PUSH1 0x2 ADD JUMPDEST PUSH1 0xA DUP4 LT PUSH2 0x3CC JUMPI PUSH1 0x1 ADD SWAP3 SWAP2 POP POP JUMP JUMPDEST PUSH0 PUSH1 0x20 DUP3 DUP5 SUB SLT ISZERO PUSH2 0x716 JUMPI PUSH0 DUP1 REVERT JUMPDEST POP CALLDATALOAD SWAP2 SWAP1 POP JUMP JUMPDEST PUSH0 JUMPDEST DUP4 DUP2 LT ISZERO PUSH2 0x737 JUMPI DUP2 DUP2 ADD MLOAD DUP4 DUP3 ADD MSTORE PUSH1 0x20 ADD PUSH2 0x71F JUMP JUMPDEST POP POP PUSH0 SWAP2 ADD MSTORE JUMP JUMPDEST PUSH1 0x20 DUP2 MSTORE PUSH0 DUP3 MLOAD DUP1 PUSH1 0x20 DUP5 ADD MSTORE PUSH2 0x75D DUP2 PUSH1 0x40 DUP6 ADD PUSH1 0x20 DUP8 ADD PUSH2 0x71D JUMP JUMPDEST PUSH1 0x1F ADD PUSH1 0x1F NOT AND SWAP2 SWAP1 SWAP2 ADD PUSH1 0x40 ADD SWAP3 SWAP2 POP POP JUMP JUMPDEST PUSH0 DUP2 MLOAD PUSH2 0x782 DUP2 DUP6 PUSH1 0x20 DUP7 ADD PUSH2 0x71D JUMP JUMPDEST SWAP3 SWAP1 SWAP3 ADD SWAP3 SWAP2 POP POP JUMP JUMPDEST PUSH9 0x3D913730B6B2911D11 PUSH1 0xB9 SHL DUP2 MSTORE DUP5 MLOAD PUSH0 SWAP1 PUSH2 0x7B0 DUP2 PUSH1 0x9 DUP6 ADD PUSH1 0x20 DUP11 ADD PUSH2 0x71D JUMP JUMPDEST PUSH17 0x1116113232B9B1B934B83A34B7B7111D11 PUSH1 0x79 SHL PUSH1 0x9 SWAP2 DUP5 ADD SWAP2 DUP3 ADD MSTORE DUP6 MLOAD PUSH2 0x7E1 DUP2 PUSH1 0x1A DUP5 ADD PUSH1 0x20 DUP11 ADD PUSH2 0x71D JUMP JUMPDEST PUSH11 0x11161134B6B0B3B2911D11 PUSH1 0xA9 SHL PUSH1 0x1A SWAP3 SWAP1 SWAP2 ADD SWAP2 DUP3 ADD MSTORE DUP5 MLOAD PUSH2 0x80D DUP2 PUSH1 0x25 DUP5 ADD PUSH1 0x20 DUP10 ADD PUSH2 0x71D JUMP JUMPDEST PUSH15 0x111611383937B832B93A34B2B9911D PUSH1 0x89 SHL PUSH1 0x25 SWAP3 SWAP1 SWAP2 ADD SWAP2 DUP3 ADD MSTORE DUP4 MLOAD PUSH2 0x83D DUP2 PUSH1 0x34 DUP5 ADD PUSH1 0x20 DUP9 ADD PUSH2 0x71D JUMP JUMPDEST PUSH1 0x7D PUSH1 0xF8 SHL PUSH1 0x34 SWAP3 SWAP1 SWAP2 ADD SWAP2 DUP3 ADD MSTORE PUSH1 0x35 ADD SWAP7 SWAP6 POP POP POP POP POP POP JUMP JUMPDEST PUSH32 0x646174613A6170706C69636174696F6E2F6A736F6E3B6261736536342C000000 DUP2 MSTORE PUSH0 DUP3 MLOAD PUSH2 0x890 DUP2 PUSH1 0x1D DUP6 ADD PUSH1 0x20 DUP8 ADD PUSH2 0x71D JUMP JUMPDEST SWAP2 SWAP1 SWAP2 ADD PUSH1 0x1D ADD SWAP3 SWAP2 POP POP JUMP JUMPDEST PUSH4 0x4E487B71 PUSH1 0xE0 SHL PUSH0 MSTORE PUSH1 0x41 PUSH1 0x4 MSTORE PUSH1 0x24 PUSH0 REVERT JUMPDEST PUSH0 PUSH1 0x20 DUP3 DUP5 SUB SLT ISZERO PUSH2 0x8C1 JUMPI PUSH0 DUP1 REVERT JUMPDEST DUP2 MLOAD PUSH8 0xFFFFFFFFFFFFFFFF DUP1 DUP3 GT ISZERO PUSH2 0x8D8 JUMPI PUSH0 DUP1 REVERT JUMPDEST DUP2 DUP5 ADD SWAP2 POP DUP5 PUSH1 0x1F DUP4 ADD SLT PUSH2 0x8EB JUMPI PUSH0 DUP1 REVERT JUMPDEST DUP2 MLOAD DUP2 DUP2 GT ISZERO PUSH2 0x8FD JUMPI PUSH2 0x8FD PUSH2 0x89D JUMP JUMPDEST PUSH1 0x40 MLOAD PUSH1 0x1F DUP3 ADD PUSH1 0x1F NOT SWAP1 DUP2 AND PUSH1 0x3F ADD AND DUP2 ADD SWAP1 DUP4 DUP3 GT DUP2 DUP4 LT OR ISZERO PUSH2 0x925 JUMPI PUSH2 0x925 PUSH2 0x89D JUMP JUMPDEST DUP2 PUSH1 0x40 MSTORE DUP3 DUP2 MSTORE DUP8 PUSH1 0x20 DUP5 DUP8 ADD ADD GT ISZERO PUSH2 0x93D JUMPI PUSH0 DUP1 REVERT JUMPDEST PUSH2 0x94E DUP4 PUSH1 0x20 DUP4 ADD PUSH1 0x20 DUP9 ADD PUSH2 0x71D JUMP JUMPDEST SWAP8 SWAP7 POP POP POP POP POP POP POP JUMP JUMPDEST PUSH0 PUSH1 0x20 DUP3 DUP5 SUB SLT ISZERO PUSH2 0x969 JUMPI PUSH0 DUP1 REVERT JUMPDEST DUP2 MLOAD PUSH1 0xFF DUP2 AND DUP2 EQ PUSH2 0x979 JUMPI PUSH0 DUP1 REVERT JUMPDEST SWAP4 SWAP3 POP POP POP JUMP JUMPDEST PUSH9 0x3D913730B6B2911D11 PUSH1 0xB9 SHL DUP2 MSTORE DUP5 MLOAD PUSH0 SWAP1 PUSH2 0x9A4 DUP2 PUSH1 0x9 DUP6 ADD PUSH1 0x20 DUP11 ADD PUSH2 0x71D JUMP JUMPDEST PUSH17 0x1116113232B9B1B934B83A34B7B7111D11 PUSH1 0x79 SHL PUSH1 0x9 SWAP2 DUP5 ADD SWAP2 DUP3 ADD MSTORE DUP6 MLOAD PUSH2 0x9D5 DUP2 PUSH1 0x1A DUP5 ADD PUSH1 0x20 DUP11 ADD PUSH2 0x71D JUMP JUMPDEST PUSH11 0x11161134B6B0B3B2911D11 PUSH1 0xA9 SHL PUSH1 0x1A SWAP3 SWAP1 SWAP2 ADD SWAP2 DUP3 ADD MSTORE DUP5 MLOAD PUSH2 0xA01 DUP2 PUSH1 0x25 DUP5 ADD PUSH1 0x20 DUP10 ADD PUSH2 0x71D JUMP JUMPDEST PUSH19 0x1116113B30B63AB2A232B1B4B6B0B639911D11 PUSH1 0x69 SHL PUSH1 0x25 SWAP3 SWAP1 SWAP2 ADD SWAP2 DUP3 ADD MSTORE DUP4 MLOAD PUSH2 0xA35 DUP2 PUSH1 0x38 DUP5 ADD PUSH1 0x20 DUP9 ADD PUSH2 0x71D JUMP JUMPDEST PUSH2 0x227D PUSH1 0xF0 SHL PUSH1 0x38 SWAP3 SWAP1 SWAP2 ADD SWAP2 DUP3 ADD MSTORE PUSH1 0x3A ADD SWAP7 SWAP6 POP POP POP POP POP POP JUMP JUMPDEST PUSH0 PUSH1 0x20 DUP3 DUP5 SUB SLT ISZERO PUSH2 0xA62 JUMPI PUSH0 DUP1 REVERT JUMPDEST POP MLOAD SWAP2 SWAP1 POP JUMP JUMPDEST PUSH9 0x3D913730B6B2911D11 PUSH1 0xB9 SHL DUP2 MSTORE DUP7 MLOAD PUSH0 SWAP1 PUSH2 0xA8D DUP2 PUSH1 0x9 DUP6 ADD PUSH1 0x20 DUP13 ADD PUSH2 0x71D JUMP JUMPDEST PUSH17 0x1116113232B9B1B934B83A34B7B7111D11 PUSH1 0x79 SHL PUSH1 0x9 SWAP2 DUP5 ADD SWAP2 DUP3 ADD MSTORE DUP8 MLOAD PUSH2 0xABE DUP2 PUSH1 0x1A DUP5 ADD PUSH1 0x20 DUP13 ADD PUSH2 0x71D JUMP JUMPDEST PUSH11 0x11161134B6B0B3B2911D11 PUSH1 0xA9 SHL PUSH1 0x1A SWAP3 SWAP1 SWAP2 ADD SWAP2 DUP3 ADD MSTORE DUP7 MLOAD PUSH2 0xAEA DUP2 PUSH1 0x25 DUP5 ADD PUSH1 0x20 DUP12 ADD PUSH2 0x71D JUMP JUMPDEST PUSH13 0x1116113130B630B731B2911D11 PUSH1 0x99 SHL PUSH1 0x25 SWAP3 SWAP1 SWAP2 ADD SWAP2 DUP3 ADD MSTORE DUP6 MLOAD PUSH2 0xB18 DUP2 PUSH1 0x32 DUP5 ADD PUSH1 0x20 DUP11 ADD PUSH2 0x71D JUMP JUMPDEST PUSH10 0x11161139B637BA111D11 PUSH1 0xB1 SHL PUSH1 0x32 SWAP3 SWAP1 SWAP2 ADD SWAP2 DUP3 ADD MSTORE DUP5 MLOAD PUSH2 0xB43 DUP2 PUSH1 0x3C DUP5 ADD PUSH1 0x20 DUP10 ADD PUSH2 0x71D JUMP JUMPDEST PUSH2 0xB80 PUSH2 0xB73 PUSH2 0xB6D PUSH1 0x3C DUP5 DUP7 ADD ADD PUSH15 0x111611383937B832B93A34B2B9911D PUSH1 0x89 SHL DUP2 MSTORE PUSH1 0xF ADD SWAP1 JUMP JUMPDEST DUP8 PUSH2 0x771 JUMP JUMPDEST PUSH1 0x7D PUSH1 0xF8 SHL DUP2 MSTORE PUSH1 0x1 ADD SWAP1 JUMP JUMPDEST SWAP11 SWAP10 POP POP POP POP POP POP POP POP POP POP JUMP JUMPDEST PUSH4 0x4E487B71 PUSH1 0xE0 SHL PUSH0 MSTORE PUSH1 0x11 PUSH1 0x4 MSTORE PUSH1 0x24 PUSH0 REVERT JUMPDEST DUP1 DUP3 ADD DUP1 DUP3 GT ISZERO PUSH2 0x3CC JUMPI PUSH2 0x3CC PUSH2 0xB8E JUMP JUMPDEST PUSH0 DUP3 PUSH2 0xBCF JUMPI PUSH4 0x4E487B71 PUSH1 0xE0 SHL PUSH0 MSTORE PUSH1 0x12 PUSH1 0x4 MSTORE PUSH1 0x24 PUSH0 REVERT JUMPDEST POP DIV SWAP1 JUMP JUMPDEST DUP1 DUP3 MUL DUP2 ISZERO DUP3 DUP3 DIV DUP5 EQ OR PUSH2 0x3CC JUMPI PUSH2 0x3CC PUSH2 0xB8E JUMP JUMPDEST PUSH0 DUP4 MLOAD PUSH2 0xBFC DUP2 DUP5 PUSH1 0x20 DUP9 ADD PUSH2 0x71D JUMP JUMPDEST PUSH2 0x2023 PUSH1 0xF0 SHL SWAP1 DUP4 ADD SWAP1 DUP2 MSTORE DUP4 MLOAD PUSH2 0xC1B DUP2 PUSH1 0x2 DUP5 ADD PUSH1 0x20 DUP9 ADD PUSH2 0x71D JUMP JUMPDEST ADD PUSH1 0x2 ADD SWAP5 SWAP4 POP POP POP POP JUMP INVALID COINBASE TIMESTAMP NUMBER PREVRANDAO GASLIMIT CHAINID SELFBALANCE BASEFEE BLOBHASH BLOBBASEFEE 0x4B 0x4C 0x4D 0x4E 0x4F POP MLOAD MSTORE MSTORE8 SLOAD SSTORE JUMP JUMPI PC MSIZE GAS PUSH2 0x6263 PUSH5 0x6566676869 PUSH11 0x6B6C6D6E6F707172737475 PUSH23 0x7778797A303132333435363738392B2FA2646970667358 0x22 SLT KECCAK256 TLOAD 0xDC PUSH31 0x2E734A4A48BA9A220034D430A43511A5A3B20D54F2962DA169CAC912CD6473 PUSH16 0x6C634300081800330000000000000000 "
				},
				"gasEstimates": {
					"creation": {
						"codeDepositCost": "645800",
						"executionCost": "674",
						"totalCost": "646474"
					},
					"external": {
						"constructContractURI()": "infinite",
						"constructSlotURI(uint256)": "infinite",
						"constructTokenURI(uint256)": "infinite"
					},
					"internal": {
						"_contractDescription()": "infinite",
						"_contractImage()": "infinite",
						"_slotDescription(uint256)": "infinite",
						"_slotImage(uint256)": "infinite",
						"_slotName(uint256)": "infinite",
						"_slotProperties(uint256)": "infinite",
						"_tokenDescription(uint256)": "infinite",
						"_tokenImage(uint256)": "infinite",
						"_tokenName(uint256)": "infinite",
						"_tokenProperties(uint256)": "infinite"
					}
				},
				"methodIdentifiers": {
					"constructContractURI()": "725fa09c",
					"constructSlotURI(uint256)": "6c037f8a",
					"constructTokenURI(uint256)": "894b4c2e"
				}
			},
			"storageLayout": {
				"storage": [],
				"types": null
			},
			"userdoc": {
				"kind": "user",
				"methods": {},
				"version": 1
			}
		}
	}
}