{
	"data": {
		"bytecode": {
			"linkReferences": {},
			"object": "608060405234801562000010575f80fd5b50604051620059f7380380620059f783398101604081905262000033916200012c565b806001600160a01b0381166200006257604051631e4fbdf760e01b81525f600482015260240160405180910390fd5b6200006d81620000dd565b506001600955604080518082019091526005815264436865636b60d81b60208201526006906200009e9082620001f9565b5060408051808201909152600381526243484b60e81b6020820152600790620000c89082620001f9565b50506008805460ff19166012179055620002c5565b5f80546001600160a01b038381166001600160a01b0319831681178455604051919092169283917f8be0079c531659141344cd1fd0a4f28419497f9722a3daafe3b4186f6b6457e09190a35050565b5f602082840312156200013d575f80fd5b81516001600160a01b038116811462000154575f80fd5b9392505050565b634e487b7160e01b5f52604160045260245ffd5b600181811c908216806200018457607f821691505b602082108103620001a357634e487b7160e01b5f52602260045260245ffd5b50919050565b601f821115620001f457805f5260205f20601f840160051c81016020851015620001d05750805b601f840160051c820191505b81811015620001f1575f8155600101620001dc565b50505b505050565b81516001600160401b038111156200021557620002156200015b565b6200022d816200022684546200016f565b84620001a9565b602080601f83116001811462000263575f84156200024b5750858301515b5f19600386901b1c1916600185901b178555620002bd565b5f85815260208120601f198616915b82811015620002935788860151825594840194600190910190840162000272565b5085821015620002b157878501515f19600388901b60f8161c191681555b505060018460011b0185555b505050505050565b61572480620002d35f395ff3fe6080604052600436106102ee575f3560e01c80638d5802e21161018c578063bff26126116100df578063d87477e31161008e578063d87477e314610944578063e0af5b251461096f578063e345e0bc1461098e578063e8a3d485146109ad578063e985e9c5146109c1578063eb23ce4c146109e0578063f2fde38b146109ff578063f8f34cde14610a1e575f80fd5b8063bff261261461084a578063c72fcdf914610869578063c79eaa4014610888578063c87b56dd1461089b578063cf35bdd0146108ba578063d28bb34a14610906578063d60d5aad14610925575f80fd5b8063a5a410311161013b578063a5a4103114610735578063a726366514610749578063aa5965ae14610774578063ac9b05c2146107c7578063b0e21e8a14610803578063b86b19de14610818578063b88d4fde14610837575f80fd5b80638d5802e2146106495780638da5cb5b1461067d5780638e9e51141461069957806395d89b41146106b85780639cc7f708146106cc578063a167dd55146106eb578063a22cb46514610716575f80fd5b80633e7e866911610244578063686735c5116101f3578063686735c51461056e57806370a082311461059a578063715018a6146105b9578063787dce3d146105cd5780637fae60d5146105ec578063840f7113146106175780638cb0a51114610636575f80fd5b80633e7e86691461049d57806342842e0e146104be5780634f6ccce7146104d15780636285bfcf146104f057806362b62e5e146105115780636352211e146105305780636408dcba1461054f575f80fd5b806323b872dd116102a057806323b872dd146103dc578063263f3e7e146103ef5780632847637a1461040e5780632f745c591461042d578063310ed7f01461044c57806335805be21461045f578063394b21221461047e575f80fd5b806301ffc9a7146102f257806306fdde0314610326578063081812fc14610347578063095ea7b31461037357806309c3dd87146103885780630f485c02146103a757806318160ddd146103c8575b5f80fd5b3480156102fd575f80fd5b5061031161030c36600461435f565b610a3d565b60405190151581526020015b60405180910390f35b348015610331575f80fd5b5061033a610adf565b60405161031d91906143c7565b348015610352575f80fd5b506103666103613660046143d9565b610b6f565b60405161031d91906143f0565b610386610381366004614418565b610bbe565b005b348015610393575f80fd5b5061033a6103a23660046143d9565b610ca1565b6103ba6103b5366004614442565b610d8a565b60405190815260200161031d565b3480156103d3575f80fd5b506010546103ba565b6103866103ea366004614477565b610e15565b3480156103fa575f80fd5b506103ba6104093660046143d9565b610e6c565b348015610419575f80fd5b506103ba6104283660046143d9565b610eb0565b348015610438575f80fd5b506103ba610447366004614418565b610f23565b61038661045a3660046144a4565b610fc6565b34801561046a575f80fd5b506103ba610479366004614418565b6110b7565b348015610489575f80fd5b506103866104983660046144cd565b6111a4565b3480156104a8575f80fd5b5060085460405160ff909116815260200161031d565b6103866104cc366004614477565b611255565b3480156104dc575f80fd5b506103ba6104eb3660046143d9565b61126f565b3480156104fb575f80fd5b50610504611302565b60405161031d91906144ed565b34801561051c575f80fd5b5061031161052b3660046143d9565b611357565b34801561053b575f80fd5b5061036661054a3660046143d9565b6113ca565b34801561055a575f80fd5b506103866105693660046144cd565b611432565b348015610579575f80fd5b5061058d6105883660046143d9565b6114c9565b60405161031d9190614530565b3480156105a5575f80fd5b506103ba6105b4366004614570565b611587565b3480156105c4575f80fd5b50610386611613565b3480156105d8575f80fd5b506103866105e73660046143d9565b611626565b3480156105f7575f80fd5b506103ba6106063660046143d9565b5f908152600b602052604090205490565b348015610622575f80fd5b50601454610366906001600160a01b031681565b610386610644366004614442565b611633565b348015610654575f80fd5b506103666106633660046143d9565b5f908152600260205260409020546001600160a01b031690565b348015610688575f80fd5b505f546001600160a01b0316610366565b3480156106a4575f80fd5b506103ba6106b3366004614630565b6116f1565b3480156106c3575f80fd5b5061033a61186b565b3480156106d7575f80fd5b506103ba6106e63660046143d9565b61187a565b3480156106f6575f80fd5b506103ba6107053660046143d9565b600f6020525f908152604090205481565b348015610721575f80fd5b506103866107303660046146a4565b6118be565b348015610740575f80fd5b506001546103ba565b348015610754575f80fd5b506103ba6107633660046143d9565b60126020525f908152604090205481565b34801561077f575f80fd5b5061079361078e3660046143d9565b6118cd565b604080519586526020860194909452928401919091526001600160a01b03908116606084015216608082015260a00161031d565b3480156107d2575f80fd5b506103ba6107e13660046146db565b600360209081525f938452604080852082529284528284209052825290205481565b34801561080e575f80fd5b506103ba60015481565b348015610823575f80fd5b506103116108323660046143d9565b611919565b61038661084536600461471a565b611976565b348015610855575f80fd5b5061033a6108643660046143d9565b6119a8565b348015610874575f80fd5b5061033a6108833660046143d9565b611af5565b610386610896366004614794565b611bdd565b3480156108a6575f80fd5b5061033a6108b53660046143d9565b612003565b3480156108c5575f80fd5b506108f86108d43660046143d9565b60026020525f9081526040902080546001909101546001600160a01b039091169082565b60405161031d9291906147bf565b348015610911575f80fd5b506103116109203660046143d9565b612063565b348015610930575f80fd5b5061050461093f366004614570565b6120ab565b34801561094f575f80fd5b506103ba61095e3660046143d9565b5f908152600a602052604090205490565b34801561097a575f80fd5b506103ba6109893660046143d9565b6122c2565b348015610999575f80fd5b506103ba6109a83660046147d8565b612318565b3480156109b8575f80fd5b5061033a61234a565b3480156109cc575f80fd5b506103116109db3660046147fb565b61243b565b3480156109eb575f80fd5b5061033a6109fa366004614570565b61246c565b348015610a0a575f80fd5b50610386610a19366004614570565b612604565b348015610a29575f80fd5b50610386610a38366004614442565b612641565b5f6001600160e01b031982166301ffc9a760e01b1480610a6d57506001600160e01b03198216630354d60560e61b145b80610a8857506001600160e01b031982166380ac58cd60e01b145b80610aa357506001600160e01b031982166370b0048160e11b145b80610abe57506001600160e01b0319821663780e9d6360e01b145b80610ad957506001600160e01b03198216635b5e139f60e01b145b92915050565b606060068054610aee90614827565b80601f0160208091040260200160405190810160405280929190818152602001828054610b1a90614827565b8015610b655780601f10610b3c57610100808354040283529160200191610b65565b820191905f5260205f20905b815481529060010190602001808311610b4857829003601f168201915b5050505050905090565b5f610b79826127dc565b5f82815260126020526040902054601080549091908110610b9c57610b9c61485f565b5f9182526020909120600460069092020101546001600160a01b031692915050565b5f610bc8826113ca565b9050806001600160a01b0316836001600160a01b031603610c045760405162461bcd60e51b8152600401610bfb90614873565b60405180910390fd5b336001600160a01b0382161480610c205750610c20813361243b565b610c925760405162461bcd60e51b815260206004820152603f60248201527f417373657452656769737472793a20617070726f76652063616c6c657220697360448201527f206e6f74206f776e6572206e6f7220617070726f76656420666f7220616c6c006064820152608401610bfb565b610c9c8383612801565b505050565b60605f610cb860408051602081019091525f815290565b6014549091506001600160a01b0316610d16575f815111610ce75760405180602001604052805f815250610d83565b80610cf184612896565b604051602001610d029291906148d6565b604051602081830303815290604052610d83565b601454604051633601bfc560e11b8152600481018590526001600160a01b0390911690636c037f8a906024015f60405180830381865afa158015610d5c573d5f803e3d5ffd5b505050506040513d5f823e601f3d908101601f19168201604052610d839190810190614915565b9392505050565b5f80610d95856122c2565b90505f610da1866113ca565b9050610dae338786612925565b610db7866129c1565b9250610dcd8584610dc789610e6c565b5f6129ca565b610dd8868486612b0b565b610de281836110b7565b5f03610df257610df28282612e16565b83610dfd86846110b7565b03610e0c57610e0c8286612f53565b50509392505050565b610e1f3382613043565b610e3b5760405162461bcd60e51b8152600401610bfb90614986565b5f610e45826122c2565b9050610e528484846130a1565b610e5c8185612e16565b610e668184612f53565b50505050565b5f610e76826127dc565b5f82815260126020526040902054601080549091908110610e9957610e9961485f565b905f5260205f209060060201600101549050919050565b5f610eba82612063565b610f115760405162461bcd60e51b815260206004820152602260248201527f4c656173696e67436f6e74726163743a204e6f6e6578697374656e7420746f6b60448201526132b760f11b6064820152608401610bfb565b505f908152600f602052604090205490565b5f610f2d83611587565b8210610f8c5760405162461bcd60e51b815260206004820152602860248201527f417373657452656769737472793a206f776e657220696e646578206f7574206f6044820152676620626f756e647360c01b6064820152608401610bfb565b6001600160a01b0383165f908152601360205260409020805483908110610fb557610fb561485f565b905f5260205f200154905092915050565b5f610fd0846122c2565b90505f610fdc846122c2565b90505f610fe8866113ca565b90505f610ff4866113ca565b90508284146110645760405162461bcd60e51b815260206004820152603660248201527f43616e6e6f74207472616e736665722076616c7565206265747765656e206e666044820152757473206f6620646966666572656e742061737365747360501b6064820152608401610bfb565b61106f338887612925565b61107a878787612b0b565b61108482856110b7565b5f03611094576110948483612e16565b8461109f82866110b7565b036110ae576110ae8482612f53565b50505050505050565b5f6001600160a01b0383166110de5760405162461bcd60e51b8152600401610bfb906149de565b6001600160a01b0383165f908152601360209081526040808320805482518185028101850190935280835290939284919083018282801561113c57602002820191905f5260205f20905b815481526020019060010190808311611128575b505050505090505f805b825181101561119a575f8382815181106111625761116261485f565b602002602001015190508661117682610e6c565b03611191576111848161187a565b61118e9084614a42565b92505b50600101611146565b5095945050505050565b5f82815260026020526040902054339083906001600160a01b031682146111dd5760405162461bcd60e51b8152600401610bfb90614a55565b6111e684612063565b6112425760405162461bcd60e51b815260206004820152602760248201527f417373657452656769737472793a204173736574206e6f7420726567697374656044820152661c9959081e595d60ca1b6064820152608401610bfb565b50505f918252600b602052604090912055565b610c9c83838360405180602001604052805f815250611976565b5f61127960105490565b82106112d95760405162461bcd60e51b815260206004820152602960248201527f417373657452656769737472793a20676c6f62616c20696e646578206f7574206044820152686f6620626f756e647360b81b6064820152608401610bfb565b601082815481106112ec576112ec61485f565b905f5260205f2090600602015f01549050919050565b6060600c805480602002602001604051908101604052809291908181526020018280548015610b6557602002820191905f5260205f20905b81548152602001906001019080831161133a575050505050905090565b6040516331a9108f60e11b8152600481018290525f903090636352211e90602401602060405180830381865afa9250505080156113b1575060408051601f3d908101601f191682019092526113ae91810190614a86565b60015b6113bc57505f919050565b50600192915050565b919050565b5f6113d4826127dc565b5f828152601260205260409020546010805490919081106113f7576113f761485f565b5f9182526020909120600360069092020101546001600160a01b03169050806113c55760405162461bcd60e51b8152600401610bfb90614aa1565b5f82815260026020526040902054339083906001600160a01b0316821461146b5760405162461bcd60e51b8152600401610bfb90614a55565b61147484612063565b6114b65760405162461bcd60e51b8152602060048201526013602482015272105cdcd95d08191bd95cdb89dd08195e1a5cdd606a1b6044820152606401610bfb565b50505f918252600f602052604090912055565b60606114d482612063565b6115205760405162461bcd60e51b815260206004820181905260248201527f417373657452656769737472793a204e6f6e6578697374656e742041737365746044820152606401610bfb565b5f828152600460209081526040918290208054835181840281018401909452808452909183018282801561157b57602002820191905f5260205f20905b81546001600160a01b0316815260019091019060200180831161155d575b50505050509050919050565b5f6001600160a01b0382166115f85760405162461bcd60e51b815260206004820152603160248201527f417373657452656769737472793a2062616c616e636520717565727920666f7260448201527020746865207a65726f206164647265737360781b6064820152608401610bfb565b506001600160a01b03165f9081526013602052604090205490565b61161b61320c565b6116245f613238565b565b61162e61320c565b600155565b5f61163d846113ca565b9050806001600160a01b0316836001600160a01b0316036116705760405162461bcd60e51b8152600401610bfb90614873565b61167a3385613043565b6116e65760405162461bcd60e51b815260206004820152603760248201527f417373657452656769737472793a20617070726f76652063616c6c6572206973604482015276081b9bdd081bdddb995c881b9bdc88185c1c1c9bdd9959604a1b6064820152608401610bfb565b610e66848484613287565b5f6116fb83612063565b156117585760405162461bcd60e51b815260206004820152602760248201527f417373657452656769737472793a20417373657420616c7265616479207265676044820152661a5cdd195c995960ca1b6064820152608401610bfb565b5f838152600d60205260409020805461177090614827565b90505f036117825761178283836133c2565b61178a6133d9565b90506117988482855f6129ca565b6117a1836133f2565b5f838152600d6020526040902080546118409183916117bf90614827565b80601f01602080910402602001604051908101604052809291908181526020018280546117eb90614827565b80156118365780601f1061180d57610100808354040283529160200191611836565b820191905f5260205f20905b81548152906001019060200180831161181957829003601f168201915b505050505061343a565b5f83815260026020526040902080546001600160a01b0319166001600160a01b038616179055610d83565b606060078054610aee90614827565b5f611884826127dc565b5f828152601260205260409020546010805490919081106118a7576118a761485f565b905f5260205f209060060201600201549050919050565b6118c93383836134ba565b5050565b601081815481106118dc575f80fd5b5f91825260209091206006909102018054600182015460028301546003840154600490940154929450909290916001600160a01b03918216911685565b5f818152600b602052604081205461196e5760405162461bcd60e51b8152602060048201526018602482015277105cdcd95d0e881a5cc81b9bdd081c9959da5cdd195c995960421b6044820152606401610bfb565b506001919050565b6119803383613043565b61199c5760405162461bcd60e51b8152600401610bfb90614986565b610e6684848484613583565b60605f6040518061016001604052806101238152602001615101610123913990505f6040518061038001604052806103568152602001615399610356913990505f60405180610160016040528061013581526020016152246101359139905080611a1186612896565b611a22611a1d88610e6c565b612896565b5f8881526012602052604090205460108054611a5b92908110611a4757611a4761485f565b905f5260205f2090600602015f0154612896565b5f8981526012602052604090205460108054611a9592908110611a8057611a8061485f565b905f5260205f20906006020160020154612896565b611aa16109fa8b6113ca565b604051602001611ab696959493929190614ad8565b6040516020818303038152906040529050828282604051602001611adc93929190614da1565b6040516020818303038152906040529350505050919050565b6060611b0082612063565b611b4c5760405162461bcd60e51b815260206004820152601f60248201527f417373657452656769737472793a204e6f6e6578697374656e7420736c6f74006044820152606401610bfb565b5f828152600d602052604090208054611b6490614827565b80601f0160208091040260200160405190810160405280929190818152602001828054611b9090614827565b801561157b5780601f10611bb25761010080835404028352916020019161157b565b820191905f5260205f20905b815481529060010190602001808311611bbe5750939695505050505050565b5f838152600260205260409020546001600160a01b0316611c375760405162461bcd60e51b8152602060048201526014602482015273105cdcd95d081b9bdd081c9959da5cdd195c995960621b6044820152606401610bfb565b611c4083611919565b611c975760405162461bcd60e51b815260206004820152602260248201527f41737365743a206173736574206973206e6f74206672616374696f6e616c697a604482015261195960f21b6064820152608401610bfb565b5f611ca184610eb0565b9050805f03611cfc5760405162461bcd60e51b815260206004820152602160248201527f41737365743a4672616374696f6e616c205072696365206973206e6f742073656044820152601d60fa1b6064820152608401610bfb565b5f611d078483614de3565b90505f606460015483611d1a9190614de3565b611d249190614dfa565b90505f611d318284614e19565b905073eeeeeeeeeeeeeeeeeeeeeeeeeeeeeeeeeeeeeeed196001600160a01b03861601611dc85782341015611d9f5760405162461bcd60e51b8152602060048201526014602482015273125b9cdd59999a58da595b9d081c185e5b595b9d60621b6044820152606401610bfb565b611dc382611db45f546001600160a01b031690565b6001600160a01b0316906135fc565b611ebd565b6040516323b872dd60e01b8152336004820152306024820152604481018490526001600160a01b038616906323b872dd906064016020604051808303815f875af1158015611e18573d5f803e3d5ffd5b505050506040513d601f19601f82011682018060405250810190611e3c9190614e2c565b50846001600160a01b031663a9059cbb611e5d5f546001600160a01b031690565b846040518363ffffffff1660e01b8152600401611e7b9291906147bf565b6020604051808303815f875af1158015611e97573d5f803e3d5ffd5b505050506040513d601f19601f82011682018060405250810190611ebb9190614e2c565b505b5f87815260036020908152604080832060028352818420546001600160a01b039081168552908352818420908916845290915281208054839290611f02908490614a42565b9091555050604080518881525f602082018190529133917f825345861315f1f596fdc2b9bec2cb36452a81888724d69abb25b39f6341f0ca910160405180910390a26001600160a01b03861673eeeeeeeeeeeeeeeeeeeeeeeeeeeeeeeeeeeeeeee148015611f6f57508334115b15611f8857611f88611f818534614e19565b33906135fc565b611f906133d9565b9050611f9e33828a8a6129ca565b5f888152600d602052604090208054611fbc9183916117bf90614827565b5f888152600a602052604081208054899290611fd9908490614a42565b90915550879050611fea338a6110b7565b03611ff957611ff98833612f53565b5050505050505050565b606061203d612019612014846119a8565b61368f565b6040516020016120299190614e47565b60405160208183030381529060405261368f565b60405160200161204d9190614ea5565b6040516020818303038152906040529050919050565b5f805b600c548110156120a35782600c82815481106120845761208461485f565b905f5260205f2001540361209b5750600192915050565b600101612066565b505f92915050565b60606001600160a01b0382166120d35760405162461bcd60e51b8152600401610bfb906149de565b6001600160a01b0382165f908152601360209081526040808320805482518185028101850190935280835290939284919083018282801561213157602002820191905f5260205f20905b81548152602001906001019080831161211d575b505050505090505f81516001600160401b038111156121525761215261458b565b60405190808252806020026020018201604052801561217b578160200160208202803683370190505b5090505f805b8351811015612228575f6121ad8583815181106121a0576121a061485f565b6020026020010151610e6c565b905060015f5b848110156121eb57828682815181106121ce576121ce61485f565b6020026020010151036121e3575f91506121eb565b6001016121b3565b50801561221e57818585815181106122055761220561485f565b60209081029190910101528361221a81614ee9565b9450505b5050600101612181565b505f816001600160401b038111156122425761224261458b565b60405190808252806020026020018201604052801561226b578160200160208202803683370190505b5090505f5b828110156122b75783818151811061228a5761228a61485f565b60200260200101518282815181106122a4576122a461485f565b6020908102919091010152600101612270565b509695505050505050565b5f6122cc826137dd565b610e765760405162461bcd60e51b815260206004820152601f60248201527f455243333532353a20746f6b656e496420646f6573206e6f74206578697374006044820152606401610bfb565b5f612322836127dc565b505f918252600e602090815260408084206001600160a01b0393909316845291905290205490565b60605f61236160408051602081019091525f815290565b6014549091506001600160a01b03166123bf575f8151116123905760405180602001604052805f815250612435565b8061239a30613824565b6040516020016123ab929190614f01565b604051602081830303815290604052612435565b60145f9054906101000a90046001600160a01b03166001600160a01b031663725fa09c6040518163ffffffff1660e01b81526004015f60405180830381865afa15801561240e573d5f803e3d5ffd5b505050506040513d5f823e601f3d908101601f191682016040526124359190810190614915565b91505090565b6001600160a01b039182165f9081526013602090815260408083209390941682526002909201909152205460ff1690565b60605f612483836001600160a01b03166014613836565b60408051600d80825281830190925291925082915f916020820181803683370190505090505f5b6005811015612500578281815181106124c5576124c561485f565b602001015160f81c60f81b8282815181106124e2576124e261485f565b60200101906001600160f81b03191690815f1a9053506001016124aa565b50601760f91b816005815181106125195761251961485f565b60200101906001600160f81b03191690815f1a905350601760f91b816006815181106125475761254761485f565b60200101906001600160f81b03191690815f1a905350601760f91b816007815181106125755761257561485f565b60200101906001600160f81b03191690815f1a9053505f5b60058110156125fb57826125a2826025614a42565b815181106125b2576125b261485f565b01602001516001600160f81b031916826125cd836008614a42565b815181106125dd576125dd61485f565b60200101906001600160f81b03191690815f1a90535060010161258d565b50949350505050565b61260c61320c565b6001600160a01b038116612635575f604051631e4fbdf760e01b8152600401610bfb91906143f0565b61263e81613238565b50565b5f83815260026020526040902054339084906001600160a01b0316821461267a5760405162461bcd60e51b8152600401610bfb90614a55565b5f85815260036020908152604080832033845282528083206001600160a01b0388168452909152902054808411156126f45760405162461bcd60e51b815260206004820152601e60248201527f496e73756666696369656e742066756e647320746f20776974686472617700006044820152606401610bfb565b5f86815260036020908152604080832033845282528083206001600160a01b03891684529091528120805486929061272d908490614e19565b909155505073eeeeeeeeeeeeeeeeeeeeeeeeeeeeeeeeeeeeeeed196001600160a01b038616016127665761276133856135fc565b6127d4565b60405163a9059cbb60e01b81526001600160a01b0386169063a9059cbb9061279490339088906004016147bf565b6020604051808303815f875af11580156127b0573d5f803e3d5ffd5b505050506040513d601f19601f820116820180604052508101906110ae9190614e2c565b505050505050565b6127e5816137dd565b61263e5760405162461bcd60e51b8152600401610bfb90614aa1565b5f818152601260205260409020546010805484929081106128245761282461485f565b5f918252602090912060069091020160040180546001600160a01b0319166001600160a01b039283161790558190831661285d826113ca565b6001600160a01b03167f8c5be1e5ebec7d5bd14f71427d1e84f3dd0314c0f7b2291e5b200ac8c7c3b92560405160405180910390a45050565b60605f6128a2836139a7565b60010190505f816001600160401b038111156128c0576128c061458b565b6040519080825280601f01601f1916602001820160405280156128ea576020820181803683370190505b5090508181016020015b5f19016f181899199a1a9b1b9c1cb0b131b232b360811b600a86061a8153600a85049450846128f457509392505050565b5f6129308385612318565b905061293c8484613043565b15801561294a57505f198114155b15610e6657818110156129ad5760405162461bcd60e51b815260206004820152602560248201527f417373657452656769737472793a20696e73756666696369656e7420616c6c6f60448201526477616e636560d81b6064820152608401610bfb565b610e6683856129bc8585614e19565b613287565b5f610ad96133d9565b6001600160a01b038416612a305760405162461bcd60e51b815260206004820152602760248201527f417373657452656769737472793a206d696e7420746f20746865207a65726f206044820152666164647265737360c81b6064820152608401610bfb565b825f03612a8f5760405162461bcd60e51b815260206004820152602760248201527f417373657452656769737472793a2063616e6e6f74206d696e74207a65726f206044820152661d1bdad95b925960ca1b6064820152608401610bfb565b612a98836137dd565b15612af15760405162461bcd60e51b815260206004820152602360248201527f417373657452656769737472793a20746f6b656e20616c7265616479206d696e6044820152621d195960ea1b6064820152608401610bfb565b612afc848484613a7e565b612b068382613b41565b610e66565b612b14836137dd565b612b765760405162461bcd60e51b815260206004820152602d60248201527f417373657452656769737472793a207472616e736665722066726f6d20696e7660448201526c185b1a59081d1bdad95b881251609a1b6064820152608401610bfb565b612b7f826137dd565b612bdf5760405162461bcd60e51b815260206004820152602b60248201527f417373657452656769737472793a207472616e7366657220746f20696e76616c60448201526a1a59081d1bdad95b88125160aa1b6064820152608401610bfb565b5f83815260126020526040812054601080549091908110612c0257612c0261485f565b905f5260205f20906006020190505f601060125f8681526020019081526020015f205481548110612c3557612c3561485f565b905f5260205f20906006020190508282600201541015612cb05760405162461bcd60e51b815260206004820152603060248201527f417373657452656769737472793a20696e73756666696369656e742062616c6160448201526f3731b2903337b9103a3930b739b332b960811b6064820152608401610bfb565b8060010154826001015414612d245760405162461bcd60e51b815260206004820152603460248201527f417373657452656769737472793a207472616e7366657220746f20746f6b656e604482015273081dda5d1a08191a5999995c995b9d081cdb1bdd60621b6064820152608401610bfb565b82826002015f828254612d379190614e19565b9250508190555082816002015f828254612d519190614a42565b9091555050604051838152849086907f0b2aac84f3ec956911fd78eae5311062972ff949f38412e8da39069d9f068cc69060200160405180910390a3612da785858560405180602001604052805f815250613bc1565b612e0f5760405162461bcd60e51b815260206004820152603360248201527f417373657452656769737472793a207472616e736665722072656a656374656460448201527210313c9022a921999a991aa932b1b2b4bb32b960691b6064820152608401610bfb565b5050505050565b5f8281526005602090815260408083206001600160a01b03851684528252808320548584526004909252822054909190612e5290600190614e19565b5f8581526004602052604081208054929350909183908110612e7657612e7661485f565b5f9182526020808320909101548783526004909152604090912080546001600160a01b039092169250829185908110612eb157612eb161485f565b5f91825260208083209190910180546001600160a01b0319166001600160a01b0394851617905587825260058152604080832093851683529281528282208690558782526004905220805480612f0957612f09614f44565b5f828152602080822083015f1990810180546001600160a01b03191690559092019092559581526005865260408082206001600160a01b0396909616825294909552505050812055565b5f8281526005602090815260408083206001600160a01b0385168452909152902054158015612fd057505f828152600460205260409020541580612fd057505f82815260046020526040812080546001600160a01b0384169290612fb957612fb961485f565b5f918252602090912001546001600160a01b031614155b156118c9575f82815260046020908152604082208054600180820183558285529284200180546001600160a01b0319166001600160a01b03861617905591849052905461301d9190614e19565b5f8381526005602090815260408083206001600160a01b03861684529091529020555050565b5f8061304e836113ca565b9050806001600160a01b0316846001600160a01b031614806130755750613075818561243b565b806130995750836001600160a01b031661308e84610b6f565b6001600160a01b0316145b949350505050565b826001600160a01b03166130b4826113ca565b6001600160a01b03161461311d5760405162461bcd60e51b815260206004820152602a60248201527f417373657452656769737472793a207472616e736665722066726f6d20696e7660448201526930b634b21037bbb732b960b11b6064820152608401610bfb565b6001600160a01b0382166131875760405162461bcd60e51b815260206004820152602b60248201527f417373657452656769737472793a207472616e7366657220746f20746865207a60448201526a65726f206164647265737360a81b6064820152608401610bfb565b5f61319182610e6c565b90505f61319d8361187a565b90506131a95f84612801565b6131b283613d2d565b6131bc8584613dc9565b6131c68484613edc565b82846001600160a01b0316866001600160a01b03167fddf252ad1be2c89b69c2b068fc378daa952ba7f163c4a11628f55a4df523b3ef60405160405180910390a4612e0f565b5f546001600160a01b03163314611624573360405163118cdaa760e01b8152600401610bfb91906143f0565b5f80546001600160a01b038381166001600160a01b0319831681178455604051919092169283917f8be0079c531659141344cd1fd0a4f28419497f9722a3daafe3b4186f6b6457e09190a35050565b6001600160a01b0382166132f65760405162461bcd60e51b815260206004820152603060248201527f417373657452656769737472793a20617070726f76652076616c756520746f2060448201526f746865207a65726f206164647265737360801b6064820152608401610bfb565b6133008284613f63565b613364575f838152601260205260409020546010805490919081106133275761332761485f565b5f9182526020808320600692909202909101600501805460018101825590835291200180546001600160a01b0319166001600160a01b0384161790555b5f838152600e602090815260408083206001600160a01b038616808552908352928190208490555183815285917f621b050de0ad08b51d19b48b3e6df75348c4de6bdd93e81b252ca62e28265b1b91015b60405180910390a3505050565b5f828152600d60205260409020610c9c8282614f9c565b600980545f91826133e983614ee9565b91905055905090565b5f818152600a6020526040812054900361263e57600c80546001810182555f919091527fdf6966c971051c3d54ec59162606531493a51404a002842f56009d7e5cf4a8c70155565b613443826137dd565b6134a35760405162461bcd60e51b815260206004820152602b60248201527f417373657452656769737472793a2055524920736574206f66206e6f6e65786960448201526a39ba32b73a103a37b5b2b760a91b6064820152608401610bfb565b5f828152601560205260409020610c9c8282614f9c565b816001600160a01b0316836001600160a01b03160361351b5760405162461bcd60e51b815260206004820181905260248201527f417373657452656769737472793a20617070726f766520746f2063616c6c65726044820152606401610bfb565b6001600160a01b038381165f8181526013602090815260408083209487168084526002909501825291829020805460ff191686151590811790915591519182527f17307eab39ab6107e8899845ad3d59bd9653f200f220920489ca2b5937696c3191016133b5565b61358e8484846130a1565b61359a84848484614025565b610e665760405162461bcd60e51b815260206004820152602d60248201527f417373657452656769737472793a207472616e7366657220746f206e6f6e204560448201526c29219b9918a932b1b2b4bb32b960991b6064820152608401610bfb565b8047101561361f573060405163cd78605960e01b8152600401610bfb91906143f0565b5f826001600160a01b0316826040515f6040518083038185875af1925050503d805f8114613668576040519150601f19603f3d011682016040523d82523d5f602084013e61366d565b606091505b5050905080610c9c57604051630a12f52160e11b815260040160405180910390fd5b606081515f036136ac57505060408051602081019091525f815290565b5f6040518060600160405280604081526020016153596040913990505f6003845160026136d99190614a42565b6136e39190614dfa565b6136ee906004614de3565b6001600160401b038111156137055761370561458b565b6040519080825280601f01601f19166020018201604052801561372f576020820181803683370190505b509050600182016020820185865187015b8082101561379b576003820191508151603f8160121c168501518453600184019350603f81600c1c168501518453600184019350603f8160061c168501518453600184019350603f8116850151845350600183019250613740565b50506003865106600181146137b757600281146137ca576137d2565b603d6001830353603d60028303536137d2565b603d60018303535b509195945050505050565b6010545f9015801590610ad957505f8281526012602052604090205460108054849290811061380e5761380e61485f565b905f5260205f2090600602015f01541492915050565b6060610ad96001600160a01b03831660145b6060825f613845846002614de3565b613850906002614a42565b6001600160401b038111156138675761386761458b565b6040519080825280601f01601f191660200182016040528015613891576020820181803683370190505b509050600360fc1b815f815181106138ab576138ab61485f565b60200101906001600160f81b03191690815f1a905350600f60fb1b816001815181106138d9576138d961485f565b60200101906001600160f81b03191690815f1a9053505f6138fb856002614de3565b613906906001614a42565b90505b600181111561397d576f181899199a1a9b1b9c1cb0b131b232b360811b83600f166010811061393a5761393a61485f565b1a60f81b8282815181106139505761395061485f565b60200101906001600160f81b03191690815f1a90535060049290921c9161397681615057565b9050613909565b5081156130995760405163e22e27eb60e01b81526004810186905260248101859052604401610bfb565b5f8072184f03e93ff9f4daa797ed6e38ed64bf6a1f0160401b83106139e55772184f03e93ff9f4daa797ed6e38ed64bf6a1f0160401b830492506040015b6d04ee2d6d415b85acef81000000008310613a11576d04ee2d6d415b85acef8100000000830492506020015b662386f26fc100008310613a2f57662386f26fc10000830492506010015b6305f5e1008310613a47576305f5e100830492506008015b6127108310613a5b57612710830492506004015b60648310613a6d576064830492506002015b600a8310610ad95760010192915050565b6040805160c08101825283815260208082018490525f8284018190526001600160a01b038716606084015260808301819052835181815291820190935260a08201529050613acb81614167565b613ad58484613edc565b60405183906001600160a01b038616905f907fddf252ad1be2c89b69c2b068fc378daa952ba7f163c4a11628f55a4df523b3ef908290a4815f847fe4f48c240d3b994948aa54f3e2f5fca59263dfe1d52b6e4cf39a5d249b5ccb6560405160405180910390a450505050565b5f82815260126020526040902054601080548392908110613b6457613b6461485f565b905f5260205f2090600602016002015f828254613b819190614a42565b909155505060405181815282905f907f0b2aac84f3ec956911fd78eae5311062972ff949f38412e8da39069d9f068cc69060200160405180910390a35050565b5f80613bcc856113ca565b9050803b63ffffffff1615613d21576040516301ffc9a760e01b8152629ce20b60e01b60048201526001600160a01b038216906301ffc9a790602401602060405180830381865afa925050508015613c41575060408051601f3d908101601f19168201909252613c3e91810190614e2c565b60015b613c7f573d808015613c6e576040519150601f19603f3d011682016040523d82523d5f602084013e613c73565b606091505b50600192505050613099565b8015613d1657604051629ce20b60e01b81525f906001600160a01b03841690629ce20b90613cb99033908c908c908c908c9060040161506c565b6020604051808303815f875af1158015613cd5573d5f803e3d5ffd5b505050506040513d601f19601f82011682018060405250810190613cf991906150a9565b6001600160e01b031916629ce20b60e01b14935061309992505050565b600192505050613099565b50600195945050505050565b5f81815260126020526040812054601080549091908110613d5057613d5061485f565b5f91825260208220600560069092020190810154909250905b81811015613dbb575f836005018281548110613d8757613d8761485f565b5f918252602080832090910154878352600e825260408084206001600160a01b039092168452915281205550600101613d69565b50610c9c600583015f6142b8565b5f81815260126020526040812054601080549091908110613dec57613dec61485f565b5f918252602080832060069290920290910160030180546001600160a01b0319166001600160a01b0394851617905591841681526013909152604081208054909190613e3a90600190614e19565b90505f825f018281548110613e5157613e5161485f565b905f5260205f20015490505f836001015f8681526020019081526020015f2054905081845f018281548110613e8857613e8861485f565b5f9182526020808320909101929092558381526001860190915260408082208390558682528120558354849080613ec157613ec1614f44565b600190038181905f5260205f20015f90559055505050505050565b5f81815260126020526040902054601080548492908110613eff57613eff61485f565b5f918252602080832060069290920290910160030180546001600160a01b0319166001600160a01b03948516179055939091168152601380845260408083208054858552600182810188529285208190559286529082018155825292902090910155565b5f81815260126020526040812054601080548392908110613f8657613f8661485f565b5f918252602082206005600690920201015491505b8181101561401b575f84815260126020526040902054601080546001600160a01b03881692908110613fcf57613fcf61485f565b905f5260205f2090600602016005018281548110613fef57613fef61485f565b5f918252602090912001546001600160a01b03160361401357600192505050610ad9565b600101613f9b565b505f949350505050565b5f833b63ffffffff161561415f57604051630a85bd0160e11b81526001600160a01b0385169063150b7a02906140659033908990889088906004016150c4565b6020604051808303815f875af192505050801561409f575060408051601f3d908101601f1916820190925261409c918101906150a9565b60015b614145573d8080156140cc576040519150601f19603f3d011682016040523d82523d5f602084013e6140d1565b606091505b5080515f0361413d5760405162461bcd60e51b815260206004820152603260248201527f4552433732313a207472616e7366657220746f206e6f6e20455243373231526560448201527131b2b4bb32b91034b6b83632b6b2b73a32b960711b6064820152608401610bfb565b805181602001fd5b6001600160e01b031916630a85bd0160e11b149050613099565b506001613099565b6010805482515f90815260126020908152604080832084905560018401855593909152835160069092027f1b6847dc741a1b0cd08d278845f9d819d87b734759afb55fe2de5cb82a9ae6728101928355818501517f1b6847dc741a1b0cd08d278845f9d819d87b734759afb55fe2de5cb82a9ae673820155928401517f1b6847dc741a1b0cd08d278845f9d819d87b734759afb55fe2de5cb82a9ae67484015560608401517f1b6847dc741a1b0cd08d278845f9d819d87b734759afb55fe2de5cb82a9ae675840180546001600160a01b039283166001600160a01b03199182161790915560808601517f1b6847dc741a1b0cd08d278845f9d819d87b734759afb55fe2de5cb82a9ae6768601805491909316911617905560a084015180518594610e66937f1b6847dc741a1b0cd08d278845f9d819d87b734759afb55fe2de5cb82a9ae6779091019201906142d3565b5080545f8255905f5260205f209081019061263e9190614336565b828054828255905f5260205f20908101928215614326579160200282015b8281111561432657825182546001600160a01b0319166001600160a01b039091161782556020909201916001909101906142f1565b50614332929150614336565b5090565b5b80821115614332575f8155600101614337565b6001600160e01b03198116811461263e575f80fd5b5f6020828403121561436f575f80fd5b8135610d838161434a565b5f5b8381101561439457818101518382015260200161437c565b50505f910152565b5f81518084526143b381602086016020860161437a565b601f01601f19169290920160200192915050565b602081525f610d83602083018461439c565b5f602082840312156143e9575f80fd5b5035919050565b6001600160a01b0391909116815260200190565b6001600160a01b038116811461263e575f80fd5b5f8060408385031215614429575f80fd5b823561443481614404565b946020939093013593505050565b5f805f60608486031215614454575f80fd5b83359250602084013561446681614404565b929592945050506040919091013590565b5f805f60608486031215614489575f80fd5b833561449481614404565b9250602084013561446681614404565b5f805f606084860312156144b6575f80fd5b505081359360208301359350604090920135919050565b5f80604083850312156144de575f80fd5b50508035926020909101359150565b602080825282518282018190525f9190848201906040850190845b8181101561452457835183529284019291840191600101614508565b50909695505050505050565b602080825282518282018190525f9190848201906040850190845b818110156145245783516001600160a01b03168352928401929184019160010161454b565b5f60208284031215614580575f80fd5b8135610d8381614404565b634e487b7160e01b5f52604160045260245ffd5b604051601f8201601f191681016001600160401b03811182821017156145c7576145c761458b565b604052919050565b5f6001600160401b038211156145e7576145e761458b565b50601f01601f191660200190565b5f614607614602846145cf565b61459f565b905082815283838301111561461a575f80fd5b828260208301375f602084830101529392505050565b5f805f60608486031215614642575f80fd5b833561464d81614404565b92506020840135915060408401356001600160401b0381111561466e575f80fd5b8401601f8101861361467e575f80fd5b61468d868235602084016145f5565b9150509250925092565b801515811461263e575f80fd5b5f80604083850312156146b5575f80fd5b82356146c081614404565b915060208301356146d081614697565b809150509250929050565b5f805f606084860312156146ed575f80fd5b8335925060208401356146ff81614404565b9150604084013561470f81614404565b809150509250925092565b5f805f806080858703121561472d575f80fd5b843561473881614404565b9350602085013561474881614404565b92506040850135915060608501356001600160401b03811115614769575f80fd5b8501601f81018713614779575f80fd5b614788878235602084016145f5565b91505092959194509250565b5f805f606084860312156147a6575f80fd5b8335925060208401359150604084013561470f81614404565b6001600160a01b03929092168252602082015260400190565b5f80604083850312156147e9575f80fd5b8235915060208301356146d081614404565b5f806040838503121561480c575f80fd5b823561481781614404565b915060208301356146d081614404565b600181811c9082168061483b57607f821691505b60208210810361485957634e487b7160e01b5f52602260045260245ffd5b50919050565b634e487b7160e01b5f52603260045260245ffd5b60208082526028908201527f417373657452656769737472793a20617070726f76616c20746f206375727265604082015267373a1037bbb732b960c11b606082015260800190565b5f81516148cc81856020860161437a565b9290920192915050565b5f83516148e781846020880161437a565b64736c6f742f60d81b908301908152835161490981600584016020880161437a565b01600501949350505050565b5f60208284031215614925575f80fd5b81516001600160401b0381111561493a575f80fd5b8201601f8101841361494a575f80fd5b8051614958614602826145cf565b81815285602083850101111561496c575f80fd5b61497d82602083016020860161437a565b95945050505050565b60208082526038908201527f417373657452656769737472793a207472616e736665722063616c6c657220696040820152771cc81b9bdd081bdddb995c881b9bdc88185c1c1c9bdd995960421b606082015260800190565b60208082526030908201527f417373657452656769737472793a2061646472657373207a65726f206973206e60408201526f37ba1030903b30b634b21037bbb732b960811b606082015260800190565b634e487b7160e01b5f52601160045260245ffd5b80820180821115610ad957610ad9614a2e565b60208082526017908201527620b9b9b2ba399d27b7363c9020b9b9b2ba1027bbb732b960491b604082015260600190565b5f60208284031215614a96575f80fd5b8151610d8381614404565b6020808252601f908201527f417373657452656769737472793a20696e76616c696420746f6b656e20494400604082015260600190565b5f8751614ae9818460208c0161437a565b875190830190614afd818360208c0161437a565b8082019150507f3c2f747370616e3e3c747370616e20783d2231362220793d22323630223e536c81527f6f743c2f747370616e3e3c747370616e20783d2231362220793d22323830223e60208201527f417373657449643c2f747370616e3e203c747370616e20783d2231362220793d60408201527f22333030223e56616c75653c2f747370616e3e3c747370616e20783d2231323060608201527f2220793d223236302220746578742d616e63686f723d22656e64223e0000000060808201528651614bd181609c840160208b0161437a565b7f3c2f747370616e3e3c747370616e20783d223132302220793d22323830222074609c92909101918201527032bc3a16b0b731b437b91e9132b732111f60791b60bc820152614d94614cc5614cbf614c7b614c75614c3260cd87018c6148bb565b7f3c2f747370616e3e3c747370616e20783d223132302220793d2233303022207481527032bc3a16b0b731b437b91e9132b732111f60791b602082015260310190565b896148bb565b7f3c2f747370616e3e3c747370616e20783d2231362220793d223334342220666f815271373a16b9b4bd329e911b911f27bbb732b91d60711b602082015260320190565b866148bb565b7f3c2f747370616e3e3c747370616e20783d2231362220793d223335362220666f81527f6e742d73697a653d2237223e53657269616c204e6f3c2f747370616e3e3c747360208201527f70616e20783d223531362220793d223338302220666f6e742d73697a653d223760408201527f222066696c6c3d22626c61636b222066696c6c2d6f7061636974793d22302e3660608201527f223e44656d6f20564d414e204e4654203c2f747370616e3e3c2f746578743e3c60808201526417b9bb339f60d91b60a082015260a50190565b9998505050505050505050565b5f8451614db281846020890161437a565b845190830190614dc681836020890161437a565b8451910190614dd981836020880161437a565b0195945050505050565b8082028115828204841417610ad957610ad9614a2e565b5f82614e1457634e487b7160e01b5f52601260045260245ffd5b500490565b81810381811115610ad957610ad9614a2e565b5f60208284031215614e3c575f80fd5b8151610d8381614697565b7f7b2022696d616765223a22646174613a696d6167652f7376672b786d6c3b62618152641cd94d8d0b60da1b60208201525f8251614e8c81602585016020870161437a565b61227d60f01b6025939091019283015250602701919050565b7f646174613a6170706c69636174696f6e2f6a736f6e3b6261736536342c00000081525f8251614edc81601d85016020870161437a565b91909101601d0192915050565b5f60018201614efa57614efa614a2e565b5060010190565b5f8351614f1281846020880161437a565b68636f6e74726163742f60b81b9083019081528351614f3881600984016020880161437a565b01600901949350505050565b634e487b7160e01b5f52603160045260245ffd5b601f821115610c9c57805f5260205f20601f840160051c81016020851015614f7d5750805b601f840160051c820191505b81811015612e0f575f8155600101614f89565b81516001600160401b03811115614fb557614fb561458b565b614fc981614fc38454614827565b84614f58565b602080601f831160018114614ffc575f8415614fe55750858301515b5f19600386901b1c1916600185901b1785556127d4565b5f85815260208120601f198616915b8281101561502a5788860151825594840194600190910190840161500b565b508582101561504757878501515f19600388901b60f8161c191681555b5050505050600190811b01905550565b5f8161506557615065614a2e565b505f190190565b60018060a01b038616815284602082015283604082015282606082015260a060808201525f61509e60a083018461439c565b979650505050505050565b5f602082840312156150b9575f80fd5b8151610d838161434a565b6001600160a01b03858116825284166020820152604081018390526080606082018190525f906150f69083018461439c565b969550505050505056fe3c73766720786d6c6e733d22687474703a2f2f7777772e77332e6f72672f323030302f737667222077696474683d2236303022206865696768743d2236303022202076696577426f783d223020302036303020343030222066696c6c3d226e6f6e65223e3c726563742077696474683d2231353022206865696768743d22343030222066696c6c3d227768697465222f3e3c7265637420783d22302e352220793d22302e35222077696474683d2235393922206865696768743d223339392220207374726f6b653d2223463946394639222f3e3c67206d61736b3d2275726c28236d5f333532355f3129223e3c7265637420783d22313530222077696474683d2234353022206865696768743d22343030222066696c6c3d2223343139323845222f3e20203c746578742066696c6c3d22233230323032302220666f6e742d66616d696c793d22417269616c2220666f6e742d73697a653d223132223e3c747370616e20783d2231362220793d2234312220666f6e742d73697a653d2231362220666f6e742d7765696768743d22626f6c64223e564d414e4e46543c2f747370616e3e3c747370616e20783d2231362220793d2238382220666f6e742d73697a653d2231352220666f6e742d7765696768743d22626f6c64223e50524f44554354204e414d453c2f747370616e3e3c747370616e20783d2231362220793d223132332220666f6e742d73697a653d2231342220666f6e742d7765696768743d22626f6c64222066696c6c3d2223343133323845223e564d414e3c2f747370616e3e3c747370616e20783d2231362220793d22313432223e234142434445464748494a4b4c4d4e4f505152535455565758595a6162636465666768696a6b6c6d6e6f707172737475767778797a303132333435363738392b2f3c73766720783d2238302220793d222d3235222077696474683d2236303022206865696768743d22363030222076696577426f783d22302030203735203735222066696c6c3d222330303030303022207374726f6b653d222330303030303022207374726f6b652d77696474683d22302e3030303732223e3c7061746820643d224d36302e36342c32382e3161312e32342c312e32342c302c302c302d312e32372d312e32326c2d31342e38392d2e3333632e36312d2e39312c312e35312d322e30352c322e37382d332e35372c362e31362d372e33362c342e31392d392e382c342e31392d392e38732d322e32382d322d392e39312c332e3834632d312e33312c312d322e33342c312e37362d332e31392c322e33316c2e332d31342e303961312e31392c312e31392c302c312c302d322e33382c306c2d2e33342c31352e3333632d322c2e34342d332d312e32352d372e33332d332e33312c302c302d322e33342e39312d322e38362c322e37376133392e34312c33392e34312c302c302c312c332e33392c362e32346c2d31342e352d2e333161312e322c312e322c302c312c302d2e30352c322e33396c31342e362e333161312e32382c312e32382c302c302c302c2e33352e35394c31392e38342c34312e36316c2d342e35372d332e32342e35342d312e32355331322c33392e372c31312e352c34312e33346c2d2e31342c322c312e33372d2e34382e34312d312e33314c31362c34352e3931732d2e37392e392d2e32342c312e34372c312e35352d2e312c312e35352d2e316c342e33352c332e312d312e33322e33352d2e35342c312e33352c322c3063312e36352d2e33392c342e342d342e31332c342e342d342e31336c2d312e32382e34392d332d342e37312c31322e38312d392e313561312e33312c312e33312c302c302c302c312c2e34356c2d2e33322c313561312e31392c312e31392c302c312c302c322e33382c304c33382c33352e32336134322e31372c34322e31372c302c302c312c352e36372c332e343763312e38382d2e34342c322e38372d322e37352c322e38372d322e37352d312e37312d342e312d332e32342d352e33342d332e30392d376c31352e38372e333441312e32352c312e32352c302c302c302c36302e36342c32382e315a222f3e3c2f7376673e3c2f673ea264697066735822122013b2baecb4ec264159b2ac72df6121029c63b8cd889ff3ea371f035e83af6c2b64736f6c63430008180033",
			"opcodes": "PUSH1 0x80 PUSH1 0x40 MSTORE CALLVALUE DUP1 ISZERO PUSH3 0x10 JUMPI PUSH0 DUP1 REVERT JUMPDEST POP PUSH1 0x40 MLOAD PUSH3 0x59F7 CODESIZE SUB DUP1 PUSH3 0x59F7 DUP4 CODECOPY DUP2 ADD PUSH1 0x40 DUP2 SWAP1 MSTORE PUSH3 0x33 SWAP2 PUSH3 0x12C JUMP JUMPDEST DUP1 PUSH1 0x1 PUSH1 0x1 PUSH1 0xA0 SHL SUB DUP2 AND PUSH3 0x62 JUMPI PUSH1 0x40 MLOAD PUSH4 0x1E4FBDF7 PUSH1 0xE0 SHL DUP2 MSTORE PUSH0 PUSH1 0x4 DUP3 ADD MSTORE PUSH1 0x24 ADD PUSH1 0x40 MLOAD DUP1 SWAP2 SUB SWAP1 REVERT JUMPDEST PUSH3 0x6D DUP2 PUSH3 0xDD JUMP JUMPDEST POP PUSH1 0x1 PUSH1 0x9 SSTORE PUSH1 0x40 DUP1 MLOAD DUP1 DUP3 ADD SWAP1 SWAP2 MSTORE PUSH1 0x5 DUP2 MSTORE PUSH5 0x436865636B PUSH1 0xD8 SHL PUSH1 0x20 DUP3 ADD MSTORE PUSH1 0x6 SWAP1 PUSH3 0x9E SWAP1 DUP3 PUSH3 0x1F9 JUMP JUMPDEST POP PUSH1 0x40 DUP1 MLOAD DUP1 DUP3 ADD SWAP1 SWAP2 MSTORE PUSH1 0x3 DUP2 MSTORE PUSH3 0x43484B PUSH1 0xE8 SHL PUSH1 0x20 DUP3 ADD MSTORE PUSH1 0x7 SWAP1 PUSH3 0xC8 SWAP1 DUP3 PUSH3 0x1F9 JUMP JUMPDEST POP POP PUSH1 0x8 DUP1 SLOAD PUSH1 0xFF NOT AND PUSH1 0x12 OR SWAP1 SSTORE PUSH3 0x2C5 JUMP JUMPDEST PUSH0 DUP1 SLOAD PUSH1 0x1 PUSH1 0x1 PUSH1 0xA0 SHL SUB DUP4 DUP2 AND PUSH1 0x1 PUSH1 0x1 PUSH1 0xA0 SHL SUB NOT DUP4 AND DUP2 OR DUP5 SSTORE PUSH1 0x40 MLOAD SWAP2 SWAP1 SWAP3 AND SWAP3 DUP4 SWAP2 PUSH32 0x8BE0079C531659141344CD1FD0A4F28419497F9722A3DAAFE3B4186F6B6457E0 SWAP2 SWAP1 LOG3 POP POP JUMP JUMPDEST PUSH0 PUSH1 0x20 DUP3 DUP5 SUB SLT ISZERO PUSH3 0x13D JUMPI PUSH0 DUP1 REVERT JUMPDEST DUP2 MLOAD PUSH1 0x1 PUSH1 0x1 PUSH1 0xA0 SHL SUB DUP2 AND DUP2 EQ PUSH3 0x154 JUMPI PUSH0 DUP1 REVERT JUMPDEST SWAP4 SWAP3 POP POP POP JUMP JUMPDEST PUSH4 0x4E487B71 PUSH1 0xE0 SHL PUSH0 MSTORE PUSH1 0x41 PUSH1 0x4 MSTORE PUSH1 0x24 PUSH0 REVERT JUMPDEST PUSH1 0x1 DUP2 DUP2 SHR SWAP1 DUP3 AND DUP1 PUSH3 0x184 JUMPI PUSH1 0x7F DUP3 AND SWAP2 POP JUMPDEST PUSH1 0x20 DUP3 LT DUP2 SUB PUSH3 0x1A3 JUMPI PUSH4 0x4E487B71 PUSH1 0xE0 SHL PUSH0 MSTORE PUSH1 0x22 PUSH1 0x4 MSTORE PUSH1 0x24 PUSH0 REVERT JUMPDEST POP SWAP2 SWAP1 POP JUMP JUMPDEST PUSH1 0x1F DUP3 GT ISZERO PUSH3 0x1F4 JUMPI DUP1 PUSH0 MSTORE PUSH1 0x20 PUSH0 KECCAK256 PUSH1 0x1F DUP5 ADD PUSH1 0x5 SHR DUP2 ADD PUSH1 0x20 DUP6 LT ISZERO PUSH3 0x1D0 JUMPI POP DUP1 JUMPDEST PUSH1 0x1F DUP5 ADD PUSH1 0x5 SHR DUP3 ADD SWAP2 POP JUMPDEST DUP2 DUP2 LT ISZERO PUSH3 0x1F1 JUMPI PUSH0 DUP2 SSTORE PUSH1 0x1 ADD PUSH3 0x1DC JUMP JUMPDEST POP POP JUMPDEST POP POP POP JUMP JUMPDEST DUP2 MLOAD PUSH1 0x1 PUSH1 0x1 PUSH1 0x40 SHL SUB DUP2 GT ISZERO PUSH3 0x215 JUMPI PUSH3 0x215 PUSH3 0x15B JUMP JUMPDEST PUSH3 0x22D DUP2 PUSH3 0x226 DUP5 SLOAD PUSH3 0x16F JUMP JUMPDEST DUP5 PUSH3 0x1A9 JUMP JUMPDEST PUSH1 0x20 DUP1 PUSH1 0x1F DUP4 GT PUSH1 0x1 DUP2 EQ PUSH3 0x263 JUMPI PUSH0 DUP5 ISZERO PUSH3 0x24B JUMPI POP DUP6 DUP4 ADD MLOAD JUMPDEST PUSH0 NOT PUSH1 0x3 DUP7 SWAP1 SHL SHR NOT AND PUSH1 0x1 DUP6 SWAP1 SHL OR DUP6 SSTORE PUSH3 0x2BD JUMP JUMPDEST PUSH0 DUP6 DUP2 MSTORE PUSH1 0x20 DUP2 KECCAK256 PUSH1 0x1F NOT DUP7 AND SWAP2 JUMPDEST DUP3 DUP2 LT ISZERO PUSH3 0x293 JUMPI DUP9 DUP7 ADD MLOAD DUP3 SSTORE SWAP5 DUP5 ADD SWAP5 PUSH1 0x1 SWAP1 SWAP2 ADD SWAP1 DUP5 ADD PUSH3 0x272 JUMP JUMPDEST POP DUP6 DUP3 LT ISZERO PUSH3 0x2B1 JUMPI DUP8 DUP6 ADD MLOAD PUSH0 NOT PUSH1 0x3 DUP9 SWAP1 SHL PUSH1 0xF8 AND SHR NOT AND DUP2 SSTORE JUMPDEST POP POP PUSH1 0x1 DUP5 PUSH1 0x1 SHL ADD DUP6 SSTORE JUMPDEST POP POP POP POP POP POP JUMP JUMPDEST PUSH2 0x5724 DUP1 PUSH3 0x2D3 PUSH0 CODECOPY PUSH0 RETURN INVALID PUSH1 0x80 PUSH1 0x40 MSTORE PUSH1 0x4 CALLDATASIZE LT PUSH2 0x2EE JUMPI PUSH0 CALLDATALOAD PUSH1 0xE0 SHR DUP1 PUSH4 0x8D5802E2 GT PUSH2 0x18C JUMPI DUP1 PUSH4 0xBFF26126 GT PUSH2 0xDF JUMPI DUP1 PUSH4 0xD87477E3 GT PUSH2 0x8E JUMPI DUP1 PUSH4 0xD87477E3 EQ PUSH2 0x944 JUMPI DUP1 PUSH4 0xE0AF5B25 EQ PUSH2 0x96F JUMPI DUP1 PUSH4 0xE345E0BC EQ PUSH2 0x98E JUMPI DUP1 PUSH4 0xE8A3D485 EQ PUSH2 0x9AD JUMPI DUP1 PUSH4 0xE985E9C5 EQ PUSH2 0x9C1 JUMPI DUP1 PUSH4 0xEB23CE4C EQ PUSH2 0x9E0 JUMPI DUP1 PUSH4 0xF2FDE38B EQ PUSH2 0x9FF JUMPI DUP1 PUSH4 0xF8F34CDE EQ PUSH2 0xA1E JUMPI PUSH0 DUP1 REVERT JUMPDEST DUP1 PUSH4 0xBFF26126 EQ PUSH2 0x84A JUMPI DUP1 PUSH4 0xC72FCDF9 EQ PUSH2 0x869 JUMPI DUP1 PUSH4 0xC79EAA40 EQ PUSH2 0x888 JUMPI DUP1 PUSH4 0xC87B56DD EQ PUSH2 0x89B JUMPI DUP1 PUSH4 0xCF35BDD0 EQ PUSH2 0x8BA JUMPI DUP1 PUSH4 0xD28BB34A EQ PUSH2 0x906 JUMPI DUP1 PUSH4 0xD60D5AAD EQ PUSH2 0x925 JUMPI PUSH0 DUP1 REVERT JUMPDEST DUP1 PUSH4 0xA5A41031 GT PUSH2 0x13B JUMPI DUP1 PUSH4 0xA5A41031 EQ PUSH2 0x735 JUMPI DUP1 PUSH4 0xA7263665 EQ PUSH2 0x749 JUMPI DUP1 PUSH4 0xAA5965AE EQ PUSH2 0x774 JUMPI DUP1 PUSH4 0xAC9B05C2 EQ PUSH2 0x7C7 JUMPI DUP1 PUSH4 0xB0E21E8A EQ PUSH2 0x803 JUMPI DUP1 PUSH4 0xB86B19DE EQ PUSH2 0x818 JUMPI DUP1 PUSH4 0xB88D4FDE EQ PUSH2 0x837 JUMPI PUSH0 DUP1 REVERT JUMPDEST DUP1 PUSH4 0x8D5802E2 EQ PUSH2 0x649 JUMPI DUP1 PUSH4 0x8DA5CB5B EQ PUSH2 0x67D JUMPI DUP1 PUSH4 0x8E9E5114 EQ PUSH2 0x699 JUMPI DUP1 PUSH4 0x95D89B41 EQ PUSH2 0x6B8 JUMPI DUP1 PUSH4 0x9CC7F708 EQ PUSH2 0x6CC JUMPI DUP1 PUSH4 0xA167DD55 EQ PUSH2 0x6EB JUMPI DUP1 PUSH4 0xA22CB465 EQ PUSH2 0x716 JUMPI PUSH0 DUP1 REVERT JUMPDEST DUP1 PUSH4 0x3E7E8669 GT PUSH2 0x244 JUMPI DUP1 PUSH4 0x686735C5 GT PUSH2 0x1F3 JUMPI DUP1 PUSH4 0x686735C5 EQ PUSH2 0x56E JUMPI DUP1 PUSH4 0x70A08231 EQ PUSH2 0x59A JUMPI DUP1 PUSH4 0x715018A6 EQ PUSH2 0x5B9 JUMPI DUP1 PUSH4 0x787DCE3D EQ PUSH2 0x5CD JUMPI DUP1 PUSH4 0x7FAE60D5 EQ PUSH2 0x5EC JUMPI DUP1 PUSH4 0x840F7113 EQ PUSH2 0x617 JUMPI DUP1 PUSH4 0x8CB0A511 EQ PUSH2 0x636 JUMPI PUSH0 DUP1 REVERT JUMPDEST DUP1 PUSH4 0x3E7E8669 EQ PUSH2 0x49D JUMPI DUP1 PUSH4 0x42842E0E EQ PUSH2 0x4BE JUMPI DUP1 PUSH4 0x4F6CCCE7 EQ PUSH2 0x4D1 JUMPI DUP1 PUSH4 0x6285BFCF EQ PUSH2 0x4F0 JUMPI DUP1 PUSH4 0x62B62E5E EQ PUSH2 0x511 JUMPI DUP1 PUSH4 0x6352211E EQ PUSH2 0x530 JUMPI DUP1 PUSH4 0x6408DCBA EQ PUSH2 0x54F JUMPI PUSH0 DUP1 REVERT JUMPDEST DUP1 PUSH4 0x23B872DD GT PUSH2 0x2A0 JUMPI DUP1 PUSH4 0x23B872DD EQ PUSH2 0x3DC JUMPI DUP1 PUSH4 0x263F3E7E EQ PUSH2 0x3EF JUMPI DUP1 PUSH4 0x2847637A EQ PUSH2 0x40E JUMPI DUP1 PUSH4 0x2F745C59 EQ PUSH2 0x42D JUMPI DUP1 PUSH4 0x310ED7F0 EQ PUSH2 0x44C JUMPI DUP1 PUSH4 0x35805BE2 EQ PUSH2 0x45F JUMPI DUP1 PUSH4 0x394B2122 EQ PUSH2 0x47E JUMPI PUSH0 DUP1 REVERT JUMPDEST DUP1 PUSH4 0x1FFC9A7 EQ PUSH2 0x2F2 JUMPI DUP1 PUSH4 0x6FDDE03 EQ PUSH2 0x326 JUMPI DUP1 PUSH4 0x81812FC EQ PUSH2 0x347 JUMPI DUP1 PUSH4 0x95EA7B3 EQ PUSH2 0x373 JUMPI DUP1 PUSH4 0x9C3DD87 EQ PUSH2 0x388 JUMPI DUP1 PUSH4 0xF485C02 EQ PUSH2 0x3A7 JUMPI DUP1 PUSH4 0x18160DDD EQ PUSH2 0x3C8 JUMPI JUMPDEST PUSH0 DUP1 REVERT JUMPDEST CALLVALUE DUP1 ISZERO PUSH2 0x2FD JUMPI PUSH0 DUP1 REVERT JUMPDEST POP PUSH2 0x311 PUSH2 0x30C CALLDATASIZE PUSH1 0x4 PUSH2 0x435F JUMP JUMPDEST PUSH2 0xA3D JUMP JUMPDEST PUSH1 0x40 MLOAD SWAP1 ISZERO ISZERO DUP2 MSTORE PUSH1 0x20 ADD JUMPDEST PUSH1 0x40 MLOAD DUP1 SWAP2 SUB SWAP1 RETURN JUMPDEST CALLVALUE DUP1 ISZERO PUSH2 0x331 JUMPI PUSH0 DUP1 REVERT JUMPDEST POP PUSH2 0x33A PUSH2 0xADF JUMP JUMPDEST PUSH1 0x40 MLOAD PUSH2 0x31D SWAP2 SWAP1 PUSH2 0x43C7 JUMP JUMPDEST CALLVALUE DUP1 ISZERO PUSH2 0x352 JUMPI PUSH0 DUP1 REVERT JUMPDEST POP PUSH2 0x366 PUSH2 0x361 CALLDATASIZE PUSH1 0x4 PUSH2 0x43D9 JUMP JUMPDEST PUSH2 0xB6F JUMP JUMPDEST PUSH1 0x40 MLOAD PUSH2 0x31D SWAP2 SWAP1 PUSH2 0x43F0 JUMP JUMPDEST PUSH2 0x386 PUSH2 0x381 CALLDATASIZE PUSH1 0x4 PUSH2 0x4418 JUMP JUMPDEST PUSH2 0xBBE JUMP JUMPDEST STOP JUMPDEST CALLVALUE DUP1 ISZERO PUSH2 0x393 JUMPI PUSH0 DUP1 REVERT JUMPDEST POP PUSH2 0x33A PUSH2 0x3A2 CALLDATASIZE PUSH1 0x4 PUSH2 0x43D9 JUMP JUMPDEST PUSH2 0xCA1 JUMP JUMPDEST PUSH2 0x3BA PUSH2 0x3B5 CALLDATASIZE PUSH1 0x4 PUSH2 0x4442 JUMP JUMPDEST PUSH2 0xD8A JUMP JUMPDEST PUSH1 0x40 MLOAD SWAP1 DUP2 MSTORE PUSH1 0x20 ADD PUSH2 0x31D JUMP JUMPDEST CALLVALUE DUP1 ISZERO PUSH2 0x3D3 JUMPI PUSH0 DUP1 REVERT JUMPDEST POP PUSH1 0x10 SLOAD PUSH2 0x3BA JUMP JUMPDEST PUSH2 0x386 PUSH2 0x3EA CALLDATASIZE PUSH1 0x4 PUSH2 0x4477 JUMP JUMPDEST PUSH2 0xE15 JUMP JUMPDEST CALLVALUE DUP1 ISZERO PUSH2 0x3FA JUMPI PUSH0 DUP1 REVERT JUMPDEST POP PUSH2 0x3BA PUSH2 0x409 CALLDATASIZE PUSH1 0x4 PUSH2 0x43D9 JUMP JUMPDEST PUSH2 0xE6C JUMP JUMPDEST CALLVALUE DUP1 ISZERO PUSH2 0x419 JUMPI PUSH0 DUP1 REVERT JUMPDEST POP PUSH2 0x3BA PUSH2 0x428 CALLDATASIZE PUSH1 0x4 PUSH2 0x43D9 JUMP JUMPDEST PUSH2 0xEB0 JUMP JUMPDEST CALLVALUE DUP1 ISZERO PUSH2 0x438 JUMPI PUSH0 DUP1 REVERT JUMPDEST POP PUSH2 0x3BA PUSH2 0x447 CALLDATASIZE PUSH1 0x4 PUSH2 0x4418 JUMP JUMPDEST PUSH2 0xF23 JUMP JUMPDEST PUSH2 0x386 PUSH2 0x45A CALLDATASIZE PUSH1 0x4 PUSH2 0x44A4 JUMP JUMPDEST PUSH2 0xFC6 JUMP JUMPDEST CALLVALUE DUP1 ISZERO PUSH2 0x46A JUMPI PUSH0 DUP1 REVERT JUMPDEST POP PUSH2 0x3BA PUSH2 0x479 CALLDATASIZE PUSH1 0x4 PUSH2 0x4418 JUMP JUMPDEST PUSH2 0x10B7 JUMP JUMPDEST CALLVALUE DUP1 ISZERO PUSH2 0x489 JUMPI PUSH0 DUP1 REVERT JUMPDEST POP PUSH2 0x386 PUSH2 0x498 CALLDATASIZE PUSH1 0x4 PUSH2 0x44CD JUMP JUMPDEST PUSH2 0x11A4 JUMP JUMPDEST CALLVALUE DUP1 ISZERO PUSH2 0x4A8 JUMPI PUSH0 DUP1 REVERT JUMPDEST POP PUSH1 0x8 SLOAD PUSH1 0x40 MLOAD PUSH1 0xFF SWAP1 SWAP2 AND DUP2 MSTORE PUSH1 0x20 ADD PUSH2 0x31D JUMP JUMPDEST PUSH2 0x386 PUSH2 0x4CC CALLDATASIZE PUSH1 0x4 PUSH2 0x4477 JUMP JUMPDEST PUSH2 0x1255 JUMP JUMPDEST CALLVALUE DUP1 ISZERO PUSH2 0x4DC JUMPI PUSH0 DUP1 REVERT JUMPDEST POP PUSH2 0x3BA PUSH2 0x4EB CALLDATASIZE PUSH1 0x4 PUSH2 0x43D9 JUMP JUMPDEST PUSH2 0x126F JUMP JUMPDEST CALLVALUE DUP1 ISZERO PUSH2 0x4FB JUMPI PUSH0 DUP1 REVERT JUMPDEST POP PUSH2 0x504 PUSH2 0x1302 JUMP JUMPDEST PUSH1 0x40 MLOAD PUSH2 0x31D SWAP2 SWAP1 PUSH2 0x44ED JUMP JUMPDEST CALLVALUE DUP1 ISZERO PUSH2 0x51C JUMPI PUSH0 DUP1 REVERT JUMPDEST POP PUSH2 0x311 PUSH2 0x52B CALLDATASIZE PUSH1 0x4 PUSH2 0x43D9 JUMP JUMPDEST PUSH2 0x1357 JUMP JUMPDEST CALLVALUE DUP1 ISZERO PUSH2 0x53B JUMPI PUSH0 DUP1 REVERT JUMPDEST POP PUSH2 0x366 PUSH2 0x54A CALLDATASIZE PUSH1 0x4 PUSH2 0x43D9 JUMP JUMPDEST PUSH2 0x13CA JUMP JUMPDEST CALLVALUE DUP1 ISZERO PUSH2 0x55A JUMPI PUSH0 DUP1 REVERT JUMPDEST POP PUSH2 0x386 PUSH2 0x569 CALLDATASIZE PUSH1 0x4 PUSH2 0x44CD JUMP JUMPDEST PUSH2 0x1432 JUMP JUMPDEST CALLVALUE DUP1 ISZERO PUSH2 0x579 JUMPI PUSH0 DUP1 REVERT JUMPDEST POP PUSH2 0x58D PUSH2 0x588 CALLDATASIZE PUSH1 0x4 PUSH2 0x43D9 JUMP JUMPDEST PUSH2 0x14C9 JUMP JUMPDEST PUSH1 0x40 MLOAD PUSH2 0x31D SWAP2 SWAP1 PUSH2 0x4530 JUMP JUMPDEST CALLVALUE DUP1 ISZERO PUSH2 0x5A5 JUMPI PUSH0 DUP1 REVERT JUMPDEST POP PUSH2 0x3BA PUSH2 0x5B4 CALLDATASIZE PUSH1 0x4 PUSH2 0x4570 JUMP JUMPDEST PUSH2 0x1587 JUMP JUMPDEST CALLVALUE DUP1 ISZERO PUSH2 0x5C4 JUMPI PUSH0 DUP1 REVERT JUMPDEST POP PUSH2 0x386 PUSH2 0x1613 JUMP JUMPDEST CALLVALUE DUP1 ISZERO PUSH2 0x5D8 JUMPI PUSH0 DUP1 REVERT JUMPDEST POP PUSH2 0x386 PUSH2 0x5E7 CALLDATASIZE PUSH1 0x4 PUSH2 0x43D9 JUMP JUMPDEST PUSH2 0x1626 JUMP JUMPDEST CALLVALUE DUP1 ISZERO PUSH2 0x5F7 JUMPI PUSH0 DUP1 REVERT JUMPDEST POP PUSH2 0x3BA PUSH2 0x606 CALLDATASIZE PUSH1 0x4 PUSH2 0x43D9 JUMP JUMPDEST PUSH0 SWAP1 DUP2 MSTORE PUSH1 0xB PUSH1 0x20 MSTORE PUSH1 0x40 SWAP1 KECCAK256 SLOAD SWAP1 JUMP JUMPDEST CALLVALUE DUP1 ISZERO PUSH2 0x622 JUMPI PUSH0 DUP1 REVERT JUMPDEST POP PUSH1 0x14 SLOAD PUSH2 0x366 SWAP1 PUSH1 0x1 PUSH1 0x1 PUSH1 0xA0 SHL SUB AND DUP2 JUMP JUMPDEST PUSH2 0x386 PUSH2 0x644 CALLDATASIZE PUSH1 0x4 PUSH2 0x4442 JUMP JUMPDEST PUSH2 0x1633 JUMP JUMPDEST CALLVALUE DUP1 ISZERO PUSH2 0x654 JUMPI PUSH0 DUP1 REVERT JUMPDEST POP PUSH2 0x366 PUSH2 0x663 CALLDATASIZE PUSH1 0x4 PUSH2 0x43D9 JUMP JUMPDEST PUSH0 SWAP1 DUP2 MSTORE PUSH1 0x2 PUSH1 0x20 MSTORE PUSH1 0x40 SWAP1 KECCAK256 SLOAD PUSH1 0x1 PUSH1 0x1 PUSH1 0xA0 SHL SUB AND SWAP1 JUMP JUMPDEST CALLVALUE DUP1 ISZERO PUSH2 0x688 JUMPI PUSH0 DUP1 REVERT JUMPDEST POP PUSH0 SLOAD PUSH1 0x1 PUSH1 0x1 PUSH1 0xA0 SHL SUB AND PUSH2 0x366 JUMP JUMPDEST CALLVALUE DUP1 ISZERO PUSH2 0x6A4 JUMPI PUSH0 DUP1 REVERT JUMPDEST POP PUSH2 0x3BA PUSH2 0x6B3 CALLDATASIZE PUSH1 0x4 PUSH2 0x4630 JUMP JUMPDEST PUSH2 0x16F1 JUMP JUMPDEST CALLVALUE DUP1 ISZERO PUSH2 0x6C3 JUMPI PUSH0 DUP1 REVERT JUMPDEST POP PUSH2 0x33A PUSH2 0x186B JUMP JUMPDEST CALLVALUE DUP1 ISZERO PUSH2 0x6D7 JUMPI PUSH0 DUP1 REVERT JUMPDEST POP PUSH2 0x3BA PUSH2 0x6E6 CALLDATASIZE PUSH1 0x4 PUSH2 0x43D9 JUMP JUMPDEST PUSH2 0x187A JUMP JUMPDEST CALLVALUE DUP1 ISZERO PUSH2 0x6F6 JUMPI PUSH0 DUP1 REVERT JUMPDEST POP PUSH2 0x3BA PUSH2 0x705 CALLDATASIZE PUSH1 0x4 PUSH2 0x43D9 JUMP JUMPDEST PUSH1 0xF PUSH1 0x20 MSTORE PUSH0 SWAP1 DUP2 MSTORE PUSH1 0x40 SWAP1 KECCAK256 SLOAD DUP2 JUMP JUMPDEST CALLVALUE DUP1 ISZERO PUSH2 0x721 JUMPI PUSH0 DUP1 REVERT JUMPDEST POP PUSH2 0x386 PUSH2 0x730 CALLDATASIZE PUSH1 0x4 PUSH2 0x46A4 JUMP JUMPDEST PUSH2 0x18BE JUMP JUMPDEST CALLVALUE DUP1 ISZERO PUSH2 0x740 JUMPI PUSH0 DUP1 REVERT JUMPDEST POP PUSH1 0x1 SLOAD PUSH2 0x3BA JUMP JUMPDEST CALLVALUE DUP1 ISZERO PUSH2 0x754 JUMPI PUSH0 DUP1 REVERT JUMPDEST POP PUSH2 0x3BA PUSH2 0x763 CALLDATASIZE PUSH1 0x4 PUSH2 0x43D9 JUMP JUMPDEST PUSH1 0x12 PUSH1 0x20 MSTORE PUSH0 SWAP1 DUP2 MSTORE PUSH1 0x40 SWAP1 KECCAK256 SLOAD DUP2 JUMP JUMPDEST CALLVALUE DUP1 ISZERO PUSH2 0x77F JUMPI PUSH0 DUP1 REVERT JUMPDEST POP PUSH2 0x793 PUSH2 0x78E CALLDATASIZE PUSH1 0x4 PUSH2 0x43D9 JUMP JUMPDEST PUSH2 0x18CD JUMP JUMPDEST PUSH1 0x40 DUP1 MLOAD SWAP6 DUP7 MSTORE PUSH1 0x20 DUP7 ADD SWAP5 SWAP1 SWAP5 MSTORE SWAP3 DUP5 ADD SWAP2 SWAP1 SWAP2 MSTORE PUSH1 0x1 PUSH1 0x1 PUSH1 0xA0 SHL SUB SWAP1 DUP2 AND PUSH1 0x60 DUP5 ADD MSTORE AND PUSH1 0x80 DUP3 ADD MSTORE PUSH1 0xA0 ADD PUSH2 0x31D JUMP JUMPDEST CALLVALUE DUP1 ISZERO PUSH2 0x7D2 JUMPI PUSH0 DUP1 REVERT JUMPDEST POP PUSH2 0x3BA PUSH2 0x7E1 CALLDATASIZE PUSH1 0x4 PUSH2 0x46DB JUMP JUMPDEST PUSH1 0x3 PUSH1 0x20 SWAP1 DUP2 MSTORE PUSH0 SWAP4 DUP5 MSTORE PUSH1 0x40 DUP1 DUP6 KECCAK256 DUP3 MSTORE SWAP3 DUP5 MSTORE DUP3 DUP5 KECCAK256 SWAP1 MSTORE DUP3 MSTORE SWAP1 KECCAK256 SLOAD DUP2 JUMP JUMPDEST CALLVALUE DUP1 ISZERO PUSH2 0x80E JUMPI PUSH0 DUP1 REVERT JUMPDEST POP PUSH2 0x3BA PUSH1 0x1 SLOAD DUP2 JUMP JUMPDEST CALLVALUE DUP1 ISZERO PUSH2 0x823 JUMPI PUSH0 DUP1 REVERT JUMPDEST POP PUSH2 0x311 PUSH2 0x832 CALLDATASIZE PUSH1 0x4 PUSH2 0x43D9 JUMP JUMPDEST PUSH2 0x1919 JUMP JUMPDEST PUSH2 0x386 PUSH2 0x845 CALLDATASIZE PUSH1 0x4 PUSH2 0x471A JUMP JUMPDEST PUSH2 0x1976 JUMP JUMPDEST CALLVALUE DUP1 ISZERO PUSH2 0x855 JUMPI PUSH0 DUP1 REVERT JUMPDEST POP PUSH2 0x33A PUSH2 0x864 CALLDATASIZE PUSH1 0x4 PUSH2 0x43D9 JUMP JUMPDEST PUSH2 0x19A8 JUMP JUMPDEST CALLVALUE DUP1 ISZERO PUSH2 0x874 JUMPI PUSH0 DUP1 REVERT JUMPDEST POP PUSH2 0x33A PUSH2 0x883 CALLDATASIZE PUSH1 0x4 PUSH2 0x43D9 JUMP JUMPDEST PUSH2 0x1AF5 JUMP JUMPDEST PUSH2 0x386 PUSH2 0x896 CALLDATASIZE PUSH1 0x4 PUSH2 0x4794 JUMP JUMPDEST PUSH2 0x1BDD JUMP JUMPDEST CALLVALUE DUP1 ISZERO PUSH2 0x8A6 JUMPI PUSH0 DUP1 REVERT JUMPDEST POP PUSH2 0x33A PUSH2 0x8B5 CALLDATASIZE PUSH1 0x4 PUSH2 0x43D9 JUMP JUMPDEST PUSH2 0x2003 JUMP JUMPDEST CALLVALUE DUP1 ISZERO PUSH2 0x8C5 JUMPI PUSH0 DUP1 REVERT JUMPDEST POP PUSH2 0x8F8 PUSH2 0x8D4 CALLDATASIZE PUSH1 0x4 PUSH2 0x43D9 JUMP JUMPDEST PUSH1 0x2 PUSH1 0x20 MSTORE PUSH0 SWAP1 DUP2 MSTORE PUSH1 0x40 SWAP1 KECCAK256 DUP1 SLOAD PUSH1 0x1 SWAP1 SWAP2 ADD SLOAD PUSH1 0x1 PUSH1 0x1 PUSH1 0xA0 SHL SUB SWAP1 SWAP2 AND SWAP1 DUP3 JUMP JUMPDEST PUSH1 0x40 MLOAD PUSH2 0x31D SWAP3 SWAP2 SWAP1 PUSH2 0x47BF JUMP JUMPDEST CALLVALUE DUP1 ISZERO PUSH2 0x911 JUMPI PUSH0 DUP1 REVERT JUMPDEST POP PUSH2 0x311 PUSH2 0x920 CALLDATASIZE PUSH1 0x4 PUSH2 0x43D9 JUMP JUMPDEST PUSH2 0x2063 JUMP JUMPDEST CALLVALUE DUP1 ISZERO PUSH2 0x930 JUMPI PUSH0 DUP1 REVERT JUMPDEST POP PUSH2 0x504 PUSH2 0x93F CALLDATASIZE PUSH1 0x4 PUSH2 0x4570 JUMP JUMPDEST PUSH2 0x20AB JUMP JUMPDEST CALLVALUE DUP1 ISZERO PUSH2 0x94F JUMPI PUSH0 DUP1 REVERT JUMPDEST POP PUSH2 0x3BA PUSH2 0x95E CALLDATASIZE PUSH1 0x4 PUSH2 0x43D9 JUMP JUMPDEST PUSH0 SWAP1 DUP2 MSTORE PUSH1 0xA PUSH1 0x20 MSTORE PUSH1 0x40 SWAP1 KECCAK256 SLOAD SWAP1 JUMP JUMPDEST CALLVALUE DUP1 ISZERO PUSH2 0x97A JUMPI PUSH0 DUP1 REVERT JUMPDEST POP PUSH2 0x3BA PUSH2 0x989 CALLDATASIZE PUSH1 0x4 PUSH2 0x43D9 JUMP JUMPDEST PUSH2 0x22C2 JUMP JUMPDEST CALLVALUE DUP1 ISZERO PUSH2 0x999 JUMPI PUSH0 DUP1 REVERT JUMPDEST POP PUSH2 0x3BA PUSH2 0x9A8 CALLDATASIZE PUSH1 0x4 PUSH2 0x47D8 JUMP JUMPDEST PUSH2 0x2318 JUMP JUMPDEST CALLVALUE DUP1 ISZERO PUSH2 0x9B8 JUMPI PUSH0 DUP1 REVERT JUMPDEST POP PUSH2 0x33A PUSH2 0x234A JUMP JUMPDEST CALLVALUE DUP1 ISZERO PUSH2 0x9CC JUMPI PUSH0 DUP1 REVERT JUMPDEST POP PUSH2 0x311 PUSH2 0x9DB CALLDATASIZE PUSH1 0x4 PUSH2 0x47FB JUMP JUMPDEST PUSH2 0x243B JUMP JUMPDEST CALLVALUE DUP1 ISZERO PUSH2 0x9EB JUMPI PUSH0 DUP1 REVERT JUMPDEST POP PUSH2 0x33A PUSH2 0x9FA CALLDATASIZE PUSH1 0x4 PUSH2 0x4570 JUMP JUMPDEST PUSH2 0x246C JUMP JUMPDEST CALLVALUE DUP1 ISZERO PUSH2 0xA0A JUMPI PUSH0 DUP1 REVERT JUMPDEST POP PUSH2 0x386 PUSH2 0xA19 CALLDATASIZE PUSH1 0x4 PUSH2 0x4570 JUMP JUMPDEST PUSH2 0x2604 JUMP JUMPDEST CALLVALUE DUP1 ISZERO PUSH2 0xA29 JUMPI PUSH0 DUP1 REVERT JUMPDEST POP PUSH2 0x386 PUSH2 0xA38 CALLDATASIZE PUSH1 0x4 PUSH2 0x4442 JUMP JUMPDEST PUSH2 0x2641 JUMP JUMPDEST PUSH0 PUSH1 0x1 PUSH1 0x1 PUSH1 0xE0 SHL SUB NOT DUP3 AND PUSH4 0x1FFC9A7 PUSH1 0xE0 SHL EQ DUP1 PUSH2 0xA6D JUMPI POP PUSH1 0x1 PUSH1 0x1 PUSH1 0xE0 SHL SUB NOT DUP3 AND PUSH4 0x354D605 PUSH1 0xE6 SHL EQ JUMPDEST DUP1 PUSH2 0xA88 JUMPI POP PUSH1 0x1 PUSH1 0x1 PUSH1 0xE0 SHL SUB NOT DUP3 AND PUSH4 0x80AC58CD PUSH1 0xE0 SHL EQ JUMPDEST DUP1 PUSH2 0xAA3 JUMPI POP PUSH1 0x1 PUSH1 0x1 PUSH1 0xE0 SHL SUB NOT DUP3 AND PUSH4 0x70B00481 PUSH1 0xE1 SHL EQ JUMPDEST DUP1 PUSH2 0xABE JUMPI POP PUSH1 0x1 PUSH1 0x1 PUSH1 0xE0 SHL SUB NOT DUP3 AND PUSH4 0x780E9D63 PUSH1 0xE0 SHL EQ JUMPDEST DUP1 PUSH2 0xAD9 JUMPI POP PUSH1 0x1 PUSH1 0x1 PUSH1 0xE0 SHL SUB NOT DUP3 AND PUSH4 0x5B5E139F PUSH1 0xE0 SHL EQ JUMPDEST SWAP3 SWAP2 POP POP JUMP JUMPDEST PUSH1 0x60 PUSH1 0x6 DUP1 SLOAD PUSH2 0xAEE SWAP1 PUSH2 0x4827 JUMP JUMPDEST DUP1 PUSH1 0x1F ADD PUSH1 0x20 DUP1 SWAP2 DIV MUL PUSH1 0x20 ADD PUSH1 0x40 MLOAD SWAP1 DUP2 ADD PUSH1 0x40 MSTORE DUP1 SWAP3 SWAP2 SWAP1 DUP2 DUP2 MSTORE PUSH1 0x20 ADD DUP3 DUP1 SLOAD PUSH2 0xB1A SWAP1 PUSH2 0x4827 JUMP JUMPDEST DUP1 ISZERO PUSH2 0xB65 JUMPI DUP1 PUSH1 0x1F LT PUSH2 0xB3C JUMPI PUSH2 0x100 DUP1 DUP4 SLOAD DIV MUL DUP4 MSTORE SWAP2 PUSH1 0x20 ADD SWAP2 PUSH2 0xB65 JUMP JUMPDEST DUP3 ADD SWAP2 SWAP1 PUSH0 MSTORE PUSH1 0x20 PUSH0 KECCAK256 SWAP1 JUMPDEST DUP2 SLOAD DUP2 MSTORE SWAP1 PUSH1 0x1 ADD SWAP1 PUSH1 0x20 ADD DUP1 DUP4 GT PUSH2 0xB48 JUMPI DUP3 SWAP1 SUB PUSH1 0x1F AND DUP3 ADD SWAP2 JUMPDEST POP POP POP POP POP SWAP1 POP SWAP1 JUMP JUMPDEST PUSH0 PUSH2 0xB79 DUP3 PUSH2 0x27DC JUMP JUMPDEST PUSH0 DUP3 DUP2 MSTORE PUSH1 0x12 PUSH1 0x20 MSTORE PUSH1 0x40 SWAP1 KECCAK256 SLOAD PUSH1 0x10 DUP1 SLOAD SWAP1 SWAP2 SWAP1 DUP2 LT PUSH2 0xB9C JUMPI PUSH2 0xB9C PUSH2 0x485F JUMP JUMPDEST PUSH0 SWAP2 DUP3 MSTORE PUSH1 0x20 SWAP1 SWAP2 KECCAK256 PUSH1 0x4 PUSH1 0x6 SWAP1 SWAP3 MUL ADD ADD SLOAD PUSH1 0x1 PUSH1 0x1 PUSH1 0xA0 SHL SUB AND SWAP3 SWAP2 POP POP JUMP JUMPDEST PUSH0 PUSH2 0xBC8 DUP3 PUSH2 0x13CA JUMP JUMPDEST SWAP1 POP DUP1 PUSH1 0x1 PUSH1 0x1 PUSH1 0xA0 SHL SUB AND DUP4 PUSH1 0x1 PUSH1 0x1 PUSH1 0xA0 SHL SUB AND SUB PUSH2 0xC04 JUMPI PUSH1 0x40 MLOAD PUSH3 0x461BCD PUSH1 0xE5 SHL DUP2 MSTORE PUSH1 0x4 ADD PUSH2 0xBFB SWAP1 PUSH2 0x4873 JUMP JUMPDEST PUSH1 0x40 MLOAD DUP1 SWAP2 SUB SWAP1 REVERT JUMPDEST CALLER PUSH1 0x1 PUSH1 0x1 PUSH1 0xA0 SHL SUB DUP3 AND EQ DUP1 PUSH2 0xC20 JUMPI POP PUSH2 0xC20 DUP2 CALLER PUSH2 0x243B JUMP JUMPDEST PUSH2 0xC92 JUMPI PUSH1 0x40 MLOAD PUSH3 0x461BCD PUSH1 0xE5 SHL DUP2 MSTORE PUSH1 0x20 PUSH1 0x4 DUP3 ADD MSTORE PUSH1 0x3F PUSH1 0x24 DUP3 ADD MSTORE PUSH32 0x417373657452656769737472793A20617070726F76652063616C6C6572206973 PUSH1 0x44 DUP3 ADD MSTORE PUSH32 0x206E6F74206F776E6572206E6F7220617070726F76656420666F7220616C6C00 PUSH1 0x64 DUP3 ADD MSTORE PUSH1 0x84 ADD PUSH2 0xBFB JUMP JUMPDEST PUSH2 0xC9C DUP4 DUP4 PUSH2 0x2801 JUMP JUMPDEST POP POP POP JUMP JUMPDEST PUSH1 0x60 PUSH0 PUSH2 0xCB8 PUSH1 0x40 DUP1 MLOAD PUSH1 0x20 DUP2 ADD SWAP1 SWAP2 MSTORE PUSH0 DUP2 MSTORE SWAP1 JUMP JUMPDEST PUSH1 0x14 SLOAD SWAP1 SWAP2 POP PUSH1 0x1 PUSH1 0x1 PUSH1 0xA0 SHL SUB AND PUSH2 0xD16 JUMPI PUSH0 DUP2 MLOAD GT PUSH2 0xCE7 JUMPI PUSH1 0x40 MLOAD DUP1 PUSH1 0x20 ADD PUSH1 0x40 MSTORE DUP1 PUSH0 DUP2 MSTORE POP PUSH2 0xD83 JUMP JUMPDEST DUP1 PUSH2 0xCF1 DUP5 PUSH2 0x2896 JUMP JUMPDEST PUSH1 0x40 MLOAD PUSH1 0x20 ADD PUSH2 0xD02 SWAP3 SWAP2 SWAP1 PUSH2 0x48D6 JUMP JUMPDEST PUSH1 0x40 MLOAD PUSH1 0x20 DUP2 DUP4 SUB SUB DUP2 MSTORE SWAP1 PUSH1 0x40 MSTORE PUSH2 0xD83 JUMP JUMPDEST PUSH1 0x14 SLOAD PUSH1 0x40 MLOAD PUSH4 0x3601BFC5 PUSH1 0xE1 SHL DUP2 MSTORE PUSH1 0x4 DUP2 ADD DUP6 SWAP1 MSTORE PUSH1 0x1 PUSH1 0x1 PUSH1 0xA0 SHL SUB SWAP1 SWAP2 AND SWAP1 PUSH4 0x6C037F8A SWAP1 PUSH1 0x24 ADD PUSH0 PUSH1 0x40 MLOAD DUP1 DUP4 SUB DUP2 DUP7 GAS STATICCALL ISZERO DUP1 ISZERO PUSH2 0xD5C JUMPI RETURNDATASIZE PUSH0 DUP1 RETURNDATACOPY RETURNDATASIZE PUSH0 REVERT JUMPDEST POP POP POP POP PUSH1 0x40 MLOAD RETURNDATASIZE PUSH0 DUP3 RETURNDATACOPY PUSH1 0x1F RETURNDATASIZE SWAP1 DUP2 ADD PUSH1 0x1F NOT AND DUP3 ADD PUSH1 0x40 MSTORE PUSH2 0xD83 SWAP2 SWAP1 DUP2 ADD SWAP1 PUSH2 0x4915 JUMP JUMPDEST SWAP4 SWAP3 POP POP POP JUMP JUMPDEST PUSH0 DUP1 PUSH2 0xD95 DUP6 PUSH2 0x22C2 JUMP JUMPDEST SWAP1 POP PUSH0 PUSH2 0xDA1 DUP7 PUSH2 0x13CA JUMP JUMPDEST SWAP1 POP PUSH2 0xDAE CALLER DUP8 DUP7 PUSH2 0x2925 JUMP JUMPDEST PUSH2 0xDB7 DUP7 PUSH2 0x29C1 JUMP JUMPDEST SWAP3 POP PUSH2 0xDCD DUP6 DUP5 PUSH2 0xDC7 DUP10 PUSH2 0xE6C JUMP JUMPDEST PUSH0 PUSH2 0x29CA JUMP JUMPDEST PUSH2 0xDD8 DUP7 DUP5 DUP7 PUSH2 0x2B0B JUMP JUMPDEST PUSH2 0xDE2 DUP2 DUP4 PUSH2 0x10B7 JUMP JUMPDEST PUSH0 SUB PUSH2 0xDF2 JUMPI PUSH2 0xDF2 DUP3 DUP3 PUSH2 0x2E16 JUMP JUMPDEST DUP4 PUSH2 0xDFD DUP7 DUP5 PUSH2 0x10B7 JUMP JUMPDEST SUB PUSH2 0xE0C JUMPI PUSH2 0xE0C DUP3 DUP7 PUSH2 0x2F53 JUMP JUMPDEST POP POP SWAP4 SWAP3 POP POP POP JUMP JUMPDEST PUSH2 0xE1F CALLER DUP3 PUSH2 0x3043 JUMP JUMPDEST PUSH2 0xE3B JUMPI PUSH1 0x40 MLOAD PUSH3 0x461BCD PUSH1 0xE5 SHL DUP2 MSTORE PUSH1 0x4 ADD PUSH2 0xBFB SWAP1 PUSH2 0x4986 JUMP JUMPDEST PUSH0 PUSH2 0xE45 DUP3 PUSH2 0x22C2 JUMP JUMPDEST SWAP1 POP PUSH2 0xE52 DUP5 DUP5 DUP5 PUSH2 0x30A1 JUMP JUMPDEST PUSH2 0xE5C DUP2 DUP6 PUSH2 0x2E16 JUMP JUMPDEST PUSH2 0xE66 DUP2 DUP5 PUSH2 0x2F53 JUMP JUMPDEST POP POP POP POP JUMP JUMPDEST PUSH0 PUSH2 0xE76 DUP3 PUSH2 0x27DC JUMP JUMPDEST PUSH0 DUP3 DUP2 MSTORE PUSH1 0x12 PUSH1 0x20 MSTORE PUSH1 0x40 SWAP1 KECCAK256 SLOAD PUSH1 0x10 DUP1 SLOAD SWAP1 SWAP2 SWAP1 DUP2 LT PUSH2 0xE99 JUMPI PUSH2 0xE99 PUSH2 0x485F JUMP JUMPDEST SWAP1 PUSH0 MSTORE PUSH1 0x20 PUSH0 KECCAK256 SWAP1 PUSH1 0x6 MUL ADD PUSH1 0x1 ADD SLOAD SWAP1 POP SWAP2 SWAP1 POP JUMP JUMPDEST PUSH0 PUSH2 0xEBA DUP3 PUSH2 0x2063 JUMP JUMPDEST PUSH2 0xF11 JUMPI PUSH1 0x40 MLOAD PUSH3 0x461BCD PUSH1 0xE5 SHL DUP2 MSTORE PUSH1 0x20 PUSH1 0x4 DUP3 ADD MSTORE PUSH1 0x22 PUSH1 0x24 DUP3 ADD MSTORE PUSH32 0x4C656173696E67436F6E74726163743A204E6F6E6578697374656E7420746F6B PUSH1 0x44 DUP3 ADD MSTORE PUSH2 0x32B7 PUSH1 0xF1 SHL PUSH1 0x64 DUP3 ADD MSTORE PUSH1 0x84 ADD PUSH2 0xBFB JUMP JUMPDEST POP PUSH0 SWAP1 DUP2 MSTORE PUSH1 0xF PUSH1 0x20 MSTORE PUSH1 0x40 SWAP1 KECCAK256 SLOAD SWAP1 JUMP JUMPDEST PUSH0 PUSH2 0xF2D DUP4 PUSH2 0x1587 JUMP JUMPDEST DUP3 LT PUSH2 0xF8C JUMPI PUSH1 0x40 MLOAD PUSH3 0x461BCD PUSH1 0xE5 SHL DUP2 MSTORE PUSH1 0x20 PUSH1 0x4 DUP3 ADD MSTORE PUSH1 0x28 PUSH1 0x24 DUP3 ADD MSTORE PUSH32 0x417373657452656769737472793A206F776E657220696E646578206F7574206F PUSH1 0x44 DUP3 ADD MSTORE PUSH8 0x6620626F756E6473 PUSH1 0xC0 SHL PUSH1 0x64 DUP3 ADD MSTORE PUSH1 0x84 ADD PUSH2 0xBFB JUMP JUMPDEST PUSH1 0x1 PUSH1 0x1 PUSH1 0xA0 SHL SUB DUP4 AND PUSH0 SWAP1 DUP2 MSTORE PUSH1 0x13 PUSH1 0x20 MSTORE PUSH1 0x40 SWAP1 KECCAK256 DUP1 SLOAD DUP4 SWAP1 DUP2 LT PUSH2 0xFB5 JUMPI PUSH2 0xFB5 PUSH2 0x485F JUMP JUMPDEST SWAP1 PUSH0 MSTORE PUSH1 0x20 PUSH0 KECCAK256 ADD SLOAD SWAP1 POP SWAP3 SWAP2 POP POP JUMP JUMPDEST PUSH0 PUSH2 0xFD0 DUP5 PUSH2 0x22C2 JUMP JUMPDEST SWAP1 POP PUSH0 PUSH2 0xFDC DUP5 PUSH2 0x22C2 JUMP JUMPDEST SWAP1 POP PUSH0 PUSH2 0xFE8 DUP7 PUSH2 0x13CA JUMP JUMPDEST SWAP1 POP PUSH0 PUSH2 0xFF4 DUP7 PUSH2 0x13CA JUMP JUMPDEST SWAP1 POP DUP3 DUP5 EQ PUSH2 0x1064 JUMPI PUSH1 0x40 MLOAD PUSH3 0x461BCD PUSH1 0xE5 SHL DUP2 MSTORE PUSH1 0x20 PUSH1 0x4 DUP3 ADD MSTORE PUSH1 0x36 PUSH1 0x24 DUP3 ADD MSTORE PUSH32 0x43616E6E6F74207472616E736665722076616C7565206265747765656E206E66 PUSH1 0x44 DUP3 ADD MSTORE PUSH22 0x7473206F6620646966666572656E7420617373657473 PUSH1 0x50 SHL PUSH1 0x64 DUP3 ADD MSTORE PUSH1 0x84 ADD PUSH2 0xBFB JUMP JUMPDEST PUSH2 0x106F CALLER DUP9 DUP8 PUSH2 0x2925 JUMP JUMPDEST PUSH2 0x107A DUP8 DUP8 DUP8 PUSH2 0x2B0B JUMP JUMPDEST PUSH2 0x1084 DUP3 DUP6 PUSH2 0x10B7 JUMP JUMPDEST PUSH0 SUB PUSH2 0x1094 JUMPI PUSH2 0x1094 DUP5 DUP4 PUSH2 0x2E16 JUMP JUMPDEST DUP5 PUSH2 0x109F DUP3 DUP7 PUSH2 0x10B7 JUMP JUMPDEST SUB PUSH2 0x10AE JUMPI PUSH2 0x10AE DUP5 DUP3 PUSH2 0x2F53 JUMP JUMPDEST POP POP POP POP POP POP POP JUMP JUMPDEST PUSH0 PUSH1 0x1 PUSH1 0x1 PUSH1 0xA0 SHL SUB DUP4 AND PUSH2 0x10DE JUMPI PUSH1 0x40 MLOAD PUSH3 0x461BCD PUSH1 0xE5 SHL DUP2 MSTORE PUSH1 0x4 ADD PUSH2 0xBFB SWAP1 PUSH2 0x49DE JUMP JUMPDEST PUSH1 0x1 PUSH1 0x1 PUSH1 0xA0 SHL SUB DUP4 AND PUSH0 SWAP1 DUP2 MSTORE PUSH1 0x13 PUSH1 0x20 SWAP1 DUP2 MSTORE PUSH1 0x40 DUP1 DUP4 KECCAK256 DUP1 SLOAD DUP3 MLOAD DUP2 DUP6 MUL DUP2 ADD DUP6 ADD SWAP1 SWAP4 MSTORE DUP1 DUP4 MSTORE SWAP1 SWAP4 SWAP3 DUP5 SWAP2 SWAP1 DUP4 ADD DUP3 DUP3 DUP1 ISZERO PUSH2 0x113C JUMPI PUSH1 0x20 MUL DUP3 ADD SWAP2 SWAP1 PUSH0 MSTORE PUSH1 0x20 PUSH0 KECCAK256 SWAP1 JUMPDEST DUP2 SLOAD DUP2 MSTORE PUSH1 0x20 ADD SWAP1 PUSH1 0x1 ADD SWAP1 DUP1 DUP4 GT PUSH2 0x1128 JUMPI JUMPDEST POP POP POP POP POP SWAP1 POP PUSH0 DUP1 JUMPDEST DUP3 MLOAD DUP2 LT ISZERO PUSH2 0x119A JUMPI PUSH0 DUP4 DUP3 DUP2 MLOAD DUP2 LT PUSH2 0x1162 JUMPI PUSH2 0x1162 PUSH2 0x485F JUMP JUMPDEST PUSH1 0x20 MUL PUSH1 0x20 ADD ADD MLOAD SWAP1 POP DUP7 PUSH2 0x1176 DUP3 PUSH2 0xE6C JUMP JUMPDEST SUB PUSH2 0x1191 JUMPI PUSH2 0x1184 DUP2 PUSH2 0x187A JUMP JUMPDEST PUSH2 0x118E SWAP1 DUP5 PUSH2 0x4A42 JUMP JUMPDEST SWAP3 POP JUMPDEST POP PUSH1 0x1 ADD PUSH2 0x1146 JUMP JUMPDEST POP SWAP6 SWAP5 POP POP POP POP POP JUMP JUMPDEST PUSH0 DUP3 DUP2 MSTORE PUSH1 0x2 PUSH1 0x20 MSTORE PUSH1 0x40 SWAP1 KECCAK256 SLOAD CALLER SWAP1 DUP4 SWAP1 PUSH1 0x1 PUSH1 0x1 PUSH1 0xA0 SHL SUB AND DUP3 EQ PUSH2 0x11DD JUMPI PUSH1 0x40 MLOAD PUSH3 0x461BCD PUSH1 0xE5 SHL DUP2 MSTORE PUSH1 0x4 ADD PUSH2 0xBFB SWAP1 PUSH2 0x4A55 JUMP JUMPDEST PUSH2 0x11E6 DUP5 PUSH2 0x2063 JUMP JUMPDEST PUSH2 0x1242 JUMPI PUSH1 0x40 MLOAD PUSH3 0x461BCD PUSH1 0xE5 SHL DUP2 MSTORE PUSH1 0x20 PUSH1 0x4 DUP3 ADD MSTORE PUSH1 0x27 PUSH1 0x24 DUP3 ADD MSTORE PUSH32 0x417373657452656769737472793A204173736574206E6F742072656769737465 PUSH1 0x44 DUP3 ADD MSTORE PUSH7 0x1C9959081E595D PUSH1 0xCA SHL PUSH1 0x64 DUP3 ADD MSTORE PUSH1 0x84 ADD PUSH2 0xBFB JUMP JUMPDEST POP POP PUSH0 SWAP2 DUP3 MSTORE PUSH1 0xB PUSH1 0x20 MSTORE PUSH1 0x40 SWAP1 SWAP2 KECCAK256 SSTORE JUMP JUMPDEST PUSH2 0xC9C DUP4 DUP4 DUP4 PUSH1 0x40 MLOAD DUP1 PUSH1 0x20 ADD PUSH1 0x40 MSTORE DUP1 PUSH0 DUP2 MSTORE POP PUSH2 0x1976 JUMP JUMPDEST PUSH0 PUSH2 0x1279 PUSH1 0x10 SLOAD SWAP1 JUMP JUMPDEST DUP3 LT PUSH2 0x12D9 JUMPI PUSH1 0x40 MLOAD PUSH3 0x461BCD PUSH1 0xE5 SHL DUP2 MSTORE PUSH1 0x20 PUSH1 0x4 DUP3 ADD MSTORE PUSH1 0x29 PUSH1 0x24 DUP3 ADD MSTORE PUSH32 0x417373657452656769737472793A20676C6F62616C20696E646578206F757420 PUSH1 0x44 DUP3 ADD MSTORE PUSH9 0x6F6620626F756E6473 PUSH1 0xB8 SHL PUSH1 0x64 DUP3 ADD MSTORE PUSH1 0x84 ADD PUSH2 0xBFB JUMP JUMPDEST PUSH1 0x10 DUP3 DUP2 SLOAD DUP2 LT PUSH2 0x12EC JUMPI PUSH2 0x12EC PUSH2 0x485F JUMP JUMPDEST SWAP1 PUSH0 MSTORE PUSH1 0x20 PUSH0 KECCAK256 SWAP1 PUSH1 0x6 MUL ADD PUSH0 ADD SLOAD SWAP1 POP SWAP2 SWAP1 POP JUMP JUMPDEST PUSH1 0x60 PUSH1 0xC DUP1 SLOAD DUP1 PUSH1 0x20 MUL PUSH1 0x20 ADD PUSH1 0x40 MLOAD SWAP1 DUP2 ADD PUSH1 0x40 MSTORE DUP1 SWAP3 SWAP2 SWAP1 DUP2 DUP2 MSTORE PUSH1 0x20 ADD DUP3 DUP1 SLOAD DUP1 ISZERO PUSH2 0xB65 JUMPI PUSH1 0x20 MUL DUP3 ADD SWAP2 SWAP1 PUSH0 MSTORE PUSH1 0x20 PUSH0 KECCAK256 SWAP1 JUMPDEST DUP2 SLOAD DUP2 MSTORE PUSH1 0x20 ADD SWAP1 PUSH1 0x1 ADD SWAP1 DUP1 DUP4 GT PUSH2 0x133A JUMPI POP POP POP POP POP SWAP1 POP SWAP1 JUMP JUMPDEST PUSH1 0x40 MLOAD PUSH4 0x31A9108F PUSH1 0xE1 SHL DUP2 MSTORE PUSH1 0x4 DUP2 ADD DUP3 SWAP1 MSTORE PUSH0 SWAP1 ADDRESS SWAP1 PUSH4 0x6352211E SWAP1 PUSH1 0x24 ADD PUSH1 0x20 PUSH1 0x40 MLOAD DUP1 DUP4 SUB DUP2 DUP7 GAS STATICCALL SWAP3 POP POP POP DUP1 ISZERO PUSH2 0x13B1 JUMPI POP PUSH1 0x40 DUP1 MLOAD PUSH1 0x1F RETURNDATASIZE SWAP1 DUP2 ADD PUSH1 0x1F NOT AND DUP3 ADD SWAP1 SWAP3 MSTORE PUSH2 0x13AE SWAP2 DUP2 ADD SWAP1 PUSH2 0x4A86 JUMP JUMPDEST PUSH1 0x1 JUMPDEST PUSH2 0x13BC JUMPI POP PUSH0 SWAP2 SWAP1 POP JUMP JUMPDEST POP PUSH1 0x1 SWAP3 SWAP2 POP POP JUMP JUMPDEST SWAP2 SWAP1 POP JUMP JUMPDEST PUSH0 PUSH2 0x13D4 DUP3 PUSH2 0x27DC JUMP JUMPDEST PUSH0 DUP3 DUP2 MSTORE PUSH1 0x12 PUSH1 0x20 MSTORE PUSH1 0x40 SWAP1 KECCAK256 SLOAD PUSH1 0x10 DUP1 SLOAD SWAP1 SWAP2 SWAP1 DUP2 LT PUSH2 0x13F7 JUMPI PUSH2 0x13F7 PUSH2 0x485F JUMP JUMPDEST PUSH0 SWAP2 DUP3 MSTORE PUSH1 0x20 SWAP1 SWAP2 KECCAK256 PUSH1 0x3 PUSH1 0x6 SWAP1 SWAP3 MUL ADD ADD SLOAD PUSH1 0x1 PUSH1 0x1 PUSH1 0xA0 SHL SUB AND SWAP1 POP DUP1 PUSH2 0x13C5 JUMPI PUSH1 0x40 MLOAD PUSH3 0x461BCD PUSH1 0xE5 SHL DUP2 MSTORE PUSH1 0x4 ADD PUSH2 0xBFB SWAP1 PUSH2 0x4AA1 JUMP JUMPDEST PUSH0 DUP3 DUP2 MSTORE PUSH1 0x2 PUSH1 0x20 MSTORE PUSH1 0x40 SWAP1 KECCAK256 SLOAD CALLER SWAP1 DUP4 SWAP1 PUSH1 0x1 PUSH1 0x1 PUSH1 0xA0 SHL SUB AND DUP3 EQ PUSH2 0x146B JUMPI PUSH1 0x40 MLOAD PUSH3 0x461BCD PUSH1 0xE5 SHL DUP2 MSTORE PUSH1 0x4 ADD PUSH2 0xBFB SWAP1 PUSH2 0x4A55 JUMP JUMPDEST PUSH2 0x1474 DUP5 PUSH2 0x2063 JUMP JUMPDEST PUSH2 0x14B6 JUMPI PUSH1 0x40 MLOAD PUSH3 0x461BCD PUSH1 0xE5 SHL DUP2 MSTORE PUSH1 0x20 PUSH1 0x4 DUP3 ADD MSTORE PUSH1 0x13 PUSH1 0x24 DUP3 ADD MSTORE PUSH19 0x105CDCD95D08191BD95CDB89DD08195E1A5CDD PUSH1 0x6A SHL PUSH1 0x44 DUP3 ADD MSTORE PUSH1 0x64 ADD PUSH2 0xBFB JUMP JUMPDEST POP POP PUSH0 SWAP2 DUP3 MSTORE PUSH1 0xF PUSH1 0x20 MSTORE PUSH1 0x40 SWAP1 SWAP2 KECCAK256 SSTORE JUMP JUMPDEST PUSH1 0x60 PUSH2 0x14D4 DUP3 PUSH2 0x2063 JUMP JUMPDEST PUSH2 0x1520 JUMPI PUSH1 0x40 MLOAD PUSH3 0x461BCD PUSH1 0xE5 SHL DUP2 MSTORE PUSH1 0x20 PUSH1 0x4 DUP3 ADD DUP2 SWAP1 MSTORE PUSH1 0x24 DUP3 ADD MSTORE PUSH32 0x417373657452656769737472793A204E6F6E6578697374656E74204173736574 PUSH1 0x44 DUP3 ADD MSTORE PUSH1 0x64 ADD PUSH2 0xBFB JUMP JUMPDEST PUSH0 DUP3 DUP2 MSTORE PUSH1 0x4 PUSH1 0x20 SWAP1 DUP2 MSTORE PUSH1 0x40 SWAP2 DUP3 SWAP1 KECCAK256 DUP1 SLOAD DUP4 MLOAD DUP2 DUP5 MUL DUP2 ADD DUP5 ADD SWAP1 SWAP5 MSTORE DUP1 DUP5 MSTORE SWAP1 SWAP2 DUP4 ADD DUP3 DUP3 DUP1 ISZERO PUSH2 0x157B JUMPI PUSH1 0x20 MUL DUP3 ADD SWAP2 SWAP1 PUSH0 MSTORE PUSH1 0x20 PUSH0 KECCAK256 SWAP1 JUMPDEST DUP2 SLOAD PUSH1 0x1 PUSH1 0x1 PUSH1 0xA0 SHL SUB AND DUP2 MSTORE PUSH1 0x1 SWAP1 SWAP2 ADD SWAP1 PUSH1 0x20 ADD DUP1 DUP4 GT PUSH2 0x155D JUMPI JUMPDEST POP POP POP POP POP SWAP1 POP SWAP2 SWAP1 POP JUMP JUMPDEST PUSH0 PUSH1 0x1 PUSH1 0x1 PUSH1 0xA0 SHL SUB DUP3 AND PUSH2 0x15F8 JUMPI PUSH1 0x40 MLOAD PUSH3 0x461BCD PUSH1 0xE5 SHL DUP2 MSTORE PUSH1 0x20 PUSH1 0x4 DUP3 ADD MSTORE PUSH1 0x31 PUSH1 0x24 DUP3 ADD MSTORE PUSH32 0x417373657452656769737472793A2062616C616E636520717565727920666F72 PUSH1 0x44 DUP3 ADD MSTORE PUSH17 0x20746865207A65726F2061646472657373 PUSH1 0x78 SHL PUSH1 0x64 DUP3 ADD MSTORE PUSH1 0x84 ADD PUSH2 0xBFB JUMP JUMPDEST POP PUSH1 0x1 PUSH1 0x1 PUSH1 0xA0 SHL SUB AND PUSH0 SWAP1 DUP2 MSTORE PUSH1 0x13 PUSH1 0x20 MSTORE PUSH1 0x40 SWAP1 KECCAK256 SLOAD SWAP1 JUMP JUMPDEST PUSH2 0x161B PUSH2 0x320C JUMP JUMPDEST PUSH2 0x1624 PUSH0 PUSH2 0x3238 JUMP JUMPDEST JUMP JUMPDEST PUSH2 0x162E PUSH2 0x320C JUMP JUMPDEST PUSH1 0x1 SSTORE JUMP JUMPDEST PUSH0 PUSH2 0x163D DUP5 PUSH2 0x13CA JUMP JUMPDEST SWAP1 POP DUP1 PUSH1 0x1 PUSH1 0x1 PUSH1 0xA0 SHL SUB AND DUP4 PUSH1 0x1 PUSH1 0x1 PUSH1 0xA0 SHL SUB AND SUB PUSH2 0x1670 JUMPI PUSH1 0x40 MLOAD PUSH3 0x461BCD PUSH1 0xE5 SHL DUP2 MSTORE PUSH1 0x4 ADD PUSH2 0xBFB SWAP1 PUSH2 0x4873 JUMP JUMPDEST PUSH2 0x167A CALLER DUP6 PUSH2 0x3043 JUMP JUMPDEST PUSH2 0x16E6 JUMPI PUSH1 0x40 MLOAD PUSH3 0x461BCD PUSH1 0xE5 SHL DUP2 MSTORE PUSH1 0x20 PUSH1 0x4 DUP3 ADD MSTORE PUSH1 0x37 PUSH1 0x24 DUP3 ADD MSTORE PUSH32 0x417373657452656769737472793A20617070726F76652063616C6C6572206973 PUSH1 0x44 DUP3 ADD MSTORE PUSH23 0x81B9BDD081BDDDB995C881B9BDC88185C1C1C9BDD9959 PUSH1 0x4A SHL PUSH1 0x64 DUP3 ADD MSTORE PUSH1 0x84 ADD PUSH2 0xBFB JUMP JUMPDEST PUSH2 0xE66 DUP5 DUP5 DUP5 PUSH2 0x3287 JUMP JUMPDEST PUSH0 PUSH2 0x16FB DUP4 PUSH2 0x2063 JUMP JUMPDEST ISZERO PUSH2 0x1758 JUMPI PUSH1 0x40 MLOAD PUSH3 0x461BCD PUSH1 0xE5 SHL DUP2 MSTORE PUSH1 0x20 PUSH1 0x4 DUP3 ADD MSTORE PUSH1 0x27 PUSH1 0x24 DUP3 ADD MSTORE PUSH32 0x417373657452656769737472793A20417373657420616C726561647920726567 PUSH1 0x44 DUP3 ADD MSTORE PUSH7 0x1A5CDD195C9959 PUSH1 0xCA SHL PUSH1 0x64 DUP3 ADD MSTORE PUSH1 0x84 ADD PUSH2 0xBFB JUMP JUMPDEST PUSH0 DUP4 DUP2 MSTORE PUSH1 0xD PUSH1 0x20 MSTORE PUSH1 0x40 SWAP1 KECCAK256 DUP1 SLOAD PUSH2 0x1770 SWAP1 PUSH2 0x4827 JUMP JUMPDEST SWAP1 POP PUSH0 SUB PUSH2 0x1782 JUMPI PUSH2 0x1782 DUP4 DUP4 PUSH2 0x33C2 JUMP JUMPDEST PUSH2 0x178A PUSH2 0x33D9 JUMP JUMPDEST SWAP1 POP PUSH2 0x1798 DUP5 DUP3 DUP6 PUSH0 PUSH2 0x29CA JUMP JUMPDEST PUSH2 0x17A1 DUP4 PUSH2 0x33F2 JUMP JUMPDEST PUSH0 DUP4 DUP2 MSTORE PUSH1 0xD PUSH1 0x20 MSTORE PUSH1 0x40 SWAP1 KECCAK256 DUP1 SLOAD PUSH2 0x1840 SWAP2 DUP4 SWAP2 PUSH2 0x17BF SWAP1 PUSH2 0x4827 JUMP JUMPDEST DUP1 PUSH1 0x1F ADD PUSH1 0x20 DUP1 SWAP2 DIV MUL PUSH1 0x20 ADD PUSH1 0x40 MLOAD SWAP1 DUP2 ADD PUSH1 0x40 MSTORE DUP1 SWAP3 SWAP2 SWAP1 DUP2 DUP2 MSTORE PUSH1 0x20 ADD DUP3 DUP1 SLOAD PUSH2 0x17EB SWAP1 PUSH2 0x4827 JUMP JUMPDEST DUP1 ISZERO PUSH2 0x1836 JUMPI DUP1 PUSH1 0x1F LT PUSH2 0x180D JUMPI PUSH2 0x100 DUP1 DUP4 SLOAD DIV MUL DUP4 MSTORE SWAP2 PUSH1 0x20 ADD SWAP2 PUSH2 0x1836 JUMP JUMPDEST DUP3 ADD SWAP2 SWAP1 PUSH0 MSTORE PUSH1 0x20 PUSH0 KECCAK256 SWAP1 JUMPDEST DUP2 SLOAD DUP2 MSTORE SWAP1 PUSH1 0x1 ADD SWAP1 PUSH1 0x20 ADD DUP1 DUP4 GT PUSH2 0x1819 JUMPI DUP3 SWAP1 SUB PUSH1 0x1F AND DUP3 ADD SWAP2 JUMPDEST POP POP POP POP POP PUSH2 0x343A JUMP JUMPDEST PUSH0 DUP4 DUP2 MSTORE PUSH1 0x2 PUSH1 0x20 MSTORE PUSH1 0x40 SWAP1 KECCAK256 DUP1 SLOAD PUSH1 0x1 PUSH1 0x1 PUSH1 0xA0 SHL SUB NOT AND PUSH1 0x1 PUSH1 0x1 PUSH1 0xA0 SHL SUB DUP7 AND OR SWAP1 SSTORE PUSH2 0xD83 JUMP JUMPDEST PUSH1 0x60 PUSH1 0x7 DUP1 SLOAD PUSH2 0xAEE SWAP1 PUSH2 0x4827 JUMP JUMPDEST PUSH0 PUSH2 0x1884 DUP3 PUSH2 0x27DC JUMP JUMPDEST PUSH0 DUP3 DUP2 MSTORE PUSH1 0x12 PUSH1 0x20 MSTORE PUSH1 0x40 SWAP1 KECCAK256 SLOAD PUSH1 0x10 DUP1 SLOAD SWAP1 SWAP2 SWAP1 DUP2 LT PUSH2 0x18A7 JUMPI PUSH2 0x18A7 PUSH2 0x485F JUMP JUMPDEST SWAP1 PUSH0 MSTORE PUSH1 0x20 PUSH0 KECCAK256 SWAP1 PUSH1 0x6 MUL ADD PUSH1 0x2 ADD SLOAD SWAP1 POP SWAP2 SWAP1 POP JUMP JUMPDEST PUSH2 0x18C9 CALLER DUP4 DUP4 PUSH2 0x34BA JUMP JUMPDEST POP POP JUMP JUMPDEST PUSH1 0x10 DUP2 DUP2 SLOAD DUP2 LT PUSH2 0x18DC JUMPI PUSH0 DUP1 REVERT JUMPDEST PUSH0 SWAP2 DUP3 MSTORE PUSH1 0x20 SWAP1 SWAP2 KECCAK256 PUSH1 0x6 SWAP1 SWAP2 MUL ADD DUP1 SLOAD PUSH1 0x1 DUP3 ADD SLOAD PUSH1 0x2 DUP4 ADD SLOAD PUSH1 0x3 DUP5 ADD SLOAD PUSH1 0x4 SWAP1 SWAP5 ADD SLOAD SWAP3 SWAP5 POP SWAP1 SWAP3 SWAP1 SWAP2 PUSH1 0x1 PUSH1 0x1 PUSH1 0xA0 SHL SUB SWAP2 DUP3 AND SWAP2 AND DUP6 JUMP JUMPDEST PUSH0 DUP2 DUP2 MSTORE PUSH1 0xB PUSH1 0x20 MSTORE PUSH1 0x40 DUP2 KECCAK256 SLOAD PUSH2 0x196E JUMPI PUSH1 0x40 MLOAD PUSH3 0x461BCD PUSH1 0xE5 SHL DUP2 MSTORE PUSH1 0x20 PUSH1 0x4 DUP3 ADD MSTORE PUSH1 0x18 PUSH1 0x24 DUP3 ADD MSTORE PUSH24 0x105CDCD95D0E881A5CC81B9BDD081C9959DA5CDD195C9959 PUSH1 0x42 SHL PUSH1 0x44 DUP3 ADD MSTORE PUSH1 0x64 ADD PUSH2 0xBFB JUMP JUMPDEST POP PUSH1 0x1 SWAP2 SWAP1 POP JUMP JUMPDEST PUSH2 0x1980 CALLER DUP4 PUSH2 0x3043 JUMP JUMPDEST PUSH2 0x199C JUMPI PUSH1 0x40 MLOAD PUSH3 0x461BCD PUSH1 0xE5 SHL DUP2 MSTORE PUSH1 0x4 ADD PUSH2 0xBFB SWAP1 PUSH2 0x4986 JUMP JUMPDEST PUSH2 0xE66 DUP5 DUP5 DUP5 DUP5 PUSH2 0x3583 JUMP JUMPDEST PUSH1 0x60 PUSH0 PUSH1 0x40 MLOAD DUP1 PUSH2 0x160 ADD PUSH1 0x40 MSTORE DUP1 PUSH2 0x123 DUP2 MSTORE PUSH1 0x20 ADD PUSH2 0x5101 PUSH2 0x123 SWAP2 CODECOPY SWAP1 POP PUSH0 PUSH1 0x40 MLOAD DUP1 PUSH2 0x380 ADD PUSH1 0x40 MSTORE DUP1 PUSH2 0x356 DUP2 MSTORE PUSH1 0x20 ADD PUSH2 0x5399 PUSH2 0x356 SWAP2 CODECOPY SWAP1 POP PUSH0 PUSH1 0x40 MLOAD DUP1 PUSH2 0x160 ADD PUSH1 0x40 MSTORE DUP1 PUSH2 0x135 DUP2 MSTORE PUSH1 0x20 ADD PUSH2 0x5224 PUSH2 0x135 SWAP2 CODECOPY SWAP1 POP DUP1 PUSH2 0x1A11 DUP7 PUSH2 0x2896 JUMP JUMPDEST PUSH2 0x1A22 PUSH2 0x1A1D DUP9 PUSH2 0xE6C JUMP JUMPDEST PUSH2 0x2896 JUMP JUMPDEST PUSH0 DUP9 DUP2 MSTORE PUSH1 0x12 PUSH1 0x20 MSTORE PUSH1 0x40 SWAP1 KECCAK256 SLOAD PUSH1 0x10 DUP1 SLOAD PUSH2 0x1A5B SWAP3 SWAP1 DUP2 LT PUSH2 0x1A47 JUMPI PUSH2 0x1A47 PUSH2 0x485F JUMP JUMPDEST SWAP1 PUSH0 MSTORE PUSH1 0x20 PUSH0 KECCAK256 SWAP1 PUSH1 0x6 MUL ADD PUSH0 ADD SLOAD PUSH2 0x2896 JUMP JUMPDEST PUSH0 DUP10 DUP2 MSTORE PUSH1 0x12 PUSH1 0x20 MSTORE PUSH1 0x40 SWAP1 KECCAK256 SLOAD PUSH1 0x10 DUP1 SLOAD PUSH2 0x1A95 SWAP3 SWAP1 DUP2 LT PUSH2 0x1A80 JUMPI PUSH2 0x1A80 PUSH2 0x485F JUMP JUMPDEST SWAP1 PUSH0 MSTORE PUSH1 0x20 PUSH0 KECCAK256 SWAP1 PUSH1 0x6 MUL ADD PUSH1 0x2 ADD SLOAD PUSH2 0x2896 JUMP JUMPDEST PUSH2 0x1AA1 PUSH2 0x9FA DUP12 PUSH2 0x13CA JUMP JUMPDEST PUSH1 0x40 MLOAD PUSH1 0x20 ADD PUSH2 0x1AB6 SWAP7 SWAP6 SWAP5 SWAP4 SWAP3 SWAP2 SWAP1 PUSH2 0x4AD8 JUMP JUMPDEST PUSH1 0x40 MLOAD PUSH1 0x20 DUP2 DUP4 SUB SUB DUP2 MSTORE SWAP1 PUSH1 0x40 MSTORE SWAP1 POP DUP3 DUP3 DUP3 PUSH1 0x40 MLOAD PUSH1 0x20 ADD PUSH2 0x1ADC SWAP4 SWAP3 SWAP2 SWAP1 PUSH2 0x4DA1 JUMP JUMPDEST PUSH1 0x40 MLOAD PUSH1 0x20 DUP2 DUP4 SUB SUB DUP2 MSTORE SWAP1 PUSH1 0x40 MSTORE SWAP4 POP POP POP POP SWAP2 SWAP1 POP JUMP JUMPDEST PUSH1 0x60 PUSH2 0x1B00 DUP3 PUSH2 0x2063 JUMP JUMPDEST PUSH2 0x1B4C JUMPI PUSH1 0x40 MLOAD PUSH3 0x461BCD PUSH1 0xE5 SHL DUP2 MSTORE PUSH1 0x20 PUSH1 0x4 DUP3 ADD MSTORE PUSH1 0x1F PUSH1 0x24 DUP3 ADD MSTORE PUSH32 0x417373657452656769737472793A204E6F6E6578697374656E7420736C6F7400 PUSH1 0x44 DUP3 ADD MSTORE PUSH1 0x64 ADD PUSH2 0xBFB JUMP JUMPDEST PUSH0 DUP3 DUP2 MSTORE PUSH1 0xD PUSH1 0x20 MSTORE PUSH1 0x40 SWAP1 KECCAK256 DUP1 SLOAD PUSH2 0x1B64 SWAP1 PUSH2 0x4827 JUMP JUMPDEST DUP1 PUSH1 0x1F ADD PUSH1 0x20 DUP1 SWAP2 DIV MUL PUSH1 0x20 ADD PUSH1 0x40 MLOAD SWAP1 DUP2 ADD PUSH1 0x40 MSTORE DUP1 SWAP3 SWAP2 SWAP1 DUP2 DUP2 MSTORE PUSH1 0x20 ADD DUP3 DUP1 SLOAD PUSH2 0x1B90 SWAP1 PUSH2 0x4827 JUMP JUMPDEST DUP1 ISZERO PUSH2 0x157B JUMPI DUP1 PUSH1 0x1F LT PUSH2 0x1BB2 JUMPI PUSH2 0x100 DUP1 DUP4 SLOAD DIV MUL DUP4 MSTORE SWAP2 PUSH1 0x20 ADD SWAP2 PUSH2 0x157B JUMP JUMPDEST DUP3 ADD SWAP2 SWAP1 PUSH0 MSTORE PUSH1 0x20 PUSH0 KECCAK256 SWAP1 JUMPDEST DUP2 SLOAD DUP2 MSTORE SWAP1 PUSH1 0x1 ADD SWAP1 PUSH1 0x20 ADD DUP1 DUP4 GT PUSH2 0x1BBE JUMPI POP SWAP4 SWAP7 SWAP6 POP POP POP POP POP POP JUMP JUMPDEST PUSH0 DUP4 DUP2 MSTORE PUSH1 0x2 PUSH1 0x20 MSTORE PUSH1 0x40 SWAP1 KECCAK256 SLOAD PUSH1 0x1 PUSH1 0x1 PUSH1 0xA0 SHL SUB AND PUSH2 0x1C37 JUMPI PUSH1 0x40 MLOAD PUSH3 0x461BCD PUSH1 0xE5 SHL DUP2 MSTORE PUSH1 0x20 PUSH1 0x4 DUP3 ADD MSTORE PUSH1 0x14 PUSH1 0x24 DUP3 ADD MSTORE PUSH20 0x105CDCD95D081B9BDD081C9959DA5CDD195C9959 PUSH1 0x62 SHL PUSH1 0x44 DUP3 ADD MSTORE PUSH1 0x64 ADD PUSH2 0xBFB JUMP JUMPDEST PUSH2 0x1C40 DUP4 PUSH2 0x1919 JUMP JUMPDEST PUSH2 0x1C97 JUMPI PUSH1 0x40 MLOAD PUSH3 0x461BCD PUSH1 0xE5 SHL DUP2 MSTORE PUSH1 0x20 PUSH1 0x4 DUP3 ADD MSTORE PUSH1 0x22 PUSH1 0x24 DUP3 ADD MSTORE PUSH32 0x41737365743A206173736574206973206E6F74206672616374696F6E616C697A PUSH1 0x44 DUP3 ADD MSTORE PUSH2 0x1959 PUSH1 0xF2 SHL PUSH1 0x64 DUP3 ADD MSTORE PUSH1 0x84 ADD PUSH2 0xBFB JUMP JUMPDEST PUSH0 PUSH2 0x1CA1 DUP5 PUSH2 0xEB0 JUMP JUMPDEST SWAP1 POP DUP1 PUSH0 SUB PUSH2 0x1CFC JUMPI PUSH1 0x40 MLOAD PUSH3 0x461BCD PUSH1 0xE5 SHL DUP2 MSTORE PUSH1 0x20 PUSH1 0x4 DUP3 ADD MSTORE PUSH1 0x21 PUSH1 0x24 DUP3 ADD MSTORE PUSH32 0x41737365743A4672616374696F6E616C205072696365206973206E6F74207365 PUSH1 0x44 DUP3 ADD MSTORE PUSH1 0x1D PUSH1 0xFA SHL PUSH1 0x64 DUP3 ADD MSTORE PUSH1 0x84 ADD PUSH2 0xBFB JUMP JUMPDEST PUSH0 PUSH2 0x1D07 DUP5 DUP4 PUSH2 0x4DE3 JUMP JUMPDEST SWAP1 POP PUSH0 PUSH1 0x64 PUSH1 0x1 SLOAD DUP4 PUSH2 0x1D1A SWAP2 SWAP1 PUSH2 0x4DE3 JUMP JUMPDEST PUSH2 0x1D24 SWAP2 SWAP1 PUSH2 0x4DFA JUMP JUMPDEST SWAP1 POP PUSH0 PUSH2 0x1D31 DUP3 DUP5 PUSH2 0x4E19 JUMP JUMPDEST SWAP1 POP PUSH20 0xEEEEEEEEEEEEEEEEEEEEEEEEEEEEEEEEEEEEEEED NOT PUSH1 0x1 PUSH1 0x1 PUSH1 0xA0 SHL SUB DUP7 AND ADD PUSH2 0x1DC8 JUMPI DUP3 CALLVALUE LT ISZERO PUSH2 0x1D9F JUMPI PUSH1 0x40 MLOAD PUSH3 0x461BCD PUSH1 0xE5 SHL DUP2 MSTORE PUSH1 0x20 PUSH1 0x4 DUP3 ADD MSTORE PUSH1 0x14 PUSH1 0x24 DUP3 ADD MSTORE PUSH20 0x125B9CDD59999A58DA595B9D081C185E5B595B9D PUSH1 0x62 SHL PUSH1 0x44 DUP3 ADD MSTORE PUSH1 0x64 ADD PUSH2 0xBFB JUMP JUMPDEST PUSH2 0x1DC3 DUP3 PUSH2 0x1DB4 PUSH0 SLOAD PUSH1 0x1 PUSH1 0x1 PUSH1 0xA0 SHL SUB AND SWAP1 JUMP JUMPDEST PUSH1 0x1 PUSH1 0x1 PUSH1 0xA0 SHL SUB AND SWAP1 PUSH2 0x35FC JUMP JUMPDEST PUSH2 0x1EBD JUMP JUMPDEST PUSH1 0x40 MLOAD PUSH4 0x23B872DD PUSH1 0xE0 SHL DUP2 MSTORE CALLER PUSH1 0x4 DUP3 ADD MSTORE ADDRESS PUSH1 0x24 DUP3 ADD MSTORE PUSH1 0x44 DUP2 ADD DUP5 SWAP1 MSTORE PUSH1 0x1 PUSH1 0x1 PUSH1 0xA0 SHL SUB DUP7 AND SWAP1 PUSH4 0x23B872DD SWAP1 PUSH1 0x64 ADD PUSH1 0x20 PUSH1 0x40 MLOAD DUP1 DUP4 SUB DUP2 PUSH0 DUP8 GAS CALL ISZERO DUP1 ISZERO PUSH2 0x1E18 JUMPI RETURNDATASIZE PUSH0 DUP1 RETURNDATACOPY RETURNDATASIZE PUSH0 REVERT JUMPDEST POP POP POP POP PUSH1 0x40 MLOAD RETURNDATASIZE PUSH1 0x1F NOT PUSH1 0x1F DUP3 ADD AND DUP3 ADD DUP1 PUSH1 0x40 MSTORE POP DUP2 ADD SWAP1 PUSH2 0x1E3C SWAP2 SWAP1 PUSH2 0x4E2C JUMP JUMPDEST POP DUP5 PUSH1 0x1 PUSH1 0x1 PUSH1 0xA0 SHL SUB AND PUSH4 0xA9059CBB PUSH2 0x1E5D PUSH0 SLOAD PUSH1 0x1 PUSH1 0x1 PUSH1 0xA0 SHL SUB AND SWAP1 JUMP JUMPDEST DUP5 PUSH1 0x40 MLOAD DUP4 PUSH4 0xFFFFFFFF AND PUSH1 0xE0 SHL DUP2 MSTORE PUSH1 0x4 ADD PUSH2 0x1E7B SWAP3 SWAP2 SWAP1 PUSH2 0x47BF JUMP JUMPDEST PUSH1 0x20 PUSH1 0x40 MLOAD DUP1 DUP4 SUB DUP2 PUSH0 DUP8 GAS CALL ISZERO DUP1 ISZERO PUSH2 0x1E97 JUMPI RETURNDATASIZE PUSH0 DUP1 RETURNDATACOPY RETURNDATASIZE PUSH0 REVERT JUMPDEST POP POP POP POP PUSH1 0x40 MLOAD RETURNDATASIZE PUSH1 0x1F NOT PUSH1 0x1F DUP3 ADD AND DUP3 ADD DUP1 PUSH1 0x40 MSTORE POP DUP2 ADD SWAP1 PUSH2 0x1EBB SWAP2 SWAP1 PUSH2 0x4E2C JUMP JUMPDEST POP JUMPDEST PUSH0 DUP8 DUP2 MSTORE PUSH1 0x3 PUSH1 0x20 SWAP1 DUP2 MSTORE PUSH1 0x40 DUP1 DUP4 KECCAK256 PUSH1 0x2 DUP4 MSTORE DUP2 DUP5 KECCAK256 SLOAD PUSH1 0x1 PUSH1 0x1 PUSH1 0xA0 SHL SUB SWAP1 DUP2 AND DUP6 MSTORE SWAP1 DUP4 MSTORE DUP2 DUP5 KECCAK256 SWAP1 DUP10 AND DUP5 MSTORE SWAP1 SWAP2 MSTORE DUP2 KECCAK256 DUP1 SLOAD DUP4 SWAP3 SWAP1 PUSH2 0x1F02 SWAP1 DUP5 SWAP1 PUSH2 0x4A42 JUMP JUMPDEST SWAP1 SWAP2 SSTORE POP POP PUSH1 0x40 DUP1 MLOAD DUP9 DUP2 MSTORE PUSH0 PUSH1 0x20 DUP3 ADD DUP2 SWAP1 MSTORE SWAP2 CALLER SWAP2 PUSH32 0x825345861315F1F596FDC2B9BEC2CB36452A81888724D69ABB25B39F6341F0CA SWAP2 ADD PUSH1 0x40 MLOAD DUP1 SWAP2 SUB SWAP1 LOG2 PUSH1 0x1 PUSH1 0x1 PUSH1 0xA0 SHL SUB DUP7 AND PUSH20 0xEEEEEEEEEEEEEEEEEEEEEEEEEEEEEEEEEEEEEEEE EQ DUP1 ISZERO PUSH2 0x1F6F JUMPI POP DUP4 CALLVALUE GT JUMPDEST ISZERO PUSH2 0x1F88 JUMPI PUSH2 0x1F88 PUSH2 0x1F81 DUP6 CALLVALUE PUSH2 0x4E19 JUMP JUMPDEST CALLER SWAP1 PUSH2 0x35FC JUMP JUMPDEST PUSH2 0x1F90 PUSH2 0x33D9 JUMP JUMPDEST SWAP1 POP PUSH2 0x1F9E CALLER DUP3 DUP11 DUP11 PUSH2 0x29CA JUMP JUMPDEST PUSH0 DUP9 DUP2 MSTORE PUSH1 0xD PUSH1 0x20 MSTORE PUSH1 0x40 SWAP1 KECCAK256 DUP1 SLOAD PUSH2 0x1FBC SWAP2 DUP4 SWAP2 PUSH2 0x17BF SWAP1 PUSH2 0x4827 JUMP JUMPDEST PUSH0 DUP9 DUP2 MSTORE PUSH1 0xA PUSH1 0x20 MSTORE PUSH1 0x40 DUP2 KECCAK256 DUP1 SLOAD DUP10 SWAP3 SWAP1 PUSH2 0x1FD9 SWAP1 DUP5 SWAP1 PUSH2 0x4A42 JUMP JUMPDEST SWAP1 SWAP2 SSTORE POP DUP8 SWAP1 POP PUSH2 0x1FEA CALLER DUP11 PUSH2 0x10B7 JUMP JUMPDEST SUB PUSH2 0x1FF9 JUMPI PUSH2 0x1FF9 DUP9 CALLER PUSH2 0x2F53 JUMP JUMPDEST POP POP POP POP POP POP POP POP JUMP JUMPDEST PUSH1 0x60 PUSH2 0x203D PUSH2 0x2019 PUSH2 0x2014 DUP5 PUSH2 0x19A8 JUMP JUMPDEST PUSH2 0x368F JUMP JUMPDEST PUSH1 0x40 MLOAD PUSH1 0x20 ADD PUSH2 0x2029 SWAP2 SWAP1 PUSH2 0x4E47 JUMP JUMPDEST PUSH1 0x40 MLOAD PUSH1 0x20 DUP2 DUP4 SUB SUB DUP2 MSTORE SWAP1 PUSH1 0x40 MSTORE PUSH2 0x368F JUMP JUMPDEST PUSH1 0x40 MLOAD PUSH1 0x20 ADD PUSH2 0x204D SWAP2 SWAP1 PUSH2 0x4EA5 JUMP JUMPDEST PUSH1 0x40 MLOAD PUSH1 0x20 DUP2 DUP4 SUB SUB DUP2 MSTORE SWAP1 PUSH1 0x40 MSTORE SWAP1 POP SWAP2 SWAP1 POP JUMP JUMPDEST PUSH0 DUP1 JUMPDEST PUSH1 0xC SLOAD DUP2 LT ISZERO PUSH2 0x20A3 JUMPI DUP3 PUSH1 0xC DUP3 DUP2 SLOAD DUP2 LT PUSH2 0x2084 JUMPI PUSH2 0x2084 PUSH2 0x485F JUMP JUMPDEST SWAP1 PUSH0 MSTORE PUSH1 0x20 PUSH0 KECCAK256 ADD SLOAD SUB PUSH2 0x209B JUMPI POP PUSH1 0x1 SWAP3 SWAP2 POP POP JUMP JUMPDEST PUSH1 0x1 ADD PUSH2 0x2066 JUMP JUMPDEST POP PUSH0 SWAP3 SWAP2 POP POP JUMP JUMPDEST PUSH1 0x60 PUSH1 0x1 PUSH1 0x1 PUSH1 0xA0 SHL SUB DUP3 AND PUSH2 0x20D3 JUMPI PUSH1 0x40 MLOAD PUSH3 0x461BCD PUSH1 0xE5 SHL DUP2 MSTORE PUSH1 0x4 ADD PUSH2 0xBFB SWAP1 PUSH2 0x49DE JUMP JUMPDEST PUSH1 0x1 PUSH1 0x1 PUSH1 0xA0 SHL SUB DUP3 AND PUSH0 SWAP1 DUP2 MSTORE PUSH1 0x13 PUSH1 0x20 SWAP1 DUP2 MSTORE PUSH1 0x40 DUP1 DUP4 KECCAK256 DUP1 SLOAD DUP3 MLOAD DUP2 DUP6 MUL DUP2 ADD DUP6 ADD SWAP1 SWAP4 MSTORE DUP1 DUP4 MSTORE SWAP1 SWAP4 SWAP3 DUP5 SWAP2 SWAP1 DUP4 ADD DUP3 DUP3 DUP1 ISZERO PUSH2 0x2131 JUMPI PUSH1 0x20 MUL DUP3 ADD SWAP2 SWAP1 PUSH0 MSTORE PUSH1 0x20 PUSH0 KECCAK256 SWAP1 JUMPDEST DUP2 SLOAD DUP2 MSTORE PUSH1 0x20 ADD SWAP1 PUSH1 0x1 ADD SWAP1 DUP1 DUP4 GT PUSH2 0x211D JUMPI JUMPDEST POP POP POP POP POP SWAP1 POP PUSH0 DUP2 MLOAD PUSH1 0x1 PUSH1 0x1 PUSH1 0x40 SHL SUB DUP2 GT ISZERO PUSH2 0x2152 JUMPI PUSH2 0x2152 PUSH2 0x458B JUMP JUMPDEST PUSH1 0x40 MLOAD SWAP1 DUP1 DUP3 MSTORE DUP1 PUSH1 0x20 MUL PUSH1 0x20 ADD DUP3 ADD PUSH1 0x40 MSTORE DUP1 ISZERO PUSH2 0x217B JUMPI DUP2 PUSH1 0x20 ADD PUSH1 0x20 DUP3 MUL DUP1 CALLDATASIZE DUP4 CALLDATACOPY ADD SWAP1 POP JUMPDEST POP SWAP1 POP PUSH0 DUP1 JUMPDEST DUP4 MLOAD DUP2 LT ISZERO PUSH2 0x2228 JUMPI PUSH0 PUSH2 0x21AD DUP6 DUP4 DUP2 MLOAD DUP2 LT PUSH2 0x21A0 JUMPI PUSH2 0x21A0 PUSH2 0x485F JUMP JUMPDEST PUSH1 0x20 MUL PUSH1 0x20 ADD ADD MLOAD PUSH2 0xE6C JUMP JUMPDEST SWAP1 POP PUSH1 0x1 PUSH0 JUMPDEST DUP5 DUP2 LT ISZERO PUSH2 0x21EB JUMPI DUP3 DUP7 DUP3 DUP2 MLOAD DUP2 LT PUSH2 0x21CE JUMPI PUSH2 0x21CE PUSH2 0x485F JUMP JUMPDEST PUSH1 0x20 MUL PUSH1 0x20 ADD ADD MLOAD SUB PUSH2 0x21E3 JUMPI PUSH0 SWAP2 POP PUSH2 0x21EB JUMP JUMPDEST PUSH1 0x1 ADD PUSH2 0x21B3 JUMP JUMPDEST POP DUP1 ISZERO PUSH2 0x221E JUMPI DUP2 DUP6 DUP6 DUP2 MLOAD DUP2 LT PUSH2 0x2205 JUMPI PUSH2 0x2205 PUSH2 0x485F JUMP JUMPDEST PUSH1 0x20 SWAP1 DUP2 MUL SWAP2 SWAP1 SWAP2 ADD ADD MSTORE DUP4 PUSH2 0x221A DUP2 PUSH2 0x4EE9 JUMP JUMPDEST SWAP5 POP POP JUMPDEST POP POP PUSH1 0x1 ADD PUSH2 0x2181 JUMP JUMPDEST POP PUSH0 DUP2 PUSH1 0x1 PUSH1 0x1 PUSH1 0x40 SHL SUB DUP2 GT ISZERO PUSH2 0x2242 JUMPI PUSH2 0x2242 PUSH2 0x458B JUMP JUMPDEST PUSH1 0x40 MLOAD SWAP1 DUP1 DUP3 MSTORE DUP1 PUSH1 0x20 MUL PUSH1 0x20 ADD DUP3 ADD PUSH1 0x40 MSTORE DUP1 ISZERO PUSH2 0x226B JUMPI DUP2 PUSH1 0x20 ADD PUSH1 0x20 DUP3 MUL DUP1 CALLDATASIZE DUP4 CALLDATACOPY ADD SWAP1 POP JUMPDEST POP SWAP1 POP PUSH0 JUMPDEST DUP3 DUP2 LT ISZERO PUSH2 0x22B7 JUMPI DUP4 DUP2 DUP2 MLOAD DUP2 LT PUSH2 0x228A JUMPI PUSH2 0x228A PUSH2 0x485F JUMP JUMPDEST PUSH1 0x20 MUL PUSH1 0x20 ADD ADD MLOAD DUP3 DUP3 DUP2 MLOAD DUP2 LT PUSH2 0x22A4 JUMPI PUSH2 0x22A4 PUSH2 0x485F JUMP JUMPDEST PUSH1 0x20 SWAP1 DUP2 MUL SWAP2 SWAP1 SWAP2 ADD ADD MSTORE PUSH1 0x1 ADD PUSH2 0x2270 JUMP JUMPDEST POP SWAP7 SWAP6 POP POP POP POP POP POP JUMP JUMPDEST PUSH0 PUSH2 0x22CC DUP3 PUSH2 0x37DD JUMP JUMPDEST PUSH2 0xE76 JUMPI PUSH1 0x40 MLOAD PUSH3 0x461BCD PUSH1 0xE5 SHL DUP2 MSTORE PUSH1 0x20 PUSH1 0x4 DUP3 ADD MSTORE PUSH1 0x1F PUSH1 0x24 DUP3 ADD MSTORE PUSH32 0x455243333532353A20746F6B656E496420646F6573206E6F7420657869737400 PUSH1 0x44 DUP3 ADD MSTORE PUSH1 0x64 ADD PUSH2 0xBFB JUMP JUMPDEST PUSH0 PUSH2 0x2322 DUP4 PUSH2 0x27DC JUMP JUMPDEST POP PUSH0 SWAP2 DUP3 MSTORE PUSH1 0xE PUSH1 0x20 SWAP1 DUP2 MSTORE PUSH1 0x40 DUP1 DUP5 KECCAK256 PUSH1 0x1 PUSH1 0x1 PUSH1 0xA0 SHL SUB SWAP4 SWAP1 SWAP4 AND DUP5 MSTORE SWAP2 SWAP1 MSTORE SWAP1 KECCAK256 SLOAD SWAP1 JUMP JUMPDEST PUSH1 0x60 PUSH0 PUSH2 0x2361 PUSH1 0x40 DUP1 MLOAD PUSH1 0x20 DUP2 ADD SWAP1 SWAP2 MSTORE PUSH0 DUP2 MSTORE SWAP1 JUMP JUMPDEST PUSH1 0x14 SLOAD SWAP1 SWAP2 POP PUSH1 0x1 PUSH1 0x1 PUSH1 0xA0 SHL SUB AND PUSH2 0x23BF JUMPI PUSH0 DUP2 MLOAD GT PUSH2 0x2390 JUMPI PUSH1 0x40 MLOAD DUP1 PUSH1 0x20 ADD PUSH1 0x40 MSTORE DUP1 PUSH0 DUP2 MSTORE POP PUSH2 0x2435 JUMP JUMPDEST DUP1 PUSH2 0x239A ADDRESS PUSH2 0x3824 JUMP JUMPDEST PUSH1 0x40 MLOAD PUSH1 0x20 ADD PUSH2 0x23AB SWAP3 SWAP2 SWAP1 PUSH2 0x4F01 JUMP JUMPDEST PUSH1 0x40 MLOAD PUSH1 0x20 DUP2 DUP4 SUB SUB DUP2 MSTORE SWAP1 PUSH1 0x40 MSTORE PUSH2 0x2435 JUMP JUMPDEST PUSH1 0x14 PUSH0 SWAP1 SLOAD SWAP1 PUSH2 0x100 EXP SWAP1 DIV PUSH1 0x1 PUSH1 0x1 PUSH1 0xA0 SHL SUB AND PUSH1 0x1 PUSH1 0x1 PUSH1 0xA0 SHL SUB AND PUSH4 0x725FA09C PUSH1 0x40 MLOAD DUP2 PUSH4 0xFFFFFFFF AND PUSH1 0xE0 SHL DUP2 MSTORE PUSH1 0x4 ADD PUSH0 PUSH1 0x40 MLOAD DUP1 DUP4 SUB DUP2 DUP7 GAS STATICCALL ISZERO DUP1 ISZERO PUSH2 0x240E JUMPI RETURNDATASIZE PUSH0 DUP1 RETURNDATACOPY RETURNDATASIZE PUSH0 REVERT JUMPDEST POP POP POP POP PUSH1 0x40 MLOAD RETURNDATASIZE PUSH0 DUP3 RETURNDATACOPY PUSH1 0x1F RETURNDATASIZE SWAP1 DUP2 ADD PUSH1 0x1F NOT AND DUP3 ADD PUSH1 0x40 MSTORE PUSH2 0x2435 SWAP2 SWAP1 DUP2 ADD SWAP1 PUSH2 0x4915 JUMP JUMPDEST SWAP2 POP POP SWAP1 JUMP JUMPDEST PUSH1 0x1 PUSH1 0x1 PUSH1 0xA0 SHL SUB SWAP2 DUP3 AND PUSH0 SWAP1 DUP2 MSTORE PUSH1 0x13 PUSH1 0x20 SWAP1 DUP2 MSTORE PUSH1 0x40 DUP1 DUP4 KECCAK256 SWAP4 SWAP1 SWAP5 AND DUP3 MSTORE PUSH1 0x2 SWAP1 SWAP3 ADD SWAP1 SWAP2 MSTORE KECCAK256 SLOAD PUSH1 0xFF AND SWAP1 JUMP JUMPDEST PUSH1 0x60 PUSH0 PUSH2 0x2483 DUP4 PUSH1 0x1 PUSH1 0x1 PUSH1 0xA0 SHL SUB AND PUSH1 0x14 PUSH2 0x3836 JUMP JUMPDEST PUSH1 0x40 DUP1 MLOAD PUSH1 0xD DUP1 DUP3 MSTORE DUP2 DUP4 ADD SWAP1 SWAP3 MSTORE SWAP2 SWAP3 POP DUP3 SWAP2 PUSH0 SWAP2 PUSH1 0x20 DUP3 ADD DUP2 DUP1 CALLDATASIZE DUP4 CALLDATACOPY ADD SWAP1 POP POP SWAP1 POP PUSH0 JUMPDEST PUSH1 0x5 DUP2 LT ISZERO PUSH2 0x2500 JUMPI DUP3 DUP2 DUP2 MLOAD DUP2 LT PUSH2 0x24C5 JUMPI PUSH2 0x24C5 PUSH2 0x485F JUMP JUMPDEST PUSH1 0x20 ADD ADD MLOAD PUSH1 0xF8 SHR PUSH1 0xF8 SHL DUP3 DUP3 DUP2 MLOAD DUP2 LT PUSH2 0x24E2 JUMPI PUSH2 0x24E2 PUSH2 0x485F JUMP JUMPDEST PUSH1 0x20 ADD ADD SWAP1 PUSH1 0x1 PUSH1 0x1 PUSH1 0xF8 SHL SUB NOT AND SWAP1 DUP2 PUSH0 BYTE SWAP1 MSTORE8 POP PUSH1 0x1 ADD PUSH2 0x24AA JUMP JUMPDEST POP PUSH1 0x17 PUSH1 0xF9 SHL DUP2 PUSH1 0x5 DUP2 MLOAD DUP2 LT PUSH2 0x2519 JUMPI PUSH2 0x2519 PUSH2 0x485F JUMP JUMPDEST PUSH1 0x20 ADD ADD SWAP1 PUSH1 0x1 PUSH1 0x1 PUSH1 0xF8 SHL SUB NOT AND SWAP1 DUP2 PUSH0 BYTE SWAP1 MSTORE8 POP PUSH1 0x17 PUSH1 0xF9 SHL DUP2 PUSH1 0x6 DUP2 MLOAD DUP2 LT PUSH2 0x2547 JUMPI PUSH2 0x2547 PUSH2 0x485F JUMP JUMPDEST PUSH1 0x20 ADD ADD SWAP1 PUSH1 0x1 PUSH1 0x1 PUSH1 0xF8 SHL SUB NOT AND SWAP1 DUP2 PUSH0 BYTE SWAP1 MSTORE8 POP PUSH1 0x17 PUSH1 0xF9 SHL DUP2 PUSH1 0x7 DUP2 MLOAD DUP2 LT PUSH2 0x2575 JUMPI PUSH2 0x2575 PUSH2 0x485F JUMP JUMPDEST PUSH1 0x20 ADD ADD SWAP1 PUSH1 0x1 PUSH1 0x1 PUSH1 0xF8 SHL SUB NOT AND SWAP1 DUP2 PUSH0 BYTE SWAP1 MSTORE8 POP PUSH0 JUMPDEST PUSH1 0x5 DUP2 LT ISZERO PUSH2 0x25FB JUMPI DUP3 PUSH2 0x25A2 DUP3 PUSH1 0x25 PUSH2 0x4A42 JUMP JUMPDEST DUP2 MLOAD DUP2 LT PUSH2 0x25B2 JUMPI PUSH2 0x25B2 PUSH2 0x485F JUMP JUMPDEST ADD PUSH1 0x20 ADD MLOAD PUSH1 0x1 PUSH1 0x1 PUSH1 0xF8 SHL SUB NOT AND DUP3 PUSH2 0x25CD DUP4 PUSH1 0x8 PUSH2 0x4A42 JUMP JUMPDEST DUP2 MLOAD DUP2 LT PUSH2 0x25DD JUMPI PUSH2 0x25DD PUSH2 0x485F JUMP JUMPDEST PUSH1 0x20 ADD ADD SWAP1 PUSH1 0x1 PUSH1 0x1 PUSH1 0xF8 SHL SUB NOT AND SWAP1 DUP2 PUSH0 BYTE SWAP1 MSTORE8 POP PUSH1 0x1 ADD PUSH2 0x258D JUMP JUMPDEST POP SWAP5 SWAP4 POP POP POP POP JUMP JUMPDEST PUSH2 0x260C PUSH2 0x320C JUMP JUMPDEST PUSH1 0x1 PUSH1 0x1 PUSH1 0xA0 SHL SUB DUP2 AND PUSH2 0x2635 JUMPI PUSH0 PUSH1 0x40 MLOAD PUSH4 0x1E4FBDF7 PUSH1 0xE0 SHL DUP2 MSTORE PUSH1 0x4 ADD PUSH2 0xBFB SWAP2 SWAP1 PUSH2 0x43F0 JUMP JUMPDEST PUSH2 0x263E DUP2 PUSH2 0x3238 JUMP JUMPDEST POP JUMP JUMPDEST PUSH0 DUP4 DUP2 MSTORE PUSH1 0x2 PUSH1 0x20 MSTORE PUSH1 0x40 SWAP1 KECCAK256 SLOAD CALLER SWAP1 DUP5 SWAP1 PUSH1 0x1 PUSH1 0x1 PUSH1 0xA0 SHL SUB AND DUP3 EQ PUSH2 0x267A JUMPI PUSH1 0x40 MLOAD PUSH3 0x461BCD PUSH1 0xE5 SHL DUP2 MSTORE PUSH1 0x4 ADD PUSH2 0xBFB SWAP1 PUSH2 0x4A55 JUMP JUMPDEST PUSH0 DUP6 DUP2 MSTORE PUSH1 0x3 PUSH1 0x20 SWAP1 DUP2 MSTORE PUSH1 0x40 DUP1 DUP4 KECCAK256 CALLER DUP5 MSTORE DUP3 MSTORE DUP1 DUP4 KECCAK256 PUSH1 0x1 PUSH1 0x1 PUSH1 0xA0 SHL SUB DUP9 AND DUP5 MSTORE SWAP1 SWAP2 MSTORE SWAP1 KECCAK256 SLOAD DUP1 DUP5 GT ISZERO PUSH2 0x26F4 JUMPI PUSH1 0x40 MLOAD PUSH3 0x461BCD PUSH1 0xE5 SHL DUP2 MSTORE PUSH1 0x20 PUSH1 0x4 DUP3 ADD MSTORE PUSH1 0x1E PUSH1 0x24 DUP3 ADD MSTORE PUSH32 0x496E73756666696369656E742066756E647320746F2077697468647261770000 PUSH1 0x44 DUP3 ADD MSTORE PUSH1 0x64 ADD PUSH2 0xBFB JUMP JUMPDEST PUSH0 DUP7 DUP2 MSTORE PUSH1 0x3 PUSH1 0x20 SWAP1 DUP2 MSTORE PUSH1 0x40 DUP1 DUP4 KECCAK256 CALLER DUP5 MSTORE DUP3 MSTORE DUP1 DUP4 KECCAK256 PUSH1 0x1 PUSH1 0x1 PUSH1 0xA0 SHL SUB DUP10 AND DUP5 MSTORE SWAP1 SWAP2 MSTORE DUP2 KECCAK256 DUP1 SLOAD DUP7 SWAP3 SWAP1 PUSH2 0x272D SWAP1 DUP5 SWAP1 PUSH2 0x4E19 JUMP JUMPDEST SWAP1 SWAP2 SSTORE POP POP PUSH20 0xEEEEEEEEEEEEEEEEEEEEEEEEEEEEEEEEEEEEEEED NOT PUSH1 0x1 PUSH1 0x1 PUSH1 0xA0 SHL SUB DUP7 AND ADD PUSH2 0x2766 JUMPI PUSH2 0x2761 CALLER DUP6 PUSH2 0x35FC JUMP JUMPDEST PUSH2 0x27D4 JUMP JUMPDEST PUSH1 0x40 MLOAD PUSH4 0xA9059CBB PUSH1 0xE0 SHL DUP2 MSTORE PUSH1 0x1 PUSH1 0x1 PUSH1 0xA0 SHL SUB DUP7 AND SWAP1 PUSH4 0xA9059CBB SWAP1 PUSH2 0x2794 SWAP1 CALLER SWAP1 DUP9 SWAP1 PUSH1 0x4 ADD PUSH2 0x47BF JUMP JUMPDEST PUSH1 0x20 PUSH1 0x40 MLOAD DUP1 DUP4 SUB DUP2 PUSH0 DUP8 GAS CALL ISZERO DUP1 ISZERO PUSH2 0x27B0 JUMPI RETURNDATASIZE PUSH0 DUP1 RETURNDATACOPY RETURNDATASIZE PUSH0 REVERT JUMPDEST POP POP POP POP PUSH1 0x40 MLOAD RETURNDATASIZE PUSH1 0x1F NOT PUSH1 0x1F DUP3 ADD AND DUP3 ADD DUP1 PUSH1 0x40 MSTORE POP DUP2 ADD SWAP1 PUSH2 0x10AE SWAP2 SWAP1 PUSH2 0x4E2C JUMP JUMPDEST POP POP POP POP POP POP JUMP JUMPDEST PUSH2 0x27E5 DUP2 PUSH2 0x37DD JUMP JUMPDEST PUSH2 0x263E JUMPI PUSH1 0x40 MLOAD PUSH3 0x461BCD PUSH1 0xE5 SHL DUP2 MSTORE PUSH1 0x4 ADD PUSH2 0xBFB SWAP1 PUSH2 0x4AA1 JUMP JUMPDEST PUSH0 DUP2 DUP2 MSTORE PUSH1 0x12 PUSH1 0x20 MSTORE PUSH1 0x40 SWAP1 KECCAK256 SLOAD PUSH1 0x10 DUP1 SLOAD DUP5 SWAP3 SWAP1 DUP2 LT PUSH2 0x2824 JUMPI PUSH2 0x2824 PUSH2 0x485F JUMP JUMPDEST PUSH0 SWAP2 DUP3 MSTORE PUSH1 0x20 SWAP1 SWAP2 KECCAK256 PUSH1 0x6 SWAP1 SWAP2 MUL ADD PUSH1 0x4 ADD DUP1 SLOAD PUSH1 0x1 PUSH1 0x1 PUSH1 0xA0 SHL SUB NOT AND PUSH1 0x1 PUSH1 0x1 PUSH1 0xA0 SHL SUB SWAP3 DUP4 AND OR SWAP1 SSTORE DUP2 SWAP1 DUP4 AND PUSH2 0x285D DUP3 PUSH2 0x13CA JUMP JUMPDEST PUSH1 0x1 PUSH1 0x1 PUSH1 0xA0 SHL SUB AND PUSH32 0x8C5BE1E5EBEC7D5BD14F71427D1E84F3DD0314C0F7B2291E5B200AC8C7C3B925 PUSH1 0x40 MLOAD PUSH1 0x40 MLOAD DUP1 SWAP2 SUB SWAP1 LOG4 POP POP JUMP JUMPDEST PUSH1 0x60 PUSH0 PUSH2 0x28A2 DUP4 PUSH2 0x39A7 JUMP JUMPDEST PUSH1 0x1 ADD SWAP1 POP PUSH0 DUP2 PUSH1 0x1 PUSH1 0x1 PUSH1 0x40 SHL SUB DUP2 GT ISZERO PUSH2 0x28C0 JUMPI PUSH2 0x28C0 PUSH2 0x458B JUMP JUMPDEST PUSH1 0x40 MLOAD SWAP1 DUP1 DUP3 MSTORE DUP1 PUSH1 0x1F ADD PUSH1 0x1F NOT AND PUSH1 0x20 ADD DUP3 ADD PUSH1 0x40 MSTORE DUP1 ISZERO PUSH2 0x28EA JUMPI PUSH1 0x20 DUP3 ADD DUP2 DUP1 CALLDATASIZE DUP4 CALLDATACOPY ADD SWAP1 POP JUMPDEST POP SWAP1 POP DUP2 DUP2 ADD PUSH1 0x20 ADD JUMPDEST PUSH0 NOT ADD PUSH16 0x181899199A1A9B1B9C1CB0B131B232B3 PUSH1 0x81 SHL PUSH1 0xA DUP7 MOD BYTE DUP2 MSTORE8 PUSH1 0xA DUP6 DIV SWAP5 POP DUP5 PUSH2 0x28F4 JUMPI POP SWAP4 SWAP3 POP POP POP JUMP JUMPDEST PUSH0 PUSH2 0x2930 DUP4 DUP6 PUSH2 0x2318 JUMP JUMPDEST SWAP1 POP PUSH2 0x293C DUP5 DUP5 PUSH2 0x3043 JUMP JUMPDEST ISZERO DUP1 ISZERO PUSH2 0x294A JUMPI POP PUSH0 NOT DUP2 EQ ISZERO JUMPDEST ISZERO PUSH2 0xE66 JUMPI DUP2 DUP2 LT ISZERO PUSH2 0x29AD JUMPI PUSH1 0x40 MLOAD PUSH3 0x461BCD PUSH1 0xE5 SHL DUP2 MSTORE PUSH1 0x20 PUSH1 0x4 DUP3 ADD MSTORE PUSH1 0x25 PUSH1 0x24 DUP3 ADD MSTORE PUSH32 0x417373657452656769737472793A20696E73756666696369656E7420616C6C6F PUSH1 0x44 DUP3 ADD MSTORE PUSH5 0x77616E6365 PUSH1 0xD8 SHL PUSH1 0x64 DUP3 ADD MSTORE PUSH1 0x84 ADD PUSH2 0xBFB JUMP JUMPDEST PUSH2 0xE66 DUP4 DUP6 PUSH2 0x29BC DUP6 DUP6 PUSH2 0x4E19 JUMP JUMPDEST PUSH2 0x3287 JUMP JUMPDEST PUSH0 PUSH2 0xAD9 PUSH2 0x33D9 JUMP JUMPDEST PUSH1 0x1 PUSH1 0x1 PUSH1 0xA0 SHL SUB DUP5 AND PUSH2 0x2A30 JUMPI PUSH1 0x40 MLOAD PUSH3 0x461BCD PUSH1 0xE5 SHL DUP2 MSTORE PUSH1 0x20 PUSH1 0x4 DUP3 ADD MSTORE PUSH1 0x27 PUSH1 0x24 DUP3 ADD MSTORE PUSH32 0x417373657452656769737472793A206D696E7420746F20746865207A65726F20 PUSH1 0x44 DUP3 ADD MSTORE PUSH7 0x61646472657373 PUSH1 0xC8 SHL PUSH1 0x64 DUP3 ADD MSTORE PUSH1 0x84 ADD PUSH2 0xBFB JUMP JUMPDEST DUP3 PUSH0 SUB PUSH2 0x2A8F JUMPI PUSH1 0x40 MLOAD PUSH3 0x461BCD PUSH1 0xE5 SHL DUP2 MSTORE PUSH1 0x20 PUSH1 0x4 DUP3 ADD MSTORE PUSH1 0x27 PUSH1 0x24 DUP3 ADD MSTORE PUSH32 0x417373657452656769737472793A2063616E6E6F74206D696E74207A65726F20 PUSH1 0x44 DUP3 ADD MSTORE PUSH7 0x1D1BDAD95B9259 PUSH1 0xCA SHL PUSH1 0x64 DUP3 ADD MSTORE PUSH1 0x84 ADD PUSH2 0xBFB JUMP JUMPDEST PUSH2 0x2A98 DUP4 PUSH2 0x37DD JUMP JUMPDEST ISZERO PUSH2 0x2AF1 JUMPI PUSH1 0x40 MLOAD PUSH3 0x461BCD PUSH1 0xE5 SHL DUP2 MSTORE PUSH1 0x20 PUSH1 0x4 DUP3 ADD MSTORE PUSH1 0x23 PUSH1 0x24 DUP3 ADD MSTORE PUSH32 0x417373657452656769737472793A20746F6B656E20616C7265616479206D696E PUSH1 0x44 DUP3 ADD MSTORE PUSH3 0x1D1959 PUSH1 0xEA SHL PUSH1 0x64 DUP3 ADD MSTORE PUSH1 0x84 ADD PUSH2 0xBFB JUMP JUMPDEST PUSH2 0x2AFC DUP5 DUP5 DUP5 PUSH2 0x3A7E JUMP JUMPDEST PUSH2 0x2B06 DUP4 DUP3 PUSH2 0x3B41 JUMP JUMPDEST PUSH2 0xE66 JUMP JUMPDEST PUSH2 0x2B14 DUP4 PUSH2 0x37DD JUMP JUMPDEST PUSH2 0x2B76 JUMPI PUSH1 0x40 MLOAD PUSH3 0x461BCD PUSH1 0xE5 SHL DUP2 MSTORE PUSH1 0x20 PUSH1 0x4 DUP3 ADD MSTORE PUSH1 0x2D PUSH1 0x24 DUP3 ADD MSTORE PUSH32 0x417373657452656769737472793A207472616E736665722066726F6D20696E76 PUSH1 0x44 DUP3 ADD MSTORE PUSH13 0x185B1A59081D1BDAD95B881251 PUSH1 0x9A SHL PUSH1 0x64 DUP3 ADD MSTORE PUSH1 0x84 ADD PUSH2 0xBFB JUMP JUMPDEST PUSH2 0x2B7F DUP3 PUSH2 0x37DD JUMP JUMPDEST PUSH2 0x2BDF JUMPI PUSH1 0x40 MLOAD PUSH3 0x461BCD PUSH1 0xE5 SHL DUP2 MSTORE PUSH1 0x20 PUSH1 0x4 DUP3 ADD MSTORE PUSH1 0x2B PUSH1 0x24 DUP3 ADD MSTORE PUSH32 0x417373657452656769737472793A207472616E7366657220746F20696E76616C PUSH1 0x44 DUP3 ADD MSTORE PUSH11 0x1A59081D1BDAD95B881251 PUSH1 0xAA SHL PUSH1 0x64 DUP3 ADD MSTORE PUSH1 0x84 ADD PUSH2 0xBFB JUMP JUMPDEST PUSH0 DUP4 DUP2 MSTORE PUSH1 0x12 PUSH1 0x20 MSTORE PUSH1 0x40 DUP2 KECCAK256 SLOAD PUSH1 0x10 DUP1 SLOAD SWAP1 SWAP2 SWAP1 DUP2 LT PUSH2 0x2C02 JUMPI PUSH2 0x2C02 PUSH2 0x485F JUMP JUMPDEST SWAP1 PUSH0 MSTORE PUSH1 0x20 PUSH0 KECCAK256 SWAP1 PUSH1 0x6 MUL ADD SWAP1 POP PUSH0 PUSH1 0x10 PUSH1 0x12 PUSH0 DUP7 DUP2 MSTORE PUSH1 0x20 ADD SWAP1 DUP2 MSTORE PUSH1 0x20 ADD PUSH0 KECCAK256 SLOAD DUP2 SLOAD DUP2 LT PUSH2 0x2C35 JUMPI PUSH2 0x2C35 PUSH2 0x485F JUMP JUMPDEST SWAP1 PUSH0 MSTORE PUSH1 0x20 PUSH0 KECCAK256 SWAP1 PUSH1 0x6 MUL ADD SWAP1 POP DUP3 DUP3 PUSH1 0x2 ADD SLOAD LT ISZERO PUSH2 0x2CB0 JUMPI PUSH1 0x40 MLOAD PUSH3 0x461BCD PUSH1 0xE5 SHL DUP2 MSTORE PUSH1 0x20 PUSH1 0x4 DUP3 ADD MSTORE PUSH1 0x30 PUSH1 0x24 DUP3 ADD MSTORE PUSH32 0x417373657452656769737472793A20696E73756666696369656E742062616C61 PUSH1 0x44 DUP3 ADD MSTORE PUSH16 0x3731B2903337B9103A3930B739B332B9 PUSH1 0x81 SHL PUSH1 0x64 DUP3 ADD MSTORE PUSH1 0x84 ADD PUSH2 0xBFB JUMP JUMPDEST DUP1 PUSH1 0x1 ADD SLOAD DUP3 PUSH1 0x1 ADD SLOAD EQ PUSH2 0x2D24 JUMPI PUSH1 0x40 MLOAD PUSH3 0x461BCD PUSH1 0xE5 SHL DUP2 MSTORE PUSH1 0x20 PUSH1 0x4 DUP3 ADD MSTORE PUSH1 0x34 PUSH1 0x24 DUP3 ADD MSTORE PUSH32 0x417373657452656769737472793A207472616E7366657220746F20746F6B656E PUSH1 0x44 DUP3 ADD MSTORE PUSH20 0x81DDA5D1A08191A5999995C995B9D081CDB1BDD PUSH1 0x62 SHL PUSH1 0x64 DUP3 ADD MSTORE PUSH1 0x84 ADD PUSH2 0xBFB JUMP JUMPDEST DUP3 DUP3 PUSH1 0x2 ADD PUSH0 DUP3 DUP3 SLOAD PUSH2 0x2D37 SWAP2 SWAP1 PUSH2 0x4E19 JUMP JUMPDEST SWAP3 POP POP DUP2 SWAP1 SSTORE POP DUP3 DUP2 PUSH1 0x2 ADD PUSH0 DUP3 DUP3 SLOAD PUSH2 0x2D51 SWAP2 SWAP1 PUSH2 0x4A42 JUMP JUMPDEST SWAP1 SWAP2 SSTORE POP POP PUSH1 0x40 MLOAD DUP4 DUP2 MSTORE DUP5 SWAP1 DUP7 SWAP1 PUSH32 0xB2AAC84F3EC956911FD78EAE5311062972FF949F38412E8DA39069D9F068CC6 SWAP1 PUSH1 0x20 ADD PUSH1 0x40 MLOAD DUP1 SWAP2 SUB SWAP1 LOG3 PUSH2 0x2DA7 DUP6 DUP6 DUP6 PUSH1 0x40 MLOAD DUP1 PUSH1 0x20 ADD PUSH1 0x40 MSTORE DUP1 PUSH0 DUP2 MSTORE POP PUSH2 0x3BC1 JUMP JUMPDEST PUSH2 0x2E0F JUMPI PUSH1 0x40 MLOAD PUSH3 0x461BCD PUSH1 0xE5 SHL DUP2 MSTORE PUSH1 0x20 PUSH1 0x4 DUP3 ADD MSTORE PUSH1 0x33 PUSH1 0x24 DUP3 ADD MSTORE PUSH32 0x417373657452656769737472793A207472616E736665722072656A6563746564 PUSH1 0x44 DUP3 ADD MSTORE PUSH19 0x10313C9022A921999A991AA932B1B2B4BB32B9 PUSH1 0x69 SHL PUSH1 0x64 DUP3 ADD MSTORE PUSH1 0x84 ADD PUSH2 0xBFB JUMP JUMPDEST POP POP POP POP POP JUMP JUMPDEST PUSH0 DUP3 DUP2 MSTORE PUSH1 0x5 PUSH1 0x20 SWAP1 DUP2 MSTORE PUSH1 0x40 DUP1 DUP4 KECCAK256 PUSH1 0x1 PUSH1 0x1 PUSH1 0xA0 SHL SUB DUP6 AND DUP5 MSTORE DUP3 MSTORE DUP1 DUP4 KECCAK256 SLOAD DUP6 DUP5 MSTORE PUSH1 0x4 SWAP1 SWAP3 MSTORE DUP3 KECCAK256 SLOAD SWAP1 SWAP2 SWAP1 PUSH2 0x2E52 SWAP1 PUSH1 0x1 SWAP1 PUSH2 0x4E19 JUMP JUMPDEST PUSH0 DUP6 DUP2 MSTORE PUSH1 0x4 PUSH1 0x20 MSTORE PUSH1 0x40 DUP2 KECCAK256 DUP1 SLOAD SWAP3 SWAP4 POP SWAP1 SWAP2 DUP4 SWAP1 DUP2 LT PUSH2 0x2E76 JUMPI PUSH2 0x2E76 PUSH2 0x485F JUMP JUMPDEST PUSH0 SWAP2 DUP3 MSTORE PUSH1 0x20 DUP1 DUP4 KECCAK256 SWAP1 SWAP2 ADD SLOAD DUP8 DUP4 MSTORE PUSH1 0x4 SWAP1 SWAP2 MSTORE PUSH1 0x40 SWAP1 SWAP2 KECCAK256 DUP1 SLOAD PUSH1 0x1 PUSH1 0x1 PUSH1 0xA0 SHL SUB SWAP1 SWAP3 AND SWAP3 POP DUP3 SWAP2 DUP6 SWAP1 DUP2 LT PUSH2 0x2EB1 JUMPI PUSH2 0x2EB1 PUSH2 0x485F JUMP JUMPDEST PUSH0 SWAP2 DUP3 MSTORE PUSH1 0x20 DUP1 DUP4 KECCAK256 SWAP2 SWAP1 SWAP2 ADD DUP1 SLOAD PUSH1 0x1 PUSH1 0x1 PUSH1 0xA0 SHL SUB NOT AND PUSH1 0x1 PUSH1 0x1 PUSH1 0xA0 SHL SUB SWAP5 DUP6 AND OR SWAP1 SSTORE DUP8 DUP3 MSTORE PUSH1 0x5 DUP2 MSTORE PUSH1 0x40 DUP1 DUP4 KECCAK256 SWAP4 DUP6 AND DUP4 MSTORE SWAP3 DUP2 MSTORE DUP3 DUP3 KECCAK256 DUP7 SWAP1 SSTORE DUP8 DUP3 MSTORE PUSH1 0x4 SWAP1 MSTORE KECCAK256 DUP1 SLOAD DUP1 PUSH2 0x2F09 JUMPI PUSH2 0x2F09 PUSH2 0x4F44 JUMP JUMPDEST PUSH0 DUP3 DUP2 MSTORE PUSH1 0x20 DUP1 DUP3 KECCAK256 DUP4 ADD PUSH0 NOT SWAP1 DUP2 ADD DUP1 SLOAD PUSH1 0x1 PUSH1 0x1 PUSH1 0xA0 SHL SUB NOT AND SWAP1 SSTORE SWAP1 SWAP3 ADD SWAP1 SWAP3 SSTORE SWAP6 DUP2 MSTORE PUSH1 0x5 DUP7 MSTORE PUSH1 0x40 DUP1 DUP3 KECCAK256 PUSH1 0x1 PUSH1 0x1 PUSH1 0xA0 SHL SUB SWAP7 SWAP1 SWAP7 AND DUP3 MSTORE SWAP5 SWAP1 SWAP6 MSTORE POP POP POP DUP2 KECCAK256 SSTORE JUMP JUMPDEST PUSH0 DUP3 DUP2 MSTORE PUSH1 0x5 PUSH1 0x20 SWAP1 DUP2 MSTORE PUSH1 0x40 DUP1 DUP4 KECCAK256 PUSH1 0x1 PUSH1 0x1 PUSH1 0xA0 SHL SUB DUP6 AND DUP5 MSTORE SWAP1 SWAP2 MSTORE SWAP1 KECCAK256 SLOAD ISZERO DUP1 ISZERO PUSH2 0x2FD0 JUMPI POP PUSH0 DUP3 DUP2 MSTORE PUSH1 0x4 PUSH1 0x20 MSTORE PUSH1 0x40 SWAP1 KECCAK256 SLOAD ISZERO DUP1 PUSH2 0x2FD0 JUMPI POP PUSH0 DUP3 DUP2 MSTORE PUSH1 0x4 PUSH1 0x20 MSTORE PUSH1 0x40 DUP2 KECCAK256 DUP1 SLOAD PUSH1 0x1 PUSH1 0x1 PUSH1 0xA0 SHL SUB DUP5 AND SWAP3 SWAP1 PUSH2 0x2FB9 JUMPI PUSH2 0x2FB9 PUSH2 0x485F JUMP JUMPDEST PUSH0 SWAP2 DUP3 MSTORE PUSH1 0x20 SWAP1 SWAP2 KECCAK256 ADD SLOAD PUSH1 0x1 PUSH1 0x1 PUSH1 0xA0 SHL SUB AND EQ ISZERO JUMPDEST ISZERO PUSH2 0x18C9 JUMPI PUSH0 DUP3 DUP2 MSTORE PUSH1 0x4 PUSH1 0x20 SWAP1 DUP2 MSTORE PUSH1 0x40 DUP3 KECCAK256 DUP1 SLOAD PUSH1 0x1 DUP1 DUP3 ADD DUP4 SSTORE DUP3 DUP6 MSTORE SWAP3 DUP5 KECCAK256 ADD DUP1 SLOAD PUSH1 0x1 PUSH1 0x1 PUSH1 0xA0 SHL SUB NOT AND PUSH1 0x1 PUSH1 0x1 PUSH1 0xA0 SHL SUB DUP7 AND OR SWAP1 SSTORE SWAP2 DUP5 SWAP1 MSTORE SWAP1 SLOAD PUSH2 0x301D SWAP2 SWAP1 PUSH2 0x4E19 JUMP JUMPDEST PUSH0 DUP4 DUP2 MSTORE PUSH1 0x5 PUSH1 0x20 SWAP1 DUP2 MSTORE PUSH1 0x40 DUP1 DUP4 KECCAK256 PUSH1 0x1 PUSH1 0x1 PUSH1 0xA0 SHL SUB DUP7 AND DUP5 MSTORE SWAP1 SWAP2 MSTORE SWAP1 KECCAK256 SSTORE POP POP JUMP JUMPDEST PUSH0 DUP1 PUSH2 0x304E DUP4 PUSH2 0x13CA JUMP JUMPDEST SWAP1 POP DUP1 PUSH1 0x1 PUSH1 0x1 PUSH1 0xA0 SHL SUB AND DUP5 PUSH1 0x1 PUSH1 0x1 PUSH1 0xA0 SHL SUB AND EQ DUP1 PUSH2 0x3075 JUMPI POP PUSH2 0x3075 DUP2 DUP6 PUSH2 0x243B JUMP JUMPDEST DUP1 PUSH2 0x3099 JUMPI POP DUP4 PUSH1 0x1 PUSH1 0x1 PUSH1 0xA0 SHL SUB AND PUSH2 0x308E DUP5 PUSH2 0xB6F JUMP JUMPDEST PUSH1 0x1 PUSH1 0x1 PUSH1 0xA0 SHL SUB AND EQ JUMPDEST SWAP5 SWAP4 POP POP POP POP JUMP JUMPDEST DUP3 PUSH1 0x1 PUSH1 0x1 PUSH1 0xA0 SHL SUB AND PUSH2 0x30B4 DUP3 PUSH2 0x13CA JUMP JUMPDEST PUSH1 0x1 PUSH1 0x1 PUSH1 0xA0 SHL SUB AND EQ PUSH2 0x311D JUMPI PUSH1 0x40 MLOAD PUSH3 0x461BCD PUSH1 0xE5 SHL DUP2 MSTORE PUSH1 0x20 PUSH1 0x4 DUP3 ADD MSTORE PUSH1 0x2A PUSH1 0x24 DUP3 ADD MSTORE PUSH32 0x417373657452656769737472793A207472616E736665722066726F6D20696E76 PUSH1 0x44 DUP3 ADD MSTORE PUSH10 0x30B634B21037BBB732B9 PUSH1 0xB1 SHL PUSH1 0x64 DUP3 ADD MSTORE PUSH1 0x84 ADD PUSH2 0xBFB JUMP JUMPDEST PUSH1 0x1 PUSH1 0x1 PUSH1 0xA0 SHL SUB DUP3 AND PUSH2 0x3187 JUMPI PUSH1 0x40 MLOAD PUSH3 0x461BCD PUSH1 0xE5 SHL DUP2 MSTORE PUSH1 0x20 PUSH1 0x4 DUP3 ADD MSTORE PUSH1 0x2B PUSH1 0x24 DUP3 ADD MSTORE PUSH32 0x417373657452656769737472793A207472616E7366657220746F20746865207A PUSH1 0x44 DUP3 ADD MSTORE PUSH11 0x65726F2061646472657373 PUSH1 0xA8 SHL PUSH1 0x64 DUP3 ADD MSTORE PUSH1 0x84 ADD PUSH2 0xBFB JUMP JUMPDEST PUSH0 PUSH2 0x3191 DUP3 PUSH2 0xE6C JUMP JUMPDEST SWAP1 POP PUSH0 PUSH2 0x319D DUP4 PUSH2 0x187A JUMP JUMPDEST SWAP1 POP PUSH2 0x31A9 PUSH0 DUP5 PUSH2 0x2801 JUMP JUMPDEST PUSH2 0x31B2 DUP4 PUSH2 0x3D2D JUMP JUMPDEST PUSH2 0x31BC DUP6 DUP5 PUSH2 0x3DC9 JUMP JUMPDEST PUSH2 0x31C6 DUP5 DUP5 PUSH2 0x3EDC JUMP JUMPDEST DUP3 DUP5 PUSH1 0x1 PUSH1 0x1 PUSH1 0xA0 SHL SUB AND DUP7 PUSH1 0x1 PUSH1 0x1 PUSH1 0xA0 SHL SUB AND PUSH32 0xDDF252AD1BE2C89B69C2B068FC378DAA952BA7F163C4A11628F55A4DF523B3EF PUSH1 0x40 MLOAD PUSH1 0x40 MLOAD DUP1 SWAP2 SUB SWAP1 LOG4 PUSH2 0x2E0F JUMP JUMPDEST PUSH0 SLOAD PUSH1 0x1 PUSH1 0x1 PUSH1 0xA0 SHL SUB AND CALLER EQ PUSH2 0x1624 JUMPI CALLER PUSH1 0x40 MLOAD PUSH4 0x118CDAA7 PUSH1 0xE0 SHL DUP2 MSTORE PUSH1 0x4 ADD PUSH2 0xBFB SWAP2 SWAP1 PUSH2 0x43F0 JUMP JUMPDEST PUSH0 DUP1 SLOAD PUSH1 0x1 PUSH1 0x1 PUSH1 0xA0 SHL SUB DUP4 DUP2 AND PUSH1 0x1 PUSH1 0x1 PUSH1 0xA0 SHL SUB NOT DUP4 AND DUP2 OR DUP5 SSTORE PUSH1 0x40 MLOAD SWAP2 SWAP1 SWAP3 AND SWAP3 DUP4 SWAP2 PUSH32 0x8BE0079C531659141344CD1FD0A4F28419497F9722A3DAAFE3B4186F6B6457E0 SWAP2 SWAP1 LOG3 POP POP JUMP JUMPDEST PUSH1 0x1 PUSH1 0x1 PUSH1 0xA0 SHL SUB DUP3 AND PUSH2 0x32F6 JUMPI PUSH1 0x40 MLOAD PUSH3 0x461BCD PUSH1 0xE5 SHL DUP2 MSTORE PUSH1 0x20 PUSH1 0x4 DUP3 ADD MSTORE PUSH1 0x30 PUSH1 0x24 DUP3 ADD MSTORE PUSH32 0x417373657452656769737472793A20617070726F76652076616C756520746F20 PUSH1 0x44 DUP3 ADD MSTORE PUSH16 0x746865207A65726F2061646472657373 PUSH1 0x80 SHL PUSH1 0x64 DUP3 ADD MSTORE PUSH1 0x84 ADD PUSH2 0xBFB JUMP JUMPDEST PUSH2 0x3300 DUP3 DUP5 PUSH2 0x3F63 JUMP JUMPDEST PUSH2 0x3364 JUMPI PUSH0 DUP4 DUP2 MSTORE PUSH1 0x12 PUSH1 0x20 MSTORE PUSH1 0x40 SWAP1 KECCAK256 SLOAD PUSH1 0x10 DUP1 SLOAD SWAP1 SWAP2 SWAP1 DUP2 LT PUSH2 0x3327 JUMPI PUSH2 0x3327 PUSH2 0x485F JUMP JUMPDEST PUSH0 SWAP2 DUP3 MSTORE PUSH1 0x20 DUP1 DUP4 KECCAK256 PUSH1 0x6 SWAP3 SWAP1 SWAP3 MUL SWAP1 SWAP2 ADD PUSH1 0x5 ADD DUP1 SLOAD PUSH1 0x1 DUP2 ADD DUP3 SSTORE SWAP1 DUP4 MSTORE SWAP2 KECCAK256 ADD DUP1 SLOAD PUSH1 0x1 PUSH1 0x1 PUSH1 0xA0 SHL SUB NOT AND PUSH1 0x1 PUSH1 0x1 PUSH1 0xA0 SHL SUB DUP5 AND OR SWAP1 SSTORE JUMPDEST PUSH0 DUP4 DUP2 MSTORE PUSH1 0xE PUSH1 0x20 SWAP1 DUP2 MSTORE PUSH1 0x40 DUP1 DUP4 KECCAK256 PUSH1 0x1 PUSH1 0x1 PUSH1 0xA0 SHL SUB DUP7 AND DUP1 DUP6 MSTORE SWAP1 DUP4 MSTORE SWAP3 DUP2 SWAP1 KECCAK256 DUP5 SWAP1 SSTORE MLOAD DUP4 DUP2 MSTORE DUP6 SWAP2 PUSH32 0x621B050DE0AD08B51D19B48B3E6DF75348C4DE6BDD93E81B252CA62E28265B1B SWAP2 ADD JUMPDEST PUSH1 0x40 MLOAD DUP1 SWAP2 SUB SWAP1 LOG3 POP POP POP JUMP JUMPDEST PUSH0 DUP3 DUP2 MSTORE PUSH1 0xD PUSH1 0x20 MSTORE PUSH1 0x40 SWAP1 KECCAK256 PUSH2 0xC9C DUP3 DUP3 PUSH2 0x4F9C JUMP JUMPDEST PUSH1 0x9 DUP1 SLOAD PUSH0 SWAP2 DUP3 PUSH2 0x33E9 DUP4 PUSH2 0x4EE9 JUMP JUMPDEST SWAP2 SWAP1 POP SSTORE SWAP1 POP SWAP1 JUMP JUMPDEST PUSH0 DUP2 DUP2 MSTORE PUSH1 0xA PUSH1 0x20 MSTORE PUSH1 0x40 DUP2 KECCAK256 SLOAD SWAP1 SUB PUSH2 0x263E JUMPI PUSH1 0xC DUP1 SLOAD PUSH1 0x1 DUP2 ADD DUP3 SSTORE PUSH0 SWAP2 SWAP1 SWAP2 MSTORE PUSH32 0xDF6966C971051C3D54EC59162606531493A51404A002842F56009D7E5CF4A8C7 ADD SSTORE JUMP JUMPDEST PUSH2 0x3443 DUP3 PUSH2 0x37DD JUMP JUMPDEST PUSH2 0x34A3 JUMPI PUSH1 0x40 MLOAD PUSH3 0x461BCD PUSH1 0xE5 SHL DUP2 MSTORE PUSH1 0x20 PUSH1 0x4 DUP3 ADD MSTORE PUSH1 0x2B PUSH1 0x24 DUP3 ADD MSTORE PUSH32 0x417373657452656769737472793A2055524920736574206F66206E6F6E657869 PUSH1 0x44 DUP3 ADD MSTORE PUSH11 0x39BA32B73A103A37B5B2B7 PUSH1 0xA9 SHL PUSH1 0x64 DUP3 ADD MSTORE PUSH1 0x84 ADD PUSH2 0xBFB JUMP JUMPDEST PUSH0 DUP3 DUP2 MSTORE PUSH1 0x15 PUSH1 0x20 MSTORE PUSH1 0x40 SWAP1 KECCAK256 PUSH2 0xC9C DUP3 DUP3 PUSH2 0x4F9C JUMP JUMPDEST DUP2 PUSH1 0x1 PUSH1 0x1 PUSH1 0xA0 SHL SUB AND DUP4 PUSH1 0x1 PUSH1 0x1 PUSH1 0xA0 SHL SUB AND SUB PUSH2 0x351B JUMPI PUSH1 0x40 MLOAD PUSH3 0x461BCD PUSH1 0xE5 SHL DUP2 MSTORE PUSH1 0x20 PUSH1 0x4 DUP3 ADD DUP2 SWAP1 MSTORE PUSH1 0x24 DUP3 ADD MSTORE PUSH32 0x417373657452656769737472793A20617070726F766520746F2063616C6C6572 PUSH1 0x44 DUP3 ADD MSTORE PUSH1 0x64 ADD PUSH2 0xBFB JUMP JUMPDEST PUSH1 0x1 PUSH1 0x1 PUSH1 0xA0 SHL SUB DUP4 DUP2 AND PUSH0 DUP2 DUP2 MSTORE PUSH1 0x13 PUSH1 0x20 SWAP1 DUP2 MSTORE PUSH1 0x40 DUP1 DUP4 KECCAK256 SWAP5 DUP8 AND DUP1 DUP5 MSTORE PUSH1 0x2 SWAP1 SWAP6 ADD DUP3 MSTORE SWAP2 DUP3 SWAP1 KECCAK256 DUP1 SLOAD PUSH1 0xFF NOT AND DUP7 ISZERO ISZERO SWAP1 DUP2 OR SWAP1 SWAP2 SSTORE SWAP2 MLOAD SWAP2 DUP3 MSTORE PUSH32 0x17307EAB39AB6107E8899845AD3D59BD9653F200F220920489CA2B5937696C31 SWAP2 ADD PUSH2 0x33B5 JUMP JUMPDEST PUSH2 0x358E DUP5 DUP5 DUP5 PUSH2 0x30A1 JUMP JUMPDEST PUSH2 0x359A DUP5 DUP5 DUP5 DUP5 PUSH2 0x4025 JUMP JUMPDEST PUSH2 0xE66 JUMPI PUSH1 0x40 MLOAD PUSH3 0x461BCD PUSH1 0xE5 SHL DUP2 MSTORE PUSH1 0x20 PUSH1 0x4 DUP3 ADD MSTORE PUSH1 0x2D PUSH1 0x24 DUP3 ADD MSTORE PUSH32 0x417373657452656769737472793A207472616E7366657220746F206E6F6E2045 PUSH1 0x44 DUP3 ADD MSTORE PUSH13 0x29219B9918A932B1B2B4BB32B9 PUSH1 0x99 SHL PUSH1 0x64 DUP3 ADD MSTORE PUSH1 0x84 ADD PUSH2 0xBFB JUMP JUMPDEST DUP1 SELFBALANCE LT ISZERO PUSH2 0x361F JUMPI ADDRESS PUSH1 0x40 MLOAD PUSH4 0xCD786059 PUSH1 0xE0 SHL DUP2 MSTORE PUSH1 0x4 ADD PUSH2 0xBFB SWAP2 SWAP1 PUSH2 0x43F0 JUMP JUMPDEST PUSH0 DUP3 PUSH1 0x1 PUSH1 0x1 PUSH1 0xA0 SHL SUB AND DUP3 PUSH1 0x40 MLOAD PUSH0 PUSH1 0x40 MLOAD DUP1 DUP4 SUB DUP2 DUP6 DUP8 GAS CALL SWAP3 POP POP POP RETURNDATASIZE DUP1 PUSH0 DUP2 EQ PUSH2 0x3668 JUMPI PUSH1 0x40 MLOAD SWAP2 POP PUSH1 0x1F NOT PUSH1 0x3F RETURNDATASIZE ADD AND DUP3 ADD PUSH1 0x40 MSTORE RETURNDATASIZE DUP3 MSTORE RETURNDATASIZE PUSH0 PUSH1 0x20 DUP5 ADD RETURNDATACOPY PUSH2 0x366D JUMP JUMPDEST PUSH1 0x60 SWAP2 POP JUMPDEST POP POP SWAP1 POP DUP1 PUSH2 0xC9C JUMPI PUSH1 0x40 MLOAD PUSH4 0xA12F521 PUSH1 0xE1 SHL DUP2 MSTORE PUSH1 0x4 ADD PUSH1 0x40 MLOAD DUP1 SWAP2 SUB SWAP1 REVERT JUMPDEST PUSH1 0x60 DUP2 MLOAD PUSH0 SUB PUSH2 0x36AC JUMPI POP POP PUSH1 0x40 DUP1 MLOAD PUSH1 0x20 DUP2 ADD SWAP1 SWAP2 MSTORE PUSH0 DUP2 MSTORE SWAP1 JUMP JUMPDEST PUSH0 PUSH1 0x40 MLOAD DUP1 PUSH1 0x60 ADD PUSH1 0x40 MSTORE DUP1 PUSH1 0x40 DUP2 MSTORE PUSH1 0x20 ADD PUSH2 0x5359 PUSH1 0x40 SWAP2 CODECOPY SWAP1 POP PUSH0 PUSH1 0x3 DUP5 MLOAD PUSH1 0x2 PUSH2 0x36D9 SWAP2 SWAP1 PUSH2 0x4A42 JUMP JUMPDEST PUSH2 0x36E3 SWAP2 SWAP1 PUSH2 0x4DFA JUMP JUMPDEST PUSH2 0x36EE SWAP1 PUSH1 0x4 PUSH2 0x4DE3 JUMP JUMPDEST PUSH1 0x1 PUSH1 0x1 PUSH1 0x40 SHL SUB DUP2 GT ISZERO PUSH2 0x3705 JUMPI PUSH2 0x3705 PUSH2 0x458B JUMP JUMPDEST PUSH1 0x40 MLOAD SWAP1 DUP1 DUP3 MSTORE DUP1 PUSH1 0x1F ADD PUSH1 0x1F NOT AND PUSH1 0x20 ADD DUP3 ADD PUSH1 0x40 MSTORE DUP1 ISZERO PUSH2 0x372F JUMPI PUSH1 0x20 DUP3 ADD DUP2 DUP1 CALLDATASIZE DUP4 CALLDATACOPY ADD SWAP1 POP JUMPDEST POP SWAP1 POP PUSH1 0x1 DUP3 ADD PUSH1 0x20 DUP3 ADD DUP6 DUP7 MLOAD DUP8 ADD JUMPDEST DUP1 DUP3 LT ISZERO PUSH2 0x379B JUMPI PUSH1 0x3 DUP3 ADD SWAP2 POP DUP2 MLOAD PUSH1 0x3F DUP2 PUSH1 0x12 SHR AND DUP6 ADD MLOAD DUP5 MSTORE8 PUSH1 0x1 DUP5 ADD SWAP4 POP PUSH1 0x3F DUP2 PUSH1 0xC SHR AND DUP6 ADD MLOAD DUP5 MSTORE8 PUSH1 0x1 DUP5 ADD SWAP4 POP PUSH1 0x3F DUP2 PUSH1 0x6 SHR AND DUP6 ADD MLOAD DUP5 MSTORE8 PUSH1 0x1 DUP5 ADD SWAP4 POP PUSH1 0x3F DUP2 AND DUP6 ADD MLOAD DUP5 MSTORE8 POP PUSH1 0x1 DUP4 ADD SWAP3 POP PUSH2 0x3740 JUMP JUMPDEST POP POP PUSH1 0x3 DUP7 MLOAD MOD PUSH1 0x1 DUP2 EQ PUSH2 0x37B7 JUMPI PUSH1 0x2 DUP2 EQ PUSH2 0x37CA JUMPI PUSH2 0x37D2 JUMP JUMPDEST PUSH1 0x3D PUSH1 0x1 DUP4 SUB MSTORE8 PUSH1 0x3D PUSH1 0x2 DUP4 SUB MSTORE8 PUSH2 0x37D2 JUMP JUMPDEST PUSH1 0x3D PUSH1 0x1 DUP4 SUB MSTORE8 JUMPDEST POP SWAP2 SWAP6 SWAP5 POP POP POP POP POP JUMP JUMPDEST PUSH1 0x10 SLOAD PUSH0 SWAP1 ISZERO DUP1 ISZERO SWAP1 PUSH2 0xAD9 JUMPI POP PUSH0 DUP3 DUP2 MSTORE PUSH1 0x12 PUSH1 0x20 MSTORE PUSH1 0x40 SWAP1 KECCAK256 SLOAD PUSH1 0x10 DUP1 SLOAD DUP5 SWAP3 SWAP1 DUP2 LT PUSH2 0x380E JUMPI PUSH2 0x380E PUSH2 0x485F JUMP JUMPDEST SWAP1 PUSH0 MSTORE PUSH1 0x20 PUSH0 KECCAK256 SWAP1 PUSH1 0x6 MUL ADD PUSH0 ADD SLOAD EQ SWAP3 SWAP2 POP POP JUMP JUMPDEST PUSH1 0x60 PUSH2 0xAD9 PUSH1 0x1 PUSH1 0x1 PUSH1 0xA0 SHL SUB DUP4 AND PUSH1 0x14 JUMPDEST PUSH1 0x60 DUP3 PUSH0 PUSH2 0x3845 DUP5 PUSH1 0x2 PUSH2 0x4DE3 JUMP JUMPDEST PUSH2 0x3850 SWAP1 PUSH1 0x2 PUSH2 0x4A42 JUMP JUMPDEST PUSH1 0x1 PUSH1 0x1 PUSH1 0x40 SHL SUB DUP2 GT ISZERO PUSH2 0x3867 JUMPI PUSH2 0x3867 PUSH2 0x458B JUMP JUMPDEST PUSH1 0x40 MLOAD SWAP1 DUP1 DUP3 MSTORE DUP1 PUSH1 0x1F ADD PUSH1 0x1F NOT AND PUSH1 0x20 ADD DUP3 ADD PUSH1 0x40 MSTORE DUP1 ISZERO PUSH2 0x3891 JUMPI PUSH1 0x20 DUP3 ADD DUP2 DUP1 CALLDATASIZE DUP4 CALLDATACOPY ADD SWAP1 POP JUMPDEST POP SWAP1 POP PUSH1 0x3 PUSH1 0xFC SHL DUP2 PUSH0 DUP2 MLOAD DUP2 LT PUSH2 0x38AB JUMPI PUSH2 0x38AB PUSH2 0x485F JUMP JUMPDEST PUSH1 0x20 ADD ADD SWAP1 PUSH1 0x1 PUSH1 0x1 PUSH1 0xF8 SHL SUB NOT AND SWAP1 DUP2 PUSH0 BYTE SWAP1 MSTORE8 POP PUSH1 0xF PUSH1 0xFB SHL DUP2 PUSH1 0x1 DUP2 MLOAD DUP2 LT PUSH2 0x38D9 JUMPI PUSH2 0x38D9 PUSH2 0x485F JUMP JUMPDEST PUSH1 0x20 ADD ADD SWAP1 PUSH1 0x1 PUSH1 0x1 PUSH1 0xF8 SHL SUB NOT AND SWAP1 DUP2 PUSH0 BYTE SWAP1 MSTORE8 POP PUSH0 PUSH2 0x38FB DUP6 PUSH1 0x2 PUSH2 0x4DE3 JUMP JUMPDEST PUSH2 0x3906 SWAP1 PUSH1 0x1 PUSH2 0x4A42 JUMP JUMPDEST SWAP1 POP JUMPDEST PUSH1 0x1 DUP2 GT ISZERO PUSH2 0x397D JUMPI PUSH16 0x181899199A1A9B1B9C1CB0B131B232B3 PUSH1 0x81 SHL DUP4 PUSH1 0xF AND PUSH1 0x10 DUP2 LT PUSH2 0x393A JUMPI PUSH2 0x393A PUSH2 0x485F JUMP JUMPDEST BYTE PUSH1 0xF8 SHL DUP3 DUP3 DUP2 MLOAD DUP2 LT PUSH2 0x3950 JUMPI PUSH2 0x3950 PUSH2 0x485F JUMP JUMPDEST PUSH1 0x20 ADD ADD SWAP1 PUSH1 0x1 PUSH1 0x1 PUSH1 0xF8 SHL SUB NOT AND SWAP1 DUP2 PUSH0 BYTE SWAP1 MSTORE8 POP PUSH1 0x4 SWAP3 SWAP1 SWAP3 SHR SWAP2 PUSH2 0x3976 DUP2 PUSH2 0x5057 JUMP JUMPDEST SWAP1 POP PUSH2 0x3909 JUMP JUMPDEST POP DUP2 ISZERO PUSH2 0x3099 JUMPI PUSH1 0x40 MLOAD PUSH4 0xE22E27EB PUSH1 0xE0 SHL DUP2 MSTORE PUSH1 0x4 DUP2 ADD DUP7 SWAP1 MSTORE PUSH1 0x24 DUP2 ADD DUP6 SWAP1 MSTORE PUSH1 0x44 ADD PUSH2 0xBFB JUMP JUMPDEST PUSH0 DUP1 PUSH19 0x184F03E93FF9F4DAA797ED6E38ED64BF6A1F01 PUSH1 0x40 SHL DUP4 LT PUSH2 0x39E5 JUMPI PUSH19 0x184F03E93FF9F4DAA797ED6E38ED64BF6A1F01 PUSH1 0x40 SHL DUP4 DIV SWAP3 POP PUSH1 0x40 ADD JUMPDEST PUSH14 0x4EE2D6D415B85ACEF8100000000 DUP4 LT PUSH2 0x3A11 JUMPI PUSH14 0x4EE2D6D415B85ACEF8100000000 DUP4 DIV SWAP3 POP PUSH1 0x20 ADD JUMPDEST PUSH7 0x2386F26FC10000 DUP4 LT PUSH2 0x3A2F JUMPI PUSH7 0x2386F26FC10000 DUP4 DIV SWAP3 POP PUSH1 0x10 ADD JUMPDEST PUSH4 0x5F5E100 DUP4 LT PUSH2 0x3A47 JUMPI PUSH4 0x5F5E100 DUP4 DIV SWAP3 POP PUSH1 0x8 ADD JUMPDEST PUSH2 0x2710 DUP4 LT PUSH2 0x3A5B JUMPI PUSH2 0x2710 DUP4 DIV SWAP3 POP PUSH1 0x4 ADD JUMPDEST PUSH1 0x64 DUP4 LT PUSH2 0x3A6D JUMPI PUSH1 0x64 DUP4 DIV SWAP3 POP PUSH1 0x2 ADD JUMPDEST PUSH1 0xA DUP4 LT PUSH2 0xAD9 JUMPI PUSH1 0x1 ADD SWAP3 SWAP2 POP POP JUMP JUMPDEST PUSH1 0x40 DUP1 MLOAD PUSH1 0xC0 DUP2 ADD DUP3 MSTORE DUP4 DUP2 MSTORE PUSH1 0x20 DUP1 DUP3 ADD DUP5 SWAP1 MSTORE PUSH0 DUP3 DUP5 ADD DUP2 SWAP1 MSTORE PUSH1 0x1 PUSH1 0x1 PUSH1 0xA0 SHL SUB DUP8 AND PUSH1 0x60 DUP5 ADD MSTORE PUSH1 0x80 DUP4 ADD DUP2 SWAP1 MSTORE DUP4 MLOAD DUP2 DUP2 MSTORE SWAP2 DUP3 ADD SWAP1 SWAP4 MSTORE PUSH1 0xA0 DUP3 ADD MSTORE SWAP1 POP PUSH2 0x3ACB DUP2 PUSH2 0x4167 JUMP JUMPDEST PUSH2 0x3AD5 DUP5 DUP5 PUSH2 0x3EDC JUMP JUMPDEST PUSH1 0x40 MLOAD DUP4 SWAP1 PUSH1 0x1 PUSH1 0x1 PUSH1 0xA0 SHL SUB DUP7 AND SWAP1 PUSH0 SWAP1 PUSH32 0xDDF252AD1BE2C89B69C2B068FC378DAA952BA7F163C4A11628F55A4DF523B3EF SWAP1 DUP3 SWAP1 LOG4 DUP2 PUSH0 DUP5 PUSH32 0xE4F48C240D3B994948AA54F3E2F5FCA59263DFE1D52B6E4CF39A5D249B5CCB65 PUSH1 0x40 MLOAD PUSH1 0x40 MLOAD DUP1 SWAP2 SUB SWAP1 LOG4 POP POP POP POP JUMP JUMPDEST PUSH0 DUP3 DUP2 MSTORE PUSH1 0x12 PUSH1 0x20 MSTORE PUSH1 0x40 SWAP1 KECCAK256 SLOAD PUSH1 0x10 DUP1 SLOAD DUP4 SWAP3 SWAP1 DUP2 LT PUSH2 0x3B64 JUMPI PUSH2 0x3B64 PUSH2 0x485F JUMP JUMPDEST SWAP1 PUSH0 MSTORE PUSH1 0x20 PUSH0 KECCAK256 SWAP1 PUSH1 0x6 MUL ADD PUSH1 0x2 ADD PUSH0 DUP3 DUP3 SLOAD PUSH2 0x3B81 SWAP2 SWAP1 PUSH2 0x4A42 JUMP JUMPDEST SWAP1 SWAP2 SSTORE POP POP PUSH1 0x40 MLOAD DUP2 DUP2 MSTORE DUP3 SWAP1 PUSH0 SWAP1 PUSH32 0xB2AAC84F3EC956911FD78EAE5311062972FF949F38412E8DA39069D9F068CC6 SWAP1 PUSH1 0x20 ADD PUSH1 0x40 MLOAD DUP1 SWAP2 SUB SWAP1 LOG3 POP POP JUMP JUMPDEST PUSH0 DUP1 PUSH2 0x3BCC DUP6 PUSH2 0x13CA JUMP JUMPDEST SWAP1 POP DUP1 EXTCODESIZE PUSH4 0xFFFFFFFF AND ISZERO PUSH2 0x3D21 JUMPI PUSH1 0x40 MLOAD PUSH4 0x1FFC9A7 PUSH1 0xE0 SHL DUP2 MSTORE PUSH3 0x9CE20B PUSH1 0xE0 SHL PUSH1 0x4 DUP3 ADD MSTORE PUSH1 0x1 PUSH1 0x1 PUSH1 0xA0 SHL SUB DUP3 AND SWAP1 PUSH4 0x1FFC9A7 SWAP1 PUSH1 0x24 ADD PUSH1 0x20 PUSH1 0x40 MLOAD DUP1 DUP4 SUB DUP2 DUP7 GAS STATICCALL SWAP3 POP POP POP DUP1 ISZERO PUSH2 0x3C41 JUMPI POP PUSH1 0x40 DUP1 MLOAD PUSH1 0x1F RETURNDATASIZE SWAP1 DUP2 ADD PUSH1 0x1F NOT AND DUP3 ADD SWAP1 SWAP3 MSTORE PUSH2 0x3C3E SWAP2 DUP2 ADD SWAP1 PUSH2 0x4E2C JUMP JUMPDEST PUSH1 0x1 JUMPDEST PUSH2 0x3C7F JUMPI RETURNDATASIZE DUP1 DUP1 ISZERO PUSH2 0x3C6E JUMPI PUSH1 0x40 MLOAD SWAP2 POP PUSH1 0x1F NOT PUSH1 0x3F RETURNDATASIZE ADD AND DUP3 ADD PUSH1 0x40 MSTORE RETURNDATASIZE DUP3 MSTORE RETURNDATASIZE PUSH0 PUSH1 0x20 DUP5 ADD RETURNDATACOPY PUSH2 0x3C73 JUMP JUMPDEST PUSH1 0x60 SWAP2 POP JUMPDEST POP PUSH1 0x1 SWAP3 POP POP POP PUSH2 0x3099 JUMP JUMPDEST DUP1 ISZERO PUSH2 0x3D16 JUMPI PUSH1 0x40 MLOAD PUSH3 0x9CE20B PUSH1 0xE0 SHL DUP2 MSTORE PUSH0 SWAP1 PUSH1 0x1 PUSH1 0x1 PUSH1 0xA0 SHL SUB DUP5 AND SWAP1 PUSH3 0x9CE20B SWAP1 PUSH2 0x3CB9 SWAP1 CALLER SWAP1 DUP13 SWAP1 DUP13 SWAP1 DUP13 SWAP1 DUP13 SWAP1 PUSH1 0x4 ADD PUSH2 0x506C JUMP JUMPDEST PUSH1 0x20 PUSH1 0x40 MLOAD DUP1 DUP4 SUB DUP2 PUSH0 DUP8 GAS CALL ISZERO DUP1 ISZERO PUSH2 0x3CD5 JUMPI RETURNDATASIZE PUSH0 DUP1 RETURNDATACOPY RETURNDATASIZE PUSH0 REVERT JUMPDEST POP POP POP POP PUSH1 0x40 MLOAD RETURNDATASIZE PUSH1 0x1F NOT PUSH1 0x1F DUP3 ADD AND DUP3 ADD DUP1 PUSH1 0x40 MSTORE POP DUP2 ADD SWAP1 PUSH2 0x3CF9 SWAP2 SWAP1 PUSH2 0x50A9 JUMP JUMPDEST PUSH1 0x1 PUSH1 0x1 PUSH1 0xE0 SHL SUB NOT AND PUSH3 0x9CE20B PUSH1 0xE0 SHL EQ SWAP4 POP PUSH2 0x3099 SWAP3 POP POP POP JUMP JUMPDEST PUSH1 0x1 SWAP3 POP POP POP PUSH2 0x3099 JUMP JUMPDEST POP PUSH1 0x1 SWAP6 SWAP5 POP POP POP POP POP JUMP JUMPDEST PUSH0 DUP2 DUP2 MSTORE PUSH1 0x12 PUSH1 0x20 MSTORE PUSH1 0x40 DUP2 KECCAK256 SLOAD PUSH1 0x10 DUP1 SLOAD SWAP1 SWAP2 SWAP1 DUP2 LT PUSH2 0x3D50 JUMPI PUSH2 0x3D50 PUSH2 0x485F JUMP JUMPDEST PUSH0 SWAP2 DUP3 MSTORE PUSH1 0x20 DUP3 KECCAK256 PUSH1 0x5 PUSH1 0x6 SWAP1 SWAP3 MUL ADD SWAP1 DUP2 ADD SLOAD SWAP1 SWAP3 POP SWAP1 JUMPDEST DUP2 DUP2 LT ISZERO PUSH2 0x3DBB JUMPI PUSH0 DUP4 PUSH1 0x5 ADD DUP3 DUP2 SLOAD DUP2 LT PUSH2 0x3D87 JUMPI PUSH2 0x3D87 PUSH2 0x485F JUMP JUMPDEST PUSH0 SWAP2 DUP3 MSTORE PUSH1 0x20 DUP1 DUP4 KECCAK256 SWAP1 SWAP2 ADD SLOAD DUP8 DUP4 MSTORE PUSH1 0xE DUP3 MSTORE PUSH1 0x40 DUP1 DUP5 KECCAK256 PUSH1 0x1 PUSH1 0x1 PUSH1 0xA0 SHL SUB SWAP1 SWAP3 AND DUP5 MSTORE SWAP2 MSTORE DUP2 KECCAK256 SSTORE POP PUSH1 0x1 ADD PUSH2 0x3D69 JUMP JUMPDEST POP PUSH2 0xC9C PUSH1 0x5 DUP4 ADD PUSH0 PUSH2 0x42B8 JUMP JUMPDEST PUSH0 DUP2 DUP2 MSTORE PUSH1 0x12 PUSH1 0x20 MSTORE PUSH1 0x40 DUP2 KECCAK256 SLOAD PUSH1 0x10 DUP1 SLOAD SWAP1 SWAP2 SWAP1 DUP2 LT PUSH2 0x3DEC JUMPI PUSH2 0x3DEC PUSH2 0x485F JUMP JUMPDEST PUSH0 SWAP2 DUP3 MSTORE PUSH1 0x20 DUP1 DUP4 KECCAK256 PUSH1 0x6 SWAP3 SWAP1 SWAP3 MUL SWAP1 SWAP2 ADD PUSH1 0x3 ADD DUP1 SLOAD PUSH1 0x1 PUSH1 0x1 PUSH1 0xA0 SHL SUB NOT AND PUSH1 0x1 PUSH1 0x1 PUSH1 0xA0 SHL SUB SWAP5 DUP6 AND OR SWAP1 SSTORE SWAP2 DUP5 AND DUP2 MSTORE PUSH1 0x13 SWAP1 SWAP2 MSTORE PUSH1 0x40 DUP2 KECCAK256 DUP1 SLOAD SWAP1 SWAP2 SWAP1 PUSH2 0x3E3A SWAP1 PUSH1 0x1 SWAP1 PUSH2 0x4E19 JUMP JUMPDEST SWAP1 POP PUSH0 DUP3 PUSH0 ADD DUP3 DUP2 SLOAD DUP2 LT PUSH2 0x3E51 JUMPI PUSH2 0x3E51 PUSH2 0x485F JUMP JUMPDEST SWAP1 PUSH0 MSTORE PUSH1 0x20 PUSH0 KECCAK256 ADD SLOAD SWAP1 POP PUSH0 DUP4 PUSH1 0x1 ADD PUSH0 DUP7 DUP2 MSTORE PUSH1 0x20 ADD SWAP1 DUP2 MSTORE PUSH1 0x20 ADD PUSH0 KECCAK256 SLOAD SWAP1 POP DUP2 DUP5 PUSH0 ADD DUP3 DUP2 SLOAD DUP2 LT PUSH2 0x3E88 JUMPI PUSH2 0x3E88 PUSH2 0x485F JUMP JUMPDEST PUSH0 SWAP2 DUP3 MSTORE PUSH1 0x20 DUP1 DUP4 KECCAK256 SWAP1 SWAP2 ADD SWAP3 SWAP1 SWAP3 SSTORE DUP4 DUP2 MSTORE PUSH1 0x1 DUP7 ADD SWAP1 SWAP2 MSTORE PUSH1 0x40 DUP1 DUP3 KECCAK256 DUP4 SWAP1 SSTORE DUP7 DUP3 MSTORE DUP2 KECCAK256 SSTORE DUP4 SLOAD DUP5 SWAP1 DUP1 PUSH2 0x3EC1 JUMPI PUSH2 0x3EC1 PUSH2 0x4F44 JUMP JUMPDEST PUSH1 0x1 SWAP1 SUB DUP2 DUP2 SWAP1 PUSH0 MSTORE PUSH1 0x20 PUSH0 KECCAK256 ADD PUSH0 SWAP1 SSTORE SWAP1 SSTORE POP POP POP POP POP POP JUMP JUMPDEST PUSH0 DUP2 DUP2 MSTORE PUSH1 0x12 PUSH1 0x20 MSTORE PUSH1 0x40 SWAP1 KECCAK256 SLOAD PUSH1 0x10 DUP1 SLOAD DUP5 SWAP3 SWAP1 DUP2 LT PUSH2 0x3EFF JUMPI PUSH2 0x3EFF PUSH2 0x485F JUMP JUMPDEST PUSH0 SWAP2 DUP3 MSTORE PUSH1 0x20 DUP1 DUP4 KECCAK256 PUSH1 0x6 SWAP3 SWAP1 SWAP3 MUL SWAP1 SWAP2 ADD PUSH1 0x3 ADD DUP1 SLOAD PUSH1 0x1 PUSH1 0x1 PUSH1 0xA0 SHL SUB NOT AND PUSH1 0x1 PUSH1 0x1 PUSH1 0xA0 SHL SUB SWAP5 DUP6 AND OR SWAP1 SSTORE SWAP4 SWAP1 SWAP2 AND DUP2 MSTORE PUSH1 0x13 DUP1 DUP5 MSTORE PUSH1 0x40 DUP1 DUP4 KECCAK256 DUP1 SLOAD DUP6 DUP6 MSTORE PUSH1 0x1 DUP3 DUP2 ADD DUP9 MSTORE SWAP3 DUP6 KECCAK256 DUP2 SWAP1 SSTORE SWAP3 DUP7 MSTORE SWAP1 DUP3 ADD DUP2 SSTORE DUP3 MSTORE SWAP3 SWAP1 KECCAK256 SWAP1 SWAP2 ADD SSTORE JUMP JUMPDEST PUSH0 DUP2 DUP2 MSTORE PUSH1 0x12 PUSH1 0x20 MSTORE PUSH1 0x40 DUP2 KECCAK256 SLOAD PUSH1 0x10 DUP1 SLOAD DUP4 SWAP3 SWAP1 DUP2 LT PUSH2 0x3F86 JUMPI PUSH2 0x3F86 PUSH2 0x485F JUMP JUMPDEST PUSH0 SWAP2 DUP3 MSTORE PUSH1 0x20 DUP3 KECCAK256 PUSH1 0x5 PUSH1 0x6 SWAP1 SWAP3 MUL ADD ADD SLOAD SWAP2 POP JUMPDEST DUP2 DUP2 LT ISZERO PUSH2 0x401B JUMPI PUSH0 DUP5 DUP2 MSTORE PUSH1 0x12 PUSH1 0x20 MSTORE PUSH1 0x40 SWAP1 KECCAK256 SLOAD PUSH1 0x10 DUP1 SLOAD PUSH1 0x1 PUSH1 0x1 PUSH1 0xA0 SHL SUB DUP9 AND SWAP3 SWAP1 DUP2 LT PUSH2 0x3FCF JUMPI PUSH2 0x3FCF PUSH2 0x485F JUMP JUMPDEST SWAP1 PUSH0 MSTORE PUSH1 0x20 PUSH0 KECCAK256 SWAP1 PUSH1 0x6 MUL ADD PUSH1 0x5 ADD DUP3 DUP2 SLOAD DUP2 LT PUSH2 0x3FEF JUMPI PUSH2 0x3FEF PUSH2 0x485F JUMP JUMPDEST PUSH0 SWAP2 DUP3 MSTORE PUSH1 0x20 SWAP1 SWAP2 KECCAK256 ADD SLOAD PUSH1 0x1 PUSH1 0x1 PUSH1 0xA0 SHL SUB AND SUB PUSH2 0x4013 JUMPI PUSH1 0x1 SWAP3 POP POP POP PUSH2 0xAD9 JUMP JUMPDEST PUSH1 0x1 ADD PUSH2 0x3F9B JUMP JUMPDEST POP PUSH0 SWAP5 SWAP4 POP POP POP POP JUMP JUMPDEST PUSH0 DUP4 EXTCODESIZE PUSH4 0xFFFFFFFF AND ISZERO PUSH2 0x415F JUMPI PUSH1 0x40 MLOAD PUSH4 0xA85BD01 PUSH1 0xE1 SHL DUP2 MSTORE PUSH1 0x1 PUSH1 0x1 PUSH1 0xA0 SHL SUB DUP6 AND SWAP1 PUSH4 0x150B7A02 SWAP1 PUSH2 0x4065 SWAP1 CALLER SWAP1 DUP10 SWAP1 DUP9 SWAP1 DUP9 SWAP1 PUSH1 0x4 ADD PUSH2 0x50C4 JUMP JUMPDEST PUSH1 0x20 PUSH1 0x40 MLOAD DUP1 DUP4 SUB DUP2 PUSH0 DUP8 GAS CALL SWAP3 POP POP POP DUP1 ISZERO PUSH2 0x409F JUMPI POP PUSH1 0x40 DUP1 MLOAD PUSH1 0x1F RETURNDATASIZE SWAP1 DUP2 ADD PUSH1 0x1F NOT AND DUP3 ADD SWAP1 SWAP3 MSTORE PUSH2 0x409C SWAP2 DUP2 ADD SWAP1 PUSH2 0x50A9 JUMP JUMPDEST PUSH1 0x1 JUMPDEST PUSH2 0x4145 JUMPI RETURNDATASIZE DUP1 DUP1 ISZERO PUSH2 0x40CC JUMPI PUSH1 0x40 MLOAD SWAP2 POP PUSH1 0x1F NOT PUSH1 0x3F RETURNDATASIZE ADD AND DUP3 ADD PUSH1 0x40 MSTORE RETURNDATASIZE DUP3 MSTORE RETURNDATASIZE PUSH0 PUSH1 0x20 DUP5 ADD RETURNDATACOPY PUSH2 0x40D1 JUMP JUMPDEST PUSH1 0x60 SWAP2 POP JUMPDEST POP DUP1 MLOAD PUSH0 SUB PUSH2 0x413D JUMPI PUSH1 0x40 MLOAD PUSH3 0x461BCD PUSH1 0xE5 SHL DUP2 MSTORE PUSH1 0x20 PUSH1 0x4 DUP3 ADD MSTORE PUSH1 0x32 PUSH1 0x24 DUP3 ADD MSTORE PUSH32 0x4552433732313A207472616E7366657220746F206E6F6E204552433732315265 PUSH1 0x44 DUP3 ADD MSTORE PUSH18 0x31B2B4BB32B91034B6B83632B6B2B73A32B9 PUSH1 0x71 SHL PUSH1 0x64 DUP3 ADD MSTORE PUSH1 0x84 ADD PUSH2 0xBFB JUMP JUMPDEST DUP1 MLOAD DUP2 PUSH1 0x20 ADD REVERT JUMPDEST PUSH1 0x1 PUSH1 0x1 PUSH1 0xE0 SHL SUB NOT AND PUSH4 0xA85BD01 PUSH1 0xE1 SHL EQ SWAP1 POP PUSH2 0x3099 JUMP JUMPDEST POP PUSH1 0x1 PUSH2 0x3099 JUMP JUMPDEST PUSH1 0x10 DUP1 SLOAD DUP3 MLOAD PUSH0 SWAP1 DUP2 MSTORE PUSH1 0x12 PUSH1 0x20 SWAP1 DUP2 MSTORE PUSH1 0x40 DUP1 DUP4 KECCAK256 DUP5 SWAP1 SSTORE PUSH1 0x1 DUP5 ADD DUP6 SSTORE SWAP4 SWAP1 SWAP2 MSTORE DUP4 MLOAD PUSH1 0x6 SWAP1 SWAP3 MUL PUSH32 0x1B6847DC741A1B0CD08D278845F9D819D87B734759AFB55FE2DE5CB82A9AE672 DUP2 ADD SWAP3 DUP4 SSTORE DUP2 DUP6 ADD MLOAD PUSH32 0x1B6847DC741A1B0CD08D278845F9D819D87B734759AFB55FE2DE5CB82A9AE673 DUP3 ADD SSTORE SWAP3 DUP5 ADD MLOAD PUSH32 0x1B6847DC741A1B0CD08D278845F9D819D87B734759AFB55FE2DE5CB82A9AE674 DUP5 ADD SSTORE PUSH1 0x60 DUP5 ADD MLOAD PUSH32 0x1B6847DC741A1B0CD08D278845F9D819D87B734759AFB55FE2DE5CB82A9AE675 DUP5 ADD DUP1 SLOAD PUSH1 0x1 PUSH1 0x1 PUSH1 0xA0 SHL SUB SWAP3 DUP4 AND PUSH1 0x1 PUSH1 0x1 PUSH1 0xA0 SHL SUB NOT SWAP2 DUP3 AND OR SWAP1 SWAP2 SSTORE PUSH1 0x80 DUP7 ADD MLOAD PUSH32 0x1B6847DC741A1B0CD08D278845F9D819D87B734759AFB55FE2DE5CB82A9AE676 DUP7 ADD DUP1 SLOAD SWAP2 SWAP1 SWAP4 AND SWAP2 AND OR SWAP1 SSTORE PUSH1 0xA0 DUP5 ADD MLOAD DUP1 MLOAD DUP6 SWAP5 PUSH2 0xE66 SWAP4 PUSH32 0x1B6847DC741A1B0CD08D278845F9D819D87B734759AFB55FE2DE5CB82A9AE677 SWAP1 SWAP2 ADD SWAP3 ADD SWAP1 PUSH2 0x42D3 JUMP JUMPDEST POP DUP1 SLOAD PUSH0 DUP3 SSTORE SWAP1 PUSH0 MSTORE PUSH1 0x20 PUSH0 KECCAK256 SWAP1 DUP2 ADD SWAP1 PUSH2 0x263E SWAP2 SWAP1 PUSH2 0x4336 JUMP JUMPDEST DUP3 DUP1 SLOAD DUP3 DUP3 SSTORE SWAP1 PUSH0 MSTORE PUSH1 0x20 PUSH0 KECCAK256 SWAP1 DUP2 ADD SWAP3 DUP3 ISZERO PUSH2 0x4326 JUMPI SWAP2 PUSH1 0x20 MUL DUP3 ADD JUMPDEST DUP3 DUP2 GT ISZERO PUSH2 0x4326 JUMPI DUP3 MLOAD DUP3 SLOAD PUSH1 0x1 PUSH1 0x1 PUSH1 0xA0 SHL SUB NOT AND PUSH1 0x1 PUSH1 0x1 PUSH1 0xA0 SHL SUB SWAP1 SWAP2 AND OR DUP3 SSTORE PUSH1 0x20 SWAP1 SWAP3 ADD SWAP2 PUSH1 0x1 SWAP1 SWAP2 ADD SWAP1 PUSH2 0x42F1 JUMP JUMPDEST POP PUSH2 0x4332 SWAP3 SWAP2 POP PUSH2 0x4336 JUMP JUMPDEST POP SWAP1 JUMP JUMPDEST JUMPDEST DUP1 DUP3 GT ISZERO PUSH2 0x4332 JUMPI PUSH0 DUP2 SSTORE PUSH1 0x1 ADD PUSH2 0x4337 JUMP JUMPDEST PUSH1 0x1 PUSH1 0x1 PUSH1 0xE0 SHL SUB NOT DUP2 AND DUP2 EQ PUSH2 0x263E JUMPI PUSH0 DUP1 REVERT JUMPDEST PUSH0 PUSH1 0x20 DUP3 DUP5 SUB SLT ISZERO PUSH2 0x436F JUMPI PUSH0 DUP1 REVERT JUMPDEST DUP2 CALLDATALOAD PUSH2 0xD83 DUP2 PUSH2 0x434A JUMP JUMPDEST PUSH0 JUMPDEST DUP4 DUP2 LT ISZERO PUSH2 0x4394 JUMPI DUP2 DUP2 ADD MLOAD DUP4 DUP3 ADD MSTORE PUSH1 0x20 ADD PUSH2 0x437C JUMP JUMPDEST POP POP PUSH0 SWAP2 ADD MSTORE JUMP JUMPDEST PUSH0 DUP2 MLOAD DUP1 DUP5 MSTORE PUSH2 0x43B3 DUP2 PUSH1 0x20 DUP7 ADD PUSH1 0x20 DUP7 ADD PUSH2 0x437A JUMP JUMPDEST PUSH1 0x1F ADD PUSH1 0x1F NOT AND SWAP3 SWAP1 SWAP3 ADD PUSH1 0x20 ADD SWAP3 SWAP2 POP POP JUMP JUMPDEST PUSH1 0x20 DUP2 MSTORE PUSH0 PUSH2 0xD83 PUSH1 0x20 DUP4 ADD DUP5 PUSH2 0x439C JUMP JUMPDEST PUSH0 PUSH1 0x20 DUP3 DUP5 SUB SLT ISZERO PUSH2 0x43E9 JUMPI PUSH0 DUP1 REVERT JUMPDEST POP CALLDATALOAD SWAP2 SWAP1 POP JUMP JUMPDEST PUSH1 0x1 PUSH1 0x1 PUSH1 0xA0 SHL SUB SWAP2 SWAP1 SWAP2 AND DUP2 MSTORE PUSH1 0x20 ADD SWAP1 JUMP JUMPDEST PUSH1 0x1 PUSH1 0x1 PUSH1 0xA0 SHL SUB DUP2 AND DUP2 EQ PUSH2 0x263E JUMPI PUSH0 DUP1 REVERT JUMPDEST PUSH0 DUP1 PUSH1 0x40 DUP4 DUP6 SUB SLT ISZERO PUSH2 0x4429 JUMPI PUSH0 DUP1 REVERT JUMPDEST DUP3 CALLDATALOAD PUSH2 0x4434 DUP2 PUSH2 0x4404 JUMP JUMPDEST SWAP5 PUSH1 0x20 SWAP4 SWAP1 SWAP4 ADD CALLDATALOAD SWAP4 POP POP POP JUMP JUMPDEST PUSH0 DUP1 PUSH0 PUSH1 0x60 DUP5 DUP7 SUB SLT ISZERO PUSH2 0x4454 JUMPI PUSH0 DUP1 REVERT JUMPDEST DUP4 CALLDATALOAD SWAP3 POP PUSH1 0x20 DUP5 ADD CALLDATALOAD PUSH2 0x4466 DUP2 PUSH2 0x4404 JUMP JUMPDEST SWAP3 SWAP6 SWAP3 SWAP5 POP POP POP PUSH1 0x40 SWAP2 SWAP1 SWAP2 ADD CALLDATALOAD SWAP1 JUMP JUMPDEST PUSH0 DUP1 PUSH0 PUSH1 0x60 DUP5 DUP7 SUB SLT ISZERO PUSH2 0x4489 JUMPI PUSH0 DUP1 REVERT JUMPDEST DUP4 CALLDATALOAD PUSH2 0x4494 DUP2 PUSH2 0x4404 JUMP JUMPDEST SWAP3 POP PUSH1 0x20 DUP5 ADD CALLDATALOAD PUSH2 0x4466 DUP2 PUSH2 0x4404 JUMP JUMPDEST PUSH0 DUP1 PUSH0 PUSH1 0x60 DUP5 DUP7 SUB SLT ISZERO PUSH2 0x44B6 JUMPI PUSH0 DUP1 REVERT JUMPDEST POP POP DUP2 CALLDATALOAD SWAP4 PUSH1 0x20 DUP4 ADD CALLDATALOAD SWAP4 POP PUSH1 0x40 SWAP1 SWAP3 ADD CALLDATALOAD SWAP2 SWAP1 POP JUMP JUMPDEST PUSH0 DUP1 PUSH1 0x40 DUP4 DUP6 SUB SLT ISZERO PUSH2 0x44DE JUMPI PUSH0 DUP1 REVERT JUMPDEST POP POP DUP1 CALLDATALOAD SWAP3 PUSH1 0x20 SWAP1 SWAP2 ADD CALLDATALOAD SWAP2 POP JUMP JUMPDEST PUSH1 0x20 DUP1 DUP3 MSTORE DUP3 MLOAD DUP3 DUP3 ADD DUP2 SWAP1 MSTORE PUSH0 SWAP2 SWAP1 DUP5 DUP3 ADD SWAP1 PUSH1 0x40 DUP6 ADD SWAP1 DUP5 JUMPDEST DUP2 DUP2 LT ISZERO PUSH2 0x4524 JUMPI DUP4 MLOAD DUP4 MSTORE SWAP3 DUP5 ADD SWAP3 SWAP2 DUP5 ADD SWAP2 PUSH1 0x1 ADD PUSH2 0x4508 JUMP JUMPDEST POP SWAP1 SWAP7 SWAP6 POP POP POP POP POP POP JUMP JUMPDEST PUSH1 0x20 DUP1 DUP3 MSTORE DUP3 MLOAD DUP3 DUP3 ADD DUP2 SWAP1 MSTORE PUSH0 SWAP2 SWAP1 DUP5 DUP3 ADD SWAP1 PUSH1 0x40 DUP6 ADD SWAP1 DUP5 JUMPDEST DUP2 DUP2 LT ISZERO PUSH2 0x4524 JUMPI DUP4 MLOAD PUSH1 0x1 PUSH1 0x1 PUSH1 0xA0 SHL SUB AND DUP4 MSTORE SWAP3 DUP5 ADD SWAP3 SWAP2 DUP5 ADD SWAP2 PUSH1 0x1 ADD PUSH2 0x454B JUMP JUMPDEST PUSH0 PUSH1 0x20 DUP3 DUP5 SUB SLT ISZERO PUSH2 0x4580 JUMPI PUSH0 DUP1 REVERT JUMPDEST DUP2 CALLDATALOAD PUSH2 0xD83 DUP2 PUSH2 0x4404 JUMP JUMPDEST PUSH4 0x4E487B71 PUSH1 0xE0 SHL PUSH0 MSTORE PUSH1 0x41 PUSH1 0x4 MSTORE PUSH1 0x24 PUSH0 REVERT JUMPDEST PUSH1 0x40 MLOAD PUSH1 0x1F DUP3 ADD PUSH1 0x1F NOT AND DUP2 ADD PUSH1 0x1 PUSH1 0x1 PUSH1 0x40 SHL SUB DUP2 GT DUP3 DUP3 LT OR ISZERO PUSH2 0x45C7 JUMPI PUSH2 0x45C7 PUSH2 0x458B JUMP JUMPDEST PUSH1 0x40 MSTORE SWAP2 SWAP1 POP JUMP JUMPDEST PUSH0 PUSH1 0x1 PUSH1 0x1 PUSH1 0x40 SHL SUB DUP3 GT ISZERO PUSH2 0x45E7 JUMPI PUSH2 0x45E7 PUSH2 0x458B JUMP JUMPDEST POP PUSH1 0x1F ADD PUSH1 0x1F NOT AND PUSH1 0x20 ADD SWAP1 JUMP JUMPDEST PUSH0 PUSH2 0x4607 PUSH2 0x4602 DUP5 PUSH2 0x45CF JUMP JUMPDEST PUSH2 0x459F JUMP JUMPDEST SWAP1 POP DUP3 DUP2 MSTORE DUP4 DUP4 DUP4 ADD GT ISZERO PUSH2 0x461A JUMPI PUSH0 DUP1 REVERT JUMPDEST DUP3 DUP3 PUSH1 0x20 DUP4 ADD CALLDATACOPY PUSH0 PUSH1 0x20 DUP5 DUP4 ADD ADD MSTORE SWAP4 SWAP3 POP POP POP JUMP JUMPDEST PUSH0 DUP1 PUSH0 PUSH1 0x60 DUP5 DUP7 SUB SLT ISZERO PUSH2 0x4642 JUMPI PUSH0 DUP1 REVERT JUMPDEST DUP4 CALLDATALOAD PUSH2 0x464D DUP2 PUSH2 0x4404 JUMP JUMPDEST SWAP3 POP PUSH1 0x20 DUP5 ADD CALLDATALOAD SWAP2 POP PUSH1 0x40 DUP5 ADD CALLDATALOAD PUSH1 0x1 PUSH1 0x1 PUSH1 0x40 SHL SUB DUP2 GT ISZERO PUSH2 0x466E JUMPI PUSH0 DUP1 REVERT JUMPDEST DUP5 ADD PUSH1 0x1F DUP2 ADD DUP7 SGT PUSH2 0x467E JUMPI PUSH0 DUP1 REVERT JUMPDEST PUSH2 0x468D DUP7 DUP3 CALLDATALOAD PUSH1 0x20 DUP5 ADD PUSH2 0x45F5 JUMP JUMPDEST SWAP2 POP POP SWAP3 POP SWAP3 POP SWAP3 JUMP JUMPDEST DUP1 ISZERO ISZERO DUP2 EQ PUSH2 0x263E JUMPI PUSH0 DUP1 REVERT JUMPDEST PUSH0 DUP1 PUSH1 0x40 DUP4 DUP6 SUB SLT ISZERO PUSH2 0x46B5 JUMPI PUSH0 DUP1 REVERT JUMPDEST DUP3 CALLDATALOAD PUSH2 0x46C0 DUP2 PUSH2 0x4404 JUMP JUMPDEST SWAP2 POP PUSH1 0x20 DUP4 ADD CALLDATALOAD PUSH2 0x46D0 DUP2 PUSH2 0x4697 JUMP JUMPDEST DUP1 SWAP2 POP POP SWAP3 POP SWAP3 SWAP1 POP JUMP JUMPDEST PUSH0 DUP1 PUSH0 PUSH1 0x60 DUP5 DUP7 SUB SLT ISZERO PUSH2 0x46ED JUMPI PUSH0 DUP1 REVERT JUMPDEST DUP4 CALLDATALOAD SWAP3 POP PUSH1 0x20 DUP5 ADD CALLDATALOAD PUSH2 0x46FF DUP2 PUSH2 0x4404 JUMP JUMPDEST SWAP2 POP PUSH1 0x40 DUP5 ADD CALLDATALOAD PUSH2 0x470F DUP2 PUSH2 0x4404 JUMP JUMPDEST DUP1 SWAP2 POP POP SWAP3 POP SWAP3 POP SWAP3 JUMP JUMPDEST PUSH0 DUP1 PUSH0 DUP1 PUSH1 0x80 DUP6 DUP8 SUB SLT ISZERO PUSH2 0x472D JUMPI PUSH0 DUP1 REVERT JUMPDEST DUP5 CALLDATALOAD PUSH2 0x4738 DUP2 PUSH2 0x4404 JUMP JUMPDEST SWAP4 POP PUSH1 0x20 DUP6 ADD CALLDATALOAD PUSH2 0x4748 DUP2 PUSH2 0x4404 JUMP JUMPDEST SWAP3 POP PUSH1 0x40 DUP6 ADD CALLDATALOAD SWAP2 POP PUSH1 0x60 DUP6 ADD CALLDATALOAD PUSH1 0x1 PUSH1 0x1 PUSH1 0x40 SHL SUB DUP2 GT ISZERO PUSH2 0x4769 JUMPI PUSH0 DUP1 REVERT JUMPDEST DUP6 ADD PUSH1 0x1F DUP2 ADD DUP8 SGT PUSH2 0x4779 JUMPI PUSH0 DUP1 REVERT JUMPDEST PUSH2 0x4788 DUP8 DUP3 CALLDATALOAD PUSH1 0x20 DUP5 ADD PUSH2 0x45F5 JUMP JUMPDEST SWAP2 POP POP SWAP3 SWAP6 SWAP2 SWAP5 POP SWAP3 POP JUMP JUMPDEST PUSH0 DUP1 PUSH0 PUSH1 0x60 DUP5 DUP7 SUB SLT ISZERO PUSH2 0x47A6 JUMPI PUSH0 DUP1 REVERT JUMPDEST DUP4 CALLDATALOAD SWAP3 POP PUSH1 0x20 DUP5 ADD CALLDATALOAD SWAP2 POP PUSH1 0x40 DUP5 ADD CALLDATALOAD PUSH2 0x470F DUP2 PUSH2 0x4404 JUMP JUMPDEST PUSH1 0x1 PUSH1 0x1 PUSH1 0xA0 SHL SUB SWAP3 SWAP1 SWAP3 AND DUP3 MSTORE PUSH1 0x20 DUP3 ADD MSTORE PUSH1 0x40 ADD SWAP1 JUMP JUMPDEST PUSH0 DUP1 PUSH1 0x40 DUP4 DUP6 SUB SLT ISZERO PUSH2 0x47E9 JUMPI PUSH0 DUP1 REVERT JUMPDEST DUP3 CALLDATALOAD SWAP2 POP PUSH1 0x20 DUP4 ADD CALLDATALOAD PUSH2 0x46D0 DUP2 PUSH2 0x4404 JUMP JUMPDEST PUSH0 DUP1 PUSH1 0x40 DUP4 DUP6 SUB SLT ISZERO PUSH2 0x480C JUMPI PUSH0 DUP1 REVERT JUMPDEST DUP3 CALLDATALOAD PUSH2 0x4817 DUP2 PUSH2 0x4404 JUMP JUMPDEST SWAP2 POP PUSH1 0x20 DUP4 ADD CALLDATALOAD PUSH2 0x46D0 DUP2 PUSH2 0x4404 JUMP JUMPDEST PUSH1 0x1 DUP2 DUP2 SHR SWAP1 DUP3 AND DUP1 PUSH2 0x483B JUMPI PUSH1 0x7F DUP3 AND SWAP2 POP JUMPDEST PUSH1 0x20 DUP3 LT DUP2 SUB PUSH2 0x4859 JUMPI PUSH4 0x4E487B71 PUSH1 0xE0 SHL PUSH0 MSTORE PUSH1 0x22 PUSH1 0x4 MSTORE PUSH1 0x24 PUSH0 REVERT JUMPDEST POP SWAP2 SWAP1 POP JUMP JUMPDEST PUSH4 0x4E487B71 PUSH1 0xE0 SHL PUSH0 MSTORE PUSH1 0x32 PUSH1 0x4 MSTORE PUSH1 0x24 PUSH0 REVERT JUMPDEST PUSH1 0x20 DUP1 DUP3 MSTORE PUSH1 0x28 SWAP1 DUP3 ADD MSTORE PUSH32 0x417373657452656769737472793A20617070726F76616C20746F206375727265 PUSH1 0x40 DUP3 ADD MSTORE PUSH8 0x373A1037BBB732B9 PUSH1 0xC1 SHL PUSH1 0x60 DUP3 ADD MSTORE PUSH1 0x80 ADD SWAP1 JUMP JUMPDEST PUSH0 DUP2 MLOAD PUSH2 0x48CC DUP2 DUP6 PUSH1 0x20 DUP7 ADD PUSH2 0x437A JUMP JUMPDEST SWAP3 SWAP1 SWAP3 ADD SWAP3 SWAP2 POP POP JUMP JUMPDEST PUSH0 DUP4 MLOAD PUSH2 0x48E7 DUP2 DUP5 PUSH1 0x20 DUP9 ADD PUSH2 0x437A JUMP JUMPDEST PUSH5 0x736C6F742F PUSH1 0xD8 SHL SWAP1 DUP4 ADD SWAP1 DUP2 MSTORE DUP4 MLOAD PUSH2 0x4909 DUP2 PUSH1 0x5 DUP5 ADD PUSH1 0x20 DUP9 ADD PUSH2 0x437A JUMP JUMPDEST ADD PUSH1 0x5 ADD SWAP5 SWAP4 POP POP POP POP JUMP JUMPDEST PUSH0 PUSH1 0x20 DUP3 DUP5 SUB SLT ISZERO PUSH2 0x4925 JUMPI PUSH0 DUP1 REVERT JUMPDEST DUP2 MLOAD PUSH1 0x1 PUSH1 0x1 PUSH1 0x40 SHL SUB DUP2 GT ISZERO PUSH2 0x493A JUMPI PUSH0 DUP1 REVERT JUMPDEST DUP3 ADD PUSH1 0x1F DUP2 ADD DUP5 SGT PUSH2 0x494A JUMPI PUSH0 DUP1 REVERT JUMPDEST DUP1 MLOAD PUSH2 0x4958 PUSH2 0x4602 DUP3 PUSH2 0x45CF JUMP JUMPDEST DUP2 DUP2 MSTORE DUP6 PUSH1 0x20 DUP4 DUP6 ADD ADD GT ISZERO PUSH2 0x496C JUMPI PUSH0 DUP1 REVERT JUMPDEST PUSH2 0x497D DUP3 PUSH1 0x20 DUP4 ADD PUSH1 0x20 DUP7 ADD PUSH2 0x437A JUMP JUMPDEST SWAP6 SWAP5 POP POP POP POP POP JUMP JUMPDEST PUSH1 0x20 DUP1 DUP3 MSTORE PUSH1 0x38 SWAP1 DUP3 ADD MSTORE PUSH32 0x417373657452656769737472793A207472616E736665722063616C6C65722069 PUSH1 0x40 DUP3 ADD MSTORE PUSH24 0x1CC81B9BDD081BDDDB995C881B9BDC88185C1C1C9BDD9959 PUSH1 0x42 SHL PUSH1 0x60 DUP3 ADD MSTORE PUSH1 0x80 ADD SWAP1 JUMP JUMPDEST PUSH1 0x20 DUP1 DUP3 MSTORE PUSH1 0x30 SWAP1 DUP3 ADD MSTORE PUSH32 0x417373657452656769737472793A2061646472657373207A65726F206973206E PUSH1 0x40 DUP3 ADD MSTORE PUSH16 0x37BA1030903B30B634B21037BBB732B9 PUSH1 0x81 SHL PUSH1 0x60 DUP3 ADD MSTORE PUSH1 0x80 ADD SWAP1 JUMP JUMPDEST PUSH4 0x4E487B71 PUSH1 0xE0 SHL PUSH0 MSTORE PUSH1 0x11 PUSH1 0x4 MSTORE PUSH1 0x24 PUSH0 REVERT JUMPDEST DUP1 DUP3 ADD DUP1 DUP3 GT ISZERO PUSH2 0xAD9 JUMPI PUSH2 0xAD9 PUSH2 0x4A2E JUMP JUMPDEST PUSH1 0x20 DUP1 DUP3 MSTORE PUSH1 0x17 SWAP1 DUP3 ADD MSTORE PUSH23 0x20B9B9B2BA399D27B7363C9020B9B9B2BA1027BBB732B9 PUSH1 0x49 SHL PUSH1 0x40 DUP3 ADD MSTORE PUSH1 0x60 ADD SWAP1 JUMP JUMPDEST PUSH0 PUSH1 0x20 DUP3 DUP5 SUB SLT ISZERO PUSH2 0x4A96 JUMPI PUSH0 DUP1 REVERT JUMPDEST DUP2 MLOAD PUSH2 0xD83 DUP2 PUSH2 0x4404 JUMP JUMPDEST PUSH1 0x20 DUP1 DUP3 MSTORE PUSH1 0x1F SWAP1 DUP3 ADD MSTORE PUSH32 0x417373657452656769737472793A20696E76616C696420746F6B656E20494400 PUSH1 0x40 DUP3 ADD MSTORE PUSH1 0x60 ADD SWAP1 JUMP JUMPDEST PUSH0 DUP8 MLOAD PUSH2 0x4AE9 DUP2 DUP5 PUSH1 0x20 DUP13 ADD PUSH2 0x437A JUMP JUMPDEST DUP8 MLOAD SWAP1 DUP4 ADD SWAP1 PUSH2 0x4AFD DUP2 DUP4 PUSH1 0x20 DUP13 ADD PUSH2 0x437A JUMP JUMPDEST DUP1 DUP3 ADD SWAP2 POP POP PUSH32 0x3C2F747370616E3E3C747370616E20783D2231362220793D22323630223E536C DUP2 MSTORE PUSH32 0x6F743C2F747370616E3E3C747370616E20783D2231362220793D22323830223E PUSH1 0x20 DUP3 ADD MSTORE PUSH32 0x417373657449643C2F747370616E3E203C747370616E20783D2231362220793D PUSH1 0x40 DUP3 ADD MSTORE PUSH32 0x22333030223E56616C75653C2F747370616E3E3C747370616E20783D22313230 PUSH1 0x60 DUP3 ADD MSTORE PUSH32 0x2220793D223236302220746578742D616E63686F723D22656E64223E00000000 PUSH1 0x80 DUP3 ADD MSTORE DUP7 MLOAD PUSH2 0x4BD1 DUP2 PUSH1 0x9C DUP5 ADD PUSH1 0x20 DUP12 ADD PUSH2 0x437A JUMP JUMPDEST PUSH32 0x3C2F747370616E3E3C747370616E20783D223132302220793D22323830222074 PUSH1 0x9C SWAP3 SWAP1 SWAP2 ADD SWAP2 DUP3 ADD MSTORE PUSH17 0x32BC3A16B0B731B437B91E9132B732111F PUSH1 0x79 SHL PUSH1 0xBC DUP3 ADD MSTORE PUSH2 0x4D94 PUSH2 0x4CC5 PUSH2 0x4CBF PUSH2 0x4C7B PUSH2 0x4C75 PUSH2 0x4C32 PUSH1 0xCD DUP8 ADD DUP13 PUSH2 0x48BB JUMP JUMPDEST PUSH32 0x3C2F747370616E3E3C747370616E20783D223132302220793D22333030222074 DUP2 MSTORE PUSH17 0x32BC3A16B0B731B437B91E9132B732111F PUSH1 0x79 SHL PUSH1 0x20 DUP3 ADD MSTORE PUSH1 0x31 ADD SWAP1 JUMP JUMPDEST DUP10 PUSH2 0x48BB JUMP JUMPDEST PUSH32 0x3C2F747370616E3E3C747370616E20783D2231362220793D223334342220666F DUP2 MSTORE PUSH18 0x373A16B9B4BD329E911B911F27BBB732B91D PUSH1 0x71 SHL PUSH1 0x20 DUP3 ADD MSTORE PUSH1 0x32 ADD SWAP1 JUMP JUMPDEST DUP7 PUSH2 0x48BB JUMP JUMPDEST PUSH32 0x3C2F747370616E3E3C747370616E20783D2231362220793D223335362220666F DUP2 MSTORE PUSH32 0x6E742D73697A653D2237223E53657269616C204E6F3C2F747370616E3E3C7473 PUSH1 0x20 DUP3 ADD MSTORE PUSH32 0x70616E20783D223531362220793D223338302220666F6E742D73697A653D2237 PUSH1 0x40 DUP3 ADD MSTORE PUSH32 0x222066696C6C3D22626C61636B222066696C6C2D6F7061636974793D22302E36 PUSH1 0x60 DUP3 ADD MSTORE PUSH32 0x223E44656D6F20564D414E204E4654203C2F747370616E3E3C2F746578743E3C PUSH1 0x80 DUP3 ADD MSTORE PUSH5 0x17B9BB339F PUSH1 0xD9 SHL PUSH1 0xA0 DUP3 ADD MSTORE PUSH1 0xA5 ADD SWAP1 JUMP JUMPDEST SWAP10 SWAP9 POP POP POP POP POP POP POP POP POP JUMP JUMPDEST PUSH0 DUP5 MLOAD PUSH2 0x4DB2 DUP2 DUP5 PUSH1 0x20 DUP10 ADD PUSH2 0x437A JUMP JUMPDEST DUP5 MLOAD SWAP1 DUP4 ADD SWAP1 PUSH2 0x4DC6 DUP2 DUP4 PUSH1 0x20 DUP10 ADD PUSH2 0x437A JUMP JUMPDEST DUP5 MLOAD SWAP2 ADD SWAP1 PUSH2 0x4DD9 DUP2 DUP4 PUSH1 0x20 DUP9 ADD PUSH2 0x437A JUMP JUMPDEST ADD SWAP6 SWAP5 POP POP POP POP POP JUMP JUMPDEST DUP1 DUP3 MUL DUP2 ISZERO DUP3 DUP3 DIV DUP5 EQ OR PUSH2 0xAD9 JUMPI PUSH2 0xAD9 PUSH2 0x4A2E JUMP JUMPDEST PUSH0 DUP3 PUSH2 0x4E14 JUMPI PUSH4 0x4E487B71 PUSH1 0xE0 SHL PUSH0 MSTORE PUSH1 0x12 PUSH1 0x4 MSTORE PUSH1 0x24 PUSH0 REVERT JUMPDEST POP DIV SWAP1 JUMP JUMPDEST DUP2 DUP2 SUB DUP2 DUP2 GT ISZERO PUSH2 0xAD9 JUMPI PUSH2 0xAD9 PUSH2 0x4A2E JUMP JUMPDEST PUSH0 PUSH1 0x20 DUP3 DUP5 SUB SLT ISZERO PUSH2 0x4E3C JUMPI PUSH0 DUP1 REVERT JUMPDEST DUP2 MLOAD PUSH2 0xD83 DUP2 PUSH2 0x4697 JUMP JUMPDEST PUSH32 0x7B2022696D616765223A22646174613A696D6167652F7376672B786D6C3B6261 DUP2 MSTORE PUSH5 0x1CD94D8D0B PUSH1 0xDA SHL PUSH1 0x20 DUP3 ADD MSTORE PUSH0 DUP3 MLOAD PUSH2 0x4E8C DUP2 PUSH1 0x25 DUP6 ADD PUSH1 0x20 DUP8 ADD PUSH2 0x437A JUMP JUMPDEST PUSH2 0x227D PUSH1 0xF0 SHL PUSH1 0x25 SWAP4 SWAP1 SWAP2 ADD SWAP3 DUP4 ADD MSTORE POP PUSH1 0x27 ADD SWAP2 SWAP1 POP JUMP JUMPDEST PUSH32 0x646174613A6170706C69636174696F6E2F6A736F6E3B6261736536342C000000 DUP2 MSTORE PUSH0 DUP3 MLOAD PUSH2 0x4EDC DUP2 PUSH1 0x1D DUP6 ADD PUSH1 0x20 DUP8 ADD PUSH2 0x437A JUMP JUMPDEST SWAP2 SWAP1 SWAP2 ADD PUSH1 0x1D ADD SWAP3 SWAP2 POP POP JUMP JUMPDEST PUSH0 PUSH1 0x1 DUP3 ADD PUSH2 0x4EFA JUMPI PUSH2 0x4EFA PUSH2 0x4A2E JUMP JUMPDEST POP PUSH1 0x1 ADD SWAP1 JUMP JUMPDEST PUSH0 DUP4 MLOAD PUSH2 0x4F12 DUP2 DUP5 PUSH1 0x20 DUP9 ADD PUSH2 0x437A JUMP JUMPDEST PUSH9 0x636F6E74726163742F PUSH1 0xB8 SHL SWAP1 DUP4 ADD SWAP1 DUP2 MSTORE DUP4 MLOAD PUSH2 0x4F38 DUP2 PUSH1 0x9 DUP5 ADD PUSH1 0x20 DUP9 ADD PUSH2 0x437A JUMP JUMPDEST ADD PUSH1 0x9 ADD SWAP5 SWAP4 POP POP POP POP JUMP JUMPDEST PUSH4 0x4E487B71 PUSH1 0xE0 SHL PUSH0 MSTORE PUSH1 0x31 PUSH1 0x4 MSTORE PUSH1 0x24 PUSH0 REVERT JUMPDEST PUSH1 0x1F DUP3 GT ISZERO PUSH2 0xC9C JUMPI DUP1 PUSH0 MSTORE PUSH1 0x20 PUSH0 KECCAK256 PUSH1 0x1F DUP5 ADD PUSH1 0x5 SHR DUP2 ADD PUSH1 0x20 DUP6 LT ISZERO PUSH2 0x4F7D JUMPI POP DUP1 JUMPDEST PUSH1 0x1F DUP5 ADD PUSH1 0x5 SHR DUP3 ADD SWAP2 POP JUMPDEST DUP2 DUP2 LT ISZERO PUSH2 0x2E0F JUMPI PUSH0 DUP2 SSTORE PUSH1 0x1 ADD PUSH2 0x4F89 JUMP JUMPDEST DUP2 MLOAD PUSH1 0x1 PUSH1 0x1 PUSH1 0x40 SHL SUB DUP2 GT ISZERO PUSH2 0x4FB5 JUMPI PUSH2 0x4FB5 PUSH2 0x458B JUMP JUMPDEST PUSH2 0x4FC9 DUP2 PUSH2 0x4FC3 DUP5 SLOAD PUSH2 0x4827 JUMP JUMPDEST DUP5 PUSH2 0x4F58 JUMP JUMPDEST PUSH1 0x20 DUP1 PUSH1 0x1F DUP4 GT PUSH1 0x1 DUP2 EQ PUSH2 0x4FFC JUMPI PUSH0 DUP5 ISZERO PUSH2 0x4FE5 JUMPI POP DUP6 DUP4 ADD MLOAD JUMPDEST PUSH0 NOT PUSH1 0x3 DUP7 SWAP1 SHL SHR NOT AND PUSH1 0x1 DUP6 SWAP1 SHL OR DUP6 SSTORE PUSH2 0x27D4 JUMP JUMPDEST PUSH0 DUP6 DUP2 MSTORE PUSH1 0x20 DUP2 KECCAK256 PUSH1 0x1F NOT DUP7 AND SWAP2 JUMPDEST DUP3 DUP2 LT ISZERO PUSH2 0x502A JUMPI DUP9 DUP7 ADD MLOAD DUP3 SSTORE SWAP5 DUP5 ADD SWAP5 PUSH1 0x1 SWAP1 SWAP2 ADD SWAP1 DUP5 ADD PUSH2 0x500B JUMP JUMPDEST POP DUP6 DUP3 LT ISZERO PUSH2 0x5047 JUMPI DUP8 DUP6 ADD MLOAD PUSH0 NOT PUSH1 0x3 DUP9 SWAP1 SHL PUSH1 0xF8 AND SHR NOT AND DUP2 SSTORE JUMPDEST POP POP POP POP POP PUSH1 0x1 SWAP1 DUP2 SHL ADD SWAP1 SSTORE POP JUMP JUMPDEST PUSH0 DUP2 PUSH2 0x5065 JUMPI PUSH2 0x5065 PUSH2 0x4A2E JUMP JUMPDEST POP PUSH0 NOT ADD SWAP1 JUMP JUMPDEST PUSH1 0x1 DUP1 PUSH1 0xA0 SHL SUB DUP7 AND DUP2 MSTORE DUP5 PUSH1 0x20 DUP3 ADD MSTORE DUP4 PUSH1 0x40 DUP3 ADD MSTORE DUP3 PUSH1 0x60 DUP3 ADD MSTORE PUSH1 0xA0 PUSH1 0x80 DUP3 ADD MSTORE PUSH0 PUSH2 0x509E PUSH1 0xA0 DUP4 ADD DUP5 PUSH2 0x439C JUMP JUMPDEST SWAP8 SWAP7 POP POP POP POP POP POP POP JUMP JUMPDEST PUSH0 PUSH1 0x20 DUP3 DUP5 SUB SLT ISZERO PUSH2 0x50B9 JUMPI PUSH0 DUP1 REVERT JUMPDEST DUP2 MLOAD PUSH2 0xD83 DUP2 PUSH2 0x434A JUMP JUMPDEST PUSH1 0x1 PUSH1 0x1 PUSH1 0xA0 SHL SUB DUP6 DUP2 AND DUP3 MSTORE DUP5 AND PUSH1 0x20 DUP3 ADD MSTORE PUSH1 0x40 DUP2 ADD DUP4 SWAP1 MSTORE PUSH1 0x80 PUSH1 0x60 DUP3 ADD DUP2 SWAP1 MSTORE PUSH0 SWAP1 PUSH2 0x50F6 SWAP1 DUP4 ADD DUP5 PUSH2 0x439C JUMP JUMPDEST SWAP7 SWAP6 POP POP POP POP POP POP JUMP INVALID EXTCODECOPY PUSH20 0x766720786D6C6E733D22687474703A2F2F777777 0x2E PUSH24 0x332E6F72672F323030302F737667222077696474683D2236 ADDRESS ADDRESS 0x22 KECCAK256 PUSH9 0x65696768743D223630 ADDRESS 0x22 KECCAK256 KECCAK256 PUSH23 0x696577426F783D22302030203630302034303022206669 PUSH13 0x6C3D226E6F6E65223E3C726563 PUSH21 0x2077696474683D2231353022206865696768743D22 CALLVALUE ADDRESS ADDRESS 0x22 KECCAK256 PUSH7 0x696C6C3D227768 PUSH10 0x7465222F3E3C72656374 KECCAK256 PUSH25 0x3D22302E352220793D22302E35222077696474683D22353939 0x22 KECCAK256 PUSH9 0x65696768743D223339 CODECOPY 0x22 KECCAK256 KECCAK256 PUSH20 0x74726F6B653D2223463946394639222F3E3C6720 PUSH14 0x61736B3D2275726C28236D5F3335 ORIGIN CALLDATALOAD PUSH0 BALANCE 0x29 0x22 RETURNDATACOPY EXTCODECOPY PUSH19 0x65637420783D22313530222077696474683D22 CALLVALUE CALLDATALOAD ADDRESS 0x22 KECCAK256 PUSH9 0x65696768743D223430 ADDRESS 0x22 KECCAK256 PUSH7 0x696C6C3D222334 BALANCE CODECOPY ORIGIN CODESIZE GASLIMIT 0x22 0x2F RETURNDATACOPY KECCAK256 KECCAK256 EXTCODECOPY PUSH21 0x6578742066696C6C3D22233230323032302220666F PUSH15 0x742D66616D696C793D22417269616C 0x22 KECCAK256 PUSH7 0x6F6E742D73697A PUSH6 0x3D223132223E EXTCODECOPY PUSH21 0x7370616E20783D2231362220793D2234312220666F PUSH15 0x742D73697A653D2231362220666F6E PUSH21 0x2D7765696768743D22626F6C64223E564D414E4E46 SLOAD EXTCODECOPY 0x2F PUSH21 0x7370616E3E3C747370616E20783D2231362220793D 0x22 CODESIZE CODESIZE 0x22 KECCAK256 PUSH7 0x6F6E742D73697A PUSH6 0x3D2231352220 PUSH7 0x6F6E742D776569 PUSH8 0x68743D22626F6C64 0x22 RETURNDATACOPY POP MSTORE 0x4F PREVRANDAO SSTORE NUMBER SLOAD KECCAK256 0x4E COINBASE 0x4D GASLIMIT EXTCODECOPY 0x2F PUSH21 0x7370616E3E3C747370616E20783D2231362220793D 0x22 BALANCE ORIGIN CALLER 0x22 KECCAK256 PUSH7 0x6F6E742D73697A PUSH6 0x3D2231342220 PUSH7 0x6F6E742D776569 PUSH8 0x68743D22626F6C64 0x22 KECCAK256 PUSH7 0x696C6C3D222334 BALANCE CALLER ORIGIN CODESIZE GASLIMIT 0x22 RETURNDATACOPY JUMP 0x4D COINBASE 0x4E EXTCODECOPY 0x2F PUSH21 0x7370616E3E3C747370616E20783D2231362220793D 0x22 BALANCE CALLVALUE ORIGIN 0x22 RETURNDATACOPY 0x23 COINBASE TIMESTAMP NUMBER PREVRANDAO GASLIMIT CHAINID SELFBALANCE BASEFEE BLOBHASH BLOBBASEFEE 0x4B 0x4C 0x4D 0x4E 0x4F POP MLOAD MSTORE MSTORE8 SLOAD SSTORE JUMP JUMPI PC MSIZE GAS PUSH2 0x6263 PUSH5 0x6566676869 PUSH11 0x6B6C6D6E6F707172737475 PUSH23 0x7778797A303132333435363738392B2F3C73766720783D 0x22 CODESIZE ADDRESS 0x22 KECCAK256 PUSH26 0x3D222D3235222077696474683D2236303022206865696768743D 0x22 CALLDATASIZE ADDRESS ADDRESS 0x22 KECCAK256 PUSH23 0x696577426F783D22302030203735203735222066696C6C RETURNDATASIZE 0x22 0x23 ADDRESS ADDRESS ADDRESS ADDRESS ADDRESS ADDRESS 0x22 KECCAK256 PUSH20 0x74726F6B653D222330303030303022207374726F PUSH12 0x652D77696474683D22302E30 ADDRESS ADDRESS CALLDATACOPY ORIGIN 0x22 RETURNDATACOPY EXTCODECOPY PUSH17 0x61746820643D224D36302E36342C32382E BALANCE PUSH2 0x312E ORIGIN CALLVALUE 0x2C BALANCE 0x2E ORIGIN CALLVALUE 0x2C ADDRESS 0x2C ADDRESS 0x2C ADDRESS 0x2D BALANCE 0x2E ORIGIN CALLDATACOPY 0x2D BALANCE 0x2E ORIGIN ORIGIN PUSH13 0x2D31342E38392D2E3333632E36 BALANCE 0x2D 0x2E CODECOPY BALANCE 0x2C BALANCE 0x2E CALLDATALOAD BALANCE 0x2D ORIGIN 0x2E ADDRESS CALLDATALOAD 0x2C ORIGIN 0x2E CALLDATACOPY CODESIZE 0x2D CALLER 0x2E CALLDATALOAD CALLDATACOPY 0x2C CALLDATASIZE 0x2E BALANCE CALLDATASIZE 0x2D CALLDATACOPY 0x2E CALLER CALLDATASIZE 0x2C CALLVALUE 0x2E BALANCE CODECOPY 0x2D CODECOPY 0x2E CODESIZE 0x2C CALLVALUE 0x2E BALANCE CODECOPY 0x2D CODECOPY 0x2E CODESIZE PUSH20 0x2D322E32382D322D392E39312C332E3834632D31 0x2E CALLER BALANCE 0x2C BALANCE 0x2D ORIGIN 0x2E CALLER CALLVALUE 0x2C BALANCE 0x2E CALLDATACOPY CALLDATASIZE 0x2D CALLER 0x2E BALANCE CODECOPY 0x2C ORIGIN 0x2E CALLER BALANCE PUSH13 0x2E332D31342E303961312E3139 0x2C BALANCE 0x2E BALANCE CODECOPY 0x2C ADDRESS 0x2C BALANCE 0x2C ADDRESS 0x2D ORIGIN 0x2E CALLER CODESIZE 0x2C ADDRESS PUSH13 0x2D2E33342C31352E3333632D32 0x2C 0x2E CALLVALUE CALLVALUE 0x2D CALLER 0x2D BALANCE 0x2E ORIGIN CALLDATALOAD 0x2D CALLDATACOPY 0x2E CALLER CALLER 0x2D CALLER 0x2E CALLER BALANCE 0x2C ADDRESS 0x2C ADDRESS 0x2D ORIGIN 0x2E CALLER CALLVALUE 0x2E CODECOPY BALANCE 0x2D ORIGIN 0x2E CODESIZE CALLDATASIZE 0x2C ORIGIN 0x2E CALLDATACOPY CALLDATACOPY PUSH2 0x3339 0x2E CALLVALUE BALANCE 0x2C CALLER CODECOPY 0x2E CALLVALUE BALANCE 0x2C ADDRESS 0x2C ADDRESS 0x2C BALANCE 0x2C CALLER 0x2E CALLER CODECOPY 0x2C CALLDATASIZE 0x2E ORIGIN CALLVALUE PUSH13 0x2D31342E352D2E333161312E32 0x2C BALANCE 0x2E ORIGIN 0x2C ADDRESS 0x2C BALANCE 0x2C ADDRESS 0x2D 0x2E ADDRESS CALLDATALOAD 0x2C ORIGIN 0x2E CALLER CODECOPY PUSH13 0x31342E362E333161312E32382C BALANCE 0x2E ORIGIN CODESIZE 0x2C ADDRESS 0x2C ADDRESS 0x2C ADDRESS 0x2C 0x2E CALLER CALLDATALOAD 0x2E CALLDATALOAD CODECOPY 0x4C BALANCE CODECOPY 0x2E CODESIZE CALLVALUE 0x2C CALLVALUE BALANCE 0x2E CALLDATASIZE BALANCE PUSH13 0x2D342E35372D332E32342E3534 0x2D BALANCE 0x2E ORIGIN CALLDATALOAD MSTORE8 BALANCE ORIGIN 0x2C CALLER CODECOPY 0x2E CALLDATACOPY 0x2C BALANCE BALANCE 0x2E CALLDATALOAD 0x2C CALLVALUE BALANCE 0x2E CALLER CALLVALUE PUSH13 0x2D2E31342C322C312E33372D2E CALLVALUE CODESIZE 0x2E CALLVALUE BALANCE 0x2D BALANCE 0x2E CALLER BALANCE 0x4C BALANCE CALLDATASIZE 0x2C CALLVALUE CALLDATALOAD 0x2E CODECOPY BALANCE PUSH20 0x2D2E37392E392D2E32342C312E34372C312E3535 0x2D 0x2E BALANCE 0x2C BALANCE 0x2E CALLDATALOAD CALLDATALOAD 0x2D 0x2E BALANCE PUSH13 0x342E33352C332E312D312E3332 0x2E CALLER CALLDATALOAD 0x2D 0x2E CALLDATALOAD CALLVALUE 0x2C BALANCE 0x2E CALLER CALLDATALOAD 0x2C ORIGIN 0x2C ADDRESS PUSH4 0x312E3635 0x2D 0x2E CALLER CODECOPY 0x2C CALLVALUE 0x2E CALLVALUE 0x2D CALLVALUE 0x2E BALANCE CALLER 0x2C CALLVALUE 0x2E CALLVALUE 0x2D CALLVALUE 0x2E BALANCE CALLER PUSH13 0x2D312E32382E34392D332D342E CALLDATACOPY BALANCE 0x2C BALANCE ORIGIN 0x2E CODESIZE BALANCE 0x2D CODECOPY 0x2E BALANCE CALLDATALOAD PUSH2 0x312E CALLER BALANCE 0x2C BALANCE 0x2E CALLER BALANCE 0x2C ADDRESS 0x2C ADDRESS 0x2C ADDRESS 0x2C BALANCE 0x2C 0x2E CALLVALUE CALLDATALOAD PUSH13 0x2D2E33322C313561312E31392C BALANCE 0x2E BALANCE CODECOPY 0x2C ADDRESS 0x2C BALANCE 0x2C ADDRESS 0x2C ORIGIN 0x2E CALLER CODESIZE 0x2C ADDRESS 0x4C CALLER CODESIZE 0x2C CALLER CALLDATALOAD 0x2E ORIGIN CALLER PUSH2 0x3432 0x2E BALANCE CALLDATACOPY 0x2C CALLVALUE ORIGIN 0x2E BALANCE CALLDATACOPY 0x2C ADDRESS 0x2C ADDRESS 0x2C BALANCE 0x2C CALLDATALOAD 0x2E CALLDATASIZE CALLDATACOPY 0x2C CALLER 0x2E CALLVALUE CALLDATACOPY PUSH4 0x312E3838 0x2D 0x2E CALLVALUE CALLVALUE 0x2C ORIGIN 0x2E CODESIZE CALLDATACOPY 0x2D ORIGIN 0x2E CALLDATACOPY CALLDATALOAD 0x2C ORIGIN 0x2E CODESIZE CALLDATACOPY 0x2D ORIGIN 0x2E CALLDATACOPY CALLDATALOAD 0x2D BALANCE 0x2E CALLDATACOPY BALANCE 0x2D CALLVALUE 0x2E BALANCE 0x2D CALLER 0x2E ORIGIN CALLVALUE 0x2D CALLDATALOAD 0x2E CALLER CALLVALUE 0x2D CALLER 0x2E ADDRESS CODECOPY 0x2D CALLDATACOPY PUSH13 0x31352E38372E333441312E3235 0x2C BALANCE 0x2E ORIGIN CALLDATALOAD 0x2C ADDRESS 0x2C ADDRESS 0x2C ADDRESS 0x2C CALLDATASIZE ADDRESS 0x2E CALLDATASIZE CALLVALUE 0x2C ORIGIN CODESIZE 0x2E BALANCE GAS 0x22 0x2F RETURNDATACOPY EXTCODECOPY 0x2F PUSH20 0x76673E3C2F673EA264697066735822122013B2BA 0xEC 0xB4 0xEC 0x26 COINBASE MSIZE 0xB2 0xAC PUSH19 0xDF6121029C63B8CD889FF3EA371F035E83AF6C 0x2B PUSH5 0x736F6C6343 STOP ADDMOD XOR STOP CALLER "
		},
		"gasEstimates": {
			"creation": {
				"codeDepositCost": "4461600",
				"executionCost": "infinite",
				"totalCost": "infinite"
			},
			"external": {
				"_allTokens(uint256)": "13270",
				"_allTokensIndex(uint256)": "2502",
				"_isTokenExists(uint256)": "infinite",
				"_slotExists(uint256)": "infinite",
				"_withdrawableFunds(uint256,address,address)": "infinite",
				"allowance(uint256,address)": "infinite",
				"approve(address,uint256)": "infinite",
				"approve(uint256,address,uint256)": "infinite",
				"assetFractionalPriceUSD(uint256)": "2591",
				"assets(uint256)": "4773",
				"balanceOf(address)": "2646",
				"balanceOf(uint256)": "15586",
				"contractURI()": "infinite",
				"fractionalizeAsset(uint256,uint256)": "infinite",
				"getAllSlots()": "infinite",
				"getApproved(uint256)": "15613",
				"getAssetFractionalPriceUSD(uint256)": "infinite",
				"getAssetOwner(uint256)": "2544",
				"getAssetOwners(uint256)": "infinite",
				"getAssetTotalSupply(uint256)": "2568",
				"getPartialAddress(address)": "infinite",
				"getProtocolFee()": "2336",
				"getPurchasedAssets(address)": "infinite",
				"getSlotFromTokenId(uint256)": "15489",
				"getSlotURI(uint256)": "infinite",
				"getTotalAssetTokensMinted(uint256)": "2479",
				"getUserAssetTokenBalance(address,uint256)": "infinite",
				"isApprovedForAll(address,address)": "infinite",
				"isFractionalized(uint256)": "2669",
				"metadataDescriptor()": "2515",
				"mintAsset(uint256,uint256,address)": "infinite",
				"name()": "infinite",
				"owner()": "2421",
				"ownerOf(uint256)": "15716",
				"protocolFee()": "2427",
				"registerAsset(address,uint256,string)": "infinite",
				"renounceOwnership()": "infinite",
				"safeTransferFrom(address,address,uint256)": "infinite",
				"safeTransferFrom(address,address,uint256,bytes)": "infinite",
				"setApprovalForAll(address,bool)": "infinite",
				"setAssetFractionalPriceUSD(uint256,uint256)": "infinite",
				"setProtocolFee(uint256)": "24596",
				"setTokenURI(uint256)": "infinite",
				"slotOf(uint256)": "15520",
				"slotURI(uint256)": "infinite",
				"supportsInterface(bytes4)": "719",
				"symbol()": "infinite",
				"tokenByIndex(uint256)": "6816",
				"tokenOfOwnerByIndex(address,uint256)": "7146",
				"tokenURI(uint256)": "infinite",
				"totalSupply()": "2470",
				"transferFrom(address,address,uint256)": "infinite",
				"transferFrom(uint256,address,uint256)": "infinite",
				"transferFrom(uint256,uint256,uint256)": "infinite",
				"transferOwnership(address)": "infinite",
				"valueDecimals()": "2334",
				"withdrawFunds(uint256,address,uint256)": "infinite"
			},
			"internal": {
				"__mintToken(address,uint256,uint256)": "infinite",
				"__mintValue(uint256,uint256)": "infinite",
				"_addOwner(uint256,address)": "81947",
				"_addSlot(uint256)": "48540",
				"_addTokenToAllTokensEnumeration(struct AssetRegistry.AssetData memory)": "infinite",
				"_addTokenToOwnerEnumeration(address,uint256)": "97303",
				"_afterValueTransfer(address,address,uint256,uint256,uint256,uint256)": "infinite",
				"_approve(address,uint256)": "infinite",
				"_approveValue(uint256,address,uint256)": "infinite",
				"_baseURI()": "infinite",
				"_beforeValueTransfer(address,address,uint256,uint256,uint256,uint256)": "infinite",
				"_burn(uint256)": "infinite",
				"_burnValue(uint256,uint256)": "infinite",
				"_checkOnERC3525Received(uint256,uint256,uint256,bytes memory)": "infinite",
				"_checkOnERC721Received(address,address,uint256,bytes memory)": "infinite",
				"_clearApprovedValues(uint256)": "infinite",
				"_createDerivedTokenId(uint256)": "24338",
				"_createOriginalTokenId()": "24302",
				"_existApproveValue(address,uint256)": "infinite",
				"_exists(uint256)": "8634",
				"_isApprovedOrOwner(address,uint256)": "infinite",
				"_isContract(address)": "infinite",
				"_mint(address,uint256,uint256,uint256)": "infinite",
				"_mintValue(uint256,uint256)": "infinite",
				"_removeOwner(uint256,address)": "111470",
				"_removeTokenFromAllTokensEnumeration(uint256)": "infinite",
				"_removeTokenFromOwnerEnumeration(address,uint256)": "118277",
				"_requireMinted(uint256)": "infinite",
				"_safeTransferTokenId(address,address,uint256,bytes memory)": "infinite",
				"_setApprovalForAll(address,address,bool)": "infinite",
				"_setMetadataDescriptor(address)": "infinite",
				"_setSlotURI(uint256,string memory)": "infinite",
				"_setTokenURI(uint256,string memory)": "infinite",
				"_spendAllowance(address,uint256,uint256)": "infinite",
				"_transferTokenId(address,address,uint256)": "infinite",
				"_transferValue(uint256,uint256,uint256)": "infinite",
				"setAssetOwner(uint256,address)": "infinite"
			}
		},
		"methodIdentifiers": {
			"_allTokens(uint256)": "aa5965ae",
			"_allTokensIndex(uint256)": "a7263665",
			"_isTokenExists(uint256)": "62b62e5e",
			"_slotExists(uint256)": "d28bb34a",
			"_withdrawableFunds(uint256,address,address)": "ac9b05c2",
			"allowance(uint256,address)": "e345e0bc",
			"approve(address,uint256)": "095ea7b3",
			"approve(uint256,address,uint256)": "8cb0a511",
			"assetFractionalPriceUSD(uint256)": "a167dd55",
			"assets(uint256)": "cf35bdd0",
			"balanceOf(address)": "70a08231",
			"balanceOf(uint256)": "9cc7f708",
			"contractURI()": "e8a3d485",
			"fractionalizeAsset(uint256,uint256)": "394b2122",
			"getAllSlots()": "6285bfcf",
			"getApproved(uint256)": "081812fc",
			"getAssetFractionalPriceUSD(uint256)": "2847637a",
			"getAssetOwner(uint256)": "8d5802e2",
			"getAssetOwners(uint256)": "686735c5",
			"getAssetTotalSupply(uint256)": "7fae60d5",
			"getPartialAddress(address)": "eb23ce4c",
			"getProtocolFee()": "a5a41031",
			"getPurchasedAssets(address)": "d60d5aad",
			"getSlotFromTokenId(uint256)": "e0af5b25",
			"getSlotURI(uint256)": "c72fcdf9",
			"getTotalAssetTokensMinted(uint256)": "d87477e3",
			"getUserAssetTokenBalance(address,uint256)": "35805be2",
			"isApprovedForAll(address,address)": "e985e9c5",
			"isFractionalized(uint256)": "b86b19de",
			"metadataDescriptor()": "840f7113",
			"mintAsset(uint256,uint256,address)": "c79eaa40",
			"name()": "06fdde03",
			"owner()": "8da5cb5b",
			"ownerOf(uint256)": "6352211e",
			"protocolFee()": "b0e21e8a",
			"registerAsset(address,uint256,string)": "8e9e5114",
			"renounceOwnership()": "715018a6",
			"safeTransferFrom(address,address,uint256)": "42842e0e",
			"safeTransferFrom(address,address,uint256,bytes)": "b88d4fde",
			"setApprovalForAll(address,bool)": "a22cb465",
			"setAssetFractionalPriceUSD(uint256,uint256)": "6408dcba",
			"setProtocolFee(uint256)": "787dce3d",
			"setTokenURI(uint256)": "bff26126",
			"slotOf(uint256)": "263f3e7e",
			"slotURI(uint256)": "09c3dd87",
			"supportsInterface(bytes4)": "01ffc9a7",
			"symbol()": "95d89b41",
			"tokenByIndex(uint256)": "4f6ccce7",
			"tokenOfOwnerByIndex(address,uint256)": "2f745c59",
			"tokenURI(uint256)": "c87b56dd",
			"totalSupply()": "18160ddd",
			"transferFrom(address,address,uint256)": "23b872dd",
			"transferFrom(uint256,address,uint256)": "0f485c02",
			"transferFrom(uint256,uint256,uint256)": "310ed7f0",
			"transferOwnership(address)": "f2fde38b",
			"valueDecimals()": "3e7e8669",
			"withdrawFunds(uint256,address,uint256)": "f8f34cde"
		}
	},
	"abi": [
		{
			"inputs": [
				{
					"internalType": "address",
					"name": "initialOwner",
					"type": "address"
				}
			],
			"stateMutability": "nonpayable",
			"type": "constructor"
		},
		{
			"inputs": [
				{
					"internalType": "address",
					"name": "account",
					"type": "address"
				}
			],
			"name": "AddressInsufficientBalance",
			"type": "error"
		},
		{
			"inputs": [],
			"name": "FailedInnerCall",
			"type": "error"
		},
		{
			"inputs": [
				{
					"internalType": "address",
					"name": "owner",
					"type": "address"
				}
			],
			"name": "OwnableInvalidOwner",
			"type": "error"
		},
		{
			"inputs": [
				{
					"internalType": "address",
					"name": "account",
					"type": "address"
				}
			],
			"name": "OwnableUnauthorizedAccount",
			"type": "error"
		},
		{
			"inputs": [
				{
					"internalType": "uint256",
					"name": "value",
					"type": "uint256"
				},
				{
					"internalType": "uint256",
					"name": "length",
					"type": "uint256"
				}
			],
			"name": "StringsInsufficientHexLength",
			"type": "error"
		},
		{
			"anonymous": false,
			"inputs": [
				{
					"indexed": true,
					"internalType": "address",
					"name": "_owner",
					"type": "address"
				},
				{
					"indexed": true,
					"internalType": "address",
					"name": "_approved",
					"type": "address"
				},
				{
					"indexed": true,
					"internalType": "uint256",
					"name": "_tokenId",
					"type": "uint256"
				}
			],
			"name": "Approval",
			"type": "event"
		},
		{
			"anonymous": false,
			"inputs": [
				{
					"indexed": true,
					"internalType": "address",
					"name": "_owner",
					"type": "address"
				},
				{
					"indexed": true,
					"internalType": "address",
					"name": "_operator",
					"type": "address"
				},
				{
					"indexed": false,
					"internalType": "bool",
					"name": "_approved",
					"type": "bool"
				}
			],
			"name": "ApprovalForAll",
			"type": "event"
		},
		{
			"anonymous": false,
			"inputs": [
				{
					"indexed": true,
					"internalType": "uint256",
					"name": "_tokenId",
					"type": "uint256"
				},
				{
					"indexed": true,
					"internalType": "address",
					"name": "_operator",
					"type": "address"
				},
				{
					"indexed": false,
					"internalType": "uint256",
					"name": "_value",
					"type": "uint256"
				}
			],
			"name": "ApprovalValue",
			"type": "event"
		},
		{
			"anonymous": false,
			"inputs": [
				{
					"indexed": false,
					"internalType": "uint256",
					"name": "slot",
					"type": "uint256"
				},
				{
					"indexed": true,
					"internalType": "address",
					"name": "to",
					"type": "address"
				},
				{
					"indexed": false,
					"internalType": "uint256",
					"name": "tokenId",
					"type": "uint256"
				}
			],
			"name": "AssetMinted",
			"type": "event"
		},
		{
			"anonymous": false,
			"inputs": [
				{
					"indexed": true,
					"internalType": "address",
					"name": "previousOwner",
					"type": "address"
				},
				{
					"indexed": true,
					"internalType": "address",
					"name": "newOwner",
					"type": "address"
				}
			],
			"name": "OwnershipTransferred",
			"type": "event"
		},
		{
			"anonymous": false,
			"inputs": [
				{
					"indexed": true,
					"internalType": "address",
					"name": "metadataDescriptor",
					"type": "address"
				}
			],
			"name": "SetMetadataDescriptor",
			"type": "event"
		},
		{
			"anonymous": false,
			"inputs": [
				{
					"indexed": true,
					"internalType": "uint256",
					"name": "_tokenId",
					"type": "uint256"
				},
				{
					"indexed": true,
					"internalType": "uint256",
					"name": "_oldSlot",
					"type": "uint256"
				},
				{
					"indexed": true,
					"internalType": "uint256",
					"name": "_newSlot",
					"type": "uint256"
				}
			],
			"name": "SlotChanged",
			"type": "event"
		},
		{
			"anonymous": false,
			"inputs": [
				{
					"indexed": true,
					"internalType": "address",
					"name": "_from",
					"type": "address"
				},
				{
					"indexed": true,
					"internalType": "address",
					"name": "_to",
					"type": "address"
				},
				{
					"indexed": true,
					"internalType": "uint256",
					"name": "_tokenId",
					"type": "uint256"
				}
			],
			"name": "Transfer",
			"type": "event"
		},
		{
			"anonymous": false,
			"inputs": [
				{
					"indexed": true,
					"internalType": "uint256",
					"name": "_fromTokenId",
					"type": "uint256"
				},
				{
					"indexed": true,
					"internalType": "uint256",
					"name": "_toTokenId",
					"type": "uint256"
				},
				{
					"indexed": false,
					"internalType": "uint256",
					"name": "_value",
					"type": "uint256"
				}
			],
			"name": "TransferValue",
			"type": "event"
		},
		{
			"inputs": [
				{
					"internalType": "uint256",
					"name": "",
					"type": "uint256"
				}
			],
			"name": "_allTokens",
			"outputs": [
				{
					"internalType": "uint256",
					"name": "id",
					"type": "uint256"
				},
				{
					"internalType": "uint256",
					"name": "slot",
					"type": "uint256"
				},
				{
					"internalType": "uint256",
					"name": "balance",
					"type": "uint256"
				},
				{
					"internalType": "address",
					"name": "owner",
					"type": "address"
				},
				{
					"internalType": "address",
					"name": "approved",
					"type": "address"
				}
			],
			"stateMutability": "view",
			"type": "function"
		},
		{
			"inputs": [
				{
					"internalType": "uint256",
					"name": "",
					"type": "uint256"
				}
			],
			"name": "_allTokensIndex",
			"outputs": [
				{
					"internalType": "uint256",
					"name": "",
					"type": "uint256"
				}
			],
			"stateMutability": "view",
			"type": "function"
		},
		{
			"inputs": [
				{
					"internalType": "uint256",
					"name": "tokenId",
					"type": "uint256"
				}
			],
			"name": "_isTokenExists",
			"outputs": [
				{
					"internalType": "bool",
					"name": "",
					"type": "bool"
				}
			],
			"stateMutability": "view",
			"type": "function"
		},
		{
			"inputs": [
				{
					"internalType": "uint256",
					"name": "slot_",
					"type": "uint256"
				}
			],
			"name": "_slotExists",
			"outputs": [
				{
					"internalType": "bool",
					"name": "",
					"type": "bool"
				}
			],
			"stateMutability": "view",
			"type": "function"
		},
		{
			"inputs": [
				{
					"internalType": "uint256",
					"name": "",
					"type": "uint256"
				},
				{
					"internalType": "address",
					"name": "",
					"type": "address"
				},
				{
					"internalType": "address",
					"name": "",
					"type": "address"
				}
			],
			"name": "_withdrawableFunds",
			"outputs": [
				{
					"internalType": "uint256",
					"name": "",
					"type": "uint256"
				}
			],
			"stateMutability": "view",
			"type": "function"
		},
		{
			"inputs": [
				{
					"internalType": "uint256",
					"name": "tokenId_",
					"type": "uint256"
				},
				{
					"internalType": "address",
					"name": "operator_",
					"type": "address"
				}
			],
			"name": "allowance",
			"outputs": [
				{
					"internalType": "uint256",
					"name": "",
					"type": "uint256"
				}
			],
			"stateMutability": "view",
			"type": "function"
		},
		{
			"inputs": [
				{
					"internalType": "address",
					"name": "to_",
					"type": "address"
				},
				{
					"internalType": "uint256",
					"name": "tokenId_",
					"type": "uint256"
				}
			],
			"name": "approve",
			"outputs": [],
			"stateMutability": "payable",
			"type": "function"
		},
		{
			"inputs": [
				{
					"internalType": "uint256",
					"name": "tokenId_",
					"type": "uint256"
				},
				{
					"internalType": "address",
					"name": "to_",
					"type": "address"
				},
				{
					"internalType": "uint256",
					"name": "value_",
					"type": "uint256"
				}
			],
			"name": "approve",
			"outputs": [],
			"stateMutability": "payable",
			"type": "function"
		},
		{
			"inputs": [
				{
					"internalType": "uint256",
					"name": "",
					"type": "uint256"
				}
			],
			"name": "assetFractionalPriceUSD",
			"outputs": [
				{
					"internalType": "uint256",
					"name": "",
					"type": "uint256"
				}
			],
			"stateMutability": "view",
			"type": "function"
		},
		{
			"inputs": [
				{
					"internalType": "uint256",
					"name": "",
					"type": "uint256"
				}
			],
			"name": "assets",
			"outputs": [
				{
					"internalType": "address",
					"name": "owner",
					"type": "address"
				},
				{
					"internalType": "uint256",
					"name": "funds",
					"type": "uint256"
				}
			],
			"stateMutability": "view",
			"type": "function"
		},
		{
			"inputs": [
				{
					"internalType": "address",
					"name": "owner_",
					"type": "address"
				}
			],
			"name": "balanceOf",
			"outputs": [
				{
					"internalType": "uint256",
					"name": "balance",
					"type": "uint256"
				}
			],
			"stateMutability": "view",
			"type": "function"
		},
		{
			"inputs": [
				{
					"internalType": "uint256",
					"name": "tokenId_",
					"type": "uint256"
				}
			],
			"name": "balanceOf",
			"outputs": [
				{
					"internalType": "uint256",
					"name": "",
					"type": "uint256"
				}
			],
			"stateMutability": "view",
			"type": "function"
		},
		{
			"inputs": [],
			"name": "contractURI",
			"outputs": [
				{
					"internalType": "string",
					"name": "",
					"type": "string"
				}
			],
			"stateMutability": "view",
			"type": "function"
		},
		{
			"inputs": [
				{
					"internalType": "uint256",
					"name": "slot_",
					"type": "uint256"
				},
				{
					"internalType": "uint256",
					"name": "totalSupply_",
					"type": "uint256"
				}
			],
			"name": "fractionalizeAsset",
			"outputs": [],
			"stateMutability": "nonpayable",
			"type": "function"
		},
		{
			"inputs": [],
			"name": "getAllSlots",
			"outputs": [
				{
					"internalType": "uint256[]",
					"name": "",
					"type": "uint256[]"
				}
			],
			"stateMutability": "view",
			"type": "function"
		},
		{
			"inputs": [
				{
					"internalType": "uint256",
					"name": "tokenId_",
					"type": "uint256"
				}
			],
			"name": "getApproved",
			"outputs": [
				{
					"internalType": "address",
					"name": "",
					"type": "address"
				}
			],
			"stateMutability": "view",
			"type": "function"
		},
		{
			"inputs": [
				{
					"internalType": "uint256",
					"name": "_slotId",
					"type": "uint256"
				}
			],
			"name": "getAssetFractionalPriceUSD",
			"outputs": [
				{
					"internalType": "uint256",
					"name": "",
					"type": "uint256"
				}
			],
			"stateMutability": "view",
			"type": "function"
		},
		{
			"inputs": [
				{
					"internalType": "uint256",
					"name": "slotId",
					"type": "uint256"
				}
			],
			"name": "getAssetOwner",
			"outputs": [
				{
					"internalType": "address",
					"name": "",
					"type": "address"
				}
			],
			"stateMutability": "view",
			"type": "function"
		},
		{
			"inputs": [
				{
					"internalType": "uint256",
					"name": "_assetId",
					"type": "uint256"
				}
			],
			"name": "getAssetOwners",
			"outputs": [
				{
					"internalType": "address[]",
					"name": "",
					"type": "address[]"
				}
			],
			"stateMutability": "view",
			"type": "function"
		},
		{
			"inputs": [
				{
					"internalType": "uint256",
					"name": "slotId",
					"type": "uint256"
				}
			],
			"name": "getAssetTotalSupply",
			"outputs": [
				{
					"internalType": "uint256",
					"name": "",
					"type": "uint256"
				}
			],
			"stateMutability": "view",
			"type": "function"
		},
		{
			"inputs": [
				{
					"internalType": "address",
					"name": "_addr",
					"type": "address"
				}
			],
			"name": "getPartialAddress",
			"outputs": [
				{
					"internalType": "string",
					"name": "",
					"type": "string"
				}
			],
			"stateMutability": "pure",
			"type": "function"
		},
		{
			"inputs": [],
			"name": "getProtocolFee",
			"outputs": [
				{
					"internalType": "uint256",
					"name": "",
					"type": "uint256"
				}
			],
			"stateMutability": "view",
			"type": "function"
		},
		{
			"inputs": [
				{
					"internalType": "address",
					"name": "user",
					"type": "address"
				}
			],
			"name": "getPurchasedAssets",
			"outputs": [
				{
					"internalType": "uint256[]",
					"name": "",
					"type": "uint256[]"
				}
			],
			"stateMutability": "view",
			"type": "function"
		},
		{
			"inputs": [
				{
					"internalType": "uint256",
					"name": "tokenId",
					"type": "uint256"
				}
			],
			"name": "getSlotFromTokenId",
			"outputs": [
				{
					"internalType": "uint256",
					"name": "",
					"type": "uint256"
				}
			],
			"stateMutability": "view",
			"type": "function"
		},
		{
			"inputs": [
				{
					"internalType": "uint256",
					"name": "slot",
					"type": "uint256"
				}
			],
			"name": "getSlotURI",
			"outputs": [
				{
					"internalType": "string",
					"name": "",
					"type": "string"
				}
			],
			"stateMutability": "view",
			"type": "function"
		},
		{
			"inputs": [
				{
					"internalType": "uint256",
					"name": "slotId",
					"type": "uint256"
				}
			],
			"name": "getTotalAssetTokensMinted",
			"outputs": [
				{
					"internalType": "uint256",
					"name": "",
					"type": "uint256"
				}
			],
			"stateMutability": "view",
			"type": "function"
		},
		{
			"inputs": [
				{
					"internalType": "address",
					"name": "user",
					"type": "address"
				},
				{
					"internalType": "uint256",
					"name": "slot",
					"type": "uint256"
				}
			],
			"name": "getUserAssetTokenBalance",
			"outputs": [
				{
					"internalType": "uint256",
					"name": "",
					"type": "uint256"
				}
			],
			"stateMutability": "view",
			"type": "function"
		},
		{
			"inputs": [
				{
					"internalType": "address",
					"name": "owner_",
					"type": "address"
				},
				{
					"internalType": "address",
					"name": "operator_",
					"type": "address"
				}
			],
			"name": "isApprovedForAll",
			"outputs": [
				{
					"internalType": "bool",
					"name": "",
					"type": "bool"
				}
			],
			"stateMutability": "view",
			"type": "function"
		},
		{
			"inputs": [
				{
					"internalType": "uint256",
					"name": "slotId",
					"type": "uint256"
				}
			],
			"name": "isFractionalized",
			"outputs": [
				{
					"internalType": "bool",
					"name": "",
					"type": "bool"
				}
			],
			"stateMutability": "view",
			"type": "function"
		},
		{
			"inputs": [],
			"name": "metadataDescriptor",
			"outputs": [
				{
					"internalType": "contract IERC3525MetadataDescriptor",
					"name": "",
					"type": "address"
				}
			],
			"stateMutability": "view",
			"type": "function"
		},
		{
			"inputs": [
				{
					"internalType": "uint256",
					"name": "slot",
					"type": "uint256"
				},
				{
					"internalType": "uint256",
					"name": "value",
					"type": "uint256"
				},
				{
					"internalType": "address",
					"name": "erc20TokenAddress",
					"type": "address"
				}
			],
			"name": "mintAsset",
			"outputs": [],
			"stateMutability": "payable",
			"type": "function"
		},
		{
			"inputs": [],
			"name": "name",
			"outputs": [
				{
					"internalType": "string",
					"name": "",
					"type": "string"
				}
			],
			"stateMutability": "view",
			"type": "function"
		},
		{
			"inputs": [],
			"name": "owner",
			"outputs": [
				{
					"internalType": "address",
					"name": "",
					"type": "address"
				}
			],
			"stateMutability": "view",
			"type": "function"
		},
		{
			"inputs": [
				{
					"internalType": "uint256",
					"name": "tokenId_",
					"type": "uint256"
				}
			],
			"name": "ownerOf",
			"outputs": [
				{
					"internalType": "address",
					"name": "owner_",
					"type": "address"
				}
			],
			"stateMutability": "view",
			"type": "function"
		},
		{
			"inputs": [],
			"name": "protocolFee",
			"outputs": [
				{
					"internalType": "uint256",
					"name": "",
					"type": "uint256"
				}
			],
			"stateMutability": "view",
			"type": "function"
		},
		{
			"inputs": [
				{
					"internalType": "address",
					"name": "to_",
					"type": "address"
				},
				{
					"internalType": "uint256",
					"name": "slot_",
					"type": "uint256"
				},
				{
					"internalType": "string",
					"name": "uri",
					"type": "string"
				}
			],
			"name": "registerAsset",
			"outputs": [
				{
					"internalType": "uint256",
					"name": "tokenId",
					"type": "uint256"
				}
			],
			"stateMutability": "nonpayable",
			"type": "function"
		},
		{
			"inputs": [],
			"name": "renounceOwnership",
			"outputs": [],
			"stateMutability": "nonpayable",
			"type": "function"
		},
		{
			"inputs": [
				{
					"internalType": "address",
					"name": "from_",
					"type": "address"
				},
				{
					"internalType": "address",
					"name": "to_",
					"type": "address"
				},
				{
					"internalType": "uint256",
					"name": "tokenId_",
					"type": "uint256"
				}
			],
			"name": "safeTransferFrom",
			"outputs": [],
			"stateMutability": "payable",
			"type": "function"
		},
		{
			"inputs": [
				{
					"internalType": "address",
					"name": "from_",
					"type": "address"
				},
				{
					"internalType": "address",
					"name": "to_",
					"type": "address"
				},
				{
					"internalType": "uint256",
					"name": "tokenId_",
					"type": "uint256"
				},
				{
					"internalType": "bytes",
					"name": "data_",
					"type": "bytes"
				}
			],
			"name": "safeTransferFrom",
			"outputs": [],
			"stateMutability": "payable",
			"type": "function"
		},
		{
			"inputs": [
				{
					"internalType": "address",
					"name": "operator_",
					"type": "address"
				},
				{
					"internalType": "bool",
					"name": "approved_",
					"type": "bool"
				}
			],
			"name": "setApprovalForAll",
			"outputs": [],
			"stateMutability": "nonpayable",
			"type": "function"
		},
		{
			"inputs": [
				{
					"internalType": "uint256",
					"name": "_slotId",
					"type": "uint256"
				},
				{
					"internalType": "uint256",
					"name": "priceUSD",
					"type": "uint256"
				}
			],
			"name": "setAssetFractionalPriceUSD",
			"outputs": [],
			"stateMutability": "nonpayable",
			"type": "function"
		},
		{
			"inputs": [
				{
					"internalType": "uint256",
					"name": "_protocolFee",
					"type": "uint256"
				}
			],
			"name": "setProtocolFee",
			"outputs": [],
			"stateMutability": "nonpayable",
			"type": "function"
		},
		{
			"inputs": [
				{
					"internalType": "uint256",
					"name": "tokenId_",
					"type": "uint256"
				}
			],
			"name": "setTokenURI",
			"outputs": [
				{
					"internalType": "string",
					"name": "",
					"type": "string"
				}
			],
			"stateMutability": "view",
			"type": "function"
		},
		{
			"inputs": [
				{
					"internalType": "uint256",
					"name": "tokenId_",
					"type": "uint256"
				}
			],
			"name": "slotOf",
			"outputs": [
				{
					"internalType": "uint256",
					"name": "",
					"type": "uint256"
				}
			],
			"stateMutability": "view",
			"type": "function"
		},
		{
			"inputs": [
				{
					"internalType": "uint256",
					"name": "slot_",
					"type": "uint256"
				}
			],
			"name": "slotURI",
			"outputs": [
				{
					"internalType": "string",
					"name": "",
					"type": "string"
				}
			],
			"stateMutability": "view",
			"type": "function"
		},
		{
			"inputs": [
				{
					"internalType": "bytes4",
					"name": "interfaceId",
					"type": "bytes4"
				}
			],
			"name": "supportsInterface",
			"outputs": [
				{
					"internalType": "bool",
					"name": "",
					"type": "bool"
				}
			],
			"stateMutability": "view",
			"type": "function"
		},
		{
			"inputs": [],
			"name": "symbol",
			"outputs": [
				{
					"internalType": "string",
					"name": "",
					"type": "string"
				}
			],
			"stateMutability": "view",
			"type": "function"
		},
		{
			"inputs": [
				{
					"internalType": "uint256",
					"name": "index_",
					"type": "uint256"
				}
			],
			"name": "tokenByIndex",
			"outputs": [
				{
					"internalType": "uint256",
					"name": "",
					"type": "uint256"
				}
			],
			"stateMutability": "view",
			"type": "function"
		},
		{
			"inputs": [
				{
					"internalType": "address",
					"name": "owner_",
					"type": "address"
				},
				{
					"internalType": "uint256",
					"name": "index_",
					"type": "uint256"
				}
			],
			"name": "tokenOfOwnerByIndex",
			"outputs": [
				{
					"internalType": "uint256",
					"name": "",
					"type": "uint256"
				}
			],
			"stateMutability": "view",
			"type": "function"
		},
		{
			"inputs": [
				{
					"internalType": "uint256",
					"name": "tokenId_",
					"type": "uint256"
				}
			],
			"name": "tokenURI",
			"outputs": [
				{
					"internalType": "string",
					"name": "",
					"type": "string"
				}
			],
			"stateMutability": "view",
			"type": "function"
		},
		{
			"inputs": [],
			"name": "totalSupply",
			"outputs": [
				{
					"internalType": "uint256",
					"name": "",
					"type": "uint256"
				}
			],
			"stateMutability": "view",
			"type": "function"
		},
		{
			"inputs": [
				{
					"internalType": "uint256",
					"name": "fromTokenId_",
					"type": "uint256"
				},
				{
					"internalType": "address",
					"name": "to_",
					"type": "address"
				},
				{
					"internalType": "uint256",
					"name": "value_",
					"type": "uint256"
				}
			],
			"name": "transferFrom",
			"outputs": [
				{
					"internalType": "uint256",
					"name": "newTokenId",
					"type": "uint256"
				}
			],
			"stateMutability": "payable",
			"type": "function"
		},
		{
			"inputs": [
				{
					"internalType": "address",
					"name": "from_",
					"type": "address"
				},
				{
					"internalType": "address",
					"name": "to_",
					"type": "address"
				},
				{
					"internalType": "uint256",
					"name": "tokenId_",
					"type": "uint256"
				}
			],
			"name": "transferFrom",
			"outputs": [],
			"stateMutability": "payable",
			"type": "function"
		},
		{
			"inputs": [
				{
					"internalType": "uint256",
					"name": "fromTokenId_",
					"type": "uint256"
				},
				{
					"internalType": "uint256",
					"name": "toTokenId_",
					"type": "uint256"
				},
				{
					"internalType": "uint256",
					"name": "value_",
					"type": "uint256"
				}
			],
			"name": "transferFrom",
			"outputs": [],
			"stateMutability": "payable",
			"type": "function"
		},
		{
			"inputs": [
				{
					"internalType": "address",
					"name": "newOwner",
					"type": "address"
				}
			],
			"name": "transferOwnership",
			"outputs": [],
			"stateMutability": "nonpayable",
			"type": "function"
		},
		{
			"inputs": [],
			"name": "valueDecimals",
			"outputs": [
				{
					"internalType": "uint8",
					"name": "",
					"type": "uint8"
				}
			],
			"stateMutability": "view",
			"type": "function"
		},
		{
			"inputs": [
				{
					"internalType": "uint256",
					"name": "slotId",
					"type": "uint256"
				},
				{
					"internalType": "address",
					"name": "erc20TokenAddress",
					"type": "address"
				},
				{
					"internalType": "uint256",
					"name": "amount",
					"type": "uint256"
				}
			],
			"name": "withdrawFunds",
			"outputs": [],
			"stateMutability": "nonpayable",
			"type": "function"
		}
	]
}