{
	"data": {
		"bytecode": {
			"linkReferences": {},
			"object": "608060405234801562000010575f80fd5b506040516200598638038062005986833981810160405281019062000036919062000198565b6040518060400160405280601581526020017f4552433335323547657474696e675374617274656400000000000000000000008152506040518060400160405280600981526020017f455243333532354753000000000000000000000000000000000000000000000081525060126001600381905550825f9081620000bc91906200042c565b508160019081620000ce91906200042c565b508060025f6101000a81548160ff021916908360ff1602179055505050508060095f6101000a81548173ffffffffffffffffffffffffffffffffffffffff021916908373ffffffffffffffffffffffffffffffffffffffff1602179055505062000510565b5f80fd5b5f73ffffffffffffffffffffffffffffffffffffffff82169050919050565b5f620001628262000137565b9050919050565b620001748162000156565b81146200017f575f80fd5b50565b5f81519050620001928162000169565b92915050565b5f60208284031215620001b057620001af62000133565b5b5f620001bf8482850162000182565b91505092915050565b5f81519050919050565b7f4e487b71000000000000000000000000000000000000000000000000000000005f52604160045260245ffd5b7f4e487b71000000000000000000000000000000000000000000000000000000005f52602260045260245ffd5b5f60028204905060018216806200024457607f821691505b6020821081036200025a5762000259620001ff565b5b50919050565b5f819050815f5260205f209050919050565b5f6020601f8301049050919050565b5f82821b905092915050565b5f60088302620002be7fffffffffffffffffffffffffffffffffffffffffffffffffffffffffffffffff8262000281565b620002ca868362000281565b95508019841693508086168417925050509392505050565b5f819050919050565b5f819050919050565b5f620003146200030e6200030884620002e2565b620002eb565b620002e2565b9050919050565b5f819050919050565b6200032f83620002f4565b620003476200033e826200031b565b8484546200028d565b825550505050565b5f90565b6200035d6200034f565b6200036a81848462000324565b505050565b5b818110156200039157620003855f8262000353565b60018101905062000370565b5050565b601f821115620003e057620003aa8162000260565b620003b58462000272565b81016020851015620003c5578190505b620003dd620003d48562000272565b8301826200036f565b50505b505050565b5f82821c905092915050565b5f620004025f1984600802620003e5565b1980831691505092915050565b5f6200041c8383620003f1565b9150826002028217905092915050565b6200043782620001c8565b67ffffffffffffffff811115620004535762000452620001d2565b5b6200045f82546200022c565b6200046c82828562000395565b5f60209050601f831160018114620004a2575f84156200048d578287015190505b6200049985826200040f565b86555062000508565b601f198416620004b28662000260565b5f5b82811015620004db57848901518255600182019150602085019450602081019050620004b4565b86831015620004fb5784890151620004f7601f891682620003f1565b8355505b6001600288020188555050505b505050505050565b615468806200051e5f395ff3fe6080604052600436106101b6575f3560e01c80634f6ccce7116100eb5780639cc7f70811610089578063c87b56dd11610063578063c87b56dd146105fa578063e345e0bc14610636578063e8a3d48514610672578063e985e9c51461069c576101b6565b80639cc7f7081461057a578063a22cb465146105b6578063b88d4fde146105de576101b6565b8063840f7113116100c5578063840f7113146104e05780638cb0a5111461050a5780638da5cb5b1461052657806395d89b4114610550576101b6565b80634f6ccce71461042c5780636352211e1461046857806370a08231146104a4576101b6565b806318160ddd116101585780632f745c59116101325780632f745c591461038e578063310ed7f0146103ca5780633e7e8669146103e657806342842e0e14610410576101b6565b806318160ddd1461030c57806323b872dd14610336578063263f3e7e14610352576101b6565b8063095ea7b311610194578063095ea7b31461025c57806309c3dd87146102785780630f485c02146102b4578063156e29f6146102e4576101b6565b806301ffc9a7146101ba57806306fdde03146101f6578063081812fc14610220575b5f80fd5b3480156101c5575f80fd5b506101e060048036038101906101db919061339a565b6106d8565b6040516101ed91906133df565b60405180910390f35b348015610201575f80fd5b5061020a610949565b6040516102179190613482565b60405180910390f35b34801561022b575f80fd5b50610246600480360381019061024191906134d5565b6109d8565b604051610253919061353f565b60405180910390f35b61027660048036038101906102719190613582565b610a3d565b005b348015610283575f80fd5b5061029e600480360381019061029991906134d5565b610b53565b6040516102ab9190613482565b60405180910390f35b6102ce60048036038101906102c991906135c0565b610ca5565b6040516102db919061361f565b60405180910390f35b3480156102ef575f80fd5b5061030a60048036038101906103059190613638565b610ce9565b005b348015610317575f80fd5b50610320610d89565b60405161032d919061361f565b60405180910390f35b610350600480360381019061034b9190613688565b610d95565b005b34801561035d575f80fd5b50610378600480360381019061037391906134d5565b610df5565b604051610385919061361f565b60405180910390f35b348015610399575f80fd5b506103b460048036038101906103af9190613582565b610e3b565b6040516103c1919061361f565b60405180910390f35b6103e460048036038101906103df91906136d8565b610ee8565b005b3480156103f1575f80fd5b506103fa610f0a565b6040516104079190613743565b60405180910390f35b61042a60048036038101906104259190613688565b610f1f565b005b348015610437575f80fd5b50610452600480360381019061044d91906134d5565b610f3e565b60405161045f919061361f565b60405180910390f35b348015610473575f80fd5b5061048e600480360381019061048991906134d5565b610fb2565b60405161049b919061353f565b60405180910390f35b3480156104af575f80fd5b506104ca60048036038101906104c5919061375c565b611085565b6040516104d7919061361f565b60405180910390f35b3480156104eb575f80fd5b506104f461113e565b60405161050191906137e2565b60405180910390f35b610524600480360381019061051f91906135c0565b611163565b005b348015610531575f80fd5b5061053a61123e565b604051610547919061353f565b60405180910390f35b34801561055b575f80fd5b50610564611263565b6040516105719190613482565b60405180910390f35b348015610585575f80fd5b506105a0600480360381019061059b91906134d5565b6112f3565b6040516105ad919061361f565b60405180910390f35b3480156105c1575f80fd5b506105dc60048036038101906105d79190613825565b611339565b005b6105f860048036038101906105f3919061398f565b61134f565b005b348015610605575f80fd5b50610620600480360381019061061b91906134d5565b6113b1565b60405161062d9190613482565b60405180910390f35b348015610641575f80fd5b5061065c60048036038101906106579190613a0f565b611406565b604051610669919061361f565b60405180910390f35b34801561067d575f80fd5b50610686611465565b6040516106939190613482565b60405180910390f35b3480156106a7575f80fd5b506106c260048036038101906106bd9190613a4d565b6115aa565b6040516106cf91906133df565b60405180910390f35b5f7f01ffc9a7000000000000000000000000000000000000000000000000000000007bffffffffffffffffffffffffffffffffffffffffffffffffffffffff1916827bffffffffffffffffffffffffffffffffffffffffffffffffffffffff191614806107a257507fd5358140000000000000000000000000000000000000000000000000000000007bffffffffffffffffffffffffffffffffffffffffffffffffffffffff1916827bffffffffffffffffffffffffffffffffffffffffffffffffffffffff1916145b8061080a57507f80ac58cd000000000000000000000000000000000000000000000000000000007bffffffffffffffffffffffffffffffffffffffffffffffffffffffff1916827bffffffffffffffffffffffffffffffffffffffffffffffffffffffff1916145b8061087257507fe1600902000000000000000000000000000000000000000000000000000000007bffffffffffffffffffffffffffffffffffffffffffffffffffffffff1916827bffffffffffffffffffffffffffffffffffffffffffffffffffffffff1916145b806108da57507f780e9d63000000000000000000000000000000000000000000000000000000007bffffffffffffffffffffffffffffffffffffffffffffffffffffffff1916827bffffffffffffffffffffffffffffffffffffffffffffffffffffffff1916145b8061094257507f5b5e139f000000000000000000000000000000000000000000000000000000007bffffffffffffffffffffffffffffffffffffffffffffffffffffffff1916827bffffffffffffffffffffffffffffffffffffffffffffffffffffffff1916145b9050919050565b60605f805461095790613ab8565b80601f016020809104026020016040519081016040528092919081815260200182805461098390613ab8565b80156109ce5780601f106109a5576101008083540402835291602001916109ce565b820191905f5260205f20905b8154815290600101906020018083116109b157829003601f168201915b5050505050905090565b5f6109e28261163b565b600560065f8481526020019081526020015f205481548110610a0757610a06613ae8565b5b905f5260205f2090600602016004015f9054906101000a900473ffffffffffffffffffffffffffffffffffffffff169050919050565b5f610a4782610fb2565b90508073ffffffffffffffffffffffffffffffffffffffff168373ffffffffffffffffffffffffffffffffffffffff1603610ab7576040517f08c379a0000000000000000000000000000000000000000000000000000000008152600401610aae90613b85565b60405180910390fd5b8073ffffffffffffffffffffffffffffffffffffffff16610ad6611686565b73ffffffffffffffffffffffffffffffffffffffff161480610b055750610b0481610aff611686565b6115aa565b5b610b44576040517f08c379a0000000000000000000000000000000000000000000000000000000008152600401610b3b90613c13565b60405180910390fd5b610b4e838361168d565b505050565b60605f610b5e611766565b90505f73ffffffffffffffffffffffffffffffffffffffff1660085f9054906101000a900473ffffffffffffffffffffffffffffffffffffffff1673ffffffffffffffffffffffffffffffffffffffff1603610c00575f815111610bd05760405180602001604052805f815250610bfb565b80610bda8461177c565b604051602001610beb929190613cb5565b6040516020818303038152906040525b610c9d565b60085f9054906101000a900473ffffffffffffffffffffffffffffffffffffffff1673ffffffffffffffffffffffffffffffffffffffff16636c037f8a846040518263ffffffff1660e01b8152600401610c5a919061361f565b5f60405180830381865afa158015610c74573d5f803e3d5ffd5b505050506040513d5f823e3d601f19601f82011682018060405250810190610c9c9190613d81565b5b915050919050565b5f610cb8610cb1611686565b8584611846565b610cc1846118ef565b9050610cd78382610cd187610df5565b5f6118ff565b610ce2848284611a2f565b9392505050565b60095f9054906101000a900473ffffffffffffffffffffffffffffffffffffffff1673ffffffffffffffffffffffffffffffffffffffff163373ffffffffffffffffffffffffffffffffffffffff1614610d78576040517f08c379a0000000000000000000000000000000000000000000000000000000008152600401610d6f90613e38565b60405180910390fd5b610d83838383611d35565b50505050565b5f600580549050905090565b610da6610da0611686565b82611d53565b610de5576040517f08c379a0000000000000000000000000000000000000000000000000000000008152600401610ddc90613ec6565b60405180910390fd5b610df0838383611de7565b505050565b5f610dff8261163b565b600560065f8481526020019081526020015f205481548110610e2457610e23613ae8565b5b905f5260205f209060060201600101549050919050565b5f610e4583611085565b8210610e86576040517f08c379a0000000000000000000000000000000000000000000000000000000008152600401610e7d90613f54565b60405180910390fd5b60075f8473ffffffffffffffffffffffffffffffffffffffff1673ffffffffffffffffffffffffffffffffffffffff1681526020019081526020015f205f018281548110610ed757610ed6613ae8565b5b905f5260205f200154905092915050565b610efa610ef3611686565b8483611846565b610f05838383611a2f565b505050565b5f60025f9054906101000a900460ff16905090565b610f3983838360405180602001604052805f81525061134f565b505050565b5f610f47610d89565b8210610f88576040517f08c379a0000000000000000000000000000000000000000000000000000000008152600401610f7f90613fe2565b60405180910390fd5b60058281548110610f9c57610f9b613ae8565b5b905f5260205f2090600602015f01549050919050565b5f610fbc8261163b565b600560065f8481526020019081526020015f205481548110610fe157610fe0613ae8565b5b905f5260205f2090600602016003015f9054906101000a900473ffffffffffffffffffffffffffffffffffffffff1690505f73ffffffffffffffffffffffffffffffffffffffff168173ffffffffffffffffffffffffffffffffffffffff1603611080576040517f08c379a00000000000000000000000000000000000000000000000000000000081526004016110779061404a565b60405180910390fd5b919050565b5f8073ffffffffffffffffffffffffffffffffffffffff168273ffffffffffffffffffffffffffffffffffffffff16036110f4576040517f08c379a00000000000000000000000000000000000000000000000000000000081526004016110eb906140d8565b60405180910390fd5b60075f8373ffffffffffffffffffffffffffffffffffffffff1673ffffffffffffffffffffffffffffffffffffffff1681526020019081526020015f205f01805490509050919050565b60085f9054906101000a900473ffffffffffffffffffffffffffffffffffffffff1681565b5f61116d84610fb2565b90508073ffffffffffffffffffffffffffffffffffffffff168373ffffffffffffffffffffffffffffffffffffffff16036111dd576040517f08c379a00000000000000000000000000000000000000000000000000000000081526004016111d490613b85565b60405180910390fd5b6111ee6111e8611686565b85611d53565b61122d576040517f08c379a000000000000000000000000000000000000000000000000000000000815260040161122490614166565b60405180910390fd5b611238848484611f88565b50505050565b60095f9054906101000a900473ffffffffffffffffffffffffffffffffffffffff1681565b60606001805461127290613ab8565b80601f016020809104026020016040519081016040528092919081815260200182805461129e90613ab8565b80156112e95780601f106112c0576101008083540402835291602001916112e9565b820191905f5260205f20905b8154815290600101906020018083116112cc57829003601f168201915b5050505050905090565b5f6112fd8261163b565b600560065f8481526020019081526020015f20548154811061132257611321613ae8565b5b905f5260205f209060060201600201549050919050565b61134b611344611686565b838361213c565b5050565b61136061135a611686565b83611d53565b61139f576040517f08c379a000000000000000000000000000000000000000000000000000000000815260040161139690613ec6565b60405180910390fd5b6113ab848484846122a6565b50505050565b60606113bc8261177c565b6113cd6113c8846112f3565b61177c565b6113de6113d985610df5565b61177c565b6040516020016113f0939291906147d4565b6040516020818303038152906040529050919050565b5f6114108361163b565b60045f8481526020019081526020015f205f8373ffffffffffffffffffffffffffffffffffffffff1673ffffffffffffffffffffffffffffffffffffffff1681526020019081526020015f2054905092915050565b60605f611470611766565b90505f73ffffffffffffffffffffffffffffffffffffffff1660085f9054906101000a900473ffffffffffffffffffffffffffffffffffffffff1673ffffffffffffffffffffffffffffffffffffffff1603611512575f8151116114e25760405180602001604052805f81525061150d565b806114ec30612302565b6040516020016114fd9291906148c7565b6040516020818303038152906040525b6115a4565b60085f9054906101000a900473ffffffffffffffffffffffffffffffffffffffff1673ffffffffffffffffffffffffffffffffffffffff1663725fa09c6040518163ffffffff1660e01b81526004015f60405180830381865afa15801561157b573d5f803e3d5ffd5b505050506040513d5f823e3d601f19601f820116820180604052508101906115a39190613d81565b5b91505090565b5f60075f8473ffffffffffffffffffffffffffffffffffffffff1673ffffffffffffffffffffffffffffffffffffffff1681526020019081526020015f206002015f8373ffffffffffffffffffffffffffffffffffffffff1673ffffffffffffffffffffffffffffffffffffffff1681526020019081526020015f205f9054906101000a900460ff16905092915050565b6116448161232f565b611683576040517f08c379a000000000000000000000000000000000000000000000000000000000815260040161167a9061404a565b60405180910390fd5b50565b5f33905090565b81600560065f8481526020019081526020015f2054815481106116b3576116b2613ae8565b5b905f5260205f2090600602016004015f6101000a81548173ffffffffffffffffffffffffffffffffffffffff021916908373ffffffffffffffffffffffffffffffffffffffff160217905550808273ffffffffffffffffffffffffffffffffffffffff1661172083610fb2565b73ffffffffffffffffffffffffffffffffffffffff167f8c5be1e5ebec7d5bd14f71427d1e84f3dd0314c0f7b2291e5b200ac8c7c3b92560405160405180910390a45050565b606060405180602001604052805f815250905090565b60605f600161178a8461237e565b0190505f8167ffffffffffffffff8111156117a8576117a761386b565b5b6040519080825280601f01601f1916602001820160405280156117da5781602001600182028036833780820191505090505b5090505f82602001820190505b60011561183b578080600190039150507f3031323334353637383961626364656600000000000000000000000000000000600a86061a8153600a85816118305761182f6148f5565b5b0494505f85036117e7575b819350505050919050565b5f6118518385611406565b905061185d8484611d53565b15801561188a57507fffffffffffffffffffffffffffffffffffffffffffffffffffffffffffffffff8114155b156118e957818110156118d2576040517f08c379a00000000000000000000000000000000000000000000000000000000081526004016118c99061496c565b60405180910390fd5b6118e8838584846118e391906149b7565b611f88565b5b50505050565b5f6118f86124cf565b9050919050565b5f73ffffffffffffffffffffffffffffffffffffffff168473ffffffffffffffffffffffffffffffffffffffff160361196d576040517f08c379a000000000000000000000000000000000000000000000000000000000815260040161196490614a5a565b60405180910390fd5b5f83036119af576040517f08c379a00000000000000000000000000000000000000000000000000000000081526004016119a690614ae8565b60405180910390fd5b6119b88361232f565b156119f8576040517f08c379a00000000000000000000000000000000000000000000000000000000081526004016119ef90614b50565b60405180910390fd5b611a065f855f8686866124eb565b611a118484846124f3565b611a1b838261263a565b611a295f855f8686866126c1565b50505050565b611a388361232f565b611a77576040517f08c379a0000000000000000000000000000000000000000000000000000000008152600401611a6e90614bde565b60405180910390fd5b611a808261232f565b611abf576040517f08c379a0000000000000000000000000000000000000000000000000000000008152600401611ab690614c6c565b60405180910390fd5b5f600560065f8681526020019081526020015f205481548110611ae557611ae4613ae8565b5b905f5260205f20906006020190505f600560065f8681526020019081526020015f205481548110611b1957611b18613ae8565b5b905f5260205f20906006020190508282600201541015611b6e576040517f08c379a0000000000000000000000000000000000000000000000000000000008152600401611b6590614cfa565b60405180910390fd5b8060010154826001015414611bb8576040517f08c379a0000000000000000000000000000000000000000000000000000000008152600401611baf90614d88565b60405180910390fd5b611c10826003015f9054906101000a900473ffffffffffffffffffffffffffffffffffffffff16826003015f9054906101000a900473ffffffffffffffffffffffffffffffffffffffff1687878660010154886124eb565b82826002015f828254611c2391906149b7565b9250508190555082816002015f828254611c3d9190614da6565b9250508190555083857f0b2aac84f3ec956911fd78eae5311062972ff949f38412e8da39069d9f068cc685604051611c75919061361f565b60405180910390a3611cd5826003015f9054906101000a900473ffffffffffffffffffffffffffffffffffffffff16826003015f9054906101000a900473ffffffffffffffffffffffffffffffffffffffff1687878660010154886126c1565b611cef85858560405180602001604052805f8152506126c9565b611d2e576040517f08c379a0000000000000000000000000000000000000000000000000000000008152600401611d2590614e49565b60405180910390fd5b5050505050565b5f611d3e6124cf565b9050611d4c848285856118ff565b9392505050565b5f80611d5e83610fb2565b90508073ffffffffffffffffffffffffffffffffffffffff168473ffffffffffffffffffffffffffffffffffffffff161480611da05750611d9f81856115aa565b5b80611dde57508373ffffffffffffffffffffffffffffffffffffffff16611dc6846109d8565b73ffffffffffffffffffffffffffffffffffffffff16145b91505092915050565b8273ffffffffffffffffffffffffffffffffffffffff16611e0782610fb2565b73ffffffffffffffffffffffffffffffffffffffff1614611e5d576040517f08c379a0000000000000000000000000000000000000000000000000000000008152600401611e5490614ed7565b60405180910390fd5b5f73ffffffffffffffffffffffffffffffffffffffff168273ffffffffffffffffffffffffffffffffffffffff1603611ecb576040517f08c379a0000000000000000000000000000000000000000000000000000000008152600401611ec290614f65565b60405180910390fd5b5f611ed582610df5565b90505f611ee1836112f3565b9050611ef18585858686866124eb565b611efb5f8461168d565b611f04836128af565b611f0e85846129ab565b611f188484612b29565b828473ffffffffffffffffffffffffffffffffffffffff168673ffffffffffffffffffffffffffffffffffffffff167fddf252ad1be2c89b69c2b068fc378daa952ba7f163c4a11628f55a4df523b3ef60405160405180910390a4611f818585858686866126c1565b5050505050565b5f73ffffffffffffffffffffffffffffffffffffffff168273ffffffffffffffffffffffffffffffffffffffff1603611ff6576040517f08c379a0000000000000000000000000000000000000000000000000000000008152600401611fed90614ff3565b60405180910390fd5b6120008284612c98565b61209757600560065f8581526020019081526020015f20548154811061202957612028613ae8565b5b905f5260205f20906006020160050182908060018154018082558091505060019003905f5260205f20015f9091909190916101000a81548173ffffffffffffffffffffffffffffffffffffffff021916908373ffffffffffffffffffffffffffffffffffffffff1602179055505b8060045f8581526020019081526020015f205f8473ffffffffffffffffffffffffffffffffffffffff1673ffffffffffffffffffffffffffffffffffffffff1681526020019081526020015f20819055508173ffffffffffffffffffffffffffffffffffffffff16837f621b050de0ad08b51d19b48b3e6df75348c4de6bdd93e81b252ca62e28265b1b8360405161212f919061361f565b60405180910390a3505050565b8173ffffffffffffffffffffffffffffffffffffffff168373ffffffffffffffffffffffffffffffffffffffff16036121aa576040517f08c379a00000000000000000000000000000000000000000000000000000000081526004016121a19061505b565b60405180910390fd5b8060075f8573ffffffffffffffffffffffffffffffffffffffff1673ffffffffffffffffffffffffffffffffffffffff1681526020019081526020015f206002015f8473ffffffffffffffffffffffffffffffffffffffff1673ffffffffffffffffffffffffffffffffffffffff1681526020019081526020015f205f6101000a81548160ff0219169083151502179055508173ffffffffffffffffffffffffffffffffffffffff168373ffffffffffffffffffffffffffffffffffffffff167f17307eab39ab6107e8899845ad3d59bd9653f200f220920489ca2b5937696c318360405161229991906133df565b60405180910390a3505050565b6122b1848484611de7565b6122bd84848484612da2565b6122fc576040517f08c379a00000000000000000000000000000000000000000000000000000000081526004016122f3906150e9565b60405180910390fd5b50505050565b60606123288273ffffffffffffffffffffffffffffffffffffffff16601460ff16612f0e565b9050919050565b5f8060058054905014158015612377575081600560065f8581526020019081526020015f20548154811061236657612365613ae8565b5b905f5260205f2090600602015f0154145b9050919050565b5f805f90507a184f03e93ff9f4daa797ed6e38ed64bf6a1f01000000000000000083106123da577a184f03e93ff9f4daa797ed6e38ed64bf6a1f01000000000000000083816123d0576123cf6148f5565b5b0492506040810190505b6d04ee2d6d415b85acef81000000008310612417576d04ee2d6d415b85acef8100000000838161240d5761240c6148f5565b5b0492506020810190505b662386f26fc10000831061244657662386f26fc10000838161243c5761243b6148f5565b5b0492506010810190505b6305f5e100831061246f576305f5e1008381612465576124646148f5565b5b0492506008810190505b612710831061249457612710838161248a576124896148f5565b5b0492506004810190505b606483106124b757606483816124ad576124ac6148f5565b5b0492506002810190505b600a83106124c6576001810190505b80915050919050565b5f60035f8154809291906124e290615107565b91905055905090565b505050505050565b5f6040518060c001604052808481526020018381526020015f81526020018573ffffffffffffffffffffffffffffffffffffffff1681526020015f73ffffffffffffffffffffffffffffffffffffffff1681526020015f67ffffffffffffffff8111156125635761256261386b565b5b6040519080825280602002602001820160405280156125915781602001602082028036833780820191505090505b5081525090506125a08161314c565b6125aa8484612b29565b828473ffffffffffffffffffffffffffffffffffffffff165f73ffffffffffffffffffffffffffffffffffffffff167fddf252ad1be2c89b69c2b068fc378daa952ba7f163c4a11628f55a4df523b3ef60405160405180910390a4815f847fe4f48c240d3b994948aa54f3e2f5fca59263dfe1d52b6e4cf39a5d249b5ccb6560405160405180910390a450505050565b80600560065f8581526020019081526020015f2054815481106126605761265f613ae8565b5b905f5260205f2090600602016002015f82825461267d9190614da6565b92505081905550815f7f0b2aac84f3ec956911fd78eae5311062972ff949f38412e8da39069d9f068cc6836040516126b5919061361f565b60405180910390a35050565b505050505050565b5f806126d485610fb2565b90506126df8161325d565b156128a1578073ffffffffffffffffffffffffffffffffffffffff166301ffc9a77e9ce20b000000000000000000000000000000000000000000000000000000006040518263ffffffff1660e01b815260040161273c919061515d565b602060405180830381865afa92505050801561277657506040513d601f19601f82011682018060405250810190612773919061518a565b60015b6127b5573d805f81146127a4576040519150601f19603f3d011682016040523d82523d5f602084013e6127a9565b606091505b506001925050506128a7565b8015612896575f8273ffffffffffffffffffffffffffffffffffffffff16629ce20b6127df611686565b8a8a8a8a6040518663ffffffff1660e01b8152600401612803959493929190615207565b6020604051808303815f875af115801561281f573d5f803e3d5ffd5b505050506040513d601f19601f820116820180604052508101906128439190615273565b9050629ce20b60e01b7bffffffffffffffffffffffffffffffffffffffffffffffffffffffff1916817bffffffffffffffffffffffffffffffffffffffffffffffffffffffff19161493505050506128a7565b6001925050506128a7565b60019150505b949350505050565b5f600560065f8481526020019081526020015f2054815481106128d5576128d4613ae8565b5b905f5260205f20906006020190505f816005018054905090505f5b81811015612996575f83600501828154811061290f5761290e613ae8565b5b905f5260205f20015f9054906101000a900473ffffffffffffffffffffffffffffffffffffffff16905060045f8681526020019081526020015f205f8273ffffffffffffffffffffffffffffffffffffffff1673ffffffffffffffffffffffffffffffffffffffff1681526020019081526020015f205f90555080806001019150506128f0565b50816005015f6129a69190613274565b505050565b5f600560065f8481526020019081526020015f2054815481106129d1576129d0613ae8565b5b905f5260205f2090600602016003015f6101000a81548173ffffffffffffffffffffffffffffffffffffffff021916908373ffffffffffffffffffffffffffffffffffffffff1602179055505f60075f8473ffffffffffffffffffffffffffffffffffffffff1673ffffffffffffffffffffffffffffffffffffffff1681526020019081526020015f2090505f6001825f0180549050612a7191906149b7565b90505f825f018281548110612a8957612a88613ae8565b5b905f5260205f20015490505f836001015f8681526020019081526020015f2054905081845f018281548110612ac157612ac0613ae8565b5b905f5260205f20018190555080846001015f8481526020019081526020015f2081905550836001015f8681526020019081526020015f205f9055835f01805480612b0e57612b0d61529e565b5b600190038181905f5260205f20015f90559055505050505050565b81600560065f8481526020019081526020015f205481548110612b4f57612b4e613ae8565b5b905f5260205f2090600602016003015f6101000a81548173ffffffffffffffffffffffffffffffffffffffff021916908373ffffffffffffffffffffffffffffffffffffffff16021790555060075f8373ffffffffffffffffffffffffffffffffffffffff1673ffffffffffffffffffffffffffffffffffffffff1681526020019081526020015f205f018054905060075f8473ffffffffffffffffffffffffffffffffffffffff1673ffffffffffffffffffffffffffffffffffffffff1681526020019081526020015f206001015f8381526020019081526020015f208190555060075f8373ffffffffffffffffffffffffffffffffffffffff1673ffffffffffffffffffffffffffffffffffffffff1681526020019081526020015f205f0181908060018154018082558091505060019003905f5260205f20015f90919091909150555050565b5f80600560065f8581526020019081526020015f205481548110612cbf57612cbe613ae8565b5b905f5260205f2090600602016005018054905090505f5b81811015612d96578473ffffffffffffffffffffffffffffffffffffffff16600560065f8781526020019081526020015f205481548110612d1a57612d19613ae8565b5b905f5260205f2090600602016005018281548110612d3b57612d3a613ae8565b5b905f5260205f20015f9054906101000a900473ffffffffffffffffffffffffffffffffffffffff1673ffffffffffffffffffffffffffffffffffffffff1603612d8957600192505050612d9c565b8080600101915050612cd6565b505f9150505b92915050565b5f612dac8461325d565b15612f01578373ffffffffffffffffffffffffffffffffffffffff1663150b7a02612dd5611686565b8786866040518563ffffffff1660e01b8152600401612df794939291906152cb565b6020604051808303815f875af1925050508015612e3257506040513d601f19601f82011682018060405250810190612e2f9190615273565b60015b612eb1573d805f8114612e60576040519150601f19603f3d011682016040523d82523d5f602084013e612e65565b606091505b505f815103612ea9576040517f08c379a0000000000000000000000000000000000000000000000000000000008152600401612ea090615385565b60405180910390fd5b805181602001fd5b63150b7a0260e01b7bffffffffffffffffffffffffffffffffffffffffffffffffffffffff1916817bffffffffffffffffffffffffffffffffffffffffffffffffffffffff191614915050612f06565b600190505b949350505050565b60605f8390505f6002846002612f2491906153a3565b612f2e9190614da6565b67ffffffffffffffff811115612f4757612f4661386b565b5b6040519080825280601f01601f191660200182016040528015612f795781602001600182028036833780820191505090505b5090507f3000000000000000000000000000000000000000000000000000000000000000815f81518110612fb057612faf613ae8565b5b60200101907effffffffffffffffffffffffffffffffffffffffffffffffffffffffffffff191690815f1a9053507f78000000000000000000000000000000000000000000000000000000000000008160018151811061301357613012613ae8565b5b60200101907effffffffffffffffffffffffffffffffffffffffffffffffffffffffffffff191690815f1a9053505f600185600261305191906153a3565b61305b9190614da6565b90505b60018111156130fa577f3031323334353637383961626364656600000000000000000000000000000000600f84166010811061309d5761309c613ae8565b5b1a60f81b8282815181106130b4576130b3613ae8565b5b60200101907effffffffffffffffffffffffffffffffffffffffffffffffffffffffffffff191690815f1a905350600483901c9250806130f3906153e4565b905061305e565b505f82146131415784846040517fe22e27eb00000000000000000000000000000000000000000000000000000000815260040161313892919061540b565b60405180910390fd5b809250505092915050565b60058054905060065f835f015181526020019081526020015f2081905550600581908060018154018082558091505060019003905f5260205f2090600602015f909190919091505f820151815f015560208201518160010155604082015181600201556060820151816003015f6101000a81548173ffffffffffffffffffffffffffffffffffffffff021916908373ffffffffffffffffffffffffffffffffffffffff1602179055506080820151816004015f6101000a81548173ffffffffffffffffffffffffffffffffffffffff021916908373ffffffffffffffffffffffffffffffffffffffff16021790555060a0820151816005019080519060200190613257929190613292565b50505050565b5f80823b90505f8163ffffffff1611915050919050565b5080545f8255905f5260205f209081019061328f9190613319565b50565b828054828255905f5260205f20908101928215613308579160200282015b82811115613307578251825f6101000a81548173ffffffffffffffffffffffffffffffffffffffff021916908373ffffffffffffffffffffffffffffffffffffffff160217905550916020019190600101906132b0565b5b5090506133159190613319565b5090565b5b80821115613330575f815f90555060010161331a565b5090565b5f604051905090565b5f80fd5b5f80fd5b5f7fffffffff0000000000000000000000000000000000000000000000000000000082169050919050565b61337981613345565b8114613383575f80fd5b50565b5f8135905061339481613370565b92915050565b5f602082840312156133af576133ae61333d565b5b5f6133bc84828501613386565b91505092915050565b5f8115159050919050565b6133d9816133c5565b82525050565b5f6020820190506133f25f8301846133d0565b92915050565b5f81519050919050565b5f82825260208201905092915050565b5f5b8381101561342f578082015181840152602081019050613414565b5f8484015250505050565b5f601f19601f8301169050919050565b5f613454826133f8565b61345e8185613402565b935061346e818560208601613412565b6134778161343a565b840191505092915050565b5f6020820190508181035f83015261349a818461344a565b905092915050565b5f819050919050565b6134b4816134a2565b81146134be575f80fd5b50565b5f813590506134cf816134ab565b92915050565b5f602082840312156134ea576134e961333d565b5b5f6134f7848285016134c1565b91505092915050565b5f73ffffffffffffffffffffffffffffffffffffffff82169050919050565b5f61352982613500565b9050919050565b6135398161351f565b82525050565b5f6020820190506135525f830184613530565b92915050565b6135618161351f565b811461356b575f80fd5b50565b5f8135905061357c81613558565b92915050565b5f80604083850312156135985761359761333d565b5b5f6135a58582860161356e565b92505060206135b6858286016134c1565b9150509250929050565b5f805f606084860312156135d7576135d661333d565b5b5f6135e4868287016134c1565b93505060206135f58682870161356e565b9250506040613606868287016134c1565b9150509250925092565b613619816134a2565b82525050565b5f6020820190506136325f830184613610565b92915050565b5f805f6060848603121561364f5761364e61333d565b5b5f61365c8682870161356e565b935050602061366d868287016134c1565b925050604061367e868287016134c1565b9150509250925092565b5f805f6060848603121561369f5761369e61333d565b5b5f6136ac8682870161356e565b93505060206136bd8682870161356e565b92505060406136ce868287016134c1565b9150509250925092565b5f805f606084860312156136ef576136ee61333d565b5b5f6136fc868287016134c1565b935050602061370d868287016134c1565b925050604061371e868287016134c1565b9150509250925092565b5f60ff82169050919050565b61373d81613728565b82525050565b5f6020820190506137565f830184613734565b92915050565b5f602082840312156137715761377061333d565b5b5f61377e8482850161356e565b91505092915050565b5f819050919050565b5f6137aa6137a56137a084613500565b613787565b613500565b9050919050565b5f6137bb82613790565b9050919050565b5f6137cc826137b1565b9050919050565b6137dc816137c2565b82525050565b5f6020820190506137f55f8301846137d3565b92915050565b613804816133c5565b811461380e575f80fd5b50565b5f8135905061381f816137fb565b92915050565b5f806040838503121561383b5761383a61333d565b5b5f6138488582860161356e565b925050602061385985828601613811565b9150509250929050565b5f80fd5b5f80fd5b7f4e487b71000000000000000000000000000000000000000000000000000000005f52604160045260245ffd5b6138a18261343a565b810181811067ffffffffffffffff821117156138c0576138bf61386b565b5b80604052505050565b5f6138d2613334565b90506138de8282613898565b919050565b5f67ffffffffffffffff8211156138fd576138fc61386b565b5b6139068261343a565b9050602081019050919050565b828183375f83830152505050565b5f61393361392e846138e3565b6138c9565b90508281526020810184848401111561394f5761394e613867565b5b61395a848285613913565b509392505050565b5f82601f83011261397657613975613863565b5b8135613986848260208601613921565b91505092915050565b5f805f80608085870312156139a7576139a661333d565b5b5f6139b48782880161356e565b94505060206139c58782880161356e565b93505060406139d6878288016134c1565b925050606085013567ffffffffffffffff8111156139f7576139f6613341565b5b613a0387828801613962565b91505092959194509250565b5f8060408385031215613a2557613a2461333d565b5b5f613a32858286016134c1565b9250506020613a438582860161356e565b9150509250929050565b5f8060408385031215613a6357613a6261333d565b5b5f613a708582860161356e565b9250506020613a818582860161356e565b9150509250929050565b7f4e487b71000000000000000000000000000000000000000000000000000000005f52602260045260245ffd5b5f6002820490506001821680613acf57607f821691505b602082108103613ae257613ae1613a8b565b5b50919050565b7f4e487b71000000000000000000000000000000000000000000000000000000005f52603260045260245ffd5b7f455243333532353a20617070726f76616c20746f2063757272656e74206f776e5f8201527f6572000000000000000000000000000000000000000000000000000000000000602082015250565b5f613b6f602283613402565b9150613b7a82613b15565b604082019050919050565b5f6020820190508181035f830152613b9c81613b63565b9050919050565b7f455243333532353a20617070726f76652063616c6c6572206973206e6f74206f5f8201527f776e6572206e6f7220617070726f76656420666f7220616c6c00000000000000602082015250565b5f613bfd603983613402565b9150613c0882613ba3565b604082019050919050565b5f6020820190508181035f830152613c2a81613bf1565b9050919050565b5f81905092915050565b5f613c45826133f8565b613c4f8185613c31565b9350613c5f818560208601613412565b80840191505092915050565b7f736c6f742f0000000000000000000000000000000000000000000000000000005f82015250565b5f613c9f600583613c31565b9150613caa82613c6b565b600582019050919050565b5f613cc08285613c3b565b9150613ccb82613c93565b9150613cd78284613c3b565b91508190509392505050565b5f67ffffffffffffffff821115613cfd57613cfc61386b565b5b613d068261343a565b9050602081019050919050565b5f613d25613d2084613ce3565b6138c9565b905082815260208101848484011115613d4157613d40613867565b5b613d4c848285613412565b509392505050565b5f82601f830112613d6857613d67613863565b5b8151613d78848260208601613d13565b91505092915050565b5f60208284031215613d9657613d9561333d565b5b5f82015167ffffffffffffffff811115613db357613db2613341565b5b613dbf84828501613d54565b91505092915050565b7f4552433335323547657474696e67537461727465643a206f6e6c79206f776e655f8201527f722063616e206d696e7400000000000000000000000000000000000000000000602082015250565b5f613e22602a83613402565b9150613e2d82613dc8565b604082019050919050565b5f6020820190508181035f830152613e4f81613e16565b9050919050565b7f455243333532353a207472616e736665722063616c6c6572206973206e6f74205f8201527f6f776e6572206e6f7220617070726f7665640000000000000000000000000000602082015250565b5f613eb0603283613402565b9150613ebb82613e56565b604082019050919050565b5f6020820190508181035f830152613edd81613ea4565b9050919050565b7f455243333532353a206f776e657220696e646578206f7574206f6620626f756e5f8201527f6473000000000000000000000000000000000000000000000000000000000000602082015250565b5f613f3e602283613402565b9150613f4982613ee4565b604082019050919050565b5f6020820190508181035f830152613f6b81613f32565b9050919050565b7f455243333532353a20676c6f62616c20696e646578206f7574206f6620626f755f8201527f6e64730000000000000000000000000000000000000000000000000000000000602082015250565b5f613fcc602383613402565b9150613fd782613f72565b604082019050919050565b5f6020820190508181035f830152613ff981613fc0565b9050919050565b7f455243333532353a20696e76616c696420746f6b656e204944000000000000005f82015250565b5f614034601983613402565b915061403f82614000565b602082019050919050565b5f6020820190508181035f83015261406181614028565b9050919050565b7f455243333532353a2062616c616e636520717565727920666f7220746865207a5f8201527f65726f2061646472657373000000000000000000000000000000000000000000602082015250565b5f6140c2602b83613402565b91506140cd82614068565b604082019050919050565b5f6020820190508181035f8301526140ef816140b6565b9050919050565b7f455243333532353a20617070726f76652063616c6c6572206973206e6f74206f5f8201527f776e6572206e6f7220617070726f766564000000000000000000000000000000602082015250565b5f614150603183613402565b915061415b826140f6565b604082019050919050565b5f6020820190508181035f83015261417d81614144565b9050919050565b7f3c7376672077696474683d2236303022206865696768743d223630302220786d5f8201527f6c6e733d22687474703a2f2f7777772e77332e6f72672f323030302f7376672260208201527f3e00000000000000000000000000000000000000000000000000000000000000604082015250565b5f614204604183613c31565b915061420f82614184565b604182019050919050565b7f203c673e203c7469746c653e4c6179657220313c2f7469746c653e00000000005f82015250565b5f61424e601b83613c31565b91506142598261421a565b601b82019050919050565b7f20203c726563742069643d227376675f3122206865696768743d2236303022205f8201527f77696474683d223630302220793d22302220783d223022207374726f6b653d2260208201527f23303030222066696c6c3d2223303030303030222f3e00000000000000000000604082015250565b5f6142e4605683613c31565b91506142ef82614264565b605682019050919050565b7f20203c7465787420786d6c3a73706163653d22707265736572766522207465785f8201527f742d616e63686f723d2273746172742220666f6e742d66616d696c793d224e6f60208201527f746f2053616e73204a502220666f6e742d73697a653d223234222069643d227360408201527f76675f322220793d223334302220783d2232303022207374726f6b652d77696460608201527f74683d223022207374726f6b653d2223303030222066696c6c3d22236666666660808201527f6666223e546f6b6549643a20000000000000000000000000000000000000000060a082015250565b5f6143ec60ac83613c31565b91506143f7826142fa565b60ac82019050919050565b7f3c2f746578743e000000000000000000000000000000000000000000000000005f82015250565b5f614436600783613c31565b915061444182614402565b600782019050919050565b7f20203c7465787420786d6c3a73706163653d22707265736572766522207465785f8201527f742d616e63686f723d2273746172742220666f6e742d66616d696c793d224e6f60208201527f746f2053616e73204a502220666f6e742d73697a653d223234222069643d227360408201527f76675f332220793d223431302220783d2232303022207374726f6b652d77696460608201527f74683d223022207374726f6b653d2223303030222066696c6c3d22236666666660808201527f6666223e42616c616e63653a200000000000000000000000000000000000000060a082015250565b5f61453e60ad83613c31565b91506145498261444c565b60ad82019050919050565b7f20203c7465787420786d6c3a73706163653d22707265736572766522207465785f8201527f742d616e63686f723d2273746172742220666f6e742d66616d696c793d224e6f60208201527f746f2053616e73204a502220666f6e742d73697a653d223234222069643d227360408201527f76675f332220793d223237302220783d2232303022207374726f6b652d77696460608201527f74683d223022207374726f6b653d2223303030222066696c6c3d22236666666660808201527f6666223e536c6f743a200000000000000000000000000000000000000000000060a082015250565b5f61464660aa83613c31565b915061465182614554565b60aa82019050919050565b7f20203c7465787420786d6c3a73706163653d22707265736572766522207465785f8201527f742d616e63686f723d2273746172742220666f6e742d66616d696c793d224e6f60208201527f746f2053616e73204a502220666f6e742d73697a653d223234222069643d227360408201527f76675f342220793d223136302220783d2231353022207374726f6b652d77696460608201527f74683d223022207374726f6b653d2223303030222066696c6c3d22236666666660808201527f6666223e455243333235322047455454494e4720535441525445443c2f74657860a08201527f743e00000000000000000000000000000000000000000000000000000000000060c082015250565b5f61477460c283613c31565b915061477f8261465c565b60c282019050919050565b7f203c2f673e203c2f7376673e00000000000000000000000000000000000000005f82015250565b5f6147be600c83613c31565b91506147c98261478a565b600c82019050919050565b5f6147de826141f8565b91506147e982614242565b91506147f4826142d8565b91506147ff826143e0565b915061480b8286613c3b565b91506148168261442a565b915061482182614532565b915061482d8285613c3b565b91506148388261442a565b91506148438261463a565b915061484f8284613c3b565b915061485a8261442a565b915061486582614768565b9150614870826147b2565b9150819050949350505050565b7f636f6e74726163742f00000000000000000000000000000000000000000000005f82015250565b5f6148b1600983613c31565b91506148bc8261487d565b600982019050919050565b5f6148d28285613c3b565b91506148dd826148a5565b91506148e98284613c3b565b91508190509392505050565b7f4e487b71000000000000000000000000000000000000000000000000000000005f52601260045260245ffd5b7f455243333532353a20696e73756666696369656e7420616c6c6f77616e6365005f82015250565b5f614956601f83613402565b915061496182614922565b602082019050919050565b5f6020820190508181035f8301526149838161494a565b9050919050565b7f4e487b71000000000000000000000000000000000000000000000000000000005f52601160045260245ffd5b5f6149c1826134a2565b91506149cc836134a2565b92508282039050818111156149e4576149e361498a565b5b92915050565b7f455243333532353a206d696e7420746f20746865207a65726f206164647265735f8201527f7300000000000000000000000000000000000000000000000000000000000000602082015250565b5f614a44602183613402565b9150614a4f826149ea565b604082019050919050565b5f6020820190508181035f830152614a7181614a38565b9050919050565b7f455243333532353a2063616e6e6f74206d696e74207a65726f20746f6b656e495f8201527f6400000000000000000000000000000000000000000000000000000000000000602082015250565b5f614ad2602183613402565b9150614add82614a78565b604082019050919050565b5f6020820190508181035f830152614aff81614ac6565b9050919050565b7f455243333532353a20746f6b656e20616c7265616479206d696e7465640000005f82015250565b5f614b3a601d83613402565b9150614b4582614b06565b602082019050919050565b5f6020820190508181035f830152614b6781614b2e565b9050919050565b7f455243333532353a207472616e736665722066726f6d20696e76616c696420745f8201527f6f6b656e20494400000000000000000000000000000000000000000000000000602082015250565b5f614bc8602783613402565b9150614bd382614b6e565b604082019050919050565b5f6020820190508181035f830152614bf581614bbc565b9050919050565b7f455243333532353a207472616e7366657220746f20696e76616c696420746f6b5f8201527f656e204944000000000000000000000000000000000000000000000000000000602082015250565b5f614c56602583613402565b9150614c6182614bfc565b604082019050919050565b5f6020820190508181035f830152614c8381614c4a565b9050919050565b7f455243333532353a20696e73756666696369656e742062616c616e636520666f5f8201527f72207472616e7366657200000000000000000000000000000000000000000000602082015250565b5f614ce4602a83613402565b9150614cef82614c8a565b604082019050919050565b5f6020820190508181035f830152614d1181614cd8565b9050919050565b7f455243333532353a207472616e7366657220746f20746f6b656e2077697468205f8201527f646966666572656e7420736c6f74000000000000000000000000000000000000602082015250565b5f614d72602e83613402565b9150614d7d82614d18565b604082019050919050565b5f6020820190508181035f830152614d9f81614d66565b9050919050565b5f614db0826134a2565b9150614dbb836134a2565b9250828201905080821115614dd357614dd261498a565b5b92915050565b7f455243333532353a207472616e736665722072656a65637465642062792045525f8201527f4333353235526563656976657200000000000000000000000000000000000000602082015250565b5f614e33602d83613402565b9150614e3e82614dd9565b604082019050919050565b5f6020820190508181035f830152614e6081614e27565b9050919050565b7f455243333532353a207472616e736665722066726f6d20696e76616c6964206f5f8201527f776e657200000000000000000000000000000000000000000000000000000000602082015250565b5f614ec1602483613402565b9150614ecc82614e67565b604082019050919050565b5f6020820190508181035f830152614eee81614eb5565b9050919050565b7f455243333532353a207472616e7366657220746f20746865207a65726f2061645f8201527f6472657373000000000000000000000000000000000000000000000000000000602082015250565b5f614f4f602583613402565b9150614f5a82614ef5565b604082019050919050565b5f6020820190508181035f830152614f7c81614f43565b9050919050565b7f455243333532353a20617070726f76652076616c756520746f20746865207a655f8201527f726f206164647265737300000000000000000000000000000000000000000000602082015250565b5f614fdd602a83613402565b9150614fe882614f83565b604082019050919050565b5f6020820190508181035f83015261500a81614fd1565b9050919050565b7f455243333532353a20617070726f766520746f2063616c6c65720000000000005f82015250565b5f615045601a83613402565b915061505082615011565b602082019050919050565b5f6020820190508181035f83015261507281615039565b9050919050565b7f455243333532353a207472616e7366657220746f206e6f6e20455243373231525f8201527f6563656976657200000000000000000000000000000000000000000000000000602082015250565b5f6150d3602783613402565b91506150de82615079565b604082019050919050565b5f6020820190508181035f830152615100816150c7565b9050919050565b5f615111826134a2565b91507fffffffffffffffffffffffffffffffffffffffffffffffffffffffffffffffff82036151435761514261498a565b5b600182019050919050565b61515781613345565b82525050565b5f6020820190506151705f83018461514e565b92915050565b5f81519050615184816137fb565b92915050565b5f6020828403121561519f5761519e61333d565b5b5f6151ac84828501615176565b91505092915050565b5f81519050919050565b5f82825260208201905092915050565b5f6151d9826151b5565b6151e381856151bf565b93506151f3818560208601613412565b6151fc8161343a565b840191505092915050565b5f60a08201905061521a5f830188613530565b6152276020830187613610565b6152346040830186613610565b6152416060830185613610565b818103608083015261525381846151cf565b90509695505050505050565b5f8151905061526d81613370565b92915050565b5f602082840312156152885761528761333d565b5b5f6152958482850161525f565b91505092915050565b7f4e487b71000000000000000000000000000000000000000000000000000000005f52603160045260245ffd5b5f6080820190506152de5f830187613530565b6152eb6020830186613530565b6152f86040830185613610565b818103606083015261530a81846151cf565b905095945050505050565b7f4552433732313a207472616e7366657220746f206e6f6e2045524337323152655f8201527f63656976657220696d706c656d656e7465720000000000000000000000000000602082015250565b5f61536f603283613402565b915061537a82615315565b604082019050919050565b5f6020820190508181035f83015261539c81615363565b9050919050565b5f6153ad826134a2565b91506153b8836134a2565b92508282026153c6816134a2565b915082820484148315176153dd576153dc61498a565b5b5092915050565b5f6153ee826134a2565b91505f8203615400576153ff61498a565b5b600182039050919050565b5f60408201905061541e5f830185613610565b61542b6020830184613610565b939250505056fea2646970667358221220b711b02a9de0159dcf476cc2978fe0370ac95fbe6facbb209e24ff91f3d5409d64736f6c63430008170033",
			"opcodes": "PUSH1 0x80 PUSH1 0x40 MSTORE CALLVALUE DUP1 ISZERO PUSH3 0x10 JUMPI PUSH0 DUP1 REVERT JUMPDEST POP PUSH1 0x40 MLOAD PUSH3 0x5986 CODESIZE SUB DUP1 PUSH3 0x5986 DUP4 CODECOPY DUP2 DUP2 ADD PUSH1 0x40 MSTORE DUP2 ADD SWAP1 PUSH3 0x36 SWAP2 SWAP1 PUSH3 0x198 JUMP JUMPDEST PUSH1 0x40 MLOAD DUP1 PUSH1 0x40 ADD PUSH1 0x40 MSTORE DUP1 PUSH1 0x15 DUP2 MSTORE PUSH1 0x20 ADD PUSH32 0x4552433335323547657474696E67537461727465640000000000000000000000 DUP2 MSTORE POP PUSH1 0x40 MLOAD DUP1 PUSH1 0x40 ADD PUSH1 0x40 MSTORE DUP1 PUSH1 0x9 DUP2 MSTORE PUSH1 0x20 ADD PUSH32 0x4552433335323547530000000000000000000000000000000000000000000000 DUP2 MSTORE POP PUSH1 0x12 PUSH1 0x1 PUSH1 0x3 DUP2 SWAP1 SSTORE POP DUP3 PUSH0 SWAP1 DUP2 PUSH3 0xBC SWAP2 SWAP1 PUSH3 0x42C JUMP JUMPDEST POP DUP2 PUSH1 0x1 SWAP1 DUP2 PUSH3 0xCE SWAP2 SWAP1 PUSH3 0x42C JUMP JUMPDEST POP DUP1 PUSH1 0x2 PUSH0 PUSH2 0x100 EXP DUP2 SLOAD DUP2 PUSH1 0xFF MUL NOT AND SWAP1 DUP4 PUSH1 0xFF AND MUL OR SWAP1 SSTORE POP POP POP POP DUP1 PUSH1 0x9 PUSH0 PUSH2 0x100 EXP DUP2 SLOAD DUP2 PUSH20 0xFFFFFFFFFFFFFFFFFFFFFFFFFFFFFFFFFFFFFFFF MUL NOT AND SWAP1 DUP4 PUSH20 0xFFFFFFFFFFFFFFFFFFFFFFFFFFFFFFFFFFFFFFFF AND MUL OR SWAP1 SSTORE POP POP PUSH3 0x510 JUMP JUMPDEST PUSH0 DUP1 REVERT JUMPDEST PUSH0 PUSH20 0xFFFFFFFFFFFFFFFFFFFFFFFFFFFFFFFFFFFFFFFF DUP3 AND SWAP1 POP SWAP2 SWAP1 POP JUMP JUMPDEST PUSH0 PUSH3 0x162 DUP3 PUSH3 0x137 JUMP JUMPDEST SWAP1 POP SWAP2 SWAP1 POP JUMP JUMPDEST PUSH3 0x174 DUP2 PUSH3 0x156 JUMP JUMPDEST DUP2 EQ PUSH3 0x17F JUMPI PUSH0 DUP1 REVERT JUMPDEST POP JUMP JUMPDEST PUSH0 DUP2 MLOAD SWAP1 POP PUSH3 0x192 DUP2 PUSH3 0x169 JUMP JUMPDEST SWAP3 SWAP2 POP POP JUMP JUMPDEST PUSH0 PUSH1 0x20 DUP3 DUP5 SUB SLT ISZERO PUSH3 0x1B0 JUMPI PUSH3 0x1AF PUSH3 0x133 JUMP JUMPDEST JUMPDEST PUSH0 PUSH3 0x1BF DUP5 DUP3 DUP6 ADD PUSH3 0x182 JUMP JUMPDEST SWAP2 POP POP SWAP3 SWAP2 POP POP JUMP JUMPDEST PUSH0 DUP2 MLOAD SWAP1 POP SWAP2 SWAP1 POP JUMP JUMPDEST PUSH32 0x4E487B7100000000000000000000000000000000000000000000000000000000 PUSH0 MSTORE PUSH1 0x41 PUSH1 0x4 MSTORE PUSH1 0x24 PUSH0 REVERT JUMPDEST PUSH32 0x4E487B7100000000000000000000000000000000000000000000000000000000 PUSH0 MSTORE PUSH1 0x22 PUSH1 0x4 MSTORE PUSH1 0x24 PUSH0 REVERT JUMPDEST PUSH0 PUSH1 0x2 DUP3 DIV SWAP1 POP PUSH1 0x1 DUP3 AND DUP1 PUSH3 0x244 JUMPI PUSH1 0x7F DUP3 AND SWAP2 POP JUMPDEST PUSH1 0x20 DUP3 LT DUP2 SUB PUSH3 0x25A JUMPI PUSH3 0x259 PUSH3 0x1FF JUMP JUMPDEST JUMPDEST POP SWAP2 SWAP1 POP JUMP JUMPDEST PUSH0 DUP2 SWAP1 POP DUP2 PUSH0 MSTORE PUSH1 0x20 PUSH0 KECCAK256 SWAP1 POP SWAP2 SWAP1 POP JUMP JUMPDEST PUSH0 PUSH1 0x20 PUSH1 0x1F DUP4 ADD DIV SWAP1 POP SWAP2 SWAP1 POP JUMP JUMPDEST PUSH0 DUP3 DUP3 SHL SWAP1 POP SWAP3 SWAP2 POP POP JUMP JUMPDEST PUSH0 PUSH1 0x8 DUP4 MUL PUSH3 0x2BE PUSH32 0xFFFFFFFFFFFFFFFFFFFFFFFFFFFFFFFFFFFFFFFFFFFFFFFFFFFFFFFFFFFFFFFF DUP3 PUSH3 0x281 JUMP JUMPDEST PUSH3 0x2CA DUP7 DUP4 PUSH3 0x281 JUMP JUMPDEST SWAP6 POP DUP1 NOT DUP5 AND SWAP4 POP DUP1 DUP7 AND DUP5 OR SWAP3 POP POP POP SWAP4 SWAP3 POP POP POP JUMP JUMPDEST PUSH0 DUP2 SWAP1 POP SWAP2 SWAP1 POP JUMP JUMPDEST PUSH0 DUP2 SWAP1 POP SWAP2 SWAP1 POP JUMP JUMPDEST PUSH0 PUSH3 0x314 PUSH3 0x30E PUSH3 0x308 DUP5 PUSH3 0x2E2 JUMP JUMPDEST PUSH3 0x2EB JUMP JUMPDEST PUSH3 0x2E2 JUMP JUMPDEST SWAP1 POP SWAP2 SWAP1 POP JUMP JUMPDEST PUSH0 DUP2 SWAP1 POP SWAP2 SWAP1 POP JUMP JUMPDEST PUSH3 0x32F DUP4 PUSH3 0x2F4 JUMP JUMPDEST PUSH3 0x347 PUSH3 0x33E DUP3 PUSH3 0x31B JUMP JUMPDEST DUP5 DUP5 SLOAD PUSH3 0x28D JUMP JUMPDEST DUP3 SSTORE POP POP POP POP JUMP JUMPDEST PUSH0 SWAP1 JUMP JUMPDEST PUSH3 0x35D PUSH3 0x34F JUMP JUMPDEST PUSH3 0x36A DUP2 DUP5 DUP5 PUSH3 0x324 JUMP JUMPDEST POP POP POP JUMP JUMPDEST JUMPDEST DUP2 DUP2 LT ISZERO PUSH3 0x391 JUMPI PUSH3 0x385 PUSH0 DUP3 PUSH3 0x353 JUMP JUMPDEST PUSH1 0x1 DUP2 ADD SWAP1 POP PUSH3 0x370 JUMP JUMPDEST POP POP JUMP JUMPDEST PUSH1 0x1F DUP3 GT ISZERO PUSH3 0x3E0 JUMPI PUSH3 0x3AA DUP2 PUSH3 0x260 JUMP JUMPDEST PUSH3 0x3B5 DUP5 PUSH3 0x272 JUMP JUMPDEST DUP2 ADD PUSH1 0x20 DUP6 LT ISZERO PUSH3 0x3C5 JUMPI DUP2 SWAP1 POP JUMPDEST PUSH3 0x3DD PUSH3 0x3D4 DUP6 PUSH3 0x272 JUMP JUMPDEST DUP4 ADD DUP3 PUSH3 0x36F JUMP JUMPDEST POP POP JUMPDEST POP POP POP JUMP JUMPDEST PUSH0 DUP3 DUP3 SHR SWAP1 POP SWAP3 SWAP2 POP POP JUMP JUMPDEST PUSH0 PUSH3 0x402 PUSH0 NOT DUP5 PUSH1 0x8 MUL PUSH3 0x3E5 JUMP JUMPDEST NOT DUP1 DUP4 AND SWAP2 POP POP SWAP3 SWAP2 POP POP JUMP JUMPDEST PUSH0 PUSH3 0x41C DUP4 DUP4 PUSH3 0x3F1 JUMP JUMPDEST SWAP2 POP DUP3 PUSH1 0x2 MUL DUP3 OR SWAP1 POP SWAP3 SWAP2 POP POP JUMP JUMPDEST PUSH3 0x437 DUP3 PUSH3 0x1C8 JUMP JUMPDEST PUSH8 0xFFFFFFFFFFFFFFFF DUP2 GT ISZERO PUSH3 0x453 JUMPI PUSH3 0x452 PUSH3 0x1D2 JUMP JUMPDEST JUMPDEST PUSH3 0x45F DUP3 SLOAD PUSH3 0x22C JUMP JUMPDEST PUSH3 0x46C DUP3 DUP3 DUP6 PUSH3 0x395 JUMP JUMPDEST PUSH0 PUSH1 0x20 SWAP1 POP PUSH1 0x1F DUP4 GT PUSH1 0x1 DUP2 EQ PUSH3 0x4A2 JUMPI PUSH0 DUP5 ISZERO PUSH3 0x48D JUMPI DUP3 DUP8 ADD MLOAD SWAP1 POP JUMPDEST PUSH3 0x499 DUP6 DUP3 PUSH3 0x40F JUMP JUMPDEST DUP7 SSTORE POP PUSH3 0x508 JUMP JUMPDEST PUSH1 0x1F NOT DUP5 AND PUSH3 0x4B2 DUP7 PUSH3 0x260 JUMP JUMPDEST PUSH0 JUMPDEST DUP3 DUP2 LT ISZERO PUSH3 0x4DB JUMPI DUP5 DUP10 ADD MLOAD DUP3 SSTORE PUSH1 0x1 DUP3 ADD SWAP2 POP PUSH1 0x20 DUP6 ADD SWAP5 POP PUSH1 0x20 DUP2 ADD SWAP1 POP PUSH3 0x4B4 JUMP JUMPDEST DUP7 DUP4 LT ISZERO PUSH3 0x4FB JUMPI DUP5 DUP10 ADD MLOAD PUSH3 0x4F7 PUSH1 0x1F DUP10 AND DUP3 PUSH3 0x3F1 JUMP JUMPDEST DUP4 SSTORE POP JUMPDEST PUSH1 0x1 PUSH1 0x2 DUP9 MUL ADD DUP9 SSTORE POP POP POP JUMPDEST POP POP POP POP POP POP JUMP JUMPDEST PUSH2 0x5468 DUP1 PUSH3 0x51E PUSH0 CODECOPY PUSH0 RETURN INVALID PUSH1 0x80 PUSH1 0x40 MSTORE PUSH1 0x4 CALLDATASIZE LT PUSH2 0x1B6 JUMPI PUSH0 CALLDATALOAD PUSH1 0xE0 SHR DUP1 PUSH4 0x4F6CCCE7 GT PUSH2 0xEB JUMPI DUP1 PUSH4 0x9CC7F708 GT PUSH2 0x89 JUMPI DUP1 PUSH4 0xC87B56DD GT PUSH2 0x63 JUMPI DUP1 PUSH4 0xC87B56DD EQ PUSH2 0x5FA JUMPI DUP1 PUSH4 0xE345E0BC EQ PUSH2 0x636 JUMPI DUP1 PUSH4 0xE8A3D485 EQ PUSH2 0x672 JUMPI DUP1 PUSH4 0xE985E9C5 EQ PUSH2 0x69C JUMPI PUSH2 0x1B6 JUMP JUMPDEST DUP1 PUSH4 0x9CC7F708 EQ PUSH2 0x57A JUMPI DUP1 PUSH4 0xA22CB465 EQ PUSH2 0x5B6 JUMPI DUP1 PUSH4 0xB88D4FDE EQ PUSH2 0x5DE JUMPI PUSH2 0x1B6 JUMP JUMPDEST DUP1 PUSH4 0x840F7113 GT PUSH2 0xC5 JUMPI DUP1 PUSH4 0x840F7113 EQ PUSH2 0x4E0 JUMPI DUP1 PUSH4 0x8CB0A511 EQ PUSH2 0x50A JUMPI DUP1 PUSH4 0x8DA5CB5B EQ PUSH2 0x526 JUMPI DUP1 PUSH4 0x95D89B41 EQ PUSH2 0x550 JUMPI PUSH2 0x1B6 JUMP JUMPDEST DUP1 PUSH4 0x4F6CCCE7 EQ PUSH2 0x42C JUMPI DUP1 PUSH4 0x6352211E EQ PUSH2 0x468 JUMPI DUP1 PUSH4 0x70A08231 EQ PUSH2 0x4A4 JUMPI PUSH2 0x1B6 JUMP JUMPDEST DUP1 PUSH4 0x18160DDD GT PUSH2 0x158 JUMPI DUP1 PUSH4 0x2F745C59 GT PUSH2 0x132 JUMPI DUP1 PUSH4 0x2F745C59 EQ PUSH2 0x38E JUMPI DUP1 PUSH4 0x310ED7F0 EQ PUSH2 0x3CA JUMPI DUP1 PUSH4 0x3E7E8669 EQ PUSH2 0x3E6 JUMPI DUP1 PUSH4 0x42842E0E EQ PUSH2 0x410 JUMPI PUSH2 0x1B6 JUMP JUMPDEST DUP1 PUSH4 0x18160DDD EQ PUSH2 0x30C JUMPI DUP1 PUSH4 0x23B872DD EQ PUSH2 0x336 JUMPI DUP1 PUSH4 0x263F3E7E EQ PUSH2 0x352 JUMPI PUSH2 0x1B6 JUMP JUMPDEST DUP1 PUSH4 0x95EA7B3 GT PUSH2 0x194 JUMPI DUP1 PUSH4 0x95EA7B3 EQ PUSH2 0x25C JUMPI DUP1 PUSH4 0x9C3DD87 EQ PUSH2 0x278 JUMPI DUP1 PUSH4 0xF485C02 EQ PUSH2 0x2B4 JUMPI DUP1 PUSH4 0x156E29F6 EQ PUSH2 0x2E4 JUMPI PUSH2 0x1B6 JUMP JUMPDEST DUP1 PUSH4 0x1FFC9A7 EQ PUSH2 0x1BA JUMPI DUP1 PUSH4 0x6FDDE03 EQ PUSH2 0x1F6 JUMPI DUP1 PUSH4 0x81812FC EQ PUSH2 0x220 JUMPI JUMPDEST PUSH0 DUP1 REVERT JUMPDEST CALLVALUE DUP1 ISZERO PUSH2 0x1C5 JUMPI PUSH0 DUP1 REVERT JUMPDEST POP PUSH2 0x1E0 PUSH1 0x4 DUP1 CALLDATASIZE SUB DUP2 ADD SWAP1 PUSH2 0x1DB SWAP2 SWAP1 PUSH2 0x339A JUMP JUMPDEST PUSH2 0x6D8 JUMP JUMPDEST PUSH1 0x40 MLOAD PUSH2 0x1ED SWAP2 SWAP1 PUSH2 0x33DF JUMP JUMPDEST PUSH1 0x40 MLOAD DUP1 SWAP2 SUB SWAP1 RETURN JUMPDEST CALLVALUE DUP1 ISZERO PUSH2 0x201 JUMPI PUSH0 DUP1 REVERT JUMPDEST POP PUSH2 0x20A PUSH2 0x949 JUMP JUMPDEST PUSH1 0x40 MLOAD PUSH2 0x217 SWAP2 SWAP1 PUSH2 0x3482 JUMP JUMPDEST PUSH1 0x40 MLOAD DUP1 SWAP2 SUB SWAP1 RETURN JUMPDEST CALLVALUE DUP1 ISZERO PUSH2 0x22B JUMPI PUSH0 DUP1 REVERT JUMPDEST POP PUSH2 0x246 PUSH1 0x4 DUP1 CALLDATASIZE SUB DUP2 ADD SWAP1 PUSH2 0x241 SWAP2 SWAP1 PUSH2 0x34D5 JUMP JUMPDEST PUSH2 0x9D8 JUMP JUMPDEST PUSH1 0x40 MLOAD PUSH2 0x253 SWAP2 SWAP1 PUSH2 0x353F JUMP JUMPDEST PUSH1 0x40 MLOAD DUP1 SWAP2 SUB SWAP1 RETURN JUMPDEST PUSH2 0x276 PUSH1 0x4 DUP1 CALLDATASIZE SUB DUP2 ADD SWAP1 PUSH2 0x271 SWAP2 SWAP1 PUSH2 0x3582 JUMP JUMPDEST PUSH2 0xA3D JUMP JUMPDEST STOP JUMPDEST CALLVALUE DUP1 ISZERO PUSH2 0x283 JUMPI PUSH0 DUP1 REVERT JUMPDEST POP PUSH2 0x29E PUSH1 0x4 DUP1 CALLDATASIZE SUB DUP2 ADD SWAP1 PUSH2 0x299 SWAP2 SWAP1 PUSH2 0x34D5 JUMP JUMPDEST PUSH2 0xB53 JUMP JUMPDEST PUSH1 0x40 MLOAD PUSH2 0x2AB SWAP2 SWAP1 PUSH2 0x3482 JUMP JUMPDEST PUSH1 0x40 MLOAD DUP1 SWAP2 SUB SWAP1 RETURN JUMPDEST PUSH2 0x2CE PUSH1 0x4 DUP1 CALLDATASIZE SUB DUP2 ADD SWAP1 PUSH2 0x2C9 SWAP2 SWAP1 PUSH2 0x35C0 JUMP JUMPDEST PUSH2 0xCA5 JUMP JUMPDEST PUSH1 0x40 MLOAD PUSH2 0x2DB SWAP2 SWAP1 PUSH2 0x361F JUMP JUMPDEST PUSH1 0x40 MLOAD DUP1 SWAP2 SUB SWAP1 RETURN JUMPDEST CALLVALUE DUP1 ISZERO PUSH2 0x2EF JUMPI PUSH0 DUP1 REVERT JUMPDEST POP PUSH2 0x30A PUSH1 0x4 DUP1 CALLDATASIZE SUB DUP2 ADD SWAP1 PUSH2 0x305 SWAP2 SWAP1 PUSH2 0x3638 JUMP JUMPDEST PUSH2 0xCE9 JUMP JUMPDEST STOP JUMPDEST CALLVALUE DUP1 ISZERO PUSH2 0x317 JUMPI PUSH0 DUP1 REVERT JUMPDEST POP PUSH2 0x320 PUSH2 0xD89 JUMP JUMPDEST PUSH1 0x40 MLOAD PUSH2 0x32D SWAP2 SWAP1 PUSH2 0x361F JUMP JUMPDEST PUSH1 0x40 MLOAD DUP1 SWAP2 SUB SWAP1 RETURN JUMPDEST PUSH2 0x350 PUSH1 0x4 DUP1 CALLDATASIZE SUB DUP2 ADD SWAP1 PUSH2 0x34B SWAP2 SWAP1 PUSH2 0x3688 JUMP JUMPDEST PUSH2 0xD95 JUMP JUMPDEST STOP JUMPDEST CALLVALUE DUP1 ISZERO PUSH2 0x35D JUMPI PUSH0 DUP1 REVERT JUMPDEST POP PUSH2 0x378 PUSH1 0x4 DUP1 CALLDATASIZE SUB DUP2 ADD SWAP1 PUSH2 0x373 SWAP2 SWAP1 PUSH2 0x34D5 JUMP JUMPDEST PUSH2 0xDF5 JUMP JUMPDEST PUSH1 0x40 MLOAD PUSH2 0x385 SWAP2 SWAP1 PUSH2 0x361F JUMP JUMPDEST PUSH1 0x40 MLOAD DUP1 SWAP2 SUB SWAP1 RETURN JUMPDEST CALLVALUE DUP1 ISZERO PUSH2 0x399 JUMPI PUSH0 DUP1 REVERT JUMPDEST POP PUSH2 0x3B4 PUSH1 0x4 DUP1 CALLDATASIZE SUB DUP2 ADD SWAP1 PUSH2 0x3AF SWAP2 SWAP1 PUSH2 0x3582 JUMP JUMPDEST PUSH2 0xE3B JUMP JUMPDEST PUSH1 0x40 MLOAD PUSH2 0x3C1 SWAP2 SWAP1 PUSH2 0x361F JUMP JUMPDEST PUSH1 0x40 MLOAD DUP1 SWAP2 SUB SWAP1 RETURN JUMPDEST PUSH2 0x3E4 PUSH1 0x4 DUP1 CALLDATASIZE SUB DUP2 ADD SWAP1 PUSH2 0x3DF SWAP2 SWAP1 PUSH2 0x36D8 JUMP JUMPDEST PUSH2 0xEE8 JUMP JUMPDEST STOP JUMPDEST CALLVALUE DUP1 ISZERO PUSH2 0x3F1 JUMPI PUSH0 DUP1 REVERT JUMPDEST POP PUSH2 0x3FA PUSH2 0xF0A JUMP JUMPDEST PUSH1 0x40 MLOAD PUSH2 0x407 SWAP2 SWAP1 PUSH2 0x3743 JUMP JUMPDEST PUSH1 0x40 MLOAD DUP1 SWAP2 SUB SWAP1 RETURN JUMPDEST PUSH2 0x42A PUSH1 0x4 DUP1 CALLDATASIZE SUB DUP2 ADD SWAP1 PUSH2 0x425 SWAP2 SWAP1 PUSH2 0x3688 JUMP JUMPDEST PUSH2 0xF1F JUMP JUMPDEST STOP JUMPDEST CALLVALUE DUP1 ISZERO PUSH2 0x437 JUMPI PUSH0 DUP1 REVERT JUMPDEST POP PUSH2 0x452 PUSH1 0x4 DUP1 CALLDATASIZE SUB DUP2 ADD SWAP1 PUSH2 0x44D SWAP2 SWAP1 PUSH2 0x34D5 JUMP JUMPDEST PUSH2 0xF3E JUMP JUMPDEST PUSH1 0x40 MLOAD PUSH2 0x45F SWAP2 SWAP1 PUSH2 0x361F JUMP JUMPDEST PUSH1 0x40 MLOAD DUP1 SWAP2 SUB SWAP1 RETURN JUMPDEST CALLVALUE DUP1 ISZERO PUSH2 0x473 JUMPI PUSH0 DUP1 REVERT JUMPDEST POP PUSH2 0x48E PUSH1 0x4 DUP1 CALLDATASIZE SUB DUP2 ADD SWAP1 PUSH2 0x489 SWAP2 SWAP1 PUSH2 0x34D5 JUMP JUMPDEST PUSH2 0xFB2 JUMP JUMPDEST PUSH1 0x40 MLOAD PUSH2 0x49B SWAP2 SWAP1 PUSH2 0x353F JUMP JUMPDEST PUSH1 0x40 MLOAD DUP1 SWAP2 SUB SWAP1 RETURN JUMPDEST CALLVALUE DUP1 ISZERO PUSH2 0x4AF JUMPI PUSH0 DUP1 REVERT JUMPDEST POP PUSH2 0x4CA PUSH1 0x4 DUP1 CALLDATASIZE SUB DUP2 ADD SWAP1 PUSH2 0x4C5 SWAP2 SWAP1 PUSH2 0x375C JUMP JUMPDEST PUSH2 0x1085 JUMP JUMPDEST PUSH1 0x40 MLOAD PUSH2 0x4D7 SWAP2 SWAP1 PUSH2 0x361F JUMP JUMPDEST PUSH1 0x40 MLOAD DUP1 SWAP2 SUB SWAP1 RETURN JUMPDEST CALLVALUE DUP1 ISZERO PUSH2 0x4EB JUMPI PUSH0 DUP1 REVERT JUMPDEST POP PUSH2 0x4F4 PUSH2 0x113E JUMP JUMPDEST PUSH1 0x40 MLOAD PUSH2 0x501 SWAP2 SWAP1 PUSH2 0x37E2 JUMP JUMPDEST PUSH1 0x40 MLOAD DUP1 SWAP2 SUB SWAP1 RETURN JUMPDEST PUSH2 0x524 PUSH1 0x4 DUP1 CALLDATASIZE SUB DUP2 ADD SWAP1 PUSH2 0x51F SWAP2 SWAP1 PUSH2 0x35C0 JUMP JUMPDEST PUSH2 0x1163 JUMP JUMPDEST STOP JUMPDEST CALLVALUE DUP1 ISZERO PUSH2 0x531 JUMPI PUSH0 DUP1 REVERT JUMPDEST POP PUSH2 0x53A PUSH2 0x123E JUMP JUMPDEST PUSH1 0x40 MLOAD PUSH2 0x547 SWAP2 SWAP1 PUSH2 0x353F JUMP JUMPDEST PUSH1 0x40 MLOAD DUP1 SWAP2 SUB SWAP1 RETURN JUMPDEST CALLVALUE DUP1 ISZERO PUSH2 0x55B JUMPI PUSH0 DUP1 REVERT JUMPDEST POP PUSH2 0x564 PUSH2 0x1263 JUMP JUMPDEST PUSH1 0x40 MLOAD PUSH2 0x571 SWAP2 SWAP1 PUSH2 0x3482 JUMP JUMPDEST PUSH1 0x40 MLOAD DUP1 SWAP2 SUB SWAP1 RETURN JUMPDEST CALLVALUE DUP1 ISZERO PUSH2 0x585 JUMPI PUSH0 DUP1 REVERT JUMPDEST POP PUSH2 0x5A0 PUSH1 0x4 DUP1 CALLDATASIZE SUB DUP2 ADD SWAP1 PUSH2 0x59B SWAP2 SWAP1 PUSH2 0x34D5 JUMP JUMPDEST PUSH2 0x12F3 JUMP JUMPDEST PUSH1 0x40 MLOAD PUSH2 0x5AD SWAP2 SWAP1 PUSH2 0x361F JUMP JUMPDEST PUSH1 0x40 MLOAD DUP1 SWAP2 SUB SWAP1 RETURN JUMPDEST CALLVALUE DUP1 ISZERO PUSH2 0x5C1 JUMPI PUSH0 DUP1 REVERT JUMPDEST POP PUSH2 0x5DC PUSH1 0x4 DUP1 CALLDATASIZE SUB DUP2 ADD SWAP1 PUSH2 0x5D7 SWAP2 SWAP1 PUSH2 0x3825 JUMP JUMPDEST PUSH2 0x1339 JUMP JUMPDEST STOP JUMPDEST PUSH2 0x5F8 PUSH1 0x4 DUP1 CALLDATASIZE SUB DUP2 ADD SWAP1 PUSH2 0x5F3 SWAP2 SWAP1 PUSH2 0x398F JUMP JUMPDEST PUSH2 0x134F JUMP JUMPDEST STOP JUMPDEST CALLVALUE DUP1 ISZERO PUSH2 0x605 JUMPI PUSH0 DUP1 REVERT JUMPDEST POP PUSH2 0x620 PUSH1 0x4 DUP1 CALLDATASIZE SUB DUP2 ADD SWAP1 PUSH2 0x61B SWAP2 SWAP1 PUSH2 0x34D5 JUMP JUMPDEST PUSH2 0x13B1 JUMP JUMPDEST PUSH1 0x40 MLOAD PUSH2 0x62D SWAP2 SWAP1 PUSH2 0x3482 JUMP JUMPDEST PUSH1 0x40 MLOAD DUP1 SWAP2 SUB SWAP1 RETURN JUMPDEST CALLVALUE DUP1 ISZERO PUSH2 0x641 JUMPI PUSH0 DUP1 REVERT JUMPDEST POP PUSH2 0x65C PUSH1 0x4 DUP1 CALLDATASIZE SUB DUP2 ADD SWAP1 PUSH2 0x657 SWAP2 SWAP1 PUSH2 0x3A0F JUMP JUMPDEST PUSH2 0x1406 JUMP JUMPDEST PUSH1 0x40 MLOAD PUSH2 0x669 SWAP2 SWAP1 PUSH2 0x361F JUMP JUMPDEST PUSH1 0x40 MLOAD DUP1 SWAP2 SUB SWAP1 RETURN JUMPDEST CALLVALUE DUP1 ISZERO PUSH2 0x67D JUMPI PUSH0 DUP1 REVERT JUMPDEST POP PUSH2 0x686 PUSH2 0x1465 JUMP JUMPDEST PUSH1 0x40 MLOAD PUSH2 0x693 SWAP2 SWAP1 PUSH2 0x3482 JUMP JUMPDEST PUSH1 0x40 MLOAD DUP1 SWAP2 SUB SWAP1 RETURN JUMPDEST CALLVALUE DUP1 ISZERO PUSH2 0x6A7 JUMPI PUSH0 DUP1 REVERT JUMPDEST POP PUSH2 0x6C2 PUSH1 0x4 DUP1 CALLDATASIZE SUB DUP2 ADD SWAP1 PUSH2 0x6BD SWAP2 SWAP1 PUSH2 0x3A4D JUMP JUMPDEST PUSH2 0x15AA JUMP JUMPDEST PUSH1 0x40 MLOAD PUSH2 0x6CF SWAP2 SWAP1 PUSH2 0x33DF JUMP JUMPDEST PUSH1 0x40 MLOAD DUP1 SWAP2 SUB SWAP1 RETURN JUMPDEST PUSH0 PUSH32 0x1FFC9A700000000000000000000000000000000000000000000000000000000 PUSH28 0xFFFFFFFFFFFFFFFFFFFFFFFFFFFFFFFFFFFFFFFFFFFFFFFFFFFFFFFF NOT AND DUP3 PUSH28 0xFFFFFFFFFFFFFFFFFFFFFFFFFFFFFFFFFFFFFFFFFFFFFFFFFFFFFFFF NOT AND EQ DUP1 PUSH2 0x7A2 JUMPI POP PUSH32 0xD535814000000000000000000000000000000000000000000000000000000000 PUSH28 0xFFFFFFFFFFFFFFFFFFFFFFFFFFFFFFFFFFFFFFFFFFFFFFFFFFFFFFFF NOT AND DUP3 PUSH28 0xFFFFFFFFFFFFFFFFFFFFFFFFFFFFFFFFFFFFFFFFFFFFFFFFFFFFFFFF NOT AND EQ JUMPDEST DUP1 PUSH2 0x80A JUMPI POP PUSH32 0x80AC58CD00000000000000000000000000000000000000000000000000000000 PUSH28 0xFFFFFFFFFFFFFFFFFFFFFFFFFFFFFFFFFFFFFFFFFFFFFFFFFFFFFFFF NOT AND DUP3 PUSH28 0xFFFFFFFFFFFFFFFFFFFFFFFFFFFFFFFFFFFFFFFFFFFFFFFFFFFFFFFF NOT AND EQ JUMPDEST DUP1 PUSH2 0x872 JUMPI POP PUSH32 0xE160090200000000000000000000000000000000000000000000000000000000 PUSH28 0xFFFFFFFFFFFFFFFFFFFFFFFFFFFFFFFFFFFFFFFFFFFFFFFFFFFFFFFF NOT AND DUP3 PUSH28 0xFFFFFFFFFFFFFFFFFFFFFFFFFFFFFFFFFFFFFFFFFFFFFFFFFFFFFFFF NOT AND EQ JUMPDEST DUP1 PUSH2 0x8DA JUMPI POP PUSH32 0x780E9D6300000000000000000000000000000000000000000000000000000000 PUSH28 0xFFFFFFFFFFFFFFFFFFFFFFFFFFFFFFFFFFFFFFFFFFFFFFFFFFFFFFFF NOT AND DUP3 PUSH28 0xFFFFFFFFFFFFFFFFFFFFFFFFFFFFFFFFFFFFFFFFFFFFFFFFFFFFFFFF NOT AND EQ JUMPDEST DUP1 PUSH2 0x942 JUMPI POP PUSH32 0x5B5E139F00000000000000000000000000000000000000000000000000000000 PUSH28 0xFFFFFFFFFFFFFFFFFFFFFFFFFFFFFFFFFFFFFFFFFFFFFFFFFFFFFFFF NOT AND DUP3 PUSH28 0xFFFFFFFFFFFFFFFFFFFFFFFFFFFFFFFFFFFFFFFFFFFFFFFFFFFFFFFF NOT AND EQ JUMPDEST SWAP1 POP SWAP2 SWAP1 POP JUMP JUMPDEST PUSH1 0x60 PUSH0 DUP1 SLOAD PUSH2 0x957 SWAP1 PUSH2 0x3AB8 JUMP JUMPDEST DUP1 PUSH1 0x1F ADD PUSH1 0x20 DUP1 SWAP2 DIV MUL PUSH1 0x20 ADD PUSH1 0x40 MLOAD SWAP1 DUP2 ADD PUSH1 0x40 MSTORE DUP1 SWAP3 SWAP2 SWAP1 DUP2 DUP2 MSTORE PUSH1 0x20 ADD DUP3 DUP1 SLOAD PUSH2 0x983 SWAP1 PUSH2 0x3AB8 JUMP JUMPDEST DUP1 ISZERO PUSH2 0x9CE JUMPI DUP1 PUSH1 0x1F LT PUSH2 0x9A5 JUMPI PUSH2 0x100 DUP1 DUP4 SLOAD DIV MUL DUP4 MSTORE SWAP2 PUSH1 0x20 ADD SWAP2 PUSH2 0x9CE JUMP JUMPDEST DUP3 ADD SWAP2 SWAP1 PUSH0 MSTORE PUSH1 0x20 PUSH0 KECCAK256 SWAP1 JUMPDEST DUP2 SLOAD DUP2 MSTORE SWAP1 PUSH1 0x1 ADD SWAP1 PUSH1 0x20 ADD DUP1 DUP4 GT PUSH2 0x9B1 JUMPI DUP3 SWAP1 SUB PUSH1 0x1F AND DUP3 ADD SWAP2 JUMPDEST POP POP POP POP POP SWAP1 POP SWAP1 JUMP JUMPDEST PUSH0 PUSH2 0x9E2 DUP3 PUSH2 0x163B JUMP JUMPDEST PUSH1 0x5 PUSH1 0x6 PUSH0 DUP5 DUP2 MSTORE PUSH1 0x20 ADD SWAP1 DUP2 MSTORE PUSH1 0x20 ADD PUSH0 KECCAK256 SLOAD DUP2 SLOAD DUP2 LT PUSH2 0xA07 JUMPI PUSH2 0xA06 PUSH2 0x3AE8 JUMP JUMPDEST JUMPDEST SWAP1 PUSH0 MSTORE PUSH1 0x20 PUSH0 KECCAK256 SWAP1 PUSH1 0x6 MUL ADD PUSH1 0x4 ADD PUSH0 SWAP1 SLOAD SWAP1 PUSH2 0x100 EXP SWAP1 DIV PUSH20 0xFFFFFFFFFFFFFFFFFFFFFFFFFFFFFFFFFFFFFFFF AND SWAP1 POP SWAP2 SWAP1 POP JUMP JUMPDEST PUSH0 PUSH2 0xA47 DUP3 PUSH2 0xFB2 JUMP JUMPDEST SWAP1 POP DUP1 PUSH20 0xFFFFFFFFFFFFFFFFFFFFFFFFFFFFFFFFFFFFFFFF AND DUP4 PUSH20 0xFFFFFFFFFFFFFFFFFFFFFFFFFFFFFFFFFFFFFFFF AND SUB PUSH2 0xAB7 JUMPI PUSH1 0x40 MLOAD PUSH32 0x8C379A000000000000000000000000000000000000000000000000000000000 DUP2 MSTORE PUSH1 0x4 ADD PUSH2 0xAAE SWAP1 PUSH2 0x3B85 JUMP JUMPDEST PUSH1 0x40 MLOAD DUP1 SWAP2 SUB SWAP1 REVERT JUMPDEST DUP1 PUSH20 0xFFFFFFFFFFFFFFFFFFFFFFFFFFFFFFFFFFFFFFFF AND PUSH2 0xAD6 PUSH2 0x1686 JUMP JUMPDEST PUSH20 0xFFFFFFFFFFFFFFFFFFFFFFFFFFFFFFFFFFFFFFFF AND EQ DUP1 PUSH2 0xB05 JUMPI POP PUSH2 0xB04 DUP2 PUSH2 0xAFF PUSH2 0x1686 JUMP JUMPDEST PUSH2 0x15AA JUMP JUMPDEST JUMPDEST PUSH2 0xB44 JUMPI PUSH1 0x40 MLOAD PUSH32 0x8C379A000000000000000000000000000000000000000000000000000000000 DUP2 MSTORE PUSH1 0x4 ADD PUSH2 0xB3B SWAP1 PUSH2 0x3C13 JUMP JUMPDEST PUSH1 0x40 MLOAD DUP1 SWAP2 SUB SWAP1 REVERT JUMPDEST PUSH2 0xB4E DUP4 DUP4 PUSH2 0x168D JUMP JUMPDEST POP POP POP JUMP JUMPDEST PUSH1 0x60 PUSH0 PUSH2 0xB5E PUSH2 0x1766 JUMP JUMPDEST SWAP1 POP PUSH0 PUSH20 0xFFFFFFFFFFFFFFFFFFFFFFFFFFFFFFFFFFFFFFFF AND PUSH1 0x8 PUSH0 SWAP1 SLOAD SWAP1 PUSH2 0x100 EXP SWAP1 DIV PUSH20 0xFFFFFFFFFFFFFFFFFFFFFFFFFFFFFFFFFFFFFFFF AND PUSH20 0xFFFFFFFFFFFFFFFFFFFFFFFFFFFFFFFFFFFFFFFF AND SUB PUSH2 0xC00 JUMPI PUSH0 DUP2 MLOAD GT PUSH2 0xBD0 JUMPI PUSH1 0x40 MLOAD DUP1 PUSH1 0x20 ADD PUSH1 0x40 MSTORE DUP1 PUSH0 DUP2 MSTORE POP PUSH2 0xBFB JUMP JUMPDEST DUP1 PUSH2 0xBDA DUP5 PUSH2 0x177C JUMP JUMPDEST PUSH1 0x40 MLOAD PUSH1 0x20 ADD PUSH2 0xBEB SWAP3 SWAP2 SWAP1 PUSH2 0x3CB5 JUMP JUMPDEST PUSH1 0x40 MLOAD PUSH1 0x20 DUP2 DUP4 SUB SUB DUP2 MSTORE SWAP1 PUSH1 0x40 MSTORE JUMPDEST PUSH2 0xC9D JUMP JUMPDEST PUSH1 0x8 PUSH0 SWAP1 SLOAD SWAP1 PUSH2 0x100 EXP SWAP1 DIV PUSH20 0xFFFFFFFFFFFFFFFFFFFFFFFFFFFFFFFFFFFFFFFF AND PUSH20 0xFFFFFFFFFFFFFFFFFFFFFFFFFFFFFFFFFFFFFFFF AND PUSH4 0x6C037F8A DUP5 PUSH1 0x40 MLOAD DUP3 PUSH4 0xFFFFFFFF AND PUSH1 0xE0 SHL DUP2 MSTORE PUSH1 0x4 ADD PUSH2 0xC5A SWAP2 SWAP1 PUSH2 0x361F JUMP JUMPDEST PUSH0 PUSH1 0x40 MLOAD DUP1 DUP4 SUB DUP2 DUP7 GAS STATICCALL ISZERO DUP1 ISZERO PUSH2 0xC74 JUMPI RETURNDATASIZE PUSH0 DUP1 RETURNDATACOPY RETURNDATASIZE PUSH0 REVERT JUMPDEST POP POP POP POP PUSH1 0x40 MLOAD RETURNDATASIZE PUSH0 DUP3 RETURNDATACOPY RETURNDATASIZE PUSH1 0x1F NOT PUSH1 0x1F DUP3 ADD AND DUP3 ADD DUP1 PUSH1 0x40 MSTORE POP DUP2 ADD SWAP1 PUSH2 0xC9C SWAP2 SWAP1 PUSH2 0x3D81 JUMP JUMPDEST JUMPDEST SWAP2 POP POP SWAP2 SWAP1 POP JUMP JUMPDEST PUSH0 PUSH2 0xCB8 PUSH2 0xCB1 PUSH2 0x1686 JUMP JUMPDEST DUP6 DUP5 PUSH2 0x1846 JUMP JUMPDEST PUSH2 0xCC1 DUP5 PUSH2 0x18EF JUMP JUMPDEST SWAP1 POP PUSH2 0xCD7 DUP4 DUP3 PUSH2 0xCD1 DUP8 PUSH2 0xDF5 JUMP JUMPDEST PUSH0 PUSH2 0x18FF JUMP JUMPDEST PUSH2 0xCE2 DUP5 DUP3 DUP5 PUSH2 0x1A2F JUMP JUMPDEST SWAP4 SWAP3 POP POP POP JUMP JUMPDEST PUSH1 0x9 PUSH0 SWAP1 SLOAD SWAP1 PUSH2 0x100 EXP SWAP1 DIV PUSH20 0xFFFFFFFFFFFFFFFFFFFFFFFFFFFFFFFFFFFFFFFF AND PUSH20 0xFFFFFFFFFFFFFFFFFFFFFFFFFFFFFFFFFFFFFFFF AND CALLER PUSH20 0xFFFFFFFFFFFFFFFFFFFFFFFFFFFFFFFFFFFFFFFF AND EQ PUSH2 0xD78 JUMPI PUSH1 0x40 MLOAD PUSH32 0x8C379A000000000000000000000000000000000000000000000000000000000 DUP2 MSTORE PUSH1 0x4 ADD PUSH2 0xD6F SWAP1 PUSH2 0x3E38 JUMP JUMPDEST PUSH1 0x40 MLOAD DUP1 SWAP2 SUB SWAP1 REVERT JUMPDEST PUSH2 0xD83 DUP4 DUP4 DUP4 PUSH2 0x1D35 JUMP JUMPDEST POP POP POP POP JUMP JUMPDEST PUSH0 PUSH1 0x5 DUP1 SLOAD SWAP1 POP SWAP1 POP SWAP1 JUMP JUMPDEST PUSH2 0xDA6 PUSH2 0xDA0 PUSH2 0x1686 JUMP JUMPDEST DUP3 PUSH2 0x1D53 JUMP JUMPDEST PUSH2 0xDE5 JUMPI PUSH1 0x40 MLOAD PUSH32 0x8C379A000000000000000000000000000000000000000000000000000000000 DUP2 MSTORE PUSH1 0x4 ADD PUSH2 0xDDC SWAP1 PUSH2 0x3EC6 JUMP JUMPDEST PUSH1 0x40 MLOAD DUP1 SWAP2 SUB SWAP1 REVERT JUMPDEST PUSH2 0xDF0 DUP4 DUP4 DUP4 PUSH2 0x1DE7 JUMP JUMPDEST POP POP POP JUMP JUMPDEST PUSH0 PUSH2 0xDFF DUP3 PUSH2 0x163B JUMP JUMPDEST PUSH1 0x5 PUSH1 0x6 PUSH0 DUP5 DUP2 MSTORE PUSH1 0x20 ADD SWAP1 DUP2 MSTORE PUSH1 0x20 ADD PUSH0 KECCAK256 SLOAD DUP2 SLOAD DUP2 LT PUSH2 0xE24 JUMPI PUSH2 0xE23 PUSH2 0x3AE8 JUMP JUMPDEST JUMPDEST SWAP1 PUSH0 MSTORE PUSH1 0x20 PUSH0 KECCAK256 SWAP1 PUSH1 0x6 MUL ADD PUSH1 0x1 ADD SLOAD SWAP1 POP SWAP2 SWAP1 POP JUMP JUMPDEST PUSH0 PUSH2 0xE45 DUP4 PUSH2 0x1085 JUMP JUMPDEST DUP3 LT PUSH2 0xE86 JUMPI PUSH1 0x40 MLOAD PUSH32 0x8C379A000000000000000000000000000000000000000000000000000000000 DUP2 MSTORE PUSH1 0x4 ADD PUSH2 0xE7D SWAP1 PUSH2 0x3F54 JUMP JUMPDEST PUSH1 0x40 MLOAD DUP1 SWAP2 SUB SWAP1 REVERT JUMPDEST PUSH1 0x7 PUSH0 DUP5 PUSH20 0xFFFFFFFFFFFFFFFFFFFFFFFFFFFFFFFFFFFFFFFF AND PUSH20 0xFFFFFFFFFFFFFFFFFFFFFFFFFFFFFFFFFFFFFFFF AND DUP2 MSTORE PUSH1 0x20 ADD SWAP1 DUP2 MSTORE PUSH1 0x20 ADD PUSH0 KECCAK256 PUSH0 ADD DUP3 DUP2 SLOAD DUP2 LT PUSH2 0xED7 JUMPI PUSH2 0xED6 PUSH2 0x3AE8 JUMP JUMPDEST JUMPDEST SWAP1 PUSH0 MSTORE PUSH1 0x20 PUSH0 KECCAK256 ADD SLOAD SWAP1 POP SWAP3 SWAP2 POP POP JUMP JUMPDEST PUSH2 0xEFA PUSH2 0xEF3 PUSH2 0x1686 JUMP JUMPDEST DUP5 DUP4 PUSH2 0x1846 JUMP JUMPDEST PUSH2 0xF05 DUP4 DUP4 DUP4 PUSH2 0x1A2F JUMP JUMPDEST POP POP POP JUMP JUMPDEST PUSH0 PUSH1 0x2 PUSH0 SWAP1 SLOAD SWAP1 PUSH2 0x100 EXP SWAP1 DIV PUSH1 0xFF AND SWAP1 POP SWAP1 JUMP JUMPDEST PUSH2 0xF39 DUP4 DUP4 DUP4 PUSH1 0x40 MLOAD DUP1 PUSH1 0x20 ADD PUSH1 0x40 MSTORE DUP1 PUSH0 DUP2 MSTORE POP PUSH2 0x134F JUMP JUMPDEST POP POP POP JUMP JUMPDEST PUSH0 PUSH2 0xF47 PUSH2 0xD89 JUMP JUMPDEST DUP3 LT PUSH2 0xF88 JUMPI PUSH1 0x40 MLOAD PUSH32 0x8C379A000000000000000000000000000000000000000000000000000000000 DUP2 MSTORE PUSH1 0x4 ADD PUSH2 0xF7F SWAP1 PUSH2 0x3FE2 JUMP JUMPDEST PUSH1 0x40 MLOAD DUP1 SWAP2 SUB SWAP1 REVERT JUMPDEST PUSH1 0x5 DUP3 DUP2 SLOAD DUP2 LT PUSH2 0xF9C JUMPI PUSH2 0xF9B PUSH2 0x3AE8 JUMP JUMPDEST JUMPDEST SWAP1 PUSH0 MSTORE PUSH1 0x20 PUSH0 KECCAK256 SWAP1 PUSH1 0x6 MUL ADD PUSH0 ADD SLOAD SWAP1 POP SWAP2 SWAP1 POP JUMP JUMPDEST PUSH0 PUSH2 0xFBC DUP3 PUSH2 0x163B JUMP JUMPDEST PUSH1 0x5 PUSH1 0x6 PUSH0 DUP5 DUP2 MSTORE PUSH1 0x20 ADD SWAP1 DUP2 MSTORE PUSH1 0x20 ADD PUSH0 KECCAK256 SLOAD DUP2 SLOAD DUP2 LT PUSH2 0xFE1 JUMPI PUSH2 0xFE0 PUSH2 0x3AE8 JUMP JUMPDEST JUMPDEST SWAP1 PUSH0 MSTORE PUSH1 0x20 PUSH0 KECCAK256 SWAP1 PUSH1 0x6 MUL ADD PUSH1 0x3 ADD PUSH0 SWAP1 SLOAD SWAP1 PUSH2 0x100 EXP SWAP1 DIV PUSH20 0xFFFFFFFFFFFFFFFFFFFFFFFFFFFFFFFFFFFFFFFF AND SWAP1 POP PUSH0 PUSH20 0xFFFFFFFFFFFFFFFFFFFFFFFFFFFFFFFFFFFFFFFF AND DUP2 PUSH20 0xFFFFFFFFFFFFFFFFFFFFFFFFFFFFFFFFFFFFFFFF AND SUB PUSH2 0x1080 JUMPI PUSH1 0x40 MLOAD PUSH32 0x8C379A000000000000000000000000000000000000000000000000000000000 DUP2 MSTORE PUSH1 0x4 ADD PUSH2 0x1077 SWAP1 PUSH2 0x404A JUMP JUMPDEST PUSH1 0x40 MLOAD DUP1 SWAP2 SUB SWAP1 REVERT JUMPDEST SWAP2 SWAP1 POP JUMP JUMPDEST PUSH0 DUP1 PUSH20 0xFFFFFFFFFFFFFFFFFFFFFFFFFFFFFFFFFFFFFFFF AND DUP3 PUSH20 0xFFFFFFFFFFFFFFFFFFFFFFFFFFFFFFFFFFFFFFFF AND SUB PUSH2 0x10F4 JUMPI PUSH1 0x40 MLOAD PUSH32 0x8C379A000000000000000000000000000000000000000000000000000000000 DUP2 MSTORE PUSH1 0x4 ADD PUSH2 0x10EB SWAP1 PUSH2 0x40D8 JUMP JUMPDEST PUSH1 0x40 MLOAD DUP1 SWAP2 SUB SWAP1 REVERT JUMPDEST PUSH1 0x7 PUSH0 DUP4 PUSH20 0xFFFFFFFFFFFFFFFFFFFFFFFFFFFFFFFFFFFFFFFF AND PUSH20 0xFFFFFFFFFFFFFFFFFFFFFFFFFFFFFFFFFFFFFFFF AND DUP2 MSTORE PUSH1 0x20 ADD SWAP1 DUP2 MSTORE PUSH1 0x20 ADD PUSH0 KECCAK256 PUSH0 ADD DUP1 SLOAD SWAP1 POP SWAP1 POP SWAP2 SWAP1 POP JUMP JUMPDEST PUSH1 0x8 PUSH0 SWAP1 SLOAD SWAP1 PUSH2 0x100 EXP SWAP1 DIV PUSH20 0xFFFFFFFFFFFFFFFFFFFFFFFFFFFFFFFFFFFFFFFF AND DUP2 JUMP JUMPDEST PUSH0 PUSH2 0x116D DUP5 PUSH2 0xFB2 JUMP JUMPDEST SWAP1 POP DUP1 PUSH20 0xFFFFFFFFFFFFFFFFFFFFFFFFFFFFFFFFFFFFFFFF AND DUP4 PUSH20 0xFFFFFFFFFFFFFFFFFFFFFFFFFFFFFFFFFFFFFFFF AND SUB PUSH2 0x11DD JUMPI PUSH1 0x40 MLOAD PUSH32 0x8C379A000000000000000000000000000000000000000000000000000000000 DUP2 MSTORE PUSH1 0x4 ADD PUSH2 0x11D4 SWAP1 PUSH2 0x3B85 JUMP JUMPDEST PUSH1 0x40 MLOAD DUP1 SWAP2 SUB SWAP1 REVERT JUMPDEST PUSH2 0x11EE PUSH2 0x11E8 PUSH2 0x1686 JUMP JUMPDEST DUP6 PUSH2 0x1D53 JUMP JUMPDEST PUSH2 0x122D JUMPI PUSH1 0x40 MLOAD PUSH32 0x8C379A000000000000000000000000000000000000000000000000000000000 DUP2 MSTORE PUSH1 0x4 ADD PUSH2 0x1224 SWAP1 PUSH2 0x4166 JUMP JUMPDEST PUSH1 0x40 MLOAD DUP1 SWAP2 SUB SWAP1 REVERT JUMPDEST PUSH2 0x1238 DUP5 DUP5 DUP5 PUSH2 0x1F88 JUMP JUMPDEST POP POP POP POP JUMP JUMPDEST PUSH1 0x9 PUSH0 SWAP1 SLOAD SWAP1 PUSH2 0x100 EXP SWAP1 DIV PUSH20 0xFFFFFFFFFFFFFFFFFFFFFFFFFFFFFFFFFFFFFFFF AND DUP2 JUMP JUMPDEST PUSH1 0x60 PUSH1 0x1 DUP1 SLOAD PUSH2 0x1272 SWAP1 PUSH2 0x3AB8 JUMP JUMPDEST DUP1 PUSH1 0x1F ADD PUSH1 0x20 DUP1 SWAP2 DIV MUL PUSH1 0x20 ADD PUSH1 0x40 MLOAD SWAP1 DUP2 ADD PUSH1 0x40 MSTORE DUP1 SWAP3 SWAP2 SWAP1 DUP2 DUP2 MSTORE PUSH1 0x20 ADD DUP3 DUP1 SLOAD PUSH2 0x129E SWAP1 PUSH2 0x3AB8 JUMP JUMPDEST DUP1 ISZERO PUSH2 0x12E9 JUMPI DUP1 PUSH1 0x1F LT PUSH2 0x12C0 JUMPI PUSH2 0x100 DUP1 DUP4 SLOAD DIV MUL DUP4 MSTORE SWAP2 PUSH1 0x20 ADD SWAP2 PUSH2 0x12E9 JUMP JUMPDEST DUP3 ADD SWAP2 SWAP1 PUSH0 MSTORE PUSH1 0x20 PUSH0 KECCAK256 SWAP1 JUMPDEST DUP2 SLOAD DUP2 MSTORE SWAP1 PUSH1 0x1 ADD SWAP1 PUSH1 0x20 ADD DUP1 DUP4 GT PUSH2 0x12CC JUMPI DUP3 SWAP1 SUB PUSH1 0x1F AND DUP3 ADD SWAP2 JUMPDEST POP POP POP POP POP SWAP1 POP SWAP1 JUMP JUMPDEST PUSH0 PUSH2 0x12FD DUP3 PUSH2 0x163B JUMP JUMPDEST PUSH1 0x5 PUSH1 0x6 PUSH0 DUP5 DUP2 MSTORE PUSH1 0x20 ADD SWAP1 DUP2 MSTORE PUSH1 0x20 ADD PUSH0 KECCAK256 SLOAD DUP2 SLOAD DUP2 LT PUSH2 0x1322 JUMPI PUSH2 0x1321 PUSH2 0x3AE8 JUMP JUMPDEST JUMPDEST SWAP1 PUSH0 MSTORE PUSH1 0x20 PUSH0 KECCAK256 SWAP1 PUSH1 0x6 MUL ADD PUSH1 0x2 ADD SLOAD SWAP1 POP SWAP2 SWAP1 POP JUMP JUMPDEST PUSH2 0x134B PUSH2 0x1344 PUSH2 0x1686 JUMP JUMPDEST DUP4 DUP4 PUSH2 0x213C JUMP JUMPDEST POP POP JUMP JUMPDEST PUSH2 0x1360 PUSH2 0x135A PUSH2 0x1686 JUMP JUMPDEST DUP4 PUSH2 0x1D53 JUMP JUMPDEST PUSH2 0x139F JUMPI PUSH1 0x40 MLOAD PUSH32 0x8C379A000000000000000000000000000000000000000000000000000000000 DUP2 MSTORE PUSH1 0x4 ADD PUSH2 0x1396 SWAP1 PUSH2 0x3EC6 JUMP JUMPDEST PUSH1 0x40 MLOAD DUP1 SWAP2 SUB SWAP1 REVERT JUMPDEST PUSH2 0x13AB DUP5 DUP5 DUP5 DUP5 PUSH2 0x22A6 JUMP JUMPDEST POP POP POP POP JUMP JUMPDEST PUSH1 0x60 PUSH2 0x13BC DUP3 PUSH2 0x177C JUMP JUMPDEST PUSH2 0x13CD PUSH2 0x13C8 DUP5 PUSH2 0x12F3 JUMP JUMPDEST PUSH2 0x177C JUMP JUMPDEST PUSH2 0x13DE PUSH2 0x13D9 DUP6 PUSH2 0xDF5 JUMP JUMPDEST PUSH2 0x177C JUMP JUMPDEST PUSH1 0x40 MLOAD PUSH1 0x20 ADD PUSH2 0x13F0 SWAP4 SWAP3 SWAP2 SWAP1 PUSH2 0x47D4 JUMP JUMPDEST PUSH1 0x40 MLOAD PUSH1 0x20 DUP2 DUP4 SUB SUB DUP2 MSTORE SWAP1 PUSH1 0x40 MSTORE SWAP1 POP SWAP2 SWAP1 POP JUMP JUMPDEST PUSH0 PUSH2 0x1410 DUP4 PUSH2 0x163B JUMP JUMPDEST PUSH1 0x4 PUSH0 DUP5 DUP2 MSTORE PUSH1 0x20 ADD SWAP1 DUP2 MSTORE PUSH1 0x20 ADD PUSH0 KECCAK256 PUSH0 DUP4 PUSH20 0xFFFFFFFFFFFFFFFFFFFFFFFFFFFFFFFFFFFFFFFF AND PUSH20 0xFFFFFFFFFFFFFFFFFFFFFFFFFFFFFFFFFFFFFFFF AND DUP2 MSTORE PUSH1 0x20 ADD SWAP1 DUP2 MSTORE PUSH1 0x20 ADD PUSH0 KECCAK256 SLOAD SWAP1 POP SWAP3 SWAP2 POP POP JUMP JUMPDEST PUSH1 0x60 PUSH0 PUSH2 0x1470 PUSH2 0x1766 JUMP JUMPDEST SWAP1 POP PUSH0 PUSH20 0xFFFFFFFFFFFFFFFFFFFFFFFFFFFFFFFFFFFFFFFF AND PUSH1 0x8 PUSH0 SWAP1 SLOAD SWAP1 PUSH2 0x100 EXP SWAP1 DIV PUSH20 0xFFFFFFFFFFFFFFFFFFFFFFFFFFFFFFFFFFFFFFFF AND PUSH20 0xFFFFFFFFFFFFFFFFFFFFFFFFFFFFFFFFFFFFFFFF AND SUB PUSH2 0x1512 JUMPI PUSH0 DUP2 MLOAD GT PUSH2 0x14E2 JUMPI PUSH1 0x40 MLOAD DUP1 PUSH1 0x20 ADD PUSH1 0x40 MSTORE DUP1 PUSH0 DUP2 MSTORE POP PUSH2 0x150D JUMP JUMPDEST DUP1 PUSH2 0x14EC ADDRESS PUSH2 0x2302 JUMP JUMPDEST PUSH1 0x40 MLOAD PUSH1 0x20 ADD PUSH2 0x14FD SWAP3 SWAP2 SWAP1 PUSH2 0x48C7 JUMP JUMPDEST PUSH1 0x40 MLOAD PUSH1 0x20 DUP2 DUP4 SUB SUB DUP2 MSTORE SWAP1 PUSH1 0x40 MSTORE JUMPDEST PUSH2 0x15A4 JUMP JUMPDEST PUSH1 0x8 PUSH0 SWAP1 SLOAD SWAP1 PUSH2 0x100 EXP SWAP1 DIV PUSH20 0xFFFFFFFFFFFFFFFFFFFFFFFFFFFFFFFFFFFFFFFF AND PUSH20 0xFFFFFFFFFFFFFFFFFFFFFFFFFFFFFFFFFFFFFFFF AND PUSH4 0x725FA09C PUSH1 0x40 MLOAD DUP2 PUSH4 0xFFFFFFFF AND PUSH1 0xE0 SHL DUP2 MSTORE PUSH1 0x4 ADD PUSH0 PUSH1 0x40 MLOAD DUP1 DUP4 SUB DUP2 DUP7 GAS STATICCALL ISZERO DUP1 ISZERO PUSH2 0x157B JUMPI RETURNDATASIZE PUSH0 DUP1 RETURNDATACOPY RETURNDATASIZE PUSH0 REVERT JUMPDEST POP POP POP POP PUSH1 0x40 MLOAD RETURNDATASIZE PUSH0 DUP3 RETURNDATACOPY RETURNDATASIZE PUSH1 0x1F NOT PUSH1 0x1F DUP3 ADD AND DUP3 ADD DUP1 PUSH1 0x40 MSTORE POP DUP2 ADD SWAP1 PUSH2 0x15A3 SWAP2 SWAP1 PUSH2 0x3D81 JUMP JUMPDEST JUMPDEST SWAP2 POP POP SWAP1 JUMP JUMPDEST PUSH0 PUSH1 0x7 PUSH0 DUP5 PUSH20 0xFFFFFFFFFFFFFFFFFFFFFFFFFFFFFFFFFFFFFFFF AND PUSH20 0xFFFFFFFFFFFFFFFFFFFFFFFFFFFFFFFFFFFFFFFF AND DUP2 MSTORE PUSH1 0x20 ADD SWAP1 DUP2 MSTORE PUSH1 0x20 ADD PUSH0 KECCAK256 PUSH1 0x2 ADD PUSH0 DUP4 PUSH20 0xFFFFFFFFFFFFFFFFFFFFFFFFFFFFFFFFFFFFFFFF AND PUSH20 0xFFFFFFFFFFFFFFFFFFFFFFFFFFFFFFFFFFFFFFFF AND DUP2 MSTORE PUSH1 0x20 ADD SWAP1 DUP2 MSTORE PUSH1 0x20 ADD PUSH0 KECCAK256 PUSH0 SWAP1 SLOAD SWAP1 PUSH2 0x100 EXP SWAP1 DIV PUSH1 0xFF AND SWAP1 POP SWAP3 SWAP2 POP POP JUMP JUMPDEST PUSH2 0x1644 DUP2 PUSH2 0x232F JUMP JUMPDEST PUSH2 0x1683 JUMPI PUSH1 0x40 MLOAD PUSH32 0x8C379A000000000000000000000000000000000000000000000000000000000 DUP2 MSTORE PUSH1 0x4 ADD PUSH2 0x167A SWAP1 PUSH2 0x404A JUMP JUMPDEST PUSH1 0x40 MLOAD DUP1 SWAP2 SUB SWAP1 REVERT JUMPDEST POP JUMP JUMPDEST PUSH0 CALLER SWAP1 POP SWAP1 JUMP JUMPDEST DUP2 PUSH1 0x5 PUSH1 0x6 PUSH0 DUP5 DUP2 MSTORE PUSH1 0x20 ADD SWAP1 DUP2 MSTORE PUSH1 0x20 ADD PUSH0 KECCAK256 SLOAD DUP2 SLOAD DUP2 LT PUSH2 0x16B3 JUMPI PUSH2 0x16B2 PUSH2 0x3AE8 JUMP JUMPDEST JUMPDEST SWAP1 PUSH0 MSTORE PUSH1 0x20 PUSH0 KECCAK256 SWAP1 PUSH1 0x6 MUL ADD PUSH1 0x4 ADD PUSH0 PUSH2 0x100 EXP DUP2 SLOAD DUP2 PUSH20 0xFFFFFFFFFFFFFFFFFFFFFFFFFFFFFFFFFFFFFFFF MUL NOT AND SWAP1 DUP4 PUSH20 0xFFFFFFFFFFFFFFFFFFFFFFFFFFFFFFFFFFFFFFFF AND MUL OR SWAP1 SSTORE POP DUP1 DUP3 PUSH20 0xFFFFFFFFFFFFFFFFFFFFFFFFFFFFFFFFFFFFFFFF AND PUSH2 0x1720 DUP4 PUSH2 0xFB2 JUMP JUMPDEST PUSH20 0xFFFFFFFFFFFFFFFFFFFFFFFFFFFFFFFFFFFFFFFF AND PUSH32 0x8C5BE1E5EBEC7D5BD14F71427D1E84F3DD0314C0F7B2291E5B200AC8C7C3B925 PUSH1 0x40 MLOAD PUSH1 0x40 MLOAD DUP1 SWAP2 SUB SWAP1 LOG4 POP POP JUMP JUMPDEST PUSH1 0x60 PUSH1 0x40 MLOAD DUP1 PUSH1 0x20 ADD PUSH1 0x40 MSTORE DUP1 PUSH0 DUP2 MSTORE POP SWAP1 POP SWAP1 JUMP JUMPDEST PUSH1 0x60 PUSH0 PUSH1 0x1 PUSH2 0x178A DUP5 PUSH2 0x237E JUMP JUMPDEST ADD SWAP1 POP PUSH0 DUP2 PUSH8 0xFFFFFFFFFFFFFFFF DUP2 GT ISZERO PUSH2 0x17A8 JUMPI PUSH2 0x17A7 PUSH2 0x386B JUMP JUMPDEST JUMPDEST PUSH1 0x40 MLOAD SWAP1 DUP1 DUP3 MSTORE DUP1 PUSH1 0x1F ADD PUSH1 0x1F NOT AND PUSH1 0x20 ADD DUP3 ADD PUSH1 0x40 MSTORE DUP1 ISZERO PUSH2 0x17DA JUMPI DUP2 PUSH1 0x20 ADD PUSH1 0x1 DUP3 MUL DUP1 CALLDATASIZE DUP4 CALLDATACOPY DUP1 DUP3 ADD SWAP2 POP POP SWAP1 POP JUMPDEST POP SWAP1 POP PUSH0 DUP3 PUSH1 0x20 ADD DUP3 ADD SWAP1 POP JUMPDEST PUSH1 0x1 ISZERO PUSH2 0x183B JUMPI DUP1 DUP1 PUSH1 0x1 SWAP1 SUB SWAP2 POP POP PUSH32 0x3031323334353637383961626364656600000000000000000000000000000000 PUSH1 0xA DUP7 MOD BYTE DUP2 MSTORE8 PUSH1 0xA DUP6 DUP2 PUSH2 0x1830 JUMPI PUSH2 0x182F PUSH2 0x48F5 JUMP JUMPDEST JUMPDEST DIV SWAP5 POP PUSH0 DUP6 SUB PUSH2 0x17E7 JUMPI JUMPDEST DUP2 SWAP4 POP POP POP POP SWAP2 SWAP1 POP JUMP JUMPDEST PUSH0 PUSH2 0x1851 DUP4 DUP6 PUSH2 0x1406 JUMP JUMPDEST SWAP1 POP PUSH2 0x185D DUP5 DUP5 PUSH2 0x1D53 JUMP JUMPDEST ISZERO DUP1 ISZERO PUSH2 0x188A JUMPI POP PUSH32 0xFFFFFFFFFFFFFFFFFFFFFFFFFFFFFFFFFFFFFFFFFFFFFFFFFFFFFFFFFFFFFFFF DUP2 EQ ISZERO JUMPDEST ISZERO PUSH2 0x18E9 JUMPI DUP2 DUP2 LT ISZERO PUSH2 0x18D2 JUMPI PUSH1 0x40 MLOAD PUSH32 0x8C379A000000000000000000000000000000000000000000000000000000000 DUP2 MSTORE PUSH1 0x4 ADD PUSH2 0x18C9 SWAP1 PUSH2 0x496C JUMP JUMPDEST PUSH1 0x40 MLOAD DUP1 SWAP2 SUB SWAP1 REVERT JUMPDEST PUSH2 0x18E8 DUP4 DUP6 DUP5 DUP5 PUSH2 0x18E3 SWAP2 SWAP1 PUSH2 0x49B7 JUMP JUMPDEST PUSH2 0x1F88 JUMP JUMPDEST JUMPDEST POP POP POP POP JUMP JUMPDEST PUSH0 PUSH2 0x18F8 PUSH2 0x24CF JUMP JUMPDEST SWAP1 POP SWAP2 SWAP1 POP JUMP JUMPDEST PUSH0 PUSH20 0xFFFFFFFFFFFFFFFFFFFFFFFFFFFFFFFFFFFFFFFF AND DUP5 PUSH20 0xFFFFFFFFFFFFFFFFFFFFFFFFFFFFFFFFFFFFFFFF AND SUB PUSH2 0x196D JUMPI PUSH1 0x40 MLOAD PUSH32 0x8C379A000000000000000000000000000000000000000000000000000000000 DUP2 MSTORE PUSH1 0x4 ADD PUSH2 0x1964 SWAP1 PUSH2 0x4A5A JUMP JUMPDEST PUSH1 0x40 MLOAD DUP1 SWAP2 SUB SWAP1 REVERT JUMPDEST PUSH0 DUP4 SUB PUSH2 0x19AF JUMPI PUSH1 0x40 MLOAD PUSH32 0x8C379A000000000000000000000000000000000000000000000000000000000 DUP2 MSTORE PUSH1 0x4 ADD PUSH2 0x19A6 SWAP1 PUSH2 0x4AE8 JUMP JUMPDEST PUSH1 0x40 MLOAD DUP1 SWAP2 SUB SWAP1 REVERT JUMPDEST PUSH2 0x19B8 DUP4 PUSH2 0x232F JUMP JUMPDEST ISZERO PUSH2 0x19F8 JUMPI PUSH1 0x40 MLOAD PUSH32 0x8C379A000000000000000000000000000000000000000000000000000000000 DUP2 MSTORE PUSH1 0x4 ADD PUSH2 0x19EF SWAP1 PUSH2 0x4B50 JUMP JUMPDEST PUSH1 0x40 MLOAD DUP1 SWAP2 SUB SWAP1 REVERT JUMPDEST PUSH2 0x1A06 PUSH0 DUP6 PUSH0 DUP7 DUP7 DUP7 PUSH2 0x24EB JUMP JUMPDEST PUSH2 0x1A11 DUP5 DUP5 DUP5 PUSH2 0x24F3 JUMP JUMPDEST PUSH2 0x1A1B DUP4 DUP3 PUSH2 0x263A JUMP JUMPDEST PUSH2 0x1A29 PUSH0 DUP6 PUSH0 DUP7 DUP7 DUP7 PUSH2 0x26C1 JUMP JUMPDEST POP POP POP POP JUMP JUMPDEST PUSH2 0x1A38 DUP4 PUSH2 0x232F JUMP JUMPDEST PUSH2 0x1A77 JUMPI PUSH1 0x40 MLOAD PUSH32 0x8C379A000000000000000000000000000000000000000000000000000000000 DUP2 MSTORE PUSH1 0x4 ADD PUSH2 0x1A6E SWAP1 PUSH2 0x4BDE JUMP JUMPDEST PUSH1 0x40 MLOAD DUP1 SWAP2 SUB SWAP1 REVERT JUMPDEST PUSH2 0x1A80 DUP3 PUSH2 0x232F JUMP JUMPDEST PUSH2 0x1ABF JUMPI PUSH1 0x40 MLOAD PUSH32 0x8C379A000000000000000000000000000000000000000000000000000000000 DUP2 MSTORE PUSH1 0x4 ADD PUSH2 0x1AB6 SWAP1 PUSH2 0x4C6C JUMP JUMPDEST PUSH1 0x40 MLOAD DUP1 SWAP2 SUB SWAP1 REVERT JUMPDEST PUSH0 PUSH1 0x5 PUSH1 0x6 PUSH0 DUP7 DUP2 MSTORE PUSH1 0x20 ADD SWAP1 DUP2 MSTORE PUSH1 0x20 ADD PUSH0 KECCAK256 SLOAD DUP2 SLOAD DUP2 LT PUSH2 0x1AE5 JUMPI PUSH2 0x1AE4 PUSH2 0x3AE8 JUMP JUMPDEST JUMPDEST SWAP1 PUSH0 MSTORE PUSH1 0x20 PUSH0 KECCAK256 SWAP1 PUSH1 0x6 MUL ADD SWAP1 POP PUSH0 PUSH1 0x5 PUSH1 0x6 PUSH0 DUP7 DUP2 MSTORE PUSH1 0x20 ADD SWAP1 DUP2 MSTORE PUSH1 0x20 ADD PUSH0 KECCAK256 SLOAD DUP2 SLOAD DUP2 LT PUSH2 0x1B19 JUMPI PUSH2 0x1B18 PUSH2 0x3AE8 JUMP JUMPDEST JUMPDEST SWAP1 PUSH0 MSTORE PUSH1 0x20 PUSH0 KECCAK256 SWAP1 PUSH1 0x6 MUL ADD SWAP1 POP DUP3 DUP3 PUSH1 0x2 ADD SLOAD LT ISZERO PUSH2 0x1B6E JUMPI PUSH1 0x40 MLOAD PUSH32 0x8C379A000000000000000000000000000000000000000000000000000000000 DUP2 MSTORE PUSH1 0x4 ADD PUSH2 0x1B65 SWAP1 PUSH2 0x4CFA JUMP JUMPDEST PUSH1 0x40 MLOAD DUP1 SWAP2 SUB SWAP1 REVERT JUMPDEST DUP1 PUSH1 0x1 ADD SLOAD DUP3 PUSH1 0x1 ADD SLOAD EQ PUSH2 0x1BB8 JUMPI PUSH1 0x40 MLOAD PUSH32 0x8C379A000000000000000000000000000000000000000000000000000000000 DUP2 MSTORE PUSH1 0x4 ADD PUSH2 0x1BAF SWAP1 PUSH2 0x4D88 JUMP JUMPDEST PUSH1 0x40 MLOAD DUP1 SWAP2 SUB SWAP1 REVERT JUMPDEST PUSH2 0x1C10 DUP3 PUSH1 0x3 ADD PUSH0 SWAP1 SLOAD SWAP1 PUSH2 0x100 EXP SWAP1 DIV PUSH20 0xFFFFFFFFFFFFFFFFFFFFFFFFFFFFFFFFFFFFFFFF AND DUP3 PUSH1 0x3 ADD PUSH0 SWAP1 SLOAD SWAP1 PUSH2 0x100 EXP SWAP1 DIV PUSH20 0xFFFFFFFFFFFFFFFFFFFFFFFFFFFFFFFFFFFFFFFF AND DUP8 DUP8 DUP7 PUSH1 0x1 ADD SLOAD DUP9 PUSH2 0x24EB JUMP JUMPDEST DUP3 DUP3 PUSH1 0x2 ADD PUSH0 DUP3 DUP3 SLOAD PUSH2 0x1C23 SWAP2 SWAP1 PUSH2 0x49B7 JUMP JUMPDEST SWAP3 POP POP DUP2 SWAP1 SSTORE POP DUP3 DUP2 PUSH1 0x2 ADD PUSH0 DUP3 DUP3 SLOAD PUSH2 0x1C3D SWAP2 SWAP1 PUSH2 0x4DA6 JUMP JUMPDEST SWAP3 POP POP DUP2 SWAP1 SSTORE POP DUP4 DUP6 PUSH32 0xB2AAC84F3EC956911FD78EAE5311062972FF949F38412E8DA39069D9F068CC6 DUP6 PUSH1 0x40 MLOAD PUSH2 0x1C75 SWAP2 SWAP1 PUSH2 0x361F JUMP JUMPDEST PUSH1 0x40 MLOAD DUP1 SWAP2 SUB SWAP1 LOG3 PUSH2 0x1CD5 DUP3 PUSH1 0x3 ADD PUSH0 SWAP1 SLOAD SWAP1 PUSH2 0x100 EXP SWAP1 DIV PUSH20 0xFFFFFFFFFFFFFFFFFFFFFFFFFFFFFFFFFFFFFFFF AND DUP3 PUSH1 0x3 ADD PUSH0 SWAP1 SLOAD SWAP1 PUSH2 0x100 EXP SWAP1 DIV PUSH20 0xFFFFFFFFFFFFFFFFFFFFFFFFFFFFFFFFFFFFFFFF AND DUP8 DUP8 DUP7 PUSH1 0x1 ADD SLOAD DUP9 PUSH2 0x26C1 JUMP JUMPDEST PUSH2 0x1CEF DUP6 DUP6 DUP6 PUSH1 0x40 MLOAD DUP1 PUSH1 0x20 ADD PUSH1 0x40 MSTORE DUP1 PUSH0 DUP2 MSTORE POP PUSH2 0x26C9 JUMP JUMPDEST PUSH2 0x1D2E JUMPI PUSH1 0x40 MLOAD PUSH32 0x8C379A000000000000000000000000000000000000000000000000000000000 DUP2 MSTORE PUSH1 0x4 ADD PUSH2 0x1D25 SWAP1 PUSH2 0x4E49 JUMP JUMPDEST PUSH1 0x40 MLOAD DUP1 SWAP2 SUB SWAP1 REVERT JUMPDEST POP POP POP POP POP JUMP JUMPDEST PUSH0 PUSH2 0x1D3E PUSH2 0x24CF JUMP JUMPDEST SWAP1 POP PUSH2 0x1D4C DUP5 DUP3 DUP6 DUP6 PUSH2 0x18FF JUMP JUMPDEST SWAP4 SWAP3 POP POP POP JUMP JUMPDEST PUSH0 DUP1 PUSH2 0x1D5E DUP4 PUSH2 0xFB2 JUMP JUMPDEST SWAP1 POP DUP1 PUSH20 0xFFFFFFFFFFFFFFFFFFFFFFFFFFFFFFFFFFFFFFFF AND DUP5 PUSH20 0xFFFFFFFFFFFFFFFFFFFFFFFFFFFFFFFFFFFFFFFF AND EQ DUP1 PUSH2 0x1DA0 JUMPI POP PUSH2 0x1D9F DUP2 DUP6 PUSH2 0x15AA JUMP JUMPDEST JUMPDEST DUP1 PUSH2 0x1DDE JUMPI POP DUP4 PUSH20 0xFFFFFFFFFFFFFFFFFFFFFFFFFFFFFFFFFFFFFFFF AND PUSH2 0x1DC6 DUP5 PUSH2 0x9D8 JUMP JUMPDEST PUSH20 0xFFFFFFFFFFFFFFFFFFFFFFFFFFFFFFFFFFFFFFFF AND EQ JUMPDEST SWAP2 POP POP SWAP3 SWAP2 POP POP JUMP JUMPDEST DUP3 PUSH20 0xFFFFFFFFFFFFFFFFFFFFFFFFFFFFFFFFFFFFFFFF AND PUSH2 0x1E07 DUP3 PUSH2 0xFB2 JUMP JUMPDEST PUSH20 0xFFFFFFFFFFFFFFFFFFFFFFFFFFFFFFFFFFFFFFFF AND EQ PUSH2 0x1E5D JUMPI PUSH1 0x40 MLOAD PUSH32 0x8C379A000000000000000000000000000000000000000000000000000000000 DUP2 MSTORE PUSH1 0x4 ADD PUSH2 0x1E54 SWAP1 PUSH2 0x4ED7 JUMP JUMPDEST PUSH1 0x40 MLOAD DUP1 SWAP2 SUB SWAP1 REVERT JUMPDEST PUSH0 PUSH20 0xFFFFFFFFFFFFFFFFFFFFFFFFFFFFFFFFFFFFFFFF AND DUP3 PUSH20 0xFFFFFFFFFFFFFFFFFFFFFFFFFFFFFFFFFFFFFFFF AND SUB PUSH2 0x1ECB JUMPI PUSH1 0x40 MLOAD PUSH32 0x8C379A000000000000000000000000000000000000000000000000000000000 DUP2 MSTORE PUSH1 0x4 ADD PUSH2 0x1EC2 SWAP1 PUSH2 0x4F65 JUMP JUMPDEST PUSH1 0x40 MLOAD DUP1 SWAP2 SUB SWAP1 REVERT JUMPDEST PUSH0 PUSH2 0x1ED5 DUP3 PUSH2 0xDF5 JUMP JUMPDEST SWAP1 POP PUSH0 PUSH2 0x1EE1 DUP4 PUSH2 0x12F3 JUMP JUMPDEST SWAP1 POP PUSH2 0x1EF1 DUP6 DUP6 DUP6 DUP7 DUP7 DUP7 PUSH2 0x24EB JUMP JUMPDEST PUSH2 0x1EFB PUSH0 DUP5 PUSH2 0x168D JUMP JUMPDEST PUSH2 0x1F04 DUP4 PUSH2 0x28AF JUMP JUMPDEST PUSH2 0x1F0E DUP6 DUP5 PUSH2 0x29AB JUMP JUMPDEST PUSH2 0x1F18 DUP5 DUP5 PUSH2 0x2B29 JUMP JUMPDEST DUP3 DUP5 PUSH20 0xFFFFFFFFFFFFFFFFFFFFFFFFFFFFFFFFFFFFFFFF AND DUP7 PUSH20 0xFFFFFFFFFFFFFFFFFFFFFFFFFFFFFFFFFFFFFFFF AND PUSH32 0xDDF252AD1BE2C89B69C2B068FC378DAA952BA7F163C4A11628F55A4DF523B3EF PUSH1 0x40 MLOAD PUSH1 0x40 MLOAD DUP1 SWAP2 SUB SWAP1 LOG4 PUSH2 0x1F81 DUP6 DUP6 DUP6 DUP7 DUP7 DUP7 PUSH2 0x26C1 JUMP JUMPDEST POP POP POP POP POP JUMP JUMPDEST PUSH0 PUSH20 0xFFFFFFFFFFFFFFFFFFFFFFFFFFFFFFFFFFFFFFFF AND DUP3 PUSH20 0xFFFFFFFFFFFFFFFFFFFFFFFFFFFFFFFFFFFFFFFF AND SUB PUSH2 0x1FF6 JUMPI PUSH1 0x40 MLOAD PUSH32 0x8C379A000000000000000000000000000000000000000000000000000000000 DUP2 MSTORE PUSH1 0x4 ADD PUSH2 0x1FED SWAP1 PUSH2 0x4FF3 JUMP JUMPDEST PUSH1 0x40 MLOAD DUP1 SWAP2 SUB SWAP1 REVERT JUMPDEST PUSH2 0x2000 DUP3 DUP5 PUSH2 0x2C98 JUMP JUMPDEST PUSH2 0x2097 JUMPI PUSH1 0x5 PUSH1 0x6 PUSH0 DUP6 DUP2 MSTORE PUSH1 0x20 ADD SWAP1 DUP2 MSTORE PUSH1 0x20 ADD PUSH0 KECCAK256 SLOAD DUP2 SLOAD DUP2 LT PUSH2 0x2029 JUMPI PUSH2 0x2028 PUSH2 0x3AE8 JUMP JUMPDEST JUMPDEST SWAP1 PUSH0 MSTORE PUSH1 0x20 PUSH0 KECCAK256 SWAP1 PUSH1 0x6 MUL ADD PUSH1 0x5 ADD DUP3 SWAP1 DUP1 PUSH1 0x1 DUP2 SLOAD ADD DUP1 DUP3 SSTORE DUP1 SWAP2 POP POP PUSH1 0x1 SWAP1 SUB SWAP1 PUSH0 MSTORE PUSH1 0x20 PUSH0 KECCAK256 ADD PUSH0 SWAP1 SWAP2 SWAP1 SWAP2 SWAP1 SWAP2 PUSH2 0x100 EXP DUP2 SLOAD DUP2 PUSH20 0xFFFFFFFFFFFFFFFFFFFFFFFFFFFFFFFFFFFFFFFF MUL NOT AND SWAP1 DUP4 PUSH20 0xFFFFFFFFFFFFFFFFFFFFFFFFFFFFFFFFFFFFFFFF AND MUL OR SWAP1 SSTORE POP JUMPDEST DUP1 PUSH1 0x4 PUSH0 DUP6 DUP2 MSTORE PUSH1 0x20 ADD SWAP1 DUP2 MSTORE PUSH1 0x20 ADD PUSH0 KECCAK256 PUSH0 DUP5 PUSH20 0xFFFFFFFFFFFFFFFFFFFFFFFFFFFFFFFFFFFFFFFF AND PUSH20 0xFFFFFFFFFFFFFFFFFFFFFFFFFFFFFFFFFFFFFFFF AND DUP2 MSTORE PUSH1 0x20 ADD SWAP1 DUP2 MSTORE PUSH1 0x20 ADD PUSH0 KECCAK256 DUP2 SWAP1 SSTORE POP DUP2 PUSH20 0xFFFFFFFFFFFFFFFFFFFFFFFFFFFFFFFFFFFFFFFF AND DUP4 PUSH32 0x621B050DE0AD08B51D19B48B3E6DF75348C4DE6BDD93E81B252CA62E28265B1B DUP4 PUSH1 0x40 MLOAD PUSH2 0x212F SWAP2 SWAP1 PUSH2 0x361F JUMP JUMPDEST PUSH1 0x40 MLOAD DUP1 SWAP2 SUB SWAP1 LOG3 POP POP POP JUMP JUMPDEST DUP2 PUSH20 0xFFFFFFFFFFFFFFFFFFFFFFFFFFFFFFFFFFFFFFFF AND DUP4 PUSH20 0xFFFFFFFFFFFFFFFFFFFFFFFFFFFFFFFFFFFFFFFF AND SUB PUSH2 0x21AA JUMPI PUSH1 0x40 MLOAD PUSH32 0x8C379A000000000000000000000000000000000000000000000000000000000 DUP2 MSTORE PUSH1 0x4 ADD PUSH2 0x21A1 SWAP1 PUSH2 0x505B JUMP JUMPDEST PUSH1 0x40 MLOAD DUP1 SWAP2 SUB SWAP1 REVERT JUMPDEST DUP1 PUSH1 0x7 PUSH0 DUP6 PUSH20 0xFFFFFFFFFFFFFFFFFFFFFFFFFFFFFFFFFFFFFFFF AND PUSH20 0xFFFFFFFFFFFFFFFFFFFFFFFFFFFFFFFFFFFFFFFF AND DUP2 MSTORE PUSH1 0x20 ADD SWAP1 DUP2 MSTORE PUSH1 0x20 ADD PUSH0 KECCAK256 PUSH1 0x2 ADD PUSH0 DUP5 PUSH20 0xFFFFFFFFFFFFFFFFFFFFFFFFFFFFFFFFFFFFFFFF AND PUSH20 0xFFFFFFFFFFFFFFFFFFFFFFFFFFFFFFFFFFFFFFFF AND DUP2 MSTORE PUSH1 0x20 ADD SWAP1 DUP2 MSTORE PUSH1 0x20 ADD PUSH0 KECCAK256 PUSH0 PUSH2 0x100 EXP DUP2 SLOAD DUP2 PUSH1 0xFF MUL NOT AND SWAP1 DUP4 ISZERO ISZERO MUL OR SWAP1 SSTORE POP DUP2 PUSH20 0xFFFFFFFFFFFFFFFFFFFFFFFFFFFFFFFFFFFFFFFF AND DUP4 PUSH20 0xFFFFFFFFFFFFFFFFFFFFFFFFFFFFFFFFFFFFFFFF AND PUSH32 0x17307EAB39AB6107E8899845AD3D59BD9653F200F220920489CA2B5937696C31 DUP4 PUSH1 0x40 MLOAD PUSH2 0x2299 SWAP2 SWAP1 PUSH2 0x33DF JUMP JUMPDEST PUSH1 0x40 MLOAD DUP1 SWAP2 SUB SWAP1 LOG3 POP POP POP JUMP JUMPDEST PUSH2 0x22B1 DUP5 DUP5 DUP5 PUSH2 0x1DE7 JUMP JUMPDEST PUSH2 0x22BD DUP5 DUP5 DUP5 DUP5 PUSH2 0x2DA2 JUMP JUMPDEST PUSH2 0x22FC JUMPI PUSH1 0x40 MLOAD PUSH32 0x8C379A000000000000000000000000000000000000000000000000000000000 DUP2 MSTORE PUSH1 0x4 ADD PUSH2 0x22F3 SWAP1 PUSH2 0x50E9 JUMP JUMPDEST PUSH1 0x40 MLOAD DUP1 SWAP2 SUB SWAP1 REVERT JUMPDEST POP POP POP POP JUMP JUMPDEST PUSH1 0x60 PUSH2 0x2328 DUP3 PUSH20 0xFFFFFFFFFFFFFFFFFFFFFFFFFFFFFFFFFFFFFFFF AND PUSH1 0x14 PUSH1 0xFF AND PUSH2 0x2F0E JUMP JUMPDEST SWAP1 POP SWAP2 SWAP1 POP JUMP JUMPDEST PUSH0 DUP1 PUSH1 0x5 DUP1 SLOAD SWAP1 POP EQ ISZERO DUP1 ISZERO PUSH2 0x2377 JUMPI POP DUP2 PUSH1 0x5 PUSH1 0x6 PUSH0 DUP6 DUP2 MSTORE PUSH1 0x20 ADD SWAP1 DUP2 MSTORE PUSH1 0x20 ADD PUSH0 KECCAK256 SLOAD DUP2 SLOAD DUP2 LT PUSH2 0x2366 JUMPI PUSH2 0x2365 PUSH2 0x3AE8 JUMP JUMPDEST JUMPDEST SWAP1 PUSH0 MSTORE PUSH1 0x20 PUSH0 KECCAK256 SWAP1 PUSH1 0x6 MUL ADD PUSH0 ADD SLOAD EQ JUMPDEST SWAP1 POP SWAP2 SWAP1 POP JUMP JUMPDEST PUSH0 DUP1 PUSH0 SWAP1 POP PUSH27 0x184F03E93FF9F4DAA797ED6E38ED64BF6A1F010000000000000000 DUP4 LT PUSH2 0x23DA JUMPI PUSH27 0x184F03E93FF9F4DAA797ED6E38ED64BF6A1F010000000000000000 DUP4 DUP2 PUSH2 0x23D0 JUMPI PUSH2 0x23CF PUSH2 0x48F5 JUMP JUMPDEST JUMPDEST DIV SWAP3 POP PUSH1 0x40 DUP2 ADD SWAP1 POP JUMPDEST PUSH14 0x4EE2D6D415B85ACEF8100000000 DUP4 LT PUSH2 0x2417 JUMPI PUSH14 0x4EE2D6D415B85ACEF8100000000 DUP4 DUP2 PUSH2 0x240D JUMPI PUSH2 0x240C PUSH2 0x48F5 JUMP JUMPDEST JUMPDEST DIV SWAP3 POP PUSH1 0x20 DUP2 ADD SWAP1 POP JUMPDEST PUSH7 0x2386F26FC10000 DUP4 LT PUSH2 0x2446 JUMPI PUSH7 0x2386F26FC10000 DUP4 DUP2 PUSH2 0x243C JUMPI PUSH2 0x243B PUSH2 0x48F5 JUMP JUMPDEST JUMPDEST DIV SWAP3 POP PUSH1 0x10 DUP2 ADD SWAP1 POP JUMPDEST PUSH4 0x5F5E100 DUP4 LT PUSH2 0x246F JUMPI PUSH4 0x5F5E100 DUP4 DUP2 PUSH2 0x2465 JUMPI PUSH2 0x2464 PUSH2 0x48F5 JUMP JUMPDEST JUMPDEST DIV SWAP3 POP PUSH1 0x8 DUP2 ADD SWAP1 POP JUMPDEST PUSH2 0x2710 DUP4 LT PUSH2 0x2494 JUMPI PUSH2 0x2710 DUP4 DUP2 PUSH2 0x248A JUMPI PUSH2 0x2489 PUSH2 0x48F5 JUMP JUMPDEST JUMPDEST DIV SWAP3 POP PUSH1 0x4 DUP2 ADD SWAP1 POP JUMPDEST PUSH1 0x64 DUP4 LT PUSH2 0x24B7 JUMPI PUSH1 0x64 DUP4 DUP2 PUSH2 0x24AD JUMPI PUSH2 0x24AC PUSH2 0x48F5 JUMP JUMPDEST JUMPDEST DIV SWAP3 POP PUSH1 0x2 DUP2 ADD SWAP1 POP JUMPDEST PUSH1 0xA DUP4 LT PUSH2 0x24C6 JUMPI PUSH1 0x1 DUP2 ADD SWAP1 POP JUMPDEST DUP1 SWAP2 POP POP SWAP2 SWAP1 POP JUMP JUMPDEST PUSH0 PUSH1 0x3 PUSH0 DUP2 SLOAD DUP1 SWAP3 SWAP2 SWAP1 PUSH2 0x24E2 SWAP1 PUSH2 0x5107 JUMP JUMPDEST SWAP2 SWAP1 POP SSTORE SWAP1 POP SWAP1 JUMP JUMPDEST POP POP POP POP POP POP JUMP JUMPDEST PUSH0 PUSH1 0x40 MLOAD DUP1 PUSH1 0xC0 ADD PUSH1 0x40 MSTORE DUP1 DUP5 DUP2 MSTORE PUSH1 0x20 ADD DUP4 DUP2 MSTORE PUSH1 0x20 ADD PUSH0 DUP2 MSTORE PUSH1 0x20 ADD DUP6 PUSH20 0xFFFFFFFFFFFFFFFFFFFFFFFFFFFFFFFFFFFFFFFF AND DUP2 MSTORE PUSH1 0x20 ADD PUSH0 PUSH20 0xFFFFFFFFFFFFFFFFFFFFFFFFFFFFFFFFFFFFFFFF AND DUP2 MSTORE PUSH1 0x20 ADD PUSH0 PUSH8 0xFFFFFFFFFFFFFFFF DUP2 GT ISZERO PUSH2 0x2563 JUMPI PUSH2 0x2562 PUSH2 0x386B JUMP JUMPDEST JUMPDEST PUSH1 0x40 MLOAD SWAP1 DUP1 DUP3 MSTORE DUP1 PUSH1 0x20 MUL PUSH1 0x20 ADD DUP3 ADD PUSH1 0x40 MSTORE DUP1 ISZERO PUSH2 0x2591 JUMPI DUP2 PUSH1 0x20 ADD PUSH1 0x20 DUP3 MUL DUP1 CALLDATASIZE DUP4 CALLDATACOPY DUP1 DUP3 ADD SWAP2 POP POP SWAP1 POP JUMPDEST POP DUP2 MSTORE POP SWAP1 POP PUSH2 0x25A0 DUP2 PUSH2 0x314C JUMP JUMPDEST PUSH2 0x25AA DUP5 DUP5 PUSH2 0x2B29 JUMP JUMPDEST DUP3 DUP5 PUSH20 0xFFFFFFFFFFFFFFFFFFFFFFFFFFFFFFFFFFFFFFFF AND PUSH0 PUSH20 0xFFFFFFFFFFFFFFFFFFFFFFFFFFFFFFFFFFFFFFFF AND PUSH32 0xDDF252AD1BE2C89B69C2B068FC378DAA952BA7F163C4A11628F55A4DF523B3EF PUSH1 0x40 MLOAD PUSH1 0x40 MLOAD DUP1 SWAP2 SUB SWAP1 LOG4 DUP2 PUSH0 DUP5 PUSH32 0xE4F48C240D3B994948AA54F3E2F5FCA59263DFE1D52B6E4CF39A5D249B5CCB65 PUSH1 0x40 MLOAD PUSH1 0x40 MLOAD DUP1 SWAP2 SUB SWAP1 LOG4 POP POP POP POP JUMP JUMPDEST DUP1 PUSH1 0x5 PUSH1 0x6 PUSH0 DUP6 DUP2 MSTORE PUSH1 0x20 ADD SWAP1 DUP2 MSTORE PUSH1 0x20 ADD PUSH0 KECCAK256 SLOAD DUP2 SLOAD DUP2 LT PUSH2 0x2660 JUMPI PUSH2 0x265F PUSH2 0x3AE8 JUMP JUMPDEST JUMPDEST SWAP1 PUSH0 MSTORE PUSH1 0x20 PUSH0 KECCAK256 SWAP1 PUSH1 0x6 MUL ADD PUSH1 0x2 ADD PUSH0 DUP3 DUP3 SLOAD PUSH2 0x267D SWAP2 SWAP1 PUSH2 0x4DA6 JUMP JUMPDEST SWAP3 POP POP DUP2 SWAP1 SSTORE POP DUP2 PUSH0 PUSH32 0xB2AAC84F3EC956911FD78EAE5311062972FF949F38412E8DA39069D9F068CC6 DUP4 PUSH1 0x40 MLOAD PUSH2 0x26B5 SWAP2 SWAP1 PUSH2 0x361F JUMP JUMPDEST PUSH1 0x40 MLOAD DUP1 SWAP2 SUB SWAP1 LOG3 POP POP JUMP JUMPDEST POP POP POP POP POP POP JUMP JUMPDEST PUSH0 DUP1 PUSH2 0x26D4 DUP6 PUSH2 0xFB2 JUMP JUMPDEST SWAP1 POP PUSH2 0x26DF DUP2 PUSH2 0x325D JUMP JUMPDEST ISZERO PUSH2 0x28A1 JUMPI DUP1 PUSH20 0xFFFFFFFFFFFFFFFFFFFFFFFFFFFFFFFFFFFFFFFF AND PUSH4 0x1FFC9A7 PUSH31 0x9CE20B00000000000000000000000000000000000000000000000000000000 PUSH1 0x40 MLOAD DUP3 PUSH4 0xFFFFFFFF AND PUSH1 0xE0 SHL DUP2 MSTORE PUSH1 0x4 ADD PUSH2 0x273C SWAP2 SWAP1 PUSH2 0x515D JUMP JUMPDEST PUSH1 0x20 PUSH1 0x40 MLOAD DUP1 DUP4 SUB DUP2 DUP7 GAS STATICCALL SWAP3 POP POP POP DUP1 ISZERO PUSH2 0x2776 JUMPI POP PUSH1 0x40 MLOAD RETURNDATASIZE PUSH1 0x1F NOT PUSH1 0x1F DUP3 ADD AND DUP3 ADD DUP1 PUSH1 0x40 MSTORE POP DUP2 ADD SWAP1 PUSH2 0x2773 SWAP2 SWAP1 PUSH2 0x518A JUMP JUMPDEST PUSH1 0x1 JUMPDEST PUSH2 0x27B5 JUMPI RETURNDATASIZE DUP1 PUSH0 DUP2 EQ PUSH2 0x27A4 JUMPI PUSH1 0x40 MLOAD SWAP2 POP PUSH1 0x1F NOT PUSH1 0x3F RETURNDATASIZE ADD AND DUP3 ADD PUSH1 0x40 MSTORE RETURNDATASIZE DUP3 MSTORE RETURNDATASIZE PUSH0 PUSH1 0x20 DUP5 ADD RETURNDATACOPY PUSH2 0x27A9 JUMP JUMPDEST PUSH1 0x60 SWAP2 POP JUMPDEST POP PUSH1 0x1 SWAP3 POP POP POP PUSH2 0x28A7 JUMP JUMPDEST DUP1 ISZERO PUSH2 0x2896 JUMPI PUSH0 DUP3 PUSH20 0xFFFFFFFFFFFFFFFFFFFFFFFFFFFFFFFFFFFFFFFF AND PUSH3 0x9CE20B PUSH2 0x27DF PUSH2 0x1686 JUMP JUMPDEST DUP11 DUP11 DUP11 DUP11 PUSH1 0x40 MLOAD DUP7 PUSH4 0xFFFFFFFF AND PUSH1 0xE0 SHL DUP2 MSTORE PUSH1 0x4 ADD PUSH2 0x2803 SWAP6 SWAP5 SWAP4 SWAP3 SWAP2 SWAP1 PUSH2 0x5207 JUMP JUMPDEST PUSH1 0x20 PUSH1 0x40 MLOAD DUP1 DUP4 SUB DUP2 PUSH0 DUP8 GAS CALL ISZERO DUP1 ISZERO PUSH2 0x281F JUMPI RETURNDATASIZE PUSH0 DUP1 RETURNDATACOPY RETURNDATASIZE PUSH0 REVERT JUMPDEST POP POP POP POP PUSH1 0x40 MLOAD RETURNDATASIZE PUSH1 0x1F NOT PUSH1 0x1F DUP3 ADD AND DUP3 ADD DUP1 PUSH1 0x40 MSTORE POP DUP2 ADD SWAP1 PUSH2 0x2843 SWAP2 SWAP1 PUSH2 0x5273 JUMP JUMPDEST SWAP1 POP PUSH3 0x9CE20B PUSH1 0xE0 SHL PUSH28 0xFFFFFFFFFFFFFFFFFFFFFFFFFFFFFFFFFFFFFFFFFFFFFFFFFFFFFFFF NOT AND DUP2 PUSH28 0xFFFFFFFFFFFFFFFFFFFFFFFFFFFFFFFFFFFFFFFFFFFFFFFFFFFFFFFF NOT AND EQ SWAP4 POP POP POP POP PUSH2 0x28A7 JUMP JUMPDEST PUSH1 0x1 SWAP3 POP POP POP PUSH2 0x28A7 JUMP JUMPDEST PUSH1 0x1 SWAP2 POP POP JUMPDEST SWAP5 SWAP4 POP POP POP POP JUMP JUMPDEST PUSH0 PUSH1 0x5 PUSH1 0x6 PUSH0 DUP5 DUP2 MSTORE PUSH1 0x20 ADD SWAP1 DUP2 MSTORE PUSH1 0x20 ADD PUSH0 KECCAK256 SLOAD DUP2 SLOAD DUP2 LT PUSH2 0x28D5 JUMPI PUSH2 0x28D4 PUSH2 0x3AE8 JUMP JUMPDEST JUMPDEST SWAP1 PUSH0 MSTORE PUSH1 0x20 PUSH0 KECCAK256 SWAP1 PUSH1 0x6 MUL ADD SWAP1 POP PUSH0 DUP2 PUSH1 0x5 ADD DUP1 SLOAD SWAP1 POP SWAP1 POP PUSH0 JUMPDEST DUP2 DUP2 LT ISZERO PUSH2 0x2996 JUMPI PUSH0 DUP4 PUSH1 0x5 ADD DUP3 DUP2 SLOAD DUP2 LT PUSH2 0x290F JUMPI PUSH2 0x290E PUSH2 0x3AE8 JUMP JUMPDEST JUMPDEST SWAP1 PUSH0 MSTORE PUSH1 0x20 PUSH0 KECCAK256 ADD PUSH0 SWAP1 SLOAD SWAP1 PUSH2 0x100 EXP SWAP1 DIV PUSH20 0xFFFFFFFFFFFFFFFFFFFFFFFFFFFFFFFFFFFFFFFF AND SWAP1 POP PUSH1 0x4 PUSH0 DUP7 DUP2 MSTORE PUSH1 0x20 ADD SWAP1 DUP2 MSTORE PUSH1 0x20 ADD PUSH0 KECCAK256 PUSH0 DUP3 PUSH20 0xFFFFFFFFFFFFFFFFFFFFFFFFFFFFFFFFFFFFFFFF AND PUSH20 0xFFFFFFFFFFFFFFFFFFFFFFFFFFFFFFFFFFFFFFFF AND DUP2 MSTORE PUSH1 0x20 ADD SWAP1 DUP2 MSTORE PUSH1 0x20 ADD PUSH0 KECCAK256 PUSH0 SWAP1 SSTORE POP DUP1 DUP1 PUSH1 0x1 ADD SWAP2 POP POP PUSH2 0x28F0 JUMP JUMPDEST POP DUP2 PUSH1 0x5 ADD PUSH0 PUSH2 0x29A6 SWAP2 SWAP1 PUSH2 0x3274 JUMP JUMPDEST POP POP POP JUMP JUMPDEST PUSH0 PUSH1 0x5 PUSH1 0x6 PUSH0 DUP5 DUP2 MSTORE PUSH1 0x20 ADD SWAP1 DUP2 MSTORE PUSH1 0x20 ADD PUSH0 KECCAK256 SLOAD DUP2 SLOAD DUP2 LT PUSH2 0x29D1 JUMPI PUSH2 0x29D0 PUSH2 0x3AE8 JUMP JUMPDEST JUMPDEST SWAP1 PUSH0 MSTORE PUSH1 0x20 PUSH0 KECCAK256 SWAP1 PUSH1 0x6 MUL ADD PUSH1 0x3 ADD PUSH0 PUSH2 0x100 EXP DUP2 SLOAD DUP2 PUSH20 0xFFFFFFFFFFFFFFFFFFFFFFFFFFFFFFFFFFFFFFFF MUL NOT AND SWAP1 DUP4 PUSH20 0xFFFFFFFFFFFFFFFFFFFFFFFFFFFFFFFFFFFFFFFF AND MUL OR SWAP1 SSTORE POP PUSH0 PUSH1 0x7 PUSH0 DUP5 PUSH20 0xFFFFFFFFFFFFFFFFFFFFFFFFFFFFFFFFFFFFFFFF AND PUSH20 0xFFFFFFFFFFFFFFFFFFFFFFFFFFFFFFFFFFFFFFFF AND DUP2 MSTORE PUSH1 0x20 ADD SWAP1 DUP2 MSTORE PUSH1 0x20 ADD PUSH0 KECCAK256 SWAP1 POP PUSH0 PUSH1 0x1 DUP3 PUSH0 ADD DUP1 SLOAD SWAP1 POP PUSH2 0x2A71 SWAP2 SWAP1 PUSH2 0x49B7 JUMP JUMPDEST SWAP1 POP PUSH0 DUP3 PUSH0 ADD DUP3 DUP2 SLOAD DUP2 LT PUSH2 0x2A89 JUMPI PUSH2 0x2A88 PUSH2 0x3AE8 JUMP JUMPDEST JUMPDEST SWAP1 PUSH0 MSTORE PUSH1 0x20 PUSH0 KECCAK256 ADD SLOAD SWAP1 POP PUSH0 DUP4 PUSH1 0x1 ADD PUSH0 DUP7 DUP2 MSTORE PUSH1 0x20 ADD SWAP1 DUP2 MSTORE PUSH1 0x20 ADD PUSH0 KECCAK256 SLOAD SWAP1 POP DUP2 DUP5 PUSH0 ADD DUP3 DUP2 SLOAD DUP2 LT PUSH2 0x2AC1 JUMPI PUSH2 0x2AC0 PUSH2 0x3AE8 JUMP JUMPDEST JUMPDEST SWAP1 PUSH0 MSTORE PUSH1 0x20 PUSH0 KECCAK256 ADD DUP2 SWAP1 SSTORE POP DUP1 DUP5 PUSH1 0x1 ADD PUSH0 DUP5 DUP2 MSTORE PUSH1 0x20 ADD SWAP1 DUP2 MSTORE PUSH1 0x20 ADD PUSH0 KECCAK256 DUP2 SWAP1 SSTORE POP DUP4 PUSH1 0x1 ADD PUSH0 DUP7 DUP2 MSTORE PUSH1 0x20 ADD SWAP1 DUP2 MSTORE PUSH1 0x20 ADD PUSH0 KECCAK256 PUSH0 SWAP1 SSTORE DUP4 PUSH0 ADD DUP1 SLOAD DUP1 PUSH2 0x2B0E JUMPI PUSH2 0x2B0D PUSH2 0x529E JUMP JUMPDEST JUMPDEST PUSH1 0x1 SWAP1 SUB DUP2 DUP2 SWAP1 PUSH0 MSTORE PUSH1 0x20 PUSH0 KECCAK256 ADD PUSH0 SWAP1 SSTORE SWAP1 SSTORE POP POP POP POP POP POP JUMP JUMPDEST DUP2 PUSH1 0x5 PUSH1 0x6 PUSH0 DUP5 DUP2 MSTORE PUSH1 0x20 ADD SWAP1 DUP2 MSTORE PUSH1 0x20 ADD PUSH0 KECCAK256 SLOAD DUP2 SLOAD DUP2 LT PUSH2 0x2B4F JUMPI PUSH2 0x2B4E PUSH2 0x3AE8 JUMP JUMPDEST JUMPDEST SWAP1 PUSH0 MSTORE PUSH1 0x20 PUSH0 KECCAK256 SWAP1 PUSH1 0x6 MUL ADD PUSH1 0x3 ADD PUSH0 PUSH2 0x100 EXP DUP2 SLOAD DUP2 PUSH20 0xFFFFFFFFFFFFFFFFFFFFFFFFFFFFFFFFFFFFFFFF MUL NOT AND SWAP1 DUP4 PUSH20 0xFFFFFFFFFFFFFFFFFFFFFFFFFFFFFFFFFFFFFFFF AND MUL OR SWAP1 SSTORE POP PUSH1 0x7 PUSH0 DUP4 PUSH20 0xFFFFFFFFFFFFFFFFFFFFFFFFFFFFFFFFFFFFFFFF AND PUSH20 0xFFFFFFFFFFFFFFFFFFFFFFFFFFFFFFFFFFFFFFFF AND DUP2 MSTORE PUSH1 0x20 ADD SWAP1 DUP2 MSTORE PUSH1 0x20 ADD PUSH0 KECCAK256 PUSH0 ADD DUP1 SLOAD SWAP1 POP PUSH1 0x7 PUSH0 DUP5 PUSH20 0xFFFFFFFFFFFFFFFFFFFFFFFFFFFFFFFFFFFFFFFF AND PUSH20 0xFFFFFFFFFFFFFFFFFFFFFFFFFFFFFFFFFFFFFFFF AND DUP2 MSTORE PUSH1 0x20 ADD SWAP1 DUP2 MSTORE PUSH1 0x20 ADD PUSH0 KECCAK256 PUSH1 0x1 ADD PUSH0 DUP4 DUP2 MSTORE PUSH1 0x20 ADD SWAP1 DUP2 MSTORE PUSH1 0x20 ADD PUSH0 KECCAK256 DUP2 SWAP1 SSTORE POP PUSH1 0x7 PUSH0 DUP4 PUSH20 0xFFFFFFFFFFFFFFFFFFFFFFFFFFFFFFFFFFFFFFFF AND PUSH20 0xFFFFFFFFFFFFFFFFFFFFFFFFFFFFFFFFFFFFFFFF AND DUP2 MSTORE PUSH1 0x20 ADD SWAP1 DUP2 MSTORE PUSH1 0x20 ADD PUSH0 KECCAK256 PUSH0 ADD DUP2 SWAP1 DUP1 PUSH1 0x1 DUP2 SLOAD ADD DUP1 DUP3 SSTORE DUP1 SWAP2 POP POP PUSH1 0x1 SWAP1 SUB SWAP1 PUSH0 MSTORE PUSH1 0x20 PUSH0 KECCAK256 ADD PUSH0 SWAP1 SWAP2 SWAP1 SWAP2 SWAP1 SWAP2 POP SSTORE POP POP JUMP JUMPDEST PUSH0 DUP1 PUSH1 0x5 PUSH1 0x6 PUSH0 DUP6 DUP2 MSTORE PUSH1 0x20 ADD SWAP1 DUP2 MSTORE PUSH1 0x20 ADD PUSH0 KECCAK256 SLOAD DUP2 SLOAD DUP2 LT PUSH2 0x2CBF JUMPI PUSH2 0x2CBE PUSH2 0x3AE8 JUMP JUMPDEST JUMPDEST SWAP1 PUSH0 MSTORE PUSH1 0x20 PUSH0 KECCAK256 SWAP1 PUSH1 0x6 MUL ADD PUSH1 0x5 ADD DUP1 SLOAD SWAP1 POP SWAP1 POP PUSH0 JUMPDEST DUP2 DUP2 LT ISZERO PUSH2 0x2D96 JUMPI DUP5 PUSH20 0xFFFFFFFFFFFFFFFFFFFFFFFFFFFFFFFFFFFFFFFF AND PUSH1 0x5 PUSH1 0x6 PUSH0 DUP8 DUP2 MSTORE PUSH1 0x20 ADD SWAP1 DUP2 MSTORE PUSH1 0x20 ADD PUSH0 KECCAK256 SLOAD DUP2 SLOAD DUP2 LT PUSH2 0x2D1A JUMPI PUSH2 0x2D19 PUSH2 0x3AE8 JUMP JUMPDEST JUMPDEST SWAP1 PUSH0 MSTORE PUSH1 0x20 PUSH0 KECCAK256 SWAP1 PUSH1 0x6 MUL ADD PUSH1 0x5 ADD DUP3 DUP2 SLOAD DUP2 LT PUSH2 0x2D3B JUMPI PUSH2 0x2D3A PUSH2 0x3AE8 JUMP JUMPDEST JUMPDEST SWAP1 PUSH0 MSTORE PUSH1 0x20 PUSH0 KECCAK256 ADD PUSH0 SWAP1 SLOAD SWAP1 PUSH2 0x100 EXP SWAP1 DIV PUSH20 0xFFFFFFFFFFFFFFFFFFFFFFFFFFFFFFFFFFFFFFFF AND PUSH20 0xFFFFFFFFFFFFFFFFFFFFFFFFFFFFFFFFFFFFFFFF AND SUB PUSH2 0x2D89 JUMPI PUSH1 0x1 SWAP3 POP POP POP PUSH2 0x2D9C JUMP JUMPDEST DUP1 DUP1 PUSH1 0x1 ADD SWAP2 POP POP PUSH2 0x2CD6 JUMP JUMPDEST POP PUSH0 SWAP2 POP POP JUMPDEST SWAP3 SWAP2 POP POP JUMP JUMPDEST PUSH0 PUSH2 0x2DAC DUP5 PUSH2 0x325D JUMP JUMPDEST ISZERO PUSH2 0x2F01 JUMPI DUP4 PUSH20 0xFFFFFFFFFFFFFFFFFFFFFFFFFFFFFFFFFFFFFFFF AND PUSH4 0x150B7A02 PUSH2 0x2DD5 PUSH2 0x1686 JUMP JUMPDEST DUP8 DUP7 DUP7 PUSH1 0x40 MLOAD DUP6 PUSH4 0xFFFFFFFF AND PUSH1 0xE0 SHL DUP2 MSTORE PUSH1 0x4 ADD PUSH2 0x2DF7 SWAP5 SWAP4 SWAP3 SWAP2 SWAP1 PUSH2 0x52CB JUMP JUMPDEST PUSH1 0x20 PUSH1 0x40 MLOAD DUP1 DUP4 SUB DUP2 PUSH0 DUP8 GAS CALL SWAP3 POP POP POP DUP1 ISZERO PUSH2 0x2E32 JUMPI POP PUSH1 0x40 MLOAD RETURNDATASIZE PUSH1 0x1F NOT PUSH1 0x1F DUP3 ADD AND DUP3 ADD DUP1 PUSH1 0x40 MSTORE POP DUP2 ADD SWAP1 PUSH2 0x2E2F SWAP2 SWAP1 PUSH2 0x5273 JUMP JUMPDEST PUSH1 0x1 JUMPDEST PUSH2 0x2EB1 JUMPI RETURNDATASIZE DUP1 PUSH0 DUP2 EQ PUSH2 0x2E60 JUMPI PUSH1 0x40 MLOAD SWAP2 POP PUSH1 0x1F NOT PUSH1 0x3F RETURNDATASIZE ADD AND DUP3 ADD PUSH1 0x40 MSTORE RETURNDATASIZE DUP3 MSTORE RETURNDATASIZE PUSH0 PUSH1 0x20 DUP5 ADD RETURNDATACOPY PUSH2 0x2E65 JUMP JUMPDEST PUSH1 0x60 SWAP2 POP JUMPDEST POP PUSH0 DUP2 MLOAD SUB PUSH2 0x2EA9 JUMPI PUSH1 0x40 MLOAD PUSH32 0x8C379A000000000000000000000000000000000000000000000000000000000 DUP2 MSTORE PUSH1 0x4 ADD PUSH2 0x2EA0 SWAP1 PUSH2 0x5385 JUMP JUMPDEST PUSH1 0x40 MLOAD DUP1 SWAP2 SUB SWAP1 REVERT JUMPDEST DUP1 MLOAD DUP2 PUSH1 0x20 ADD REVERT JUMPDEST PUSH4 0x150B7A02 PUSH1 0xE0 SHL PUSH28 0xFFFFFFFFFFFFFFFFFFFFFFFFFFFFFFFFFFFFFFFFFFFFFFFFFFFFFFFF NOT AND DUP2 PUSH28 0xFFFFFFFFFFFFFFFFFFFFFFFFFFFFFFFFFFFFFFFFFFFFFFFFFFFFFFFF NOT AND EQ SWAP2 POP POP PUSH2 0x2F06 JUMP JUMPDEST PUSH1 0x1 SWAP1 POP JUMPDEST SWAP5 SWAP4 POP POP POP POP JUMP JUMPDEST PUSH1 0x60 PUSH0 DUP4 SWAP1 POP PUSH0 PUSH1 0x2 DUP5 PUSH1 0x2 PUSH2 0x2F24 SWAP2 SWAP1 PUSH2 0x53A3 JUMP JUMPDEST PUSH2 0x2F2E SWAP2 SWAP1 PUSH2 0x4DA6 JUMP JUMPDEST PUSH8 0xFFFFFFFFFFFFFFFF DUP2 GT ISZERO PUSH2 0x2F47 JUMPI PUSH2 0x2F46 PUSH2 0x386B JUMP JUMPDEST JUMPDEST PUSH1 0x40 MLOAD SWAP1 DUP1 DUP3 MSTORE DUP1 PUSH1 0x1F ADD PUSH1 0x1F NOT AND PUSH1 0x20 ADD DUP3 ADD PUSH1 0x40 MSTORE DUP1 ISZERO PUSH2 0x2F79 JUMPI DUP2 PUSH1 0x20 ADD PUSH1 0x1 DUP3 MUL DUP1 CALLDATASIZE DUP4 CALLDATACOPY DUP1 DUP3 ADD SWAP2 POP POP SWAP1 POP JUMPDEST POP SWAP1 POP PUSH32 0x3000000000000000000000000000000000000000000000000000000000000000 DUP2 PUSH0 DUP2 MLOAD DUP2 LT PUSH2 0x2FB0 JUMPI PUSH2 0x2FAF PUSH2 0x3AE8 JUMP JUMPDEST JUMPDEST PUSH1 0x20 ADD ADD SWAP1 PUSH31 0xFFFFFFFFFFFFFFFFFFFFFFFFFFFFFFFFFFFFFFFFFFFFFFFFFFFFFFFFFFFFFF NOT AND SWAP1 DUP2 PUSH0 BYTE SWAP1 MSTORE8 POP PUSH32 0x7800000000000000000000000000000000000000000000000000000000000000 DUP2 PUSH1 0x1 DUP2 MLOAD DUP2 LT PUSH2 0x3013 JUMPI PUSH2 0x3012 PUSH2 0x3AE8 JUMP JUMPDEST JUMPDEST PUSH1 0x20 ADD ADD SWAP1 PUSH31 0xFFFFFFFFFFFFFFFFFFFFFFFFFFFFFFFFFFFFFFFFFFFFFFFFFFFFFFFFFFFFFF NOT AND SWAP1 DUP2 PUSH0 BYTE SWAP1 MSTORE8 POP PUSH0 PUSH1 0x1 DUP6 PUSH1 0x2 PUSH2 0x3051 SWAP2 SWAP1 PUSH2 0x53A3 JUMP JUMPDEST PUSH2 0x305B SWAP2 SWAP1 PUSH2 0x4DA6 JUMP JUMPDEST SWAP1 POP JUMPDEST PUSH1 0x1 DUP2 GT ISZERO PUSH2 0x30FA JUMPI PUSH32 0x3031323334353637383961626364656600000000000000000000000000000000 PUSH1 0xF DUP5 AND PUSH1 0x10 DUP2 LT PUSH2 0x309D JUMPI PUSH2 0x309C PUSH2 0x3AE8 JUMP JUMPDEST JUMPDEST BYTE PUSH1 0xF8 SHL DUP3 DUP3 DUP2 MLOAD DUP2 LT PUSH2 0x30B4 JUMPI PUSH2 0x30B3 PUSH2 0x3AE8 JUMP JUMPDEST JUMPDEST PUSH1 0x20 ADD ADD SWAP1 PUSH31 0xFFFFFFFFFFFFFFFFFFFFFFFFFFFFFFFFFFFFFFFFFFFFFFFFFFFFFFFFFFFFFF NOT AND SWAP1 DUP2 PUSH0 BYTE SWAP1 MSTORE8 POP PUSH1 0x4 DUP4 SWAP1 SHR SWAP3 POP DUP1 PUSH2 0x30F3 SWAP1 PUSH2 0x53E4 JUMP JUMPDEST SWAP1 POP PUSH2 0x305E JUMP JUMPDEST POP PUSH0 DUP3 EQ PUSH2 0x3141 JUMPI DUP5 DUP5 PUSH1 0x40 MLOAD PUSH32 0xE22E27EB00000000000000000000000000000000000000000000000000000000 DUP2 MSTORE PUSH1 0x4 ADD PUSH2 0x3138 SWAP3 SWAP2 SWAP1 PUSH2 0x540B JUMP JUMPDEST PUSH1 0x40 MLOAD DUP1 SWAP2 SUB SWAP1 REVERT JUMPDEST DUP1 SWAP3 POP POP POP SWAP3 SWAP2 POP POP JUMP JUMPDEST PUSH1 0x5 DUP1 SLOAD SWAP1 POP PUSH1 0x6 PUSH0 DUP4 PUSH0 ADD MLOAD DUP2 MSTORE PUSH1 0x20 ADD SWAP1 DUP2 MSTORE PUSH1 0x20 ADD PUSH0 KECCAK256 DUP2 SWAP1 SSTORE POP PUSH1 0x5 DUP2 SWAP1 DUP1 PUSH1 0x1 DUP2 SLOAD ADD DUP1 DUP3 SSTORE DUP1 SWAP2 POP POP PUSH1 0x1 SWAP1 SUB SWAP1 PUSH0 MSTORE PUSH1 0x20 PUSH0 KECCAK256 SWAP1 PUSH1 0x6 MUL ADD PUSH0 SWAP1 SWAP2 SWAP1 SWAP2 SWAP1 SWAP2 POP PUSH0 DUP3 ADD MLOAD DUP2 PUSH0 ADD SSTORE PUSH1 0x20 DUP3 ADD MLOAD DUP2 PUSH1 0x1 ADD SSTORE PUSH1 0x40 DUP3 ADD MLOAD DUP2 PUSH1 0x2 ADD SSTORE PUSH1 0x60 DUP3 ADD MLOAD DUP2 PUSH1 0x3 ADD PUSH0 PUSH2 0x100 EXP DUP2 SLOAD DUP2 PUSH20 0xFFFFFFFFFFFFFFFFFFFFFFFFFFFFFFFFFFFFFFFF MUL NOT AND SWAP1 DUP4 PUSH20 0xFFFFFFFFFFFFFFFFFFFFFFFFFFFFFFFFFFFFFFFF AND MUL OR SWAP1 SSTORE POP PUSH1 0x80 DUP3 ADD MLOAD DUP2 PUSH1 0x4 ADD PUSH0 PUSH2 0x100 EXP DUP2 SLOAD DUP2 PUSH20 0xFFFFFFFFFFFFFFFFFFFFFFFFFFFFFFFFFFFFFFFF MUL NOT AND SWAP1 DUP4 PUSH20 0xFFFFFFFFFFFFFFFFFFFFFFFFFFFFFFFFFFFFFFFF AND MUL OR SWAP1 SSTORE POP PUSH1 0xA0 DUP3 ADD MLOAD DUP2 PUSH1 0x5 ADD SWAP1 DUP1 MLOAD SWAP1 PUSH1 0x20 ADD SWAP1 PUSH2 0x3257 SWAP3 SWAP2 SWAP1 PUSH2 0x3292 JUMP JUMPDEST POP POP POP POP JUMP JUMPDEST PUSH0 DUP1 DUP3 EXTCODESIZE SWAP1 POP PUSH0 DUP2 PUSH4 0xFFFFFFFF AND GT SWAP2 POP POP SWAP2 SWAP1 POP JUMP JUMPDEST POP DUP1 SLOAD PUSH0 DUP3 SSTORE SWAP1 PUSH0 MSTORE PUSH1 0x20 PUSH0 KECCAK256 SWAP1 DUP2 ADD SWAP1 PUSH2 0x328F SWAP2 SWAP1 PUSH2 0x3319 JUMP JUMPDEST POP JUMP JUMPDEST DUP3 DUP1 SLOAD DUP3 DUP3 SSTORE SWAP1 PUSH0 MSTORE PUSH1 0x20 PUSH0 KECCAK256 SWAP1 DUP2 ADD SWAP3 DUP3 ISZERO PUSH2 0x3308 JUMPI SWAP2 PUSH1 0x20 MUL DUP3 ADD JUMPDEST DUP3 DUP2 GT ISZERO PUSH2 0x3307 JUMPI DUP3 MLOAD DUP3 PUSH0 PUSH2 0x100 EXP DUP2 SLOAD DUP2 PUSH20 0xFFFFFFFFFFFFFFFFFFFFFFFFFFFFFFFFFFFFFFFF MUL NOT AND SWAP1 DUP4 PUSH20 0xFFFFFFFFFFFFFFFFFFFFFFFFFFFFFFFFFFFFFFFF AND MUL OR SWAP1 SSTORE POP SWAP2 PUSH1 0x20 ADD SWAP2 SWAP1 PUSH1 0x1 ADD SWAP1 PUSH2 0x32B0 JUMP JUMPDEST JUMPDEST POP SWAP1 POP PUSH2 0x3315 SWAP2 SWAP1 PUSH2 0x3319 JUMP JUMPDEST POP SWAP1 JUMP JUMPDEST JUMPDEST DUP1 DUP3 GT ISZERO PUSH2 0x3330 JUMPI PUSH0 DUP2 PUSH0 SWAP1 SSTORE POP PUSH1 0x1 ADD PUSH2 0x331A JUMP JUMPDEST POP SWAP1 JUMP JUMPDEST PUSH0 PUSH1 0x40 MLOAD SWAP1 POP SWAP1 JUMP JUMPDEST PUSH0 DUP1 REVERT JUMPDEST PUSH0 DUP1 REVERT JUMPDEST PUSH0 PUSH32 0xFFFFFFFF00000000000000000000000000000000000000000000000000000000 DUP3 AND SWAP1 POP SWAP2 SWAP1 POP JUMP JUMPDEST PUSH2 0x3379 DUP2 PUSH2 0x3345 JUMP JUMPDEST DUP2 EQ PUSH2 0x3383 JUMPI PUSH0 DUP1 REVERT JUMPDEST POP JUMP JUMPDEST PUSH0 DUP2 CALLDATALOAD SWAP1 POP PUSH2 0x3394 DUP2 PUSH2 0x3370 JUMP JUMPDEST SWAP3 SWAP2 POP POP JUMP JUMPDEST PUSH0 PUSH1 0x20 DUP3 DUP5 SUB SLT ISZERO PUSH2 0x33AF JUMPI PUSH2 0x33AE PUSH2 0x333D JUMP JUMPDEST JUMPDEST PUSH0 PUSH2 0x33BC DUP5 DUP3 DUP6 ADD PUSH2 0x3386 JUMP JUMPDEST SWAP2 POP POP SWAP3 SWAP2 POP POP JUMP JUMPDEST PUSH0 DUP2 ISZERO ISZERO SWAP1 POP SWAP2 SWAP1 POP JUMP JUMPDEST PUSH2 0x33D9 DUP2 PUSH2 0x33C5 JUMP JUMPDEST DUP3 MSTORE POP POP JUMP JUMPDEST PUSH0 PUSH1 0x20 DUP3 ADD SWAP1 POP PUSH2 0x33F2 PUSH0 DUP4 ADD DUP5 PUSH2 0x33D0 JUMP JUMPDEST SWAP3 SWAP2 POP POP JUMP JUMPDEST PUSH0 DUP2 MLOAD SWAP1 POP SWAP2 SWAP1 POP JUMP JUMPDEST PUSH0 DUP3 DUP3 MSTORE PUSH1 0x20 DUP3 ADD SWAP1 POP SWAP3 SWAP2 POP POP JUMP JUMPDEST PUSH0 JUMPDEST DUP4 DUP2 LT ISZERO PUSH2 0x342F JUMPI DUP1 DUP3 ADD MLOAD DUP2 DUP5 ADD MSTORE PUSH1 0x20 DUP2 ADD SWAP1 POP PUSH2 0x3414 JUMP JUMPDEST PUSH0 DUP5 DUP5 ADD MSTORE POP POP POP POP JUMP JUMPDEST PUSH0 PUSH1 0x1F NOT PUSH1 0x1F DUP4 ADD AND SWAP1 POP SWAP2 SWAP1 POP JUMP JUMPDEST PUSH0 PUSH2 0x3454 DUP3 PUSH2 0x33F8 JUMP JUMPDEST PUSH2 0x345E DUP2 DUP6 PUSH2 0x3402 JUMP JUMPDEST SWAP4 POP PUSH2 0x346E DUP2 DUP6 PUSH1 0x20 DUP7 ADD PUSH2 0x3412 JUMP JUMPDEST PUSH2 0x3477 DUP2 PUSH2 0x343A JUMP JUMPDEST DUP5 ADD SWAP2 POP POP SWAP3 SWAP2 POP POP JUMP JUMPDEST PUSH0 PUSH1 0x20 DUP3 ADD SWAP1 POP DUP2 DUP2 SUB PUSH0 DUP4 ADD MSTORE PUSH2 0x349A DUP2 DUP5 PUSH2 0x344A JUMP JUMPDEST SWAP1 POP SWAP3 SWAP2 POP POP JUMP JUMPDEST PUSH0 DUP2 SWAP1 POP SWAP2 SWAP1 POP JUMP JUMPDEST PUSH2 0x34B4 DUP2 PUSH2 0x34A2 JUMP JUMPDEST DUP2 EQ PUSH2 0x34BE JUMPI PUSH0 DUP1 REVERT JUMPDEST POP JUMP JUMPDEST PUSH0 DUP2 CALLDATALOAD SWAP1 POP PUSH2 0x34CF DUP2 PUSH2 0x34AB JUMP JUMPDEST SWAP3 SWAP2 POP POP JUMP JUMPDEST PUSH0 PUSH1 0x20 DUP3 DUP5 SUB SLT ISZERO PUSH2 0x34EA JUMPI PUSH2 0x34E9 PUSH2 0x333D JUMP JUMPDEST JUMPDEST PUSH0 PUSH2 0x34F7 DUP5 DUP3 DUP6 ADD PUSH2 0x34C1 JUMP JUMPDEST SWAP2 POP POP SWAP3 SWAP2 POP POP JUMP JUMPDEST PUSH0 PUSH20 0xFFFFFFFFFFFFFFFFFFFFFFFFFFFFFFFFFFFFFFFF DUP3 AND SWAP1 POP SWAP2 SWAP1 POP JUMP JUMPDEST PUSH0 PUSH2 0x3529 DUP3 PUSH2 0x3500 JUMP JUMPDEST SWAP1 POP SWAP2 SWAP1 POP JUMP JUMPDEST PUSH2 0x3539 DUP2 PUSH2 0x351F JUMP JUMPDEST DUP3 MSTORE POP POP JUMP JUMPDEST PUSH0 PUSH1 0x20 DUP3 ADD SWAP1 POP PUSH2 0x3552 PUSH0 DUP4 ADD DUP5 PUSH2 0x3530 JUMP JUMPDEST SWAP3 SWAP2 POP POP JUMP JUMPDEST PUSH2 0x3561 DUP2 PUSH2 0x351F JUMP JUMPDEST DUP2 EQ PUSH2 0x356B JUMPI PUSH0 DUP1 REVERT JUMPDEST POP JUMP JUMPDEST PUSH0 DUP2 CALLDATALOAD SWAP1 POP PUSH2 0x357C DUP2 PUSH2 0x3558 JUMP JUMPDEST SWAP3 SWAP2 POP POP JUMP JUMPDEST PUSH0 DUP1 PUSH1 0x40 DUP4 DUP6 SUB SLT ISZERO PUSH2 0x3598 JUMPI PUSH2 0x3597 PUSH2 0x333D JUMP JUMPDEST JUMPDEST PUSH0 PUSH2 0x35A5 DUP6 DUP3 DUP7 ADD PUSH2 0x356E JUMP JUMPDEST SWAP3 POP POP PUSH1 0x20 PUSH2 0x35B6 DUP6 DUP3 DUP7 ADD PUSH2 0x34C1 JUMP JUMPDEST SWAP2 POP POP SWAP3 POP SWAP3 SWAP1 POP JUMP JUMPDEST PUSH0 DUP1 PUSH0 PUSH1 0x60 DUP5 DUP7 SUB SLT ISZERO PUSH2 0x35D7 JUMPI PUSH2 0x35D6 PUSH2 0x333D JUMP JUMPDEST JUMPDEST PUSH0 PUSH2 0x35E4 DUP7 DUP3 DUP8 ADD PUSH2 0x34C1 JUMP JUMPDEST SWAP4 POP POP PUSH1 0x20 PUSH2 0x35F5 DUP7 DUP3 DUP8 ADD PUSH2 0x356E JUMP JUMPDEST SWAP3 POP POP PUSH1 0x40 PUSH2 0x3606 DUP7 DUP3 DUP8 ADD PUSH2 0x34C1 JUMP JUMPDEST SWAP2 POP POP SWAP3 POP SWAP3 POP SWAP3 JUMP JUMPDEST PUSH2 0x3619 DUP2 PUSH2 0x34A2 JUMP JUMPDEST DUP3 MSTORE POP POP JUMP JUMPDEST PUSH0 PUSH1 0x20 DUP3 ADD SWAP1 POP PUSH2 0x3632 PUSH0 DUP4 ADD DUP5 PUSH2 0x3610 JUMP JUMPDEST SWAP3 SWAP2 POP POP JUMP JUMPDEST PUSH0 DUP1 PUSH0 PUSH1 0x60 DUP5 DUP7 SUB SLT ISZERO PUSH2 0x364F JUMPI PUSH2 0x364E PUSH2 0x333D JUMP JUMPDEST JUMPDEST PUSH0 PUSH2 0x365C DUP7 DUP3 DUP8 ADD PUSH2 0x356E JUMP JUMPDEST SWAP4 POP POP PUSH1 0x20 PUSH2 0x366D DUP7 DUP3 DUP8 ADD PUSH2 0x34C1 JUMP JUMPDEST SWAP3 POP POP PUSH1 0x40 PUSH2 0x367E DUP7 DUP3 DUP8 ADD PUSH2 0x34C1 JUMP JUMPDEST SWAP2 POP POP SWAP3 POP SWAP3 POP SWAP3 JUMP JUMPDEST PUSH0 DUP1 PUSH0 PUSH1 0x60 DUP5 DUP7 SUB SLT ISZERO PUSH2 0x369F JUMPI PUSH2 0x369E PUSH2 0x333D JUMP JUMPDEST JUMPDEST PUSH0 PUSH2 0x36AC DUP7 DUP3 DUP8 ADD PUSH2 0x356E JUMP JUMPDEST SWAP4 POP POP PUSH1 0x20 PUSH2 0x36BD DUP7 DUP3 DUP8 ADD PUSH2 0x356E JUMP JUMPDEST SWAP3 POP POP PUSH1 0x40 PUSH2 0x36CE DUP7 DUP3 DUP8 ADD PUSH2 0x34C1 JUMP JUMPDEST SWAP2 POP POP SWAP3 POP SWAP3 POP SWAP3 JUMP JUMPDEST PUSH0 DUP1 PUSH0 PUSH1 0x60 DUP5 DUP7 SUB SLT ISZERO PUSH2 0x36EF JUMPI PUSH2 0x36EE PUSH2 0x333D JUMP JUMPDEST JUMPDEST PUSH0 PUSH2 0x36FC DUP7 DUP3 DUP8 ADD PUSH2 0x34C1 JUMP JUMPDEST SWAP4 POP POP PUSH1 0x20 PUSH2 0x370D DUP7 DUP3 DUP8 ADD PUSH2 0x34C1 JUMP JUMPDEST SWAP3 POP POP PUSH1 0x40 PUSH2 0x371E DUP7 DUP3 DUP8 ADD PUSH2 0x34C1 JUMP JUMPDEST SWAP2 POP POP SWAP3 POP SWAP3 POP SWAP3 JUMP JUMPDEST PUSH0 PUSH1 0xFF DUP3 AND SWAP1 POP SWAP2 SWAP1 POP JUMP JUMPDEST PUSH2 0x373D DUP2 PUSH2 0x3728 JUMP JUMPDEST DUP3 MSTORE POP POP JUMP JUMPDEST PUSH0 PUSH1 0x20 DUP3 ADD SWAP1 POP PUSH2 0x3756 PUSH0 DUP4 ADD DUP5 PUSH2 0x3734 JUMP JUMPDEST SWAP3 SWAP2 POP POP JUMP JUMPDEST PUSH0 PUSH1 0x20 DUP3 DUP5 SUB SLT ISZERO PUSH2 0x3771 JUMPI PUSH2 0x3770 PUSH2 0x333D JUMP JUMPDEST JUMPDEST PUSH0 PUSH2 0x377E DUP5 DUP3 DUP6 ADD PUSH2 0x356E JUMP JUMPDEST SWAP2 POP POP SWAP3 SWAP2 POP POP JUMP JUMPDEST PUSH0 DUP2 SWAP1 POP SWAP2 SWAP1 POP JUMP JUMPDEST PUSH0 PUSH2 0x37AA PUSH2 0x37A5 PUSH2 0x37A0 DUP5 PUSH2 0x3500 JUMP JUMPDEST PUSH2 0x3787 JUMP JUMPDEST PUSH2 0x3500 JUMP JUMPDEST SWAP1 POP SWAP2 SWAP1 POP JUMP JUMPDEST PUSH0 PUSH2 0x37BB DUP3 PUSH2 0x3790 JUMP JUMPDEST SWAP1 POP SWAP2 SWAP1 POP JUMP JUMPDEST PUSH0 PUSH2 0x37CC DUP3 PUSH2 0x37B1 JUMP JUMPDEST SWAP1 POP SWAP2 SWAP1 POP JUMP JUMPDEST PUSH2 0x37DC DUP2 PUSH2 0x37C2 JUMP JUMPDEST DUP3 MSTORE POP POP JUMP JUMPDEST PUSH0 PUSH1 0x20 DUP3 ADD SWAP1 POP PUSH2 0x37F5 PUSH0 DUP4 ADD DUP5 PUSH2 0x37D3 JUMP JUMPDEST SWAP3 SWAP2 POP POP JUMP JUMPDEST PUSH2 0x3804 DUP2 PUSH2 0x33C5 JUMP JUMPDEST DUP2 EQ PUSH2 0x380E JUMPI PUSH0 DUP1 REVERT JUMPDEST POP JUMP JUMPDEST PUSH0 DUP2 CALLDATALOAD SWAP1 POP PUSH2 0x381F DUP2 PUSH2 0x37FB JUMP JUMPDEST SWAP3 SWAP2 POP POP JUMP JUMPDEST PUSH0 DUP1 PUSH1 0x40 DUP4 DUP6 SUB SLT ISZERO PUSH2 0x383B JUMPI PUSH2 0x383A PUSH2 0x333D JUMP JUMPDEST JUMPDEST PUSH0 PUSH2 0x3848 DUP6 DUP3 DUP7 ADD PUSH2 0x356E JUMP JUMPDEST SWAP3 POP POP PUSH1 0x20 PUSH2 0x3859 DUP6 DUP3 DUP7 ADD PUSH2 0x3811 JUMP JUMPDEST SWAP2 POP POP SWAP3 POP SWAP3 SWAP1 POP JUMP JUMPDEST PUSH0 DUP1 REVERT JUMPDEST PUSH0 DUP1 REVERT JUMPDEST PUSH32 0x4E487B7100000000000000000000000000000000000000000000000000000000 PUSH0 MSTORE PUSH1 0x41 PUSH1 0x4 MSTORE PUSH1 0x24 PUSH0 REVERT JUMPDEST PUSH2 0x38A1 DUP3 PUSH2 0x343A JUMP JUMPDEST DUP2 ADD DUP2 DUP2 LT PUSH8 0xFFFFFFFFFFFFFFFF DUP3 GT OR ISZERO PUSH2 0x38C0 JUMPI PUSH2 0x38BF PUSH2 0x386B JUMP JUMPDEST JUMPDEST DUP1 PUSH1 0x40 MSTORE POP POP POP JUMP JUMPDEST PUSH0 PUSH2 0x38D2 PUSH2 0x3334 JUMP JUMPDEST SWAP1 POP PUSH2 0x38DE DUP3 DUP3 PUSH2 0x3898 JUMP JUMPDEST SWAP2 SWAP1 POP JUMP JUMPDEST PUSH0 PUSH8 0xFFFFFFFFFFFFFFFF DUP3 GT ISZERO PUSH2 0x38FD JUMPI PUSH2 0x38FC PUSH2 0x386B JUMP JUMPDEST JUMPDEST PUSH2 0x3906 DUP3 PUSH2 0x343A JUMP JUMPDEST SWAP1 POP PUSH1 0x20 DUP2 ADD SWAP1 POP SWAP2 SWAP1 POP JUMP JUMPDEST DUP3 DUP2 DUP4 CALLDATACOPY PUSH0 DUP4 DUP4 ADD MSTORE POP POP POP JUMP JUMPDEST PUSH0 PUSH2 0x3933 PUSH2 0x392E DUP5 PUSH2 0x38E3 JUMP JUMPDEST PUSH2 0x38C9 JUMP JUMPDEST SWAP1 POP DUP3 DUP2 MSTORE PUSH1 0x20 DUP2 ADD DUP5 DUP5 DUP5 ADD GT ISZERO PUSH2 0x394F JUMPI PUSH2 0x394E PUSH2 0x3867 JUMP JUMPDEST JUMPDEST PUSH2 0x395A DUP5 DUP3 DUP6 PUSH2 0x3913 JUMP JUMPDEST POP SWAP4 SWAP3 POP POP POP JUMP JUMPDEST PUSH0 DUP3 PUSH1 0x1F DUP4 ADD SLT PUSH2 0x3976 JUMPI PUSH2 0x3975 PUSH2 0x3863 JUMP JUMPDEST JUMPDEST DUP2 CALLDATALOAD PUSH2 0x3986 DUP5 DUP3 PUSH1 0x20 DUP7 ADD PUSH2 0x3921 JUMP JUMPDEST SWAP2 POP POP SWAP3 SWAP2 POP POP JUMP JUMPDEST PUSH0 DUP1 PUSH0 DUP1 PUSH1 0x80 DUP6 DUP8 SUB SLT ISZERO PUSH2 0x39A7 JUMPI PUSH2 0x39A6 PUSH2 0x333D JUMP JUMPDEST JUMPDEST PUSH0 PUSH2 0x39B4 DUP8 DUP3 DUP9 ADD PUSH2 0x356E JUMP JUMPDEST SWAP5 POP POP PUSH1 0x20 PUSH2 0x39C5 DUP8 DUP3 DUP9 ADD PUSH2 0x356E JUMP JUMPDEST SWAP4 POP POP PUSH1 0x40 PUSH2 0x39D6 DUP8 DUP3 DUP9 ADD PUSH2 0x34C1 JUMP JUMPDEST SWAP3 POP POP PUSH1 0x60 DUP6 ADD CALLDATALOAD PUSH8 0xFFFFFFFFFFFFFFFF DUP2 GT ISZERO PUSH2 0x39F7 JUMPI PUSH2 0x39F6 PUSH2 0x3341 JUMP JUMPDEST JUMPDEST PUSH2 0x3A03 DUP8 DUP3 DUP9 ADD PUSH2 0x3962 JUMP JUMPDEST SWAP2 POP POP SWAP3 SWAP6 SWAP2 SWAP5 POP SWAP3 POP JUMP JUMPDEST PUSH0 DUP1 PUSH1 0x40 DUP4 DUP6 SUB SLT ISZERO PUSH2 0x3A25 JUMPI PUSH2 0x3A24 PUSH2 0x333D JUMP JUMPDEST JUMPDEST PUSH0 PUSH2 0x3A32 DUP6 DUP3 DUP7 ADD PUSH2 0x34C1 JUMP JUMPDEST SWAP3 POP POP PUSH1 0x20 PUSH2 0x3A43 DUP6 DUP3 DUP7 ADD PUSH2 0x356E JUMP JUMPDEST SWAP2 POP POP SWAP3 POP SWAP3 SWAP1 POP JUMP JUMPDEST PUSH0 DUP1 PUSH1 0x40 DUP4 DUP6 SUB SLT ISZERO PUSH2 0x3A63 JUMPI PUSH2 0x3A62 PUSH2 0x333D JUMP JUMPDEST JUMPDEST PUSH0 PUSH2 0x3A70 DUP6 DUP3 DUP7 ADD PUSH2 0x356E JUMP JUMPDEST SWAP3 POP POP PUSH1 0x20 PUSH2 0x3A81 DUP6 DUP3 DUP7 ADD PUSH2 0x356E JUMP JUMPDEST SWAP2 POP POP SWAP3 POP SWAP3 SWAP1 POP JUMP JUMPDEST PUSH32 0x4E487B7100000000000000000000000000000000000000000000000000000000 PUSH0 MSTORE PUSH1 0x22 PUSH1 0x4 MSTORE PUSH1 0x24 PUSH0 REVERT JUMPDEST PUSH0 PUSH1 0x2 DUP3 DIV SWAP1 POP PUSH1 0x1 DUP3 AND DUP1 PUSH2 0x3ACF JUMPI PUSH1 0x7F DUP3 AND SWAP2 POP JUMPDEST PUSH1 0x20 DUP3 LT DUP2 SUB PUSH2 0x3AE2 JUMPI PUSH2 0x3AE1 PUSH2 0x3A8B JUMP JUMPDEST JUMPDEST POP SWAP2 SWAP1 POP JUMP JUMPDEST PUSH32 0x4E487B7100000000000000000000000000000000000000000000000000000000 PUSH0 MSTORE PUSH1 0x32 PUSH1 0x4 MSTORE PUSH1 0x24 PUSH0 REVERT JUMPDEST PUSH32 0x455243333532353A20617070726F76616C20746F2063757272656E74206F776E PUSH0 DUP3 ADD MSTORE PUSH32 0x6572000000000000000000000000000000000000000000000000000000000000 PUSH1 0x20 DUP3 ADD MSTORE POP JUMP JUMPDEST PUSH0 PUSH2 0x3B6F PUSH1 0x22 DUP4 PUSH2 0x3402 JUMP JUMPDEST SWAP2 POP PUSH2 0x3B7A DUP3 PUSH2 0x3B15 JUMP JUMPDEST PUSH1 0x40 DUP3 ADD SWAP1 POP SWAP2 SWAP1 POP JUMP JUMPDEST PUSH0 PUSH1 0x20 DUP3 ADD SWAP1 POP DUP2 DUP2 SUB PUSH0 DUP4 ADD MSTORE PUSH2 0x3B9C DUP2 PUSH2 0x3B63 JUMP JUMPDEST SWAP1 POP SWAP2 SWAP1 POP JUMP JUMPDEST PUSH32 0x455243333532353A20617070726F76652063616C6C6572206973206E6F74206F PUSH0 DUP3 ADD MSTORE PUSH32 0x776E6572206E6F7220617070726F76656420666F7220616C6C00000000000000 PUSH1 0x20 DUP3 ADD MSTORE POP JUMP JUMPDEST PUSH0 PUSH2 0x3BFD PUSH1 0x39 DUP4 PUSH2 0x3402 JUMP JUMPDEST SWAP2 POP PUSH2 0x3C08 DUP3 PUSH2 0x3BA3 JUMP JUMPDEST PUSH1 0x40 DUP3 ADD SWAP1 POP SWAP2 SWAP1 POP JUMP JUMPDEST PUSH0 PUSH1 0x20 DUP3 ADD SWAP1 POP DUP2 DUP2 SUB PUSH0 DUP4 ADD MSTORE PUSH2 0x3C2A DUP2 PUSH2 0x3BF1 JUMP JUMPDEST SWAP1 POP SWAP2 SWAP1 POP JUMP JUMPDEST PUSH0 DUP2 SWAP1 POP SWAP3 SWAP2 POP POP JUMP JUMPDEST PUSH0 PUSH2 0x3C45 DUP3 PUSH2 0x33F8 JUMP JUMPDEST PUSH2 0x3C4F DUP2 DUP6 PUSH2 0x3C31 JUMP JUMPDEST SWAP4 POP PUSH2 0x3C5F DUP2 DUP6 PUSH1 0x20 DUP7 ADD PUSH2 0x3412 JUMP JUMPDEST DUP1 DUP5 ADD SWAP2 POP POP SWAP3 SWAP2 POP POP JUMP JUMPDEST PUSH32 0x736C6F742F000000000000000000000000000000000000000000000000000000 PUSH0 DUP3 ADD MSTORE POP JUMP JUMPDEST PUSH0 PUSH2 0x3C9F PUSH1 0x5 DUP4 PUSH2 0x3C31 JUMP JUMPDEST SWAP2 POP PUSH2 0x3CAA DUP3 PUSH2 0x3C6B JUMP JUMPDEST PUSH1 0x5 DUP3 ADD SWAP1 POP SWAP2 SWAP1 POP JUMP JUMPDEST PUSH0 PUSH2 0x3CC0 DUP3 DUP6 PUSH2 0x3C3B JUMP JUMPDEST SWAP2 POP PUSH2 0x3CCB DUP3 PUSH2 0x3C93 JUMP JUMPDEST SWAP2 POP PUSH2 0x3CD7 DUP3 DUP5 PUSH2 0x3C3B JUMP JUMPDEST SWAP2 POP DUP2 SWAP1 POP SWAP4 SWAP3 POP POP POP JUMP JUMPDEST PUSH0 PUSH8 0xFFFFFFFFFFFFFFFF DUP3 GT ISZERO PUSH2 0x3CFD JUMPI PUSH2 0x3CFC PUSH2 0x386B JUMP JUMPDEST JUMPDEST PUSH2 0x3D06 DUP3 PUSH2 0x343A JUMP JUMPDEST SWAP1 POP PUSH1 0x20 DUP2 ADD SWAP1 POP SWAP2 SWAP1 POP JUMP JUMPDEST PUSH0 PUSH2 0x3D25 PUSH2 0x3D20 DUP5 PUSH2 0x3CE3 JUMP JUMPDEST PUSH2 0x38C9 JUMP JUMPDEST SWAP1 POP DUP3 DUP2 MSTORE PUSH1 0x20 DUP2 ADD DUP5 DUP5 DUP5 ADD GT ISZERO PUSH2 0x3D41 JUMPI PUSH2 0x3D40 PUSH2 0x3867 JUMP JUMPDEST JUMPDEST PUSH2 0x3D4C DUP5 DUP3 DUP6 PUSH2 0x3412 JUMP JUMPDEST POP SWAP4 SWAP3 POP POP POP JUMP JUMPDEST PUSH0 DUP3 PUSH1 0x1F DUP4 ADD SLT PUSH2 0x3D68 JUMPI PUSH2 0x3D67 PUSH2 0x3863 JUMP JUMPDEST JUMPDEST DUP2 MLOAD PUSH2 0x3D78 DUP5 DUP3 PUSH1 0x20 DUP7 ADD PUSH2 0x3D13 JUMP JUMPDEST SWAP2 POP POP SWAP3 SWAP2 POP POP JUMP JUMPDEST PUSH0 PUSH1 0x20 DUP3 DUP5 SUB SLT ISZERO PUSH2 0x3D96 JUMPI PUSH2 0x3D95 PUSH2 0x333D JUMP JUMPDEST JUMPDEST PUSH0 DUP3 ADD MLOAD PUSH8 0xFFFFFFFFFFFFFFFF DUP2 GT ISZERO PUSH2 0x3DB3 JUMPI PUSH2 0x3DB2 PUSH2 0x3341 JUMP JUMPDEST JUMPDEST PUSH2 0x3DBF DUP5 DUP3 DUP6 ADD PUSH2 0x3D54 JUMP JUMPDEST SWAP2 POP POP SWAP3 SWAP2 POP POP JUMP JUMPDEST PUSH32 0x4552433335323547657474696E67537461727465643A206F6E6C79206F776E65 PUSH0 DUP3 ADD MSTORE PUSH32 0x722063616E206D696E7400000000000000000000000000000000000000000000 PUSH1 0x20 DUP3 ADD MSTORE POP JUMP JUMPDEST PUSH0 PUSH2 0x3E22 PUSH1 0x2A DUP4 PUSH2 0x3402 JUMP JUMPDEST SWAP2 POP PUSH2 0x3E2D DUP3 PUSH2 0x3DC8 JUMP JUMPDEST PUSH1 0x40 DUP3 ADD SWAP1 POP SWAP2 SWAP1 POP JUMP JUMPDEST PUSH0 PUSH1 0x20 DUP3 ADD SWAP1 POP DUP2 DUP2 SUB PUSH0 DUP4 ADD MSTORE PUSH2 0x3E4F DUP2 PUSH2 0x3E16 JUMP JUMPDEST SWAP1 POP SWAP2 SWAP1 POP JUMP JUMPDEST PUSH32 0x455243333532353A207472616E736665722063616C6C6572206973206E6F7420 PUSH0 DUP3 ADD MSTORE PUSH32 0x6F776E6572206E6F7220617070726F7665640000000000000000000000000000 PUSH1 0x20 DUP3 ADD MSTORE POP JUMP JUMPDEST PUSH0 PUSH2 0x3EB0 PUSH1 0x32 DUP4 PUSH2 0x3402 JUMP JUMPDEST SWAP2 POP PUSH2 0x3EBB DUP3 PUSH2 0x3E56 JUMP JUMPDEST PUSH1 0x40 DUP3 ADD SWAP1 POP SWAP2 SWAP1 POP JUMP JUMPDEST PUSH0 PUSH1 0x20 DUP3 ADD SWAP1 POP DUP2 DUP2 SUB PUSH0 DUP4 ADD MSTORE PUSH2 0x3EDD DUP2 PUSH2 0x3EA4 JUMP JUMPDEST SWAP1 POP SWAP2 SWAP1 POP JUMP JUMPDEST PUSH32 0x455243333532353A206F776E657220696E646578206F7574206F6620626F756E PUSH0 DUP3 ADD MSTORE PUSH32 0x6473000000000000000000000000000000000000000000000000000000000000 PUSH1 0x20 DUP3 ADD MSTORE POP JUMP JUMPDEST PUSH0 PUSH2 0x3F3E PUSH1 0x22 DUP4 PUSH2 0x3402 JUMP JUMPDEST SWAP2 POP PUSH2 0x3F49 DUP3 PUSH2 0x3EE4 JUMP JUMPDEST PUSH1 0x40 DUP3 ADD SWAP1 POP SWAP2 SWAP1 POP JUMP JUMPDEST PUSH0 PUSH1 0x20 DUP3 ADD SWAP1 POP DUP2 DUP2 SUB PUSH0 DUP4 ADD MSTORE PUSH2 0x3F6B DUP2 PUSH2 0x3F32 JUMP JUMPDEST SWAP1 POP SWAP2 SWAP1 POP JUMP JUMPDEST PUSH32 0x455243333532353A20676C6F62616C20696E646578206F7574206F6620626F75 PUSH0 DUP3 ADD MSTORE PUSH32 0x6E64730000000000000000000000000000000000000000000000000000000000 PUSH1 0x20 DUP3 ADD MSTORE POP JUMP JUMPDEST PUSH0 PUSH2 0x3FCC PUSH1 0x23 DUP4 PUSH2 0x3402 JUMP JUMPDEST SWAP2 POP PUSH2 0x3FD7 DUP3 PUSH2 0x3F72 JUMP JUMPDEST PUSH1 0x40 DUP3 ADD SWAP1 POP SWAP2 SWAP1 POP JUMP JUMPDEST PUSH0 PUSH1 0x20 DUP3 ADD SWAP1 POP DUP2 DUP2 SUB PUSH0 DUP4 ADD MSTORE PUSH2 0x3FF9 DUP2 PUSH2 0x3FC0 JUMP JUMPDEST SWAP1 POP SWAP2 SWAP1 POP JUMP JUMPDEST PUSH32 0x455243333532353A20696E76616C696420746F6B656E20494400000000000000 PUSH0 DUP3 ADD MSTORE POP JUMP JUMPDEST PUSH0 PUSH2 0x4034 PUSH1 0x19 DUP4 PUSH2 0x3402 JUMP JUMPDEST SWAP2 POP PUSH2 0x403F DUP3 PUSH2 0x4000 JUMP JUMPDEST PUSH1 0x20 DUP3 ADD SWAP1 POP SWAP2 SWAP1 POP JUMP JUMPDEST PUSH0 PUSH1 0x20 DUP3 ADD SWAP1 POP DUP2 DUP2 SUB PUSH0 DUP4 ADD MSTORE PUSH2 0x4061 DUP2 PUSH2 0x4028 JUMP JUMPDEST SWAP1 POP SWAP2 SWAP1 POP JUMP JUMPDEST PUSH32 0x455243333532353A2062616C616E636520717565727920666F7220746865207A PUSH0 DUP3 ADD MSTORE PUSH32 0x65726F2061646472657373000000000000000000000000000000000000000000 PUSH1 0x20 DUP3 ADD MSTORE POP JUMP JUMPDEST PUSH0 PUSH2 0x40C2 PUSH1 0x2B DUP4 PUSH2 0x3402 JUMP JUMPDEST SWAP2 POP PUSH2 0x40CD DUP3 PUSH2 0x4068 JUMP JUMPDEST PUSH1 0x40 DUP3 ADD SWAP1 POP SWAP2 SWAP1 POP JUMP JUMPDEST PUSH0 PUSH1 0x20 DUP3 ADD SWAP1 POP DUP2 DUP2 SUB PUSH0 DUP4 ADD MSTORE PUSH2 0x40EF DUP2 PUSH2 0x40B6 JUMP JUMPDEST SWAP1 POP SWAP2 SWAP1 POP JUMP JUMPDEST PUSH32 0x455243333532353A20617070726F76652063616C6C6572206973206E6F74206F PUSH0 DUP3 ADD MSTORE PUSH32 0x776E6572206E6F7220617070726F766564000000000000000000000000000000 PUSH1 0x20 DUP3 ADD MSTORE POP JUMP JUMPDEST PUSH0 PUSH2 0x4150 PUSH1 0x31 DUP4 PUSH2 0x3402 JUMP JUMPDEST SWAP2 POP PUSH2 0x415B DUP3 PUSH2 0x40F6 JUMP JUMPDEST PUSH1 0x40 DUP3 ADD SWAP1 POP SWAP2 SWAP1 POP JUMP JUMPDEST PUSH0 PUSH1 0x20 DUP3 ADD SWAP1 POP DUP2 DUP2 SUB PUSH0 DUP4 ADD MSTORE PUSH2 0x417D DUP2 PUSH2 0x4144 JUMP JUMPDEST SWAP1 POP SWAP2 SWAP1 POP JUMP JUMPDEST PUSH32 0x3C7376672077696474683D2236303022206865696768743D223630302220786D PUSH0 DUP3 ADD MSTORE PUSH32 0x6C6E733D22687474703A2F2F7777772E77332E6F72672F323030302F73766722 PUSH1 0x20 DUP3 ADD MSTORE PUSH32 0x3E00000000000000000000000000000000000000000000000000000000000000 PUSH1 0x40 DUP3 ADD MSTORE POP JUMP JUMPDEST PUSH0 PUSH2 0x4204 PUSH1 0x41 DUP4 PUSH2 0x3C31 JUMP JUMPDEST SWAP2 POP PUSH2 0x420F DUP3 PUSH2 0x4184 JUMP JUMPDEST PUSH1 0x41 DUP3 ADD SWAP1 POP SWAP2 SWAP1 POP JUMP JUMPDEST PUSH32 0x203C673E203C7469746C653E4C6179657220313C2F7469746C653E0000000000 PUSH0 DUP3 ADD MSTORE POP JUMP JUMPDEST PUSH0 PUSH2 0x424E PUSH1 0x1B DUP4 PUSH2 0x3C31 JUMP JUMPDEST SWAP2 POP PUSH2 0x4259 DUP3 PUSH2 0x421A JUMP JUMPDEST PUSH1 0x1B DUP3 ADD SWAP1 POP SWAP2 SWAP1 POP JUMP JUMPDEST PUSH32 0x20203C726563742069643D227376675F3122206865696768743D223630302220 PUSH0 DUP3 ADD MSTORE PUSH32 0x77696474683D223630302220793D22302220783D223022207374726F6B653D22 PUSH1 0x20 DUP3 ADD MSTORE PUSH32 0x23303030222066696C6C3D2223303030303030222F3E00000000000000000000 PUSH1 0x40 DUP3 ADD MSTORE POP JUMP JUMPDEST PUSH0 PUSH2 0x42E4 PUSH1 0x56 DUP4 PUSH2 0x3C31 JUMP JUMPDEST SWAP2 POP PUSH2 0x42EF DUP3 PUSH2 0x4264 JUMP JUMPDEST PUSH1 0x56 DUP3 ADD SWAP1 POP SWAP2 SWAP1 POP JUMP JUMPDEST PUSH32 0x20203C7465787420786D6C3A73706163653D2270726573657276652220746578 PUSH0 DUP3 ADD MSTORE PUSH32 0x742D616E63686F723D2273746172742220666F6E742D66616D696C793D224E6F PUSH1 0x20 DUP3 ADD MSTORE PUSH32 0x746F2053616E73204A502220666F6E742D73697A653D223234222069643D2273 PUSH1 0x40 DUP3 ADD MSTORE PUSH32 0x76675F322220793D223334302220783D2232303022207374726F6B652D776964 PUSH1 0x60 DUP3 ADD MSTORE PUSH32 0x74683D223022207374726F6B653D2223303030222066696C6C3D222366666666 PUSH1 0x80 DUP3 ADD MSTORE PUSH32 0x6666223E546F6B6549643A200000000000000000000000000000000000000000 PUSH1 0xA0 DUP3 ADD MSTORE POP JUMP JUMPDEST PUSH0 PUSH2 0x43EC PUSH1 0xAC DUP4 PUSH2 0x3C31 JUMP JUMPDEST SWAP2 POP PUSH2 0x43F7 DUP3 PUSH2 0x42FA JUMP JUMPDEST PUSH1 0xAC DUP3 ADD SWAP1 POP SWAP2 SWAP1 POP JUMP JUMPDEST PUSH32 0x3C2F746578743E00000000000000000000000000000000000000000000000000 PUSH0 DUP3 ADD MSTORE POP JUMP JUMPDEST PUSH0 PUSH2 0x4436 PUSH1 0x7 DUP4 PUSH2 0x3C31 JUMP JUMPDEST SWAP2 POP PUSH2 0x4441 DUP3 PUSH2 0x4402 JUMP JUMPDEST PUSH1 0x7 DUP3 ADD SWAP1 POP SWAP2 SWAP1 POP JUMP JUMPDEST PUSH32 0x20203C7465787420786D6C3A73706163653D2270726573657276652220746578 PUSH0 DUP3 ADD MSTORE PUSH32 0x742D616E63686F723D2273746172742220666F6E742D66616D696C793D224E6F PUSH1 0x20 DUP3 ADD MSTORE PUSH32 0x746F2053616E73204A502220666F6E742D73697A653D223234222069643D2273 PUSH1 0x40 DUP3 ADD MSTORE PUSH32 0x76675F332220793D223431302220783D2232303022207374726F6B652D776964 PUSH1 0x60 DUP3 ADD MSTORE PUSH32 0x74683D223022207374726F6B653D2223303030222066696C6C3D222366666666 PUSH1 0x80 DUP3 ADD MSTORE PUSH32 0x6666223E42616C616E63653A2000000000000000000000000000000000000000 PUSH1 0xA0 DUP3 ADD MSTORE POP JUMP JUMPDEST PUSH0 PUSH2 0x453E PUSH1 0xAD DUP4 PUSH2 0x3C31 JUMP JUMPDEST SWAP2 POP PUSH2 0x4549 DUP3 PUSH2 0x444C JUMP JUMPDEST PUSH1 0xAD DUP3 ADD SWAP1 POP SWAP2 SWAP1 POP JUMP JUMPDEST PUSH32 0x20203C7465787420786D6C3A73706163653D2270726573657276652220746578 PUSH0 DUP3 ADD MSTORE PUSH32 0x742D616E63686F723D2273746172742220666F6E742D66616D696C793D224E6F PUSH1 0x20 DUP3 ADD MSTORE PUSH32 0x746F2053616E73204A502220666F6E742D73697A653D223234222069643D2273 PUSH1 0x40 DUP3 ADD MSTORE PUSH32 0x76675F332220793D223237302220783D2232303022207374726F6B652D776964 PUSH1 0x60 DUP3 ADD MSTORE PUSH32 0x74683D223022207374726F6B653D2223303030222066696C6C3D222366666666 PUSH1 0x80 DUP3 ADD MSTORE PUSH32 0x6666223E536C6F743A2000000000000000000000000000000000000000000000 PUSH1 0xA0 DUP3 ADD MSTORE POP JUMP JUMPDEST PUSH0 PUSH2 0x4646 PUSH1 0xAA DUP4 PUSH2 0x3C31 JUMP JUMPDEST SWAP2 POP PUSH2 0x4651 DUP3 PUSH2 0x4554 JUMP JUMPDEST PUSH1 0xAA DUP3 ADD SWAP1 POP SWAP2 SWAP1 POP JUMP JUMPDEST PUSH32 0x20203C7465787420786D6C3A73706163653D2270726573657276652220746578 PUSH0 DUP3 ADD MSTORE PUSH32 0x742D616E63686F723D2273746172742220666F6E742D66616D696C793D224E6F PUSH1 0x20 DUP3 ADD MSTORE PUSH32 0x746F2053616E73204A502220666F6E742D73697A653D223234222069643D2273 PUSH1 0x40 DUP3 ADD MSTORE PUSH32 0x76675F342220793D223136302220783D2231353022207374726F6B652D776964 PUSH1 0x60 DUP3 ADD MSTORE PUSH32 0x74683D223022207374726F6B653D2223303030222066696C6C3D222366666666 PUSH1 0x80 DUP3 ADD MSTORE PUSH32 0x6666223E455243333235322047455454494E4720535441525445443C2F746578 PUSH1 0xA0 DUP3 ADD MSTORE PUSH32 0x743E000000000000000000000000000000000000000000000000000000000000 PUSH1 0xC0 DUP3 ADD MSTORE POP JUMP JUMPDEST PUSH0 PUSH2 0x4774 PUSH1 0xC2 DUP4 PUSH2 0x3C31 JUMP JUMPDEST SWAP2 POP PUSH2 0x477F DUP3 PUSH2 0x465C JUMP JUMPDEST PUSH1 0xC2 DUP3 ADD SWAP1 POP SWAP2 SWAP1 POP JUMP JUMPDEST PUSH32 0x203C2F673E203C2F7376673E0000000000000000000000000000000000000000 PUSH0 DUP3 ADD MSTORE POP JUMP JUMPDEST PUSH0 PUSH2 0x47BE PUSH1 0xC DUP4 PUSH2 0x3C31 JUMP JUMPDEST SWAP2 POP PUSH2 0x47C9 DUP3 PUSH2 0x478A JUMP JUMPDEST PUSH1 0xC DUP3 ADD SWAP1 POP SWAP2 SWAP1 POP JUMP JUMPDEST PUSH0 PUSH2 0x47DE DUP3 PUSH2 0x41F8 JUMP JUMPDEST SWAP2 POP PUSH2 0x47E9 DUP3 PUSH2 0x4242 JUMP JUMPDEST SWAP2 POP PUSH2 0x47F4 DUP3 PUSH2 0x42D8 JUMP JUMPDEST SWAP2 POP PUSH2 0x47FF DUP3 PUSH2 0x43E0 JUMP JUMPDEST SWAP2 POP PUSH2 0x480B DUP3 DUP7 PUSH2 0x3C3B JUMP JUMPDEST SWAP2 POP PUSH2 0x4816 DUP3 PUSH2 0x442A JUMP JUMPDEST SWAP2 POP PUSH2 0x4821 DUP3 PUSH2 0x4532 JUMP JUMPDEST SWAP2 POP PUSH2 0x482D DUP3 DUP6 PUSH2 0x3C3B JUMP JUMPDEST SWAP2 POP PUSH2 0x4838 DUP3 PUSH2 0x442A JUMP JUMPDEST SWAP2 POP PUSH2 0x4843 DUP3 PUSH2 0x463A JUMP JUMPDEST SWAP2 POP PUSH2 0x484F DUP3 DUP5 PUSH2 0x3C3B JUMP JUMPDEST SWAP2 POP PUSH2 0x485A DUP3 PUSH2 0x442A JUMP JUMPDEST SWAP2 POP PUSH2 0x4865 DUP3 PUSH2 0x4768 JUMP JUMPDEST SWAP2 POP PUSH2 0x4870 DUP3 PUSH2 0x47B2 JUMP JUMPDEST SWAP2 POP DUP2 SWAP1 POP SWAP5 SWAP4 POP POP POP POP JUMP JUMPDEST PUSH32 0x636F6E74726163742F0000000000000000000000000000000000000000000000 PUSH0 DUP3 ADD MSTORE POP JUMP JUMPDEST PUSH0 PUSH2 0x48B1 PUSH1 0x9 DUP4 PUSH2 0x3C31 JUMP JUMPDEST SWAP2 POP PUSH2 0x48BC DUP3 PUSH2 0x487D JUMP JUMPDEST PUSH1 0x9 DUP3 ADD SWAP1 POP SWAP2 SWAP1 POP JUMP JUMPDEST PUSH0 PUSH2 0x48D2 DUP3 DUP6 PUSH2 0x3C3B JUMP JUMPDEST SWAP2 POP PUSH2 0x48DD DUP3 PUSH2 0x48A5 JUMP JUMPDEST SWAP2 POP PUSH2 0x48E9 DUP3 DUP5 PUSH2 0x3C3B JUMP JUMPDEST SWAP2 POP DUP2 SWAP1 POP SWAP4 SWAP3 POP POP POP JUMP JUMPDEST PUSH32 0x4E487B7100000000000000000000000000000000000000000000000000000000 PUSH0 MSTORE PUSH1 0x12 PUSH1 0x4 MSTORE PUSH1 0x24 PUSH0 REVERT JUMPDEST PUSH32 0x455243333532353A20696E73756666696369656E7420616C6C6F77616E636500 PUSH0 DUP3 ADD MSTORE POP JUMP JUMPDEST PUSH0 PUSH2 0x4956 PUSH1 0x1F DUP4 PUSH2 0x3402 JUMP JUMPDEST SWAP2 POP PUSH2 0x4961 DUP3 PUSH2 0x4922 JUMP JUMPDEST PUSH1 0x20 DUP3 ADD SWAP1 POP SWAP2 SWAP1 POP JUMP JUMPDEST PUSH0 PUSH1 0x20 DUP3 ADD SWAP1 POP DUP2 DUP2 SUB PUSH0 DUP4 ADD MSTORE PUSH2 0x4983 DUP2 PUSH2 0x494A JUMP JUMPDEST SWAP1 POP SWAP2 SWAP1 POP JUMP JUMPDEST PUSH32 0x4E487B7100000000000000000000000000000000000000000000000000000000 PUSH0 MSTORE PUSH1 0x11 PUSH1 0x4 MSTORE PUSH1 0x24 PUSH0 REVERT JUMPDEST PUSH0 PUSH2 0x49C1 DUP3 PUSH2 0x34A2 JUMP JUMPDEST SWAP2 POP PUSH2 0x49CC DUP4 PUSH2 0x34A2 JUMP JUMPDEST SWAP3 POP DUP3 DUP3 SUB SWAP1 POP DUP2 DUP2 GT ISZERO PUSH2 0x49E4 JUMPI PUSH2 0x49E3 PUSH2 0x498A JUMP JUMPDEST JUMPDEST SWAP3 SWAP2 POP POP JUMP JUMPDEST PUSH32 0x455243333532353A206D696E7420746F20746865207A65726F20616464726573 PUSH0 DUP3 ADD MSTORE PUSH32 0x7300000000000000000000000000000000000000000000000000000000000000 PUSH1 0x20 DUP3 ADD MSTORE POP JUMP JUMPDEST PUSH0 PUSH2 0x4A44 PUSH1 0x21 DUP4 PUSH2 0x3402 JUMP JUMPDEST SWAP2 POP PUSH2 0x4A4F DUP3 PUSH2 0x49EA JUMP JUMPDEST PUSH1 0x40 DUP3 ADD SWAP1 POP SWAP2 SWAP1 POP JUMP JUMPDEST PUSH0 PUSH1 0x20 DUP3 ADD SWAP1 POP DUP2 DUP2 SUB PUSH0 DUP4 ADD MSTORE PUSH2 0x4A71 DUP2 PUSH2 0x4A38 JUMP JUMPDEST SWAP1 POP SWAP2 SWAP1 POP JUMP JUMPDEST PUSH32 0x455243333532353A2063616E6E6F74206D696E74207A65726F20746F6B656E49 PUSH0 DUP3 ADD MSTORE PUSH32 0x6400000000000000000000000000000000000000000000000000000000000000 PUSH1 0x20 DUP3 ADD MSTORE POP JUMP JUMPDEST PUSH0 PUSH2 0x4AD2 PUSH1 0x21 DUP4 PUSH2 0x3402 JUMP JUMPDEST SWAP2 POP PUSH2 0x4ADD DUP3 PUSH2 0x4A78 JUMP JUMPDEST PUSH1 0x40 DUP3 ADD SWAP1 POP SWAP2 SWAP1 POP JUMP JUMPDEST PUSH0 PUSH1 0x20 DUP3 ADD SWAP1 POP DUP2 DUP2 SUB PUSH0 DUP4 ADD MSTORE PUSH2 0x4AFF DUP2 PUSH2 0x4AC6 JUMP JUMPDEST SWAP1 POP SWAP2 SWAP1 POP JUMP JUMPDEST PUSH32 0x455243333532353A20746F6B656E20616C7265616479206D696E746564000000 PUSH0 DUP3 ADD MSTORE POP JUMP JUMPDEST PUSH0 PUSH2 0x4B3A PUSH1 0x1D DUP4 PUSH2 0x3402 JUMP JUMPDEST SWAP2 POP PUSH2 0x4B45 DUP3 PUSH2 0x4B06 JUMP JUMPDEST PUSH1 0x20 DUP3 ADD SWAP1 POP SWAP2 SWAP1 POP JUMP JUMPDEST PUSH0 PUSH1 0x20 DUP3 ADD SWAP1 POP DUP2 DUP2 SUB PUSH0 DUP4 ADD MSTORE PUSH2 0x4B67 DUP2 PUSH2 0x4B2E JUMP JUMPDEST SWAP1 POP SWAP2 SWAP1 POP JUMP JUMPDEST PUSH32 0x455243333532353A207472616E736665722066726F6D20696E76616C69642074 PUSH0 DUP3 ADD MSTORE PUSH32 0x6F6B656E20494400000000000000000000000000000000000000000000000000 PUSH1 0x20 DUP3 ADD MSTORE POP JUMP JUMPDEST PUSH0 PUSH2 0x4BC8 PUSH1 0x27 DUP4 PUSH2 0x3402 JUMP JUMPDEST SWAP2 POP PUSH2 0x4BD3 DUP3 PUSH2 0x4B6E JUMP JUMPDEST PUSH1 0x40 DUP3 ADD SWAP1 POP SWAP2 SWAP1 POP JUMP JUMPDEST PUSH0 PUSH1 0x20 DUP3 ADD SWAP1 POP DUP2 DUP2 SUB PUSH0 DUP4 ADD MSTORE PUSH2 0x4BF5 DUP2 PUSH2 0x4BBC JUMP JUMPDEST SWAP1 POP SWAP2 SWAP1 POP JUMP JUMPDEST PUSH32 0x455243333532353A207472616E7366657220746F20696E76616C696420746F6B PUSH0 DUP3 ADD MSTORE PUSH32 0x656E204944000000000000000000000000000000000000000000000000000000 PUSH1 0x20 DUP3 ADD MSTORE POP JUMP JUMPDEST PUSH0 PUSH2 0x4C56 PUSH1 0x25 DUP4 PUSH2 0x3402 JUMP JUMPDEST SWAP2 POP PUSH2 0x4C61 DUP3 PUSH2 0x4BFC JUMP JUMPDEST PUSH1 0x40 DUP3 ADD SWAP1 POP SWAP2 SWAP1 POP JUMP JUMPDEST PUSH0 PUSH1 0x20 DUP3 ADD SWAP1 POP DUP2 DUP2 SUB PUSH0 DUP4 ADD MSTORE PUSH2 0x4C83 DUP2 PUSH2 0x4C4A JUMP JUMPDEST SWAP1 POP SWAP2 SWAP1 POP JUMP JUMPDEST PUSH32 0x455243333532353A20696E73756666696369656E742062616C616E636520666F PUSH0 DUP3 ADD MSTORE PUSH32 0x72207472616E7366657200000000000000000000000000000000000000000000 PUSH1 0x20 DUP3 ADD MSTORE POP JUMP JUMPDEST PUSH0 PUSH2 0x4CE4 PUSH1 0x2A DUP4 PUSH2 0x3402 JUMP JUMPDEST SWAP2 POP PUSH2 0x4CEF DUP3 PUSH2 0x4C8A JUMP JUMPDEST PUSH1 0x40 DUP3 ADD SWAP1 POP SWAP2 SWAP1 POP JUMP JUMPDEST PUSH0 PUSH1 0x20 DUP3 ADD SWAP1 POP DUP2 DUP2 SUB PUSH0 DUP4 ADD MSTORE PUSH2 0x4D11 DUP2 PUSH2 0x4CD8 JUMP JUMPDEST SWAP1 POP SWAP2 SWAP1 POP JUMP JUMPDEST PUSH32 0x455243333532353A207472616E7366657220746F20746F6B656E207769746820 PUSH0 DUP3 ADD MSTORE PUSH32 0x646966666572656E7420736C6F74000000000000000000000000000000000000 PUSH1 0x20 DUP3 ADD MSTORE POP JUMP JUMPDEST PUSH0 PUSH2 0x4D72 PUSH1 0x2E DUP4 PUSH2 0x3402 JUMP JUMPDEST SWAP2 POP PUSH2 0x4D7D DUP3 PUSH2 0x4D18 JUMP JUMPDEST PUSH1 0x40 DUP3 ADD SWAP1 POP SWAP2 SWAP1 POP JUMP JUMPDEST PUSH0 PUSH1 0x20 DUP3 ADD SWAP1 POP DUP2 DUP2 SUB PUSH0 DUP4 ADD MSTORE PUSH2 0x4D9F DUP2 PUSH2 0x4D66 JUMP JUMPDEST SWAP1 POP SWAP2 SWAP1 POP JUMP JUMPDEST PUSH0 PUSH2 0x4DB0 DUP3 PUSH2 0x34A2 JUMP JUMPDEST SWAP2 POP PUSH2 0x4DBB DUP4 PUSH2 0x34A2 JUMP JUMPDEST SWAP3 POP DUP3 DUP3 ADD SWAP1 POP DUP1 DUP3 GT ISZERO PUSH2 0x4DD3 JUMPI PUSH2 0x4DD2 PUSH2 0x498A JUMP JUMPDEST JUMPDEST SWAP3 SWAP2 POP POP JUMP JUMPDEST PUSH32 0x455243333532353A207472616E736665722072656A6563746564206279204552 PUSH0 DUP3 ADD MSTORE PUSH32 0x4333353235526563656976657200000000000000000000000000000000000000 PUSH1 0x20 DUP3 ADD MSTORE POP JUMP JUMPDEST PUSH0 PUSH2 0x4E33 PUSH1 0x2D DUP4 PUSH2 0x3402 JUMP JUMPDEST SWAP2 POP PUSH2 0x4E3E DUP3 PUSH2 0x4DD9 JUMP JUMPDEST PUSH1 0x40 DUP3 ADD SWAP1 POP SWAP2 SWAP1 POP JUMP JUMPDEST PUSH0 PUSH1 0x20 DUP3 ADD SWAP1 POP DUP2 DUP2 SUB PUSH0 DUP4 ADD MSTORE PUSH2 0x4E60 DUP2 PUSH2 0x4E27 JUMP JUMPDEST SWAP1 POP SWAP2 SWAP1 POP JUMP JUMPDEST PUSH32 0x455243333532353A207472616E736665722066726F6D20696E76616C6964206F PUSH0 DUP3 ADD MSTORE PUSH32 0x776E657200000000000000000000000000000000000000000000000000000000 PUSH1 0x20 DUP3 ADD MSTORE POP JUMP JUMPDEST PUSH0 PUSH2 0x4EC1 PUSH1 0x24 DUP4 PUSH2 0x3402 JUMP JUMPDEST SWAP2 POP PUSH2 0x4ECC DUP3 PUSH2 0x4E67 JUMP JUMPDEST PUSH1 0x40 DUP3 ADD SWAP1 POP SWAP2 SWAP1 POP JUMP JUMPDEST PUSH0 PUSH1 0x20 DUP3 ADD SWAP1 POP DUP2 DUP2 SUB PUSH0 DUP4 ADD MSTORE PUSH2 0x4EEE DUP2 PUSH2 0x4EB5 JUMP JUMPDEST SWAP1 POP SWAP2 SWAP1 POP JUMP JUMPDEST PUSH32 0x455243333532353A207472616E7366657220746F20746865207A65726F206164 PUSH0 DUP3 ADD MSTORE PUSH32 0x6472657373000000000000000000000000000000000000000000000000000000 PUSH1 0x20 DUP3 ADD MSTORE POP JUMP JUMPDEST PUSH0 PUSH2 0x4F4F PUSH1 0x25 DUP4 PUSH2 0x3402 JUMP JUMPDEST SWAP2 POP PUSH2 0x4F5A DUP3 PUSH2 0x4EF5 JUMP JUMPDEST PUSH1 0x40 DUP3 ADD SWAP1 POP SWAP2 SWAP1 POP JUMP JUMPDEST PUSH0 PUSH1 0x20 DUP3 ADD SWAP1 POP DUP2 DUP2 SUB PUSH0 DUP4 ADD MSTORE PUSH2 0x4F7C DUP2 PUSH2 0x4F43 JUMP JUMPDEST SWAP1 POP SWAP2 SWAP1 POP JUMP JUMPDEST PUSH32 0x455243333532353A20617070726F76652076616C756520746F20746865207A65 PUSH0 DUP3 ADD MSTORE PUSH32 0x726F206164647265737300000000000000000000000000000000000000000000 PUSH1 0x20 DUP3 ADD MSTORE POP JUMP JUMPDEST PUSH0 PUSH2 0x4FDD PUSH1 0x2A DUP4 PUSH2 0x3402 JUMP JUMPDEST SWAP2 POP PUSH2 0x4FE8 DUP3 PUSH2 0x4F83 JUMP JUMPDEST PUSH1 0x40 DUP3 ADD SWAP1 POP SWAP2 SWAP1 POP JUMP JUMPDEST PUSH0 PUSH1 0x20 DUP3 ADD SWAP1 POP DUP2 DUP2 SUB PUSH0 DUP4 ADD MSTORE PUSH2 0x500A DUP2 PUSH2 0x4FD1 JUMP JUMPDEST SWAP1 POP SWAP2 SWAP1 POP JUMP JUMPDEST PUSH32 0x455243333532353A20617070726F766520746F2063616C6C6572000000000000 PUSH0 DUP3 ADD MSTORE POP JUMP JUMPDEST PUSH0 PUSH2 0x5045 PUSH1 0x1A DUP4 PUSH2 0x3402 JUMP JUMPDEST SWAP2 POP PUSH2 0x5050 DUP3 PUSH2 0x5011 JUMP JUMPDEST PUSH1 0x20 DUP3 ADD SWAP1 POP SWAP2 SWAP1 POP JUMP JUMPDEST PUSH0 PUSH1 0x20 DUP3 ADD SWAP1 POP DUP2 DUP2 SUB PUSH0 DUP4 ADD MSTORE PUSH2 0x5072 DUP2 PUSH2 0x5039 JUMP JUMPDEST SWAP1 POP SWAP2 SWAP1 POP JUMP JUMPDEST PUSH32 0x455243333532353A207472616E7366657220746F206E6F6E2045524337323152 PUSH0 DUP3 ADD MSTORE PUSH32 0x6563656976657200000000000000000000000000000000000000000000000000 PUSH1 0x20 DUP3 ADD MSTORE POP JUMP JUMPDEST PUSH0 PUSH2 0x50D3 PUSH1 0x27 DUP4 PUSH2 0x3402 JUMP JUMPDEST SWAP2 POP PUSH2 0x50DE DUP3 PUSH2 0x5079 JUMP JUMPDEST PUSH1 0x40 DUP3 ADD SWAP1 POP SWAP2 SWAP1 POP JUMP JUMPDEST PUSH0 PUSH1 0x20 DUP3 ADD SWAP1 POP DUP2 DUP2 SUB PUSH0 DUP4 ADD MSTORE PUSH2 0x5100 DUP2 PUSH2 0x50C7 JUMP JUMPDEST SWAP1 POP SWAP2 SWAP1 POP JUMP JUMPDEST PUSH0 PUSH2 0x5111 DUP3 PUSH2 0x34A2 JUMP JUMPDEST SWAP2 POP PUSH32 0xFFFFFFFFFFFFFFFFFFFFFFFFFFFFFFFFFFFFFFFFFFFFFFFFFFFFFFFFFFFFFFFF DUP3 SUB PUSH2 0x5143 JUMPI PUSH2 0x5142 PUSH2 0x498A JUMP JUMPDEST JUMPDEST PUSH1 0x1 DUP3 ADD SWAP1 POP SWAP2 SWAP1 POP JUMP JUMPDEST PUSH2 0x5157 DUP2 PUSH2 0x3345 JUMP JUMPDEST DUP3 MSTORE POP POP JUMP JUMPDEST PUSH0 PUSH1 0x20 DUP3 ADD SWAP1 POP PUSH2 0x5170 PUSH0 DUP4 ADD DUP5 PUSH2 0x514E JUMP JUMPDEST SWAP3 SWAP2 POP POP JUMP JUMPDEST PUSH0 DUP2 MLOAD SWAP1 POP PUSH2 0x5184 DUP2 PUSH2 0x37FB JUMP JUMPDEST SWAP3 SWAP2 POP POP JUMP JUMPDEST PUSH0 PUSH1 0x20 DUP3 DUP5 SUB SLT ISZERO PUSH2 0x519F JUMPI PUSH2 0x519E PUSH2 0x333D JUMP JUMPDEST JUMPDEST PUSH0 PUSH2 0x51AC DUP5 DUP3 DUP6 ADD PUSH2 0x5176 JUMP JUMPDEST SWAP2 POP POP SWAP3 SWAP2 POP POP JUMP JUMPDEST PUSH0 DUP2 MLOAD SWAP1 POP SWAP2 SWAP1 POP JUMP JUMPDEST PUSH0 DUP3 DUP3 MSTORE PUSH1 0x20 DUP3 ADD SWAP1 POP SWAP3 SWAP2 POP POP JUMP JUMPDEST PUSH0 PUSH2 0x51D9 DUP3 PUSH2 0x51B5 JUMP JUMPDEST PUSH2 0x51E3 DUP2 DUP6 PUSH2 0x51BF JUMP JUMPDEST SWAP4 POP PUSH2 0x51F3 DUP2 DUP6 PUSH1 0x20 DUP7 ADD PUSH2 0x3412 JUMP JUMPDEST PUSH2 0x51FC DUP2 PUSH2 0x343A JUMP JUMPDEST DUP5 ADD SWAP2 POP POP SWAP3 SWAP2 POP POP JUMP JUMPDEST PUSH0 PUSH1 0xA0 DUP3 ADD SWAP1 POP PUSH2 0x521A PUSH0 DUP4 ADD DUP9 PUSH2 0x3530 JUMP JUMPDEST PUSH2 0x5227 PUSH1 0x20 DUP4 ADD DUP8 PUSH2 0x3610 JUMP JUMPDEST PUSH2 0x5234 PUSH1 0x40 DUP4 ADD DUP7 PUSH2 0x3610 JUMP JUMPDEST PUSH2 0x5241 PUSH1 0x60 DUP4 ADD DUP6 PUSH2 0x3610 JUMP JUMPDEST DUP2 DUP2 SUB PUSH1 0x80 DUP4 ADD MSTORE PUSH2 0x5253 DUP2 DUP5 PUSH2 0x51CF JUMP JUMPDEST SWAP1 POP SWAP7 SWAP6 POP POP POP POP POP POP JUMP JUMPDEST PUSH0 DUP2 MLOAD SWAP1 POP PUSH2 0x526D DUP2 PUSH2 0x3370 JUMP JUMPDEST SWAP3 SWAP2 POP POP JUMP JUMPDEST PUSH0 PUSH1 0x20 DUP3 DUP5 SUB SLT ISZERO PUSH2 0x5288 JUMPI PUSH2 0x5287 PUSH2 0x333D JUMP JUMPDEST JUMPDEST PUSH0 PUSH2 0x5295 DUP5 DUP3 DUP6 ADD PUSH2 0x525F JUMP JUMPDEST SWAP2 POP POP SWAP3 SWAP2 POP POP JUMP JUMPDEST PUSH32 0x4E487B7100000000000000000000000000000000000000000000000000000000 PUSH0 MSTORE PUSH1 0x31 PUSH1 0x4 MSTORE PUSH1 0x24 PUSH0 REVERT JUMPDEST PUSH0 PUSH1 0x80 DUP3 ADD SWAP1 POP PUSH2 0x52DE PUSH0 DUP4 ADD DUP8 PUSH2 0x3530 JUMP JUMPDEST PUSH2 0x52EB PUSH1 0x20 DUP4 ADD DUP7 PUSH2 0x3530 JUMP JUMPDEST PUSH2 0x52F8 PUSH1 0x40 DUP4 ADD DUP6 PUSH2 0x3610 JUMP JUMPDEST DUP2 DUP2 SUB PUSH1 0x60 DUP4 ADD MSTORE PUSH2 0x530A DUP2 DUP5 PUSH2 0x51CF JUMP JUMPDEST SWAP1 POP SWAP6 SWAP5 POP POP POP POP POP JUMP JUMPDEST PUSH32 0x4552433732313A207472616E7366657220746F206E6F6E204552433732315265 PUSH0 DUP3 ADD MSTORE PUSH32 0x63656976657220696D706C656D656E7465720000000000000000000000000000 PUSH1 0x20 DUP3 ADD MSTORE POP JUMP JUMPDEST PUSH0 PUSH2 0x536F PUSH1 0x32 DUP4 PUSH2 0x3402 JUMP JUMPDEST SWAP2 POP PUSH2 0x537A DUP3 PUSH2 0x5315 JUMP JUMPDEST PUSH1 0x40 DUP3 ADD SWAP1 POP SWAP2 SWAP1 POP JUMP JUMPDEST PUSH0 PUSH1 0x20 DUP3 ADD SWAP1 POP DUP2 DUP2 SUB PUSH0 DUP4 ADD MSTORE PUSH2 0x539C DUP2 PUSH2 0x5363 JUMP JUMPDEST SWAP1 POP SWAP2 SWAP1 POP JUMP JUMPDEST PUSH0 PUSH2 0x53AD DUP3 PUSH2 0x34A2 JUMP JUMPDEST SWAP2 POP PUSH2 0x53B8 DUP4 PUSH2 0x34A2 JUMP JUMPDEST SWAP3 POP DUP3 DUP3 MUL PUSH2 0x53C6 DUP2 PUSH2 0x34A2 JUMP JUMPDEST SWAP2 POP DUP3 DUP3 DIV DUP5 EQ DUP4 ISZERO OR PUSH2 0x53DD JUMPI PUSH2 0x53DC PUSH2 0x498A JUMP JUMPDEST JUMPDEST POP SWAP3 SWAP2 POP POP JUMP JUMPDEST PUSH0 PUSH2 0x53EE DUP3 PUSH2 0x34A2 JUMP JUMPDEST SWAP2 POP PUSH0 DUP3 SUB PUSH2 0x5400 JUMPI PUSH2 0x53FF PUSH2 0x498A JUMP JUMPDEST JUMPDEST PUSH1 0x1 DUP3 SUB SWAP1 POP SWAP2 SWAP1 POP JUMP JUMPDEST PUSH0 PUSH1 0x40 DUP3 ADD SWAP1 POP PUSH2 0x541E PUSH0 DUP4 ADD DUP6 PUSH2 0x3610 JUMP JUMPDEST PUSH2 0x542B PUSH1 0x20 DUP4 ADD DUP5 PUSH2 0x3610 JUMP JUMPDEST SWAP4 SWAP3 POP POP POP JUMP INVALID LOG2 PUSH5 0x6970667358 0x22 SLT KECCAK256 0xB7 GT 0xB0 0x2A SWAP14 0xE0 ISZERO SWAP14 0xCF SELFBALANCE PUSH13 0xC2978FE0370AC95FBE6FACBB20 SWAP15 0x24 SELFDESTRUCT SWAP2 RETURN 0xD5 BLOCKHASH SWAP14 PUSH5 0x736F6C6343 STOP ADDMOD OR STOP CALLER "
		},
		"gasEstimates": {
			"creation": {
				"codeDepositCost": "4321600",
				"executionCost": "infinite",
				"totalCost": "infinite"
			},
			"external": {
				"allowance(uint256,address)": "infinite",
				"approve(address,uint256)": "infinite",
				"approve(uint256,address,uint256)": "infinite",
				"balanceOf(address)": "2967",
				"balanceOf(uint256)": "infinite",
				"contractURI()": "infinite",
				"getApproved(uint256)": "15944",
				"isApprovedForAll(address,address)": "infinite",
				"metadataDescriptor()": "infinite",
				"mint(address,uint256,uint256)": "infinite",
				"name()": "infinite",
				"owner()": "2597",
				"ownerOf(uint256)": "16007",
				"safeTransferFrom(address,address,uint256)": "infinite",
				"safeTransferFrom(address,address,uint256,bytes)": "infinite",
				"setApprovalForAll(address,bool)": "infinite",
				"slotOf(uint256)": "infinite",
				"slotURI(uint256)": "infinite",
				"supportsInterface(bytes4)": "906",
				"symbol()": "infinite",
				"tokenByIndex(uint256)": "infinite",
				"tokenOfOwnerByIndex(address,uint256)": "infinite",
				"tokenURI(uint256)": "infinite",
				"totalSupply()": "2486",
				"transferFrom(address,address,uint256)": "infinite",
				"transferFrom(uint256,address,uint256)": "infinite",
				"transferFrom(uint256,uint256,uint256)": "infinite",
				"valueDecimals()": "2562"
			}
		},
		"methodIdentifiers": {
			"allowance(uint256,address)": "e345e0bc",
			"approve(address,uint256)": "095ea7b3",
			"approve(uint256,address,uint256)": "8cb0a511",
			"balanceOf(address)": "70a08231",
			"balanceOf(uint256)": "9cc7f708",
			"contractURI()": "e8a3d485",
			"getApproved(uint256)": "081812fc",
			"isApprovedForAll(address,address)": "e985e9c5",
			"metadataDescriptor()": "840f7113",
			"mint(address,uint256,uint256)": "156e29f6",
			"name()": "06fdde03",
			"owner()": "8da5cb5b",
			"ownerOf(uint256)": "6352211e",
			"safeTransferFrom(address,address,uint256)": "42842e0e",
			"safeTransferFrom(address,address,uint256,bytes)": "b88d4fde",
			"setApprovalForAll(address,bool)": "a22cb465",
			"slotOf(uint256)": "263f3e7e",
			"slotURI(uint256)": "09c3dd87",
			"supportsInterface(bytes4)": "01ffc9a7",
			"symbol()": "95d89b41",
			"tokenByIndex(uint256)": "4f6ccce7",
			"tokenOfOwnerByIndex(address,uint256)": "2f745c59",
			"tokenURI(uint256)": "c87b56dd",
			"totalSupply()": "18160ddd",
			"transferFrom(address,address,uint256)": "23b872dd",
			"transferFrom(uint256,address,uint256)": "0f485c02",
			"transferFrom(uint256,uint256,uint256)": "310ed7f0",
			"valueDecimals()": "3e7e8669"
		}
	},
	"abi": [
		{
			"inputs": [
				{
					"internalType": "address",
					"name": "owner_",
					"type": "address"
				}
			],
			"stateMutability": "nonpayable",
			"type": "constructor"
		},
		{
			"inputs": [
				{
					"internalType": "uint256",
					"name": "value",
					"type": "uint256"
				},
				{
					"internalType": "uint256",
					"name": "length",
					"type": "uint256"
				}
			],
			"name": "StringsInsufficientHexLength",
			"type": "error"
		},
		{
			"anonymous": false,
			"inputs": [
				{
					"indexed": true,
					"internalType": "address",
					"name": "_owner",
					"type": "address"
				},
				{
					"indexed": true,
					"internalType": "address",
					"name": "_approved",
					"type": "address"
				},
				{
					"indexed": true,
					"internalType": "uint256",
					"name": "_tokenId",
					"type": "uint256"
				}
			],
			"name": "Approval",
			"type": "event"
		},
		{
			"anonymous": false,
			"inputs": [
				{
					"indexed": true,
					"internalType": "address",
					"name": "_owner",
					"type": "address"
				},
				{
					"indexed": true,
					"internalType": "address",
					"name": "_operator",
					"type": "address"
				},
				{
					"indexed": false,
					"internalType": "bool",
					"name": "_approved",
					"type": "bool"
				}
			],
			"name": "ApprovalForAll",
			"type": "event"
		},
		{
			"anonymous": false,
			"inputs": [
				{
					"indexed": true,
					"internalType": "uint256",
					"name": "_tokenId",
					"type": "uint256"
				},
				{
					"indexed": true,
					"internalType": "address",
					"name": "_operator",
					"type": "address"
				},
				{
					"indexed": false,
					"internalType": "uint256",
					"name": "_value",
					"type": "uint256"
				}
			],
			"name": "ApprovalValue",
			"type": "event"
		},
		{
			"anonymous": false,
			"inputs": [
				{
					"indexed": true,
					"internalType": "address",
					"name": "metadataDescriptor",
					"type": "address"
				}
			],
			"name": "SetMetadataDescriptor",
			"type": "event"
		},
		{
			"anonymous": false,
			"inputs": [
				{
					"indexed": true,
					"internalType": "uint256",
					"name": "_tokenId",
					"type": "uint256"
				},
				{
					"indexed": true,
					"internalType": "uint256",
					"name": "_oldSlot",
					"type": "uint256"
				},
				{
					"indexed": true,
					"internalType": "uint256",
					"name": "_newSlot",
					"type": "uint256"
				}
			],
			"name": "SlotChanged",
			"type": "event"
		},
		{
			"anonymous": false,
			"inputs": [
				{
					"indexed": true,
					"internalType": "address",
					"name": "_from",
					"type": "address"
				},
				{
					"indexed": true,
					"internalType": "address",
					"name": "_to",
					"type": "address"
				},
				{
					"indexed": true,
					"internalType": "uint256",
					"name": "_tokenId",
					"type": "uint256"
				}
			],
			"name": "Transfer",
			"type": "event"
		},
		{
			"anonymous": false,
			"inputs": [
				{
					"indexed": true,
					"internalType": "uint256",
					"name": "_fromTokenId",
					"type": "uint256"
				},
				{
					"indexed": true,
					"internalType": "uint256",
					"name": "_toTokenId",
					"type": "uint256"
				},
				{
					"indexed": false,
					"internalType": "uint256",
					"name": "_value",
					"type": "uint256"
				}
			],
			"name": "TransferValue",
			"type": "event"
		},
		{
			"inputs": [
				{
					"internalType": "uint256",
					"name": "tokenId_",
					"type": "uint256"
				},
				{
					"internalType": "address",
					"name": "operator_",
					"type": "address"
				}
			],
			"name": "allowance",
			"outputs": [
				{
					"internalType": "uint256",
					"name": "",
					"type": "uint256"
				}
			],
			"stateMutability": "view",
			"type": "function"
		},
		{
			"inputs": [
				{
					"internalType": "address",
					"name": "to_",
					"type": "address"
				},
				{
					"internalType": "uint256",
					"name": "tokenId_",
					"type": "uint256"
				}
			],
			"name": "approve",
			"outputs": [],
			"stateMutability": "payable",
			"type": "function"
		},
		{
			"inputs": [
				{
					"internalType": "uint256",
					"name": "tokenId_",
					"type": "uint256"
				},
				{
					"internalType": "address",
					"name": "to_",
					"type": "address"
				},
				{
					"internalType": "uint256",
					"name": "value_",
					"type": "uint256"
				}
			],
			"name": "approve",
			"outputs": [],
			"stateMutability": "payable",
			"type": "function"
		},
		{
			"inputs": [
				{
					"internalType": "address",
					"name": "owner_",
					"type": "address"
				}
			],
			"name": "balanceOf",
			"outputs": [
				{
					"internalType": "uint256",
					"name": "balance",
					"type": "uint256"
				}
			],
			"stateMutability": "view",
			"type": "function"
		},
		{
			"inputs": [
				{
					"internalType": "uint256",
					"name": "tokenId_",
					"type": "uint256"
				}
			],
			"name": "balanceOf",
			"outputs": [
				{
					"internalType": "uint256",
					"name": "",
					"type": "uint256"
				}
			],
			"stateMutability": "view",
			"type": "function"
		},
		{
			"inputs": [],
			"name": "contractURI",
			"outputs": [
				{
					"internalType": "string",
					"name": "",
					"type": "string"
				}
			],
			"stateMutability": "view",
			"type": "function"
		},
		{
			"inputs": [
				{
					"internalType": "uint256",
					"name": "tokenId_",
					"type": "uint256"
				}
			],
			"name": "getApproved",
			"outputs": [
				{
					"internalType": "address",
					"name": "",
					"type": "address"
				}
			],
			"stateMutability": "view",
			"type": "function"
		},
		{
			"inputs": [
				{
					"internalType": "address",
					"name": "owner_",
					"type": "address"
				},
				{
					"internalType": "address",
					"name": "operator_",
					"type": "address"
				}
			],
			"name": "isApprovedForAll",
			"outputs": [
				{
					"internalType": "bool",
					"name": "",
					"type": "bool"
				}
			],
			"stateMutability": "view",
			"type": "function"
		},
		{
			"inputs": [],
			"name": "metadataDescriptor",
			"outputs": [
				{
					"internalType": "contract IERC3525MetadataDescriptor",
					"name": "",
					"type": "address"
				}
			],
			"stateMutability": "view",
			"type": "function"
		},
		{
			"inputs": [
				{
					"internalType": "address",
					"name": "to_",
					"type": "address"
				},
				{
					"internalType": "uint256",
					"name": "slot_",
					"type": "uint256"
				},
				{
					"internalType": "uint256",
					"name": "amount_",
					"type": "uint256"
				}
			],
			"name": "mint",
			"outputs": [],
			"stateMutability": "nonpayable",
			"type": "function"
		},
		{
			"inputs": [],
			"name": "name",
			"outputs": [
				{
					"internalType": "string",
					"name": "",
					"type": "string"
				}
			],
			"stateMutability": "view",
			"type": "function"
		},
		{
			"inputs": [],
			"name": "owner",
			"outputs": [
				{
					"internalType": "address",
					"name": "",
					"type": "address"
				}
			],
			"stateMutability": "view",
			"type": "function"
		},
		{
			"inputs": [
				{
					"internalType": "uint256",
					"name": "tokenId_",
					"type": "uint256"
				}
			],
			"name": "ownerOf",
			"outputs": [
				{
					"internalType": "address",
					"name": "owner_",
					"type": "address"
				}
			],
			"stateMutability": "view",
			"type": "function"
		},
		{
			"inputs": [
				{
					"internalType": "address",
					"name": "from_",
					"type": "address"
				},
				{
					"internalType": "address",
					"name": "to_",
					"type": "address"
				},
				{
					"internalType": "uint256",
					"name": "tokenId_",
					"type": "uint256"
				}
			],
			"name": "safeTransferFrom",
			"outputs": [],
			"stateMutability": "payable",
			"type": "function"
		},
		{
			"inputs": [
				{
					"internalType": "address",
					"name": "from_",
					"type": "address"
				},
				{
					"internalType": "address",
					"name": "to_",
					"type": "address"
				},
				{
					"internalType": "uint256",
					"name": "tokenId_",
					"type": "uint256"
				},
				{
					"internalType": "bytes",
					"name": "data_",
					"type": "bytes"
				}
			],
			"name": "safeTransferFrom",
			"outputs": [],
			"stateMutability": "payable",
			"type": "function"
		},
		{
			"inputs": [
				{
					"internalType": "address",
					"name": "operator_",
					"type": "address"
				},
				{
					"internalType": "bool",
					"name": "approved_",
					"type": "bool"
				}
			],
			"name": "setApprovalForAll",
			"outputs": [],
			"stateMutability": "nonpayable",
			"type": "function"
		},
		{
			"inputs": [
				{
					"internalType": "uint256",
					"name": "tokenId_",
					"type": "uint256"
				}
			],
			"name": "slotOf",
			"outputs": [
				{
					"internalType": "uint256",
					"name": "",
					"type": "uint256"
				}
			],
			"stateMutability": "view",
			"type": "function"
		},
		{
			"inputs": [
				{
					"internalType": "uint256",
					"name": "slot_",
					"type": "uint256"
				}
			],
			"name": "slotURI",
			"outputs": [
				{
					"internalType": "string",
					"name": "",
					"type": "string"
				}
			],
			"stateMutability": "view",
			"type": "function"
		},
		{
			"inputs": [
				{
					"internalType": "bytes4",
					"name": "interfaceId",
					"type": "bytes4"
				}
			],
			"name": "supportsInterface",
			"outputs": [
				{
					"internalType": "bool",
					"name": "",
					"type": "bool"
				}
			],
			"stateMutability": "view",
			"type": "function"
		},
		{
			"inputs": [],
			"name": "symbol",
			"outputs": [
				{
					"internalType": "string",
					"name": "",
					"type": "string"
				}
			],
			"stateMutability": "view",
			"type": "function"
		},
		{
			"inputs": [
				{
					"internalType": "uint256",
					"name": "index_",
					"type": "uint256"
				}
			],
			"name": "tokenByIndex",
			"outputs": [
				{
					"internalType": "uint256",
					"name": "",
					"type": "uint256"
				}
			],
			"stateMutability": "view",
			"type": "function"
		},
		{
			"inputs": [
				{
					"internalType": "address",
					"name": "owner_",
					"type": "address"
				},
				{
					"internalType": "uint256",
					"name": "index_",
					"type": "uint256"
				}
			],
			"name": "tokenOfOwnerByIndex",
			"outputs": [
				{
					"internalType": "uint256",
					"name": "",
					"type": "uint256"
				}
			],
			"stateMutability": "view",
			"type": "function"
		},
		{
			"inputs": [
				{
					"internalType": "uint256",
					"name": "tokenId_",
					"type": "uint256"
				}
			],
			"name": "tokenURI",
			"outputs": [
				{
					"internalType": "string",
					"name": "",
					"type": "string"
				}
			],
			"stateMutability": "view",
			"type": "function"
		},
		{
			"inputs": [],
			"name": "totalSupply",
			"outputs": [
				{
					"internalType": "uint256",
					"name": "",
					"type": "uint256"
				}
			],
			"stateMutability": "view",
			"type": "function"
		},
		{
			"inputs": [
				{
					"internalType": "uint256",
					"name": "fromTokenId_",
					"type": "uint256"
				},
				{
					"internalType": "address",
					"name": "to_",
					"type": "address"
				},
				{
					"internalType": "uint256",
					"name": "value_",
					"type": "uint256"
				}
			],
			"name": "transferFrom",
			"outputs": [
				{
					"internalType": "uint256",
					"name": "newTokenId",
					"type": "uint256"
				}
			],
			"stateMutability": "payable",
			"type": "function"
		},
		{
			"inputs": [
				{
					"internalType": "address",
					"name": "from_",
					"type": "address"
				},
				{
					"internalType": "address",
					"name": "to_",
					"type": "address"
				},
				{
					"internalType": "uint256",
					"name": "tokenId_",
					"type": "uint256"
				}
			],
			"name": "transferFrom",
			"outputs": [],
			"stateMutability": "payable",
			"type": "function"
		},
		{
			"inputs": [
				{
					"internalType": "uint256",
					"name": "fromTokenId_",
					"type": "uint256"
				},
				{
					"internalType": "uint256",
					"name": "toTokenId_",
					"type": "uint256"
				},
				{
					"internalType": "uint256",
					"name": "value_",
					"type": "uint256"
				}
			],
			"name": "transferFrom",
			"outputs": [],
			"stateMutability": "payable",
			"type": "function"
		},
		{
			"inputs": [],
			"name": "valueDecimals",
			"outputs": [
				{
					"internalType": "uint8",
					"name": "",
					"type": "uint8"
				}
			],
			"stateMutability": "view",
			"type": "function"
		}
	]
}