{
	"data": {
		"bytecode": {
			"linkReferences": {},
			"object": "608060405234801561000f575f80fd5b50610a2d8061001d5f395ff3fe608060405234801561000f575f80fd5b5060043610610029575f3560e01c8063bff261261461002d575b5f80fd5b61004061003b3660046100e3565b610056565b60405161004d919061011c565b60405180910390f35b60605f6040518061022001604052806101ff81526020016101916101ff913990505f604051806103a001604052806103678152602001610390610367913990505f60405180610340016040528061030181526020016106f7610301913990508282826040516020016100ca9392919061014e565b6040516020818303038152906040529350505050919050565b5f602082840312156100f3575f80fd5b5035919050565b5f5b838110156101145781810151838201526020016100fc565b50505f910152565b602081525f825180602084015261013a8160408501602087016100fa565b601f01601f19169190910160400192915050565b5f845161015f8184602089016100fa565b8451908301906101738183602089016100fa565b84519101906101868183602088016100fa565b019594505050505056fe3c73766720786d6c6e733d22687474703a2f2f7777772e77332e6f72672f323030302f737667222077696474683d2236303022206865696768743d22343030222076696577426f783d223020302036303020343030222066696c6c3d226e6f6e65223e3c726563742077696474683d2236303022206865696768743d22343030222072783d223230222066696c6c3d227768697465222f3e3c7265637420783d22302e352220793d22302e35222077696474683d2235393922206865696768743d22333939222072783d22323022207374726f6b653d2223463946394639222f3e3c6d61736b2069643d226d5f333532355f3122207374796c653d226d61736b2d747970653a616c70686122206d61736b556e6974733d227573657253706163654f6e5573652220783d223330302220793d2230222077696474683d2233303022206865696768743d22343030223e3c7061746820643d224d33303020304835383043353930203020363030203820363030203230563338304336303020333932203539302034303020353830203430304833303056305a222066696c6c3d227768697465222f3e3c2f6d61736b3e3c67206d61736b3d2275726c28236d5f333532355f3129223e3c7265637420783d22333030222077696474683d2233303022206865696768743d22343030222066696c6c3d2223343139323845222f3e3c73766720783d223233342220793d223530222077696474683d2236303022206865696768743d22363030222076696577426f783d223020302031303020313030222066696c6c3d222330303030303022207374726f6b653d222330303030303022207374726f6b652d77696474683d22302e3030303732223e3c7469746c653e68656c69636f707465723c2f7469746c653e3c7061746820643d224d36302e36342c32382e3161312e32342c312e32342c302c302c302d312e32372d312e32326c2d31342e38392d2e3333632e36312d2e39312c312e35312d322e30352c322e37382d332e35372c362e31362d372e33362c342e31392d392e382c342e31392d392e38732d322e32382d322d392e39312c332e3834632d312e33312c312d322e33342c312e37362d332e31392c322e33316c2e332d31342e303961312e31392c312e31392c302c312c302d322e33382c306c2d2e33342c31352e3333632d322c2e34342d332d312e32352d372e33332d332e33312c302c302d322e33342e39312d322e38362c322e37376133392e34312c33392e34312c302c302c312c332e33392c362e32346c2d31342e352d2e333161312e322c312e322c302c312c302d2e30352c322e33396c31342e362e333161312e32382c312e32382c302c302c302c2e33352e35394c31392e38342c34312e36316c2d342e35372d332e32342e35342d312e32355331322c33392e372c31312e352c34312e33346c2d2e31342c322c312e33372d2e34382e34312d312e33314c31362c34352e3931732d2e37392e392d2e32342c312e34372c312e35352d2e312c312e35352d2e316c342e33352c332e312d312e33322e33352d2e35342c312e33352c322c3063312e36352d2e33392c342e342d342e31332c342e342d342e31336c2d312e32382e34392d332d342e37312c31322e38312d392e313561312e33312c312e33312c302c302c302c312c2e34356c2d2e33322c313561312e31392c312e31392c302c312c302c322e33382c304c33382c33352e32336134322e31372c34322e31372c302c302c312c352e36372c332e343763312e38382d2e34342c322e38372d322e37352c322e38372d322e37352d312e37312d342e312d332e32342d352e33342d332e30392d376c31352e38372e333441312e32352c312e32352c302c302c302c36302e36342c32382e315a222f3e3c2f7376673e3c2f673e3c746578742066696c6c3d22233230323032302220666f6e742d66616d696c793d22417269616c2220666f6e742d73697a653d223132223e3c747370616e20783d2232362220793d2234312220666f6e742d73697a653d2231362220666f6e742d7765696768743d22626f6c64223e434845434b4e46543c2f747370616e3e3c747370616e20783d2232362220793d2238382220666f6e742d73697a653d2233382220666f6e742d7765696768743d22626f6c64223e414d4f554e543c2f747370616e3e3c747370616e20783d2232362220793d223132332220666f6e742d73697a653d2231342220666f6e742d7765696768743d22626f6c64222066696c6c3d2223343133323845223e564d414e3c2f747370616e3e3c747370616e20783d2232362220793d22313432223e23746f6b656e49443c2f747370616e3e3c747370616e20783d2232362220793d22323830223e544f4b454e2056414c55453c2f747370616e3e3c747370616e20783d2232362220793d22333030223e524543494556454420444154453c2f747370616e3e3c747370616e20783d223235302220793d223238302220746578742d616e63686f723d22656e64223e3030303030303c2f747370616e3e3c747370616e20783d223235302220793d223330302220746578742d616e63686f723d22656e64223e64642f6d6d2f797979793c2f747370616e3e3c747370616e20783d2232362220793d223334342220666f6e742d73697a653d2237223e4f776e65723a203078303030303030303030303030303030303030303030303c2f747370616e3e3c747370616e20783d2232362220793d223335362220666f6e742d73697a653d2237223e55706461746564206f6e3a2064642f6d6d2f797979793c2f747370616e3e3c747370616e20783d2232302220793d223338302220666f6e742d73697a653d2237222066696c6c3d22626c61636b222066696c6c2d6f7061636974793d22302e36223e44656d6f20564d414e204e4654203c2f747370616e3e3c2f746578743e3c2f7376673ea26469706673582212208a25c161ded1993679e72f876d3efacc10fa82cc8f3cdc5d49ebb9e930eecd6f64736f6c63430008140033",
			"opcodes": "PUSH1 0x80 PUSH1 0x40 MSTORE CALLVALUE DUP1 ISZERO PUSH2 0xF JUMPI PUSH0 DUP1 REVERT JUMPDEST POP PUSH2 0xA2D DUP1 PUSH2 0x1D PUSH0 CODECOPY PUSH0 RETURN INVALID PUSH1 0x80 PUSH1 0x40 MSTORE CALLVALUE DUP1 ISZERO PUSH2 0xF JUMPI PUSH0 DUP1 REVERT JUMPDEST POP PUSH1 0x4 CALLDATASIZE LT PUSH2 0x29 JUMPI PUSH0 CALLDATALOAD PUSH1 0xE0 SHR DUP1 PUSH4 0xBFF26126 EQ PUSH2 0x2D JUMPI JUMPDEST PUSH0 DUP1 REVERT JUMPDEST PUSH2 0x40 PUSH2 0x3B CALLDATASIZE PUSH1 0x4 PUSH2 0xE3 JUMP JUMPDEST PUSH2 0x56 JUMP JUMPDEST PUSH1 0x40 MLOAD PUSH2 0x4D SWAP2 SWAP1 PUSH2 0x11C JUMP JUMPDEST PUSH1 0x40 MLOAD DUP1 SWAP2 SUB SWAP1 RETURN JUMPDEST PUSH1 0x60 PUSH0 PUSH1 0x40 MLOAD DUP1 PUSH2 0x220 ADD PUSH1 0x40 MSTORE DUP1 PUSH2 0x1FF DUP2 MSTORE PUSH1 0x20 ADD PUSH2 0x191 PUSH2 0x1FF SWAP2 CODECOPY SWAP1 POP PUSH0 PUSH1 0x40 MLOAD DUP1 PUSH2 0x3A0 ADD PUSH1 0x40 MSTORE DUP1 PUSH2 0x367 DUP2 MSTORE PUSH1 0x20 ADD PUSH2 0x390 PUSH2 0x367 SWAP2 CODECOPY SWAP1 POP PUSH0 PUSH1 0x40 MLOAD DUP1 PUSH2 0x340 ADD PUSH1 0x40 MSTORE DUP1 PUSH2 0x301 DUP2 MSTORE PUSH1 0x20 ADD PUSH2 0x6F7 PUSH2 0x301 SWAP2 CODECOPY SWAP1 POP DUP3 DUP3 DUP3 PUSH1 0x40 MLOAD PUSH1 0x20 ADD PUSH2 0xCA SWAP4 SWAP3 SWAP2 SWAP1 PUSH2 0x14E JUMP JUMPDEST PUSH1 0x40 MLOAD PUSH1 0x20 DUP2 DUP4 SUB SUB DUP2 MSTORE SWAP1 PUSH1 0x40 MSTORE SWAP4 POP POP POP POP SWAP2 SWAP1 POP JUMP JUMPDEST PUSH0 PUSH1 0x20 DUP3 DUP5 SUB SLT ISZERO PUSH2 0xF3 JUMPI PUSH0 DUP1 REVERT JUMPDEST POP CALLDATALOAD SWAP2 SWAP1 POP JUMP JUMPDEST PUSH0 JUMPDEST DUP4 DUP2 LT ISZERO PUSH2 0x114 JUMPI DUP2 DUP2 ADD MLOAD DUP4 DUP3 ADD MSTORE PUSH1 0x20 ADD PUSH2 0xFC JUMP JUMPDEST POP POP PUSH0 SWAP2 ADD MSTORE JUMP JUMPDEST PUSH1 0x20 DUP2 MSTORE PUSH0 DUP3 MLOAD DUP1 PUSH1 0x20 DUP5 ADD MSTORE PUSH2 0x13A DUP2 PUSH1 0x40 DUP6 ADD PUSH1 0x20 DUP8 ADD PUSH2 0xFA JUMP JUMPDEST PUSH1 0x1F ADD PUSH1 0x1F NOT AND SWAP2 SWAP1 SWAP2 ADD PUSH1 0x40 ADD SWAP3 SWAP2 POP POP JUMP JUMPDEST PUSH0 DUP5 MLOAD PUSH2 0x15F DUP2 DUP5 PUSH1 0x20 DUP10 ADD PUSH2 0xFA JUMP JUMPDEST DUP5 MLOAD SWAP1 DUP4 ADD SWAP1 PUSH2 0x173 DUP2 DUP4 PUSH1 0x20 DUP10 ADD PUSH2 0xFA JUMP JUMPDEST DUP5 MLOAD SWAP2 ADD SWAP1 PUSH2 0x186 DUP2 DUP4 PUSH1 0x20 DUP9 ADD PUSH2 0xFA JUMP JUMPDEST ADD SWAP6 SWAP5 POP POP POP POP POP JUMP INVALID EXTCODECOPY PUSH20 0x766720786D6C6E733D22687474703A2F2F777777 0x2E PUSH24 0x332E6F72672F323030302F737667222077696474683D2236 ADDRESS ADDRESS 0x22 KECCAK256 PUSH9 0x65696768743D223430 ADDRESS 0x22 KECCAK256 PUSH23 0x696577426F783D22302030203630302034303022206669 PUSH13 0x6C3D226E6F6E65223E3C726563 PUSH21 0x2077696474683D2236303022206865696768743D22 CALLVALUE ADDRESS ADDRESS 0x22 KECCAK256 PUSH19 0x783D223230222066696C6C3D22776869746522 0x2F RETURNDATACOPY EXTCODECOPY PUSH19 0x65637420783D22302E352220793D22302E3522 KECCAK256 PUSH24 0x696474683D2235393922206865696768743D223339392220 PUSH19 0x783D22323022207374726F6B653D2223463946 CODECOPY CHAINID CODECOPY 0x22 0x2F RETURNDATACOPY EXTCODECOPY PUSH14 0x61736B2069643D226D5F33353235 PUSH0 BALANCE 0x22 KECCAK256 PUSH20 0x74796C653D226D61736B2D747970653A616C7068 PUSH2 0x2220 PUSH14 0x61736B556E6974733D2275736572 MSTORE8 PUSH17 0x6163654F6E5573652220783D2233303022 KECCAK256 PUSH26 0x3D2230222077696474683D2233303022206865696768743D2234 ADDRESS ADDRESS 0x22 RETURNDATACOPY EXTCODECOPY PUSH17 0x61746820643D224D333030203048353830 NUMBER CALLDATALOAD CODECOPY ADDRESS KECCAK256 ADDRESS KECCAK256 CALLDATASIZE ADDRESS ADDRESS KECCAK256 CODESIZE KECCAK256 CALLDATASIZE ADDRESS ADDRESS KECCAK256 ORIGIN ADDRESS JUMP CALLER CODESIZE ADDRESS NUMBER CALLDATASIZE ADDRESS ADDRESS KECCAK256 CALLER CODECOPY ORIGIN KECCAK256 CALLDATALOAD CODECOPY ADDRESS KECCAK256 CALLVALUE ADDRESS ADDRESS KECCAK256 CALLDATALOAD CODESIZE ADDRESS KECCAK256 CALLVALUE ADDRESS ADDRESS BASEFEE CALLER ADDRESS ADDRESS JUMP ADDRESS GAS 0x22 KECCAK256 PUSH7 0x696C6C3D227768 PUSH10 0x7465222F3E3C2F6D6173 PUSH12 0x3E3C67206D61736B3D227572 PUSH13 0x28236D5F333532355F3129223E EXTCODECOPY PUSH19 0x65637420783D22333030222077696474683D22 CALLER ADDRESS ADDRESS 0x22 KECCAK256 PUSH9 0x65696768743D223430 ADDRESS 0x22 KECCAK256 PUSH7 0x696C6C3D222334 BALANCE CODECOPY ORIGIN CODESIZE GASLIMIT 0x22 0x2F RETURNDATACOPY EXTCODECOPY PUSH20 0x766720783D223233342220793D22353022207769 PUSH5 0x74683D2236 ADDRESS ADDRESS 0x22 KECCAK256 PUSH9 0x65696768743D223630 ADDRESS 0x22 KECCAK256 PUSH23 0x696577426F783D22302030203130302031303022206669 PUSH13 0x6C3D2223303030303030222073 PUSH21 0x726F6B653D222330303030303022207374726F6B65 0x2D PUSH24 0x696474683D22302E3030303732223E3C7469746C653E6865 PUSH13 0x69636F707465723C2F7469746C PUSH6 0x3E3C70617468 KECCAK256 PUSH5 0x3D224D3630 0x2E CALLDATASIZE CALLVALUE 0x2C ORIGIN CODESIZE 0x2E BALANCE PUSH2 0x312E ORIGIN CALLVALUE 0x2C BALANCE 0x2E ORIGIN CALLVALUE 0x2C ADDRESS 0x2C ADDRESS 0x2C ADDRESS 0x2D BALANCE 0x2E ORIGIN CALLDATACOPY 0x2D BALANCE 0x2E ORIGIN ORIGIN PUSH13 0x2D31342E38392D2E3333632E36 BALANCE 0x2D 0x2E CODECOPY BALANCE 0x2C BALANCE 0x2E CALLDATALOAD BALANCE 0x2D ORIGIN 0x2E ADDRESS CALLDATALOAD 0x2C ORIGIN 0x2E CALLDATACOPY CODESIZE 0x2D CALLER 0x2E CALLDATALOAD CALLDATACOPY 0x2C CALLDATASIZE 0x2E BALANCE CALLDATASIZE 0x2D CALLDATACOPY 0x2E CALLER CALLDATASIZE 0x2C CALLVALUE 0x2E BALANCE CODECOPY 0x2D CODECOPY 0x2E CODESIZE 0x2C CALLVALUE 0x2E BALANCE CODECOPY 0x2D CODECOPY 0x2E CODESIZE PUSH20 0x2D322E32382D322D392E39312C332E3834632D31 0x2E CALLER BALANCE 0x2C BALANCE 0x2D ORIGIN 0x2E CALLER CALLVALUE 0x2C BALANCE 0x2E CALLDATACOPY CALLDATASIZE 0x2D CALLER 0x2E BALANCE CODECOPY 0x2C ORIGIN 0x2E CALLER BALANCE PUSH13 0x2E332D31342E303961312E3139 0x2C BALANCE 0x2E BALANCE CODECOPY 0x2C ADDRESS 0x2C BALANCE 0x2C ADDRESS 0x2D ORIGIN 0x2E CALLER CODESIZE 0x2C ADDRESS PUSH13 0x2D2E33342C31352E3333632D32 0x2C 0x2E CALLVALUE CALLVALUE 0x2D CALLER 0x2D BALANCE 0x2E ORIGIN CALLDATALOAD 0x2D CALLDATACOPY 0x2E CALLER CALLER 0x2D CALLER 0x2E CALLER BALANCE 0x2C ADDRESS 0x2C ADDRESS 0x2D ORIGIN 0x2E CALLER CALLVALUE 0x2E CODECOPY BALANCE 0x2D ORIGIN 0x2E CODESIZE CALLDATASIZE 0x2C ORIGIN 0x2E CALLDATACOPY CALLDATACOPY PUSH2 0x3339 0x2E CALLVALUE BALANCE 0x2C CALLER CODECOPY 0x2E CALLVALUE BALANCE 0x2C ADDRESS 0x2C ADDRESS 0x2C BALANCE 0x2C CALLER 0x2E CALLER CODECOPY 0x2C CALLDATASIZE 0x2E ORIGIN CALLVALUE PUSH13 0x2D31342E352D2E333161312E32 0x2C BALANCE 0x2E ORIGIN 0x2C ADDRESS 0x2C BALANCE 0x2C ADDRESS 0x2D 0x2E ADDRESS CALLDATALOAD 0x2C ORIGIN 0x2E CALLER CODECOPY PUSH13 0x31342E362E333161312E32382C BALANCE 0x2E ORIGIN CODESIZE 0x2C ADDRESS 0x2C ADDRESS 0x2C ADDRESS 0x2C 0x2E CALLER CALLDATALOAD 0x2E CALLDATALOAD CODECOPY 0x4C BALANCE CODECOPY 0x2E CODESIZE CALLVALUE 0x2C CALLVALUE BALANCE 0x2E CALLDATASIZE BALANCE PUSH13 0x2D342E35372D332E32342E3534 0x2D BALANCE 0x2E ORIGIN CALLDATALOAD MSTORE8 BALANCE ORIGIN 0x2C CALLER CODECOPY 0x2E CALLDATACOPY 0x2C BALANCE BALANCE 0x2E CALLDATALOAD 0x2C CALLVALUE BALANCE 0x2E CALLER CALLVALUE PUSH13 0x2D2E31342C322C312E33372D2E CALLVALUE CODESIZE 0x2E CALLVALUE BALANCE 0x2D BALANCE 0x2E CALLER BALANCE 0x4C BALANCE CALLDATASIZE 0x2C CALLVALUE CALLDATALOAD 0x2E CODECOPY BALANCE PUSH20 0x2D2E37392E392D2E32342C312E34372C312E3535 0x2D 0x2E BALANCE 0x2C BALANCE 0x2E CALLDATALOAD CALLDATALOAD 0x2D 0x2E BALANCE PUSH13 0x342E33352C332E312D312E3332 0x2E CALLER CALLDATALOAD 0x2D 0x2E CALLDATALOAD CALLVALUE 0x2C BALANCE 0x2E CALLER CALLDATALOAD 0x2C ORIGIN 0x2C ADDRESS PUSH4 0x312E3635 0x2D 0x2E CALLER CODECOPY 0x2C CALLVALUE 0x2E CALLVALUE 0x2D CALLVALUE 0x2E BALANCE CALLER 0x2C CALLVALUE 0x2E CALLVALUE 0x2D CALLVALUE 0x2E BALANCE CALLER PUSH13 0x2D312E32382E34392D332D342E CALLDATACOPY BALANCE 0x2C BALANCE ORIGIN 0x2E CODESIZE BALANCE 0x2D CODECOPY 0x2E BALANCE CALLDATALOAD PUSH2 0x312E CALLER BALANCE 0x2C BALANCE 0x2E CALLER BALANCE 0x2C ADDRESS 0x2C ADDRESS 0x2C ADDRESS 0x2C BALANCE 0x2C 0x2E CALLVALUE CALLDATALOAD PUSH13 0x2D2E33322C313561312E31392C BALANCE 0x2E BALANCE CODECOPY 0x2C ADDRESS 0x2C BALANCE 0x2C ADDRESS 0x2C ORIGIN 0x2E CALLER CODESIZE 0x2C ADDRESS 0x4C CALLER CODESIZE 0x2C CALLER CALLDATALOAD 0x2E ORIGIN CALLER PUSH2 0x3432 0x2E BALANCE CALLDATACOPY 0x2C CALLVALUE ORIGIN 0x2E BALANCE CALLDATACOPY 0x2C ADDRESS 0x2C ADDRESS 0x2C BALANCE 0x2C CALLDATALOAD 0x2E CALLDATASIZE CALLDATACOPY 0x2C CALLER 0x2E CALLVALUE CALLDATACOPY PUSH4 0x312E3838 0x2D 0x2E CALLVALUE CALLVALUE 0x2C ORIGIN 0x2E CODESIZE CALLDATACOPY 0x2D ORIGIN 0x2E CALLDATACOPY CALLDATALOAD 0x2C ORIGIN 0x2E CODESIZE CALLDATACOPY 0x2D ORIGIN 0x2E CALLDATACOPY CALLDATALOAD 0x2D BALANCE 0x2E CALLDATACOPY BALANCE 0x2D CALLVALUE 0x2E BALANCE 0x2D CALLER 0x2E ORIGIN CALLVALUE 0x2D CALLDATALOAD 0x2E CALLER CALLVALUE 0x2D CALLER 0x2E ADDRESS CODECOPY 0x2D CALLDATACOPY PUSH13 0x31352E38372E333441312E3235 0x2C BALANCE 0x2E ORIGIN CALLDATALOAD 0x2C ADDRESS 0x2C ADDRESS 0x2C ADDRESS 0x2C CALLDATASIZE ADDRESS 0x2E CALLDATASIZE CALLVALUE 0x2C ORIGIN CODESIZE 0x2E BALANCE GAS 0x22 0x2F RETURNDATACOPY EXTCODECOPY 0x2F PUSH20 0x76673E3C2F673E3C746578742066696C6C3D2223 ORIGIN ADDRESS ORIGIN ADDRESS ORIGIN ADDRESS 0x22 KECCAK256 PUSH7 0x6F6E742D66616D PUSH10 0x6C793D22417269616C22 KECCAK256 PUSH7 0x6F6E742D73697A PUSH6 0x3D223132223E EXTCODECOPY PUSH21 0x7370616E20783D2232362220793D2234312220666F PUSH15 0x742D73697A653D2231362220666F6E PUSH21 0x2D7765696768743D22626F6C64223E434845434B4E CHAINID SLOAD EXTCODECOPY 0x2F PUSH21 0x7370616E3E3C747370616E20783D2232362220793D 0x22 CODESIZE CODESIZE 0x22 KECCAK256 PUSH7 0x6F6E742D73697A PUSH6 0x3D2233382220 PUSH7 0x6F6E742D776569 PUSH8 0x68743D22626F6C64 0x22 RETURNDATACOPY COINBASE 0x4D 0x4F SSTORE 0x4E SLOAD EXTCODECOPY 0x2F PUSH21 0x7370616E3E3C747370616E20783D2232362220793D 0x22 BALANCE ORIGIN CALLER 0x22 KECCAK256 PUSH7 0x6F6E742D73697A PUSH6 0x3D2231342220 PUSH7 0x6F6E742D776569 PUSH8 0x68743D22626F6C64 0x22 KECCAK256 PUSH7 0x696C6C3D222334 BALANCE CALLER ORIGIN CODESIZE GASLIMIT 0x22 RETURNDATACOPY JUMP 0x4D COINBASE 0x4E EXTCODECOPY 0x2F PUSH21 0x7370616E3E3C747370616E20783D2232362220793D 0x22 BALANCE CALLVALUE ORIGIN 0x22 RETURNDATACOPY 0x23 PUSH21 0x6F6B656E49443C2F747370616E3E3C747370616E20 PUSH25 0x3D2232362220793D22323830223E544F4B454E2056414C5545 EXTCODECOPY 0x2F PUSH21 0x7370616E3E3C747370616E20783D2232362220793D 0x22 CALLER ADDRESS ADDRESS 0x22 RETURNDATACOPY MSTORE GASLIMIT NUMBER 0x49 GASLIMIT JUMP GASLIMIT PREVRANDAO KECCAK256 PREVRANDAO COINBASE SLOAD GASLIMIT EXTCODECOPY 0x2F PUSH21 0x7370616E3E3C747370616E20783D22323530222079 RETURNDATASIZE 0x22 ORIGIN CODESIZE ADDRESS 0x22 KECCAK256 PUSH21 0x6578742D616E63686F723D22656E64223E30303030 ADDRESS ADDRESS EXTCODECOPY 0x2F PUSH21 0x7370616E3E3C747370616E20783D22323530222079 RETURNDATASIZE 0x22 CALLER ADDRESS ADDRESS 0x22 KECCAK256 PUSH21 0x6578742D616E63686F723D22656E64223E64642F6D PUSH14 0x2F797979793C2F747370616E3E3C PUSH21 0x7370616E20783D2232362220793D22333434222066 PUSH16 0x6E742D73697A653D2237223E4F776E65 PUSH19 0x3A203078303030303030303030303030303030 ADDRESS ADDRESS ADDRESS ADDRESS ADDRESS ADDRESS ADDRESS EXTCODECOPY 0x2F PUSH21 0x7370616E3E3C747370616E20783D2232362220793D 0x22 CALLER CALLDATALOAD CALLDATASIZE 0x22 KECCAK256 PUSH7 0x6F6E742D73697A PUSH6 0x3D2237223E55 PUSH17 0x6461746564206F6E3A2064642F6D6D2F79 PUSH26 0x79793C2F747370616E3E3C747370616E20783D2232302220793D 0x22 CALLER CODESIZE ADDRESS 0x22 KECCAK256 PUSH7 0x6F6E742D73697A PUSH6 0x3D2237222066 PUSH10 0x6C6C3D22626C61636B22 KECCAK256 PUSH7 0x696C6C2D6F7061 PUSH4 0x6974793D 0x22 ADDRESS 0x2E CALLDATASIZE 0x22 RETURNDATACOPY PREVRANDAO PUSH6 0x6D6F20564D41 0x4E KECCAK256 0x4E CHAINID SLOAD KECCAK256 EXTCODECOPY 0x2F PUSH21 0x7370616E3E3C2F746578743E3C2F7376673EA26469 PUSH17 0x6673582212208A25C161DED1993679E72F DUP8 PUSH14 0x3EFACC10FA82CC8F3CDC5D49EBB9 0xE9 ADDRESS 0xEE 0xCD PUSH16 0x64736F6C634300081400330000000000 "
		},
		"gasEstimates": {
			"creation": {
				"codeDepositCost": "521000",
				"executionCost": "554",
				"totalCost": "521554"
			},
			"external": {
				"setTokenURI(uint256)": "infinite"
			}
		},
		"methodIdentifiers": {
			"setTokenURI(uint256)": "bff26126"
		}
	},
	"abi": [
		{
			"inputs": [
				{
					"internalType": "uint256",
					"name": "tokenId_",
					"type": "uint256"
				}
			],
			"name": "setTokenURI",
			"outputs": [
				{
					"internalType": "string",
					"name": "",
					"type": "string"
				}
			],
			"stateMutability": "pure",
			"type": "function"
		}
	]
}