{
	"data": {
		"bytecode": {
			"linkReferences": {},
			"object": "60c060405234801561000f575f80fd5b506040516104c53803806104c583398101604081905261002e9161006d565b6001600160e01b0319821660805280600381111561004e5761004e6100b4565b60a0816003811115610062576100626100b4565b8152505050506100c8565b5f806040838503121561007e575f80fd5b82516001600160e01b031981168114610095575f80fd5b6020840151909250600481106100a9575f80fd5b809150509250929050565b634e487b7160e01b5f52602160045260245ffd5b60805160a0516103cf6100f65f395f8181609001528181610115015261015201525f6101db01526103cf5ff3fe608060405234801561000f575f80fd5b5060043610610033575f3560e01c80629ce20b1461003757806301ffc9a714610068575b5f80fd5b61004a610045366004610239565b61008b565b6040516001600160e01b031990911681526020015b60405180910390f35b61007b6100763660046102dd565b610204565b604051901515815260200161005f565b5f60017f000000000000000000000000000000000000000000000000000000000000000060038111156100c0576100c061030b565b036101115760405162461bcd60e51b815260206004820152601e60248201527f4552433335323552656365697665724d6f636b3a20726576657274696e670000604482015260640160405180910390fd5b60027f000000000000000000000000000000000000000000000000000000000000000060038111156101455761014561030b565b0361014e575f80fd5b60037f000000000000000000000000000000000000000000000000000000000000000060038111156101825761018261030b565b03610195575f610192818061031f565b50505b7f7693f14379c435d2f83242a3efbdcca5efc90c59cbcf91f258ed512e511b19518787878787875a6040516101d0979695949392919061033e565b60405180910390a1507f00000000000000000000000000000000000000000000000000000000000000009695505050505050565b5f6001600160e01b031982166301ffc9a760e01b148061023357506001600160e01b03198216629ce20b60e01b145b92915050565b5f805f805f8060a0878903121561024e575f80fd5b86356001600160a01b0381168114610264575f80fd5b9550602087013594506040870135935060608701359250608087013567ffffffffffffffff80821115610295575f80fd5b818901915089601f8301126102a8575f80fd5b8135818111156102b6575f80fd5b8a60208285010111156102c7575f80fd5b6020830194508093505050509295509295509295565b5f602082840312156102ed575f80fd5b81356001600160e01b031981168114610304575f80fd5b9392505050565b634e487b7160e01b5f52602160045260245ffd5b5f8261033957634e487b7160e01b5f52601260045260245ffd5b500490565b60018060a01b038816815286602082015285604082015284606082015260c060808201528260c0820152828460e08301375f60e084830101525f60e0601f19601f86011683010190508260a08301529897505050505050505056fea26469706673582212208483f6792abc02ef28fc13c87e30148c5d79c03352fc5c0b5e4f794459ac698964736f6c63430008180033",
			"opcodes": "PUSH1 0xC0 PUSH1 0x40 MSTORE CALLVALUE DUP1 ISZERO PUSH2 0xF JUMPI PUSH0 DUP1 REVERT JUMPDEST POP PUSH1 0x40 MLOAD PUSH2 0x4C5 CODESIZE SUB DUP1 PUSH2 0x4C5 DUP4 CODECOPY DUP2 ADD PUSH1 0x40 DUP2 SWAP1 MSTORE PUSH2 0x2E SWAP2 PUSH2 0x6D JUMP JUMPDEST PUSH1 0x1 PUSH1 0x1 PUSH1 0xE0 SHL SUB NOT DUP3 AND PUSH1 0x80 MSTORE DUP1 PUSH1 0x3 DUP2 GT ISZERO PUSH2 0x4E JUMPI PUSH2 0x4E PUSH2 0xB4 JUMP JUMPDEST PUSH1 0xA0 DUP2 PUSH1 0x3 DUP2 GT ISZERO PUSH2 0x62 JUMPI PUSH2 0x62 PUSH2 0xB4 JUMP JUMPDEST DUP2 MSTORE POP POP POP POP PUSH2 0xC8 JUMP JUMPDEST PUSH0 DUP1 PUSH1 0x40 DUP4 DUP6 SUB SLT ISZERO PUSH2 0x7E JUMPI PUSH0 DUP1 REVERT JUMPDEST DUP3 MLOAD PUSH1 0x1 PUSH1 0x1 PUSH1 0xE0 SHL SUB NOT DUP2 AND DUP2 EQ PUSH2 0x95 JUMPI PUSH0 DUP1 REVERT JUMPDEST PUSH1 0x20 DUP5 ADD MLOAD SWAP1 SWAP3 POP PUSH1 0x4 DUP2 LT PUSH2 0xA9 JUMPI PUSH0 DUP1 REVERT JUMPDEST DUP1 SWAP2 POP POP SWAP3 POP SWAP3 SWAP1 POP JUMP JUMPDEST PUSH4 0x4E487B71 PUSH1 0xE0 SHL PUSH0 MSTORE PUSH1 0x21 PUSH1 0x4 MSTORE PUSH1 0x24 PUSH0 REVERT JUMPDEST PUSH1 0x80 MLOAD PUSH1 0xA0 MLOAD PUSH2 0x3CF PUSH2 0xF6 PUSH0 CODECOPY PUSH0 DUP2 DUP2 PUSH1 0x90 ADD MSTORE DUP2 DUP2 PUSH2 0x115 ADD MSTORE PUSH2 0x152 ADD MSTORE PUSH0 PUSH2 0x1DB ADD MSTORE PUSH2 0x3CF PUSH0 RETURN INVALID PUSH1 0x80 PUSH1 0x40 MSTORE CALLVALUE DUP1 ISZERO PUSH2 0xF JUMPI PUSH0 DUP1 REVERT JUMPDEST POP PUSH1 0x4 CALLDATASIZE LT PUSH2 0x33 JUMPI PUSH0 CALLDATALOAD PUSH1 0xE0 SHR DUP1 PUSH3 0x9CE20B EQ PUSH2 0x37 JUMPI DUP1 PUSH4 0x1FFC9A7 EQ PUSH2 0x68 JUMPI JUMPDEST PUSH0 DUP1 REVERT JUMPDEST PUSH2 0x4A PUSH2 0x45 CALLDATASIZE PUSH1 0x4 PUSH2 0x239 JUMP JUMPDEST PUSH2 0x8B JUMP JUMPDEST PUSH1 0x40 MLOAD PUSH1 0x1 PUSH1 0x1 PUSH1 0xE0 SHL SUB NOT SWAP1 SWAP2 AND DUP2 MSTORE PUSH1 0x20 ADD JUMPDEST PUSH1 0x40 MLOAD DUP1 SWAP2 SUB SWAP1 RETURN JUMPDEST PUSH2 0x7B PUSH2 0x76 CALLDATASIZE PUSH1 0x4 PUSH2 0x2DD JUMP JUMPDEST PUSH2 0x204 JUMP JUMPDEST PUSH1 0x40 MLOAD SWAP1 ISZERO ISZERO DUP2 MSTORE PUSH1 0x20 ADD PUSH2 0x5F JUMP JUMPDEST PUSH0 PUSH1 0x1 PUSH32 0x0 PUSH1 0x3 DUP2 GT ISZERO PUSH2 0xC0 JUMPI PUSH2 0xC0 PUSH2 0x30B JUMP JUMPDEST SUB PUSH2 0x111 JUMPI PUSH1 0x40 MLOAD PUSH3 0x461BCD PUSH1 0xE5 SHL DUP2 MSTORE PUSH1 0x20 PUSH1 0x4 DUP3 ADD MSTORE PUSH1 0x1E PUSH1 0x24 DUP3 ADD MSTORE PUSH32 0x4552433335323552656365697665724D6F636B3A20726576657274696E670000 PUSH1 0x44 DUP3 ADD MSTORE PUSH1 0x64 ADD PUSH1 0x40 MLOAD DUP1 SWAP2 SUB SWAP1 REVERT JUMPDEST PUSH1 0x2 PUSH32 0x0 PUSH1 0x3 DUP2 GT ISZERO PUSH2 0x145 JUMPI PUSH2 0x145 PUSH2 0x30B JUMP JUMPDEST SUB PUSH2 0x14E JUMPI PUSH0 DUP1 REVERT JUMPDEST PUSH1 0x3 PUSH32 0x0 PUSH1 0x3 DUP2 GT ISZERO PUSH2 0x182 JUMPI PUSH2 0x182 PUSH2 0x30B JUMP JUMPDEST SUB PUSH2 0x195 JUMPI PUSH0 PUSH2 0x192 DUP2 DUP1 PUSH2 0x31F JUMP JUMPDEST POP POP JUMPDEST PUSH32 0x7693F14379C435D2F83242A3EFBDCCA5EFC90C59CBCF91F258ED512E511B1951 DUP8 DUP8 DUP8 DUP8 DUP8 DUP8 GAS PUSH1 0x40 MLOAD PUSH2 0x1D0 SWAP8 SWAP7 SWAP6 SWAP5 SWAP4 SWAP3 SWAP2 SWAP1 PUSH2 0x33E JUMP JUMPDEST PUSH1 0x40 MLOAD DUP1 SWAP2 SUB SWAP1 LOG1 POP PUSH32 0x0 SWAP7 SWAP6 POP POP POP POP POP POP JUMP JUMPDEST PUSH0 PUSH1 0x1 PUSH1 0x1 PUSH1 0xE0 SHL SUB NOT DUP3 AND PUSH4 0x1FFC9A7 PUSH1 0xE0 SHL EQ DUP1 PUSH2 0x233 JUMPI POP PUSH1 0x1 PUSH1 0x1 PUSH1 0xE0 SHL SUB NOT DUP3 AND PUSH3 0x9CE20B PUSH1 0xE0 SHL EQ JUMPDEST SWAP3 SWAP2 POP POP JUMP JUMPDEST PUSH0 DUP1 PUSH0 DUP1 PUSH0 DUP1 PUSH1 0xA0 DUP8 DUP10 SUB SLT ISZERO PUSH2 0x24E JUMPI PUSH0 DUP1 REVERT JUMPDEST DUP7 CALLDATALOAD PUSH1 0x1 PUSH1 0x1 PUSH1 0xA0 SHL SUB DUP2 AND DUP2 EQ PUSH2 0x264 JUMPI PUSH0 DUP1 REVERT JUMPDEST SWAP6 POP PUSH1 0x20 DUP8 ADD CALLDATALOAD SWAP5 POP PUSH1 0x40 DUP8 ADD CALLDATALOAD SWAP4 POP PUSH1 0x60 DUP8 ADD CALLDATALOAD SWAP3 POP PUSH1 0x80 DUP8 ADD CALLDATALOAD PUSH8 0xFFFFFFFFFFFFFFFF DUP1 DUP3 GT ISZERO PUSH2 0x295 JUMPI PUSH0 DUP1 REVERT JUMPDEST DUP2 DUP10 ADD SWAP2 POP DUP10 PUSH1 0x1F DUP4 ADD SLT PUSH2 0x2A8 JUMPI PUSH0 DUP1 REVERT JUMPDEST DUP2 CALLDATALOAD DUP2 DUP2 GT ISZERO PUSH2 0x2B6 JUMPI PUSH0 DUP1 REVERT JUMPDEST DUP11 PUSH1 0x20 DUP3 DUP6 ADD ADD GT ISZERO PUSH2 0x2C7 JUMPI PUSH0 DUP1 REVERT JUMPDEST PUSH1 0x20 DUP4 ADD SWAP5 POP DUP1 SWAP4 POP POP POP POP SWAP3 SWAP6 POP SWAP3 SWAP6 POP SWAP3 SWAP6 JUMP JUMPDEST PUSH0 PUSH1 0x20 DUP3 DUP5 SUB SLT ISZERO PUSH2 0x2ED JUMPI PUSH0 DUP1 REVERT JUMPDEST DUP2 CALLDATALOAD PUSH1 0x1 PUSH1 0x1 PUSH1 0xE0 SHL SUB NOT DUP2 AND DUP2 EQ PUSH2 0x304 JUMPI PUSH0 DUP1 REVERT JUMPDEST SWAP4 SWAP3 POP POP POP JUMP JUMPDEST PUSH4 0x4E487B71 PUSH1 0xE0 SHL PUSH0 MSTORE PUSH1 0x21 PUSH1 0x4 MSTORE PUSH1 0x24 PUSH0 REVERT JUMPDEST PUSH0 DUP3 PUSH2 0x339 JUMPI PUSH4 0x4E487B71 PUSH1 0xE0 SHL PUSH0 MSTORE PUSH1 0x12 PUSH1 0x4 MSTORE PUSH1 0x24 PUSH0 REVERT JUMPDEST POP DIV SWAP1 JUMP JUMPDEST PUSH1 0x1 DUP1 PUSH1 0xA0 SHL SUB DUP9 AND DUP2 MSTORE DUP7 PUSH1 0x20 DUP3 ADD MSTORE DUP6 PUSH1 0x40 DUP3 ADD MSTORE DUP5 PUSH1 0x60 DUP3 ADD MSTORE PUSH1 0xC0 PUSH1 0x80 DUP3 ADD MSTORE DUP3 PUSH1 0xC0 DUP3 ADD MSTORE DUP3 DUP5 PUSH1 0xE0 DUP4 ADD CALLDATACOPY PUSH0 PUSH1 0xE0 DUP5 DUP4 ADD ADD MSTORE PUSH0 PUSH1 0xE0 PUSH1 0x1F NOT PUSH1 0x1F DUP7 ADD AND DUP4 ADD ADD SWAP1 POP DUP3 PUSH1 0xA0 DUP4 ADD MSTORE SWAP9 SWAP8 POP POP POP POP POP POP POP POP JUMP INVALID LOG2 PUSH5 0x6970667358 0x22 SLT KECCAK256 DUP5 DUP4 0xF6 PUSH26 0x2ABC02EF28FC13C87E30148C5D79C03352FC5C0B5E4F794459AC PUSH10 0x8964736F6C6343000818 STOP CALLER "
		},
		"gasEstimates": {
			"creation": {
				"codeDepositCost": "195000",
				"executionCost": "infinite",
				"totalCost": "infinite"
			},
			"external": {
				"onERC3525Received(address,uint256,uint256,uint256,bytes)": "infinite",
				"supportsInterface(bytes4)": "434"
			}
		},
		"methodIdentifiers": {
			"onERC3525Received(address,uint256,uint256,uint256,bytes)": "009ce20b",
			"supportsInterface(bytes4)": "01ffc9a7"
		}
	},
	"abi": [
		{
			"inputs": [
				{
					"internalType": "bytes4",
					"name": "retval",
					"type": "bytes4"
				},
				{
					"internalType": "enum ERC3525ReceiverMock.Error",
					"name": "error",
					"type": "uint8"
				}
			],
			"stateMutability": "nonpayable",
			"type": "constructor"
		},
		{
			"anonymous": false,
			"inputs": [
				{
					"indexed": false,
					"internalType": "address",
					"name": "operator",
					"type": "address"
				},
				{
					"indexed": false,
					"internalType": "uint256",
					"name": "fromTokenId",
					"type": "uint256"
				},
				{
					"indexed": false,
					"internalType": "uint256",
					"name": "toTokenId",
					"type": "uint256"
				},
				{
					"indexed": false,
					"internalType": "uint256",
					"name": "value",
					"type": "uint256"
				},
				{
					"indexed": false,
					"internalType": "bytes",
					"name": "data",
					"type": "bytes"
				},
				{
					"indexed": false,
					"internalType": "uint256",
					"name": "gas",
					"type": "uint256"
				}
			],
			"name": "Received",
			"type": "event"
		},
		{
			"inputs": [
				{
					"internalType": "address",
					"name": "operator",
					"type": "address"
				},
				{
					"internalType": "uint256",
					"name": "fromTokenId",
					"type": "uint256"
				},
				{
					"internalType": "uint256",
					"name": "toTokenId",
					"type": "uint256"
				},
				{
					"internalType": "uint256",
					"name": "value",
					"type": "uint256"
				},
				{
					"internalType": "bytes",
					"name": "data",
					"type": "bytes"
				}
			],
			"name": "onERC3525Received",
			"outputs": [
				{
					"internalType": "bytes4",
					"name": "",
					"type": "bytes4"
				}
			],
			"stateMutability": "nonpayable",
			"type": "function"
		},
		{
			"inputs": [
				{
					"internalType": "bytes4",
					"name": "interfaceId",
					"type": "bytes4"
				}
			],
			"name": "supportsInterface",
			"outputs": [
				{
					"internalType": "bool",
					"name": "",
					"type": "bool"
				}
			],
			"stateMutability": "view",
			"type": "function"
		}
	]
}