{
	"data": {
		"bytecode": {
			"linkReferences": {},
			"object": "60c060405234801561000f575f80fd5b5060405161053c38038061053c83398101604081905261002e9161006d565b6001600160e01b0319821660805280600381111561004e5761004e6100b4565b60a0816003811115610062576100626100b4565b8152505050506100c8565b5f806040838503121561007e575f80fd5b82516001600160e01b031981168114610095575f80fd5b6020840151909250600481106100a9575f80fd5b809150509250929050565b634e487b7160e01b5f52602160045260245ffd5b60805160a0516104466100f65f395f818160c70152818161014c015261018901525f61020e01526104465ff3fe608060405234801561000f575f80fd5b5060043610610034575f3560e01c806301ffc9a714610038578063150b7a0214610060575b5f80fd5b61004b610046366004610235565b61008c565b60405190151581526020015b60405180910390f35b61007361006e366004610292565b6100c2565b6040516001600160e01b03199091168152602001610057565b5f6001600160e01b031982166301ffc9a760e01b14806100bc57506001600160e01b03198216630a85bd0160e11b145b92915050565b5f60017f000000000000000000000000000000000000000000000000000000000000000060038111156100f7576100f7610367565b036101485760405162461bcd60e51b815260206004820152601d60248201527f45524337323152656365697665724d6f636b3a20726576657274696e67000000604482015260640160405180910390fd5b60027f0000000000000000000000000000000000000000000000000000000000000000600381111561017c5761017c610367565b03610185575f80fd5b60037f000000000000000000000000000000000000000000000000000000000000000060038111156101b9576101b9610367565b036101cc575f6101c9818061037b565b50505b7f28fa6e16458f9c24aa59ddd4085264573006dbe30304837873c7deafc702b038858585855a60405161020395949392919061039a565b60405180910390a1507f0000000000000000000000000000000000000000000000000000000000000000949350505050565b5f60208284031215610245575f80fd5b81356001600160e01b03198116811461025c575f80fd5b9392505050565b80356001600160a01b0381168114610279575f80fd5b919050565b634e487b7160e01b5f52604160045260245ffd5b5f805f80608085870312156102a5575f80fd5b6102ae85610263565b93506102bc60208601610263565b925060408501359150606085013567ffffffffffffffff808211156102df575f80fd5b818701915087601f8301126102f2575f80fd5b8135818111156103045761030461027e565b604051601f8201601f19908116603f0116810190838211818310171561032c5761032c61027e565b816040528281528a6020848701011115610344575f80fd5b826020860160208301375f60208483010152809550505050505092959194509250565b634e487b7160e01b5f52602160045260245ffd5b5f8261039557634e487b7160e01b5f52601260045260245ffd5b500490565b5f60018060a01b0380881683526020818816602085015286604085015260a06060850152855191508160a08501525f5b828110156103e65786810182015185820160c0015281016103ca565b50505f60c0828501015260c0601f19601f830116840101915050826080830152969550505050505056fea26469706673582212203eafa8e63c5b3753d29a98791eef36c17eb322e43e4b6f00b981a0b6e547f66364736f6c63430008180033",
			"opcodes": "PUSH1 0xC0 PUSH1 0x40 MSTORE CALLVALUE DUP1 ISZERO PUSH2 0xF JUMPI PUSH0 DUP1 REVERT JUMPDEST POP PUSH1 0x40 MLOAD PUSH2 0x53C CODESIZE SUB DUP1 PUSH2 0x53C DUP4 CODECOPY DUP2 ADD PUSH1 0x40 DUP2 SWAP1 MSTORE PUSH2 0x2E SWAP2 PUSH2 0x6D JUMP JUMPDEST PUSH1 0x1 PUSH1 0x1 PUSH1 0xE0 SHL SUB NOT DUP3 AND PUSH1 0x80 MSTORE DUP1 PUSH1 0x3 DUP2 GT ISZERO PUSH2 0x4E JUMPI PUSH2 0x4E PUSH2 0xB4 JUMP JUMPDEST PUSH1 0xA0 DUP2 PUSH1 0x3 DUP2 GT ISZERO PUSH2 0x62 JUMPI PUSH2 0x62 PUSH2 0xB4 JUMP JUMPDEST DUP2 MSTORE POP POP POP POP PUSH2 0xC8 JUMP JUMPDEST PUSH0 DUP1 PUSH1 0x40 DUP4 DUP6 SUB SLT ISZERO PUSH2 0x7E JUMPI PUSH0 DUP1 REVERT JUMPDEST DUP3 MLOAD PUSH1 0x1 PUSH1 0x1 PUSH1 0xE0 SHL SUB NOT DUP2 AND DUP2 EQ PUSH2 0x95 JUMPI PUSH0 DUP1 REVERT JUMPDEST PUSH1 0x20 DUP5 ADD MLOAD SWAP1 SWAP3 POP PUSH1 0x4 DUP2 LT PUSH2 0xA9 JUMPI PUSH0 DUP1 REVERT JUMPDEST DUP1 SWAP2 POP POP SWAP3 POP SWAP3 SWAP1 POP JUMP JUMPDEST PUSH4 0x4E487B71 PUSH1 0xE0 SHL PUSH0 MSTORE PUSH1 0x21 PUSH1 0x4 MSTORE PUSH1 0x24 PUSH0 REVERT JUMPDEST PUSH1 0x80 MLOAD PUSH1 0xA0 MLOAD PUSH2 0x446 PUSH2 0xF6 PUSH0 CODECOPY PUSH0 DUP2 DUP2 PUSH1 0xC7 ADD MSTORE DUP2 DUP2 PUSH2 0x14C ADD MSTORE PUSH2 0x189 ADD MSTORE PUSH0 PUSH2 0x20E ADD MSTORE PUSH2 0x446 PUSH0 RETURN INVALID PUSH1 0x80 PUSH1 0x40 MSTORE CALLVALUE DUP1 ISZERO PUSH2 0xF JUMPI PUSH0 DUP1 REVERT JUMPDEST POP PUSH1 0x4 CALLDATASIZE LT PUSH2 0x34 JUMPI PUSH0 CALLDATALOAD PUSH1 0xE0 SHR DUP1 PUSH4 0x1FFC9A7 EQ PUSH2 0x38 JUMPI DUP1 PUSH4 0x150B7A02 EQ PUSH2 0x60 JUMPI JUMPDEST PUSH0 DUP1 REVERT JUMPDEST PUSH2 0x4B PUSH2 0x46 CALLDATASIZE PUSH1 0x4 PUSH2 0x235 JUMP JUMPDEST PUSH2 0x8C JUMP JUMPDEST PUSH1 0x40 MLOAD SWAP1 ISZERO ISZERO DUP2 MSTORE PUSH1 0x20 ADD JUMPDEST PUSH1 0x40 MLOAD DUP1 SWAP2 SUB SWAP1 RETURN JUMPDEST PUSH2 0x73 PUSH2 0x6E CALLDATASIZE PUSH1 0x4 PUSH2 0x292 JUMP JUMPDEST PUSH2 0xC2 JUMP JUMPDEST PUSH1 0x40 MLOAD PUSH1 0x1 PUSH1 0x1 PUSH1 0xE0 SHL SUB NOT SWAP1 SWAP2 AND DUP2 MSTORE PUSH1 0x20 ADD PUSH2 0x57 JUMP JUMPDEST PUSH0 PUSH1 0x1 PUSH1 0x1 PUSH1 0xE0 SHL SUB NOT DUP3 AND PUSH4 0x1FFC9A7 PUSH1 0xE0 SHL EQ DUP1 PUSH2 0xBC JUMPI POP PUSH1 0x1 PUSH1 0x1 PUSH1 0xE0 SHL SUB NOT DUP3 AND PUSH4 0xA85BD01 PUSH1 0xE1 SHL EQ JUMPDEST SWAP3 SWAP2 POP POP JUMP JUMPDEST PUSH0 PUSH1 0x1 PUSH32 0x0 PUSH1 0x3 DUP2 GT ISZERO PUSH2 0xF7 JUMPI PUSH2 0xF7 PUSH2 0x367 JUMP JUMPDEST SUB PUSH2 0x148 JUMPI PUSH1 0x40 MLOAD PUSH3 0x461BCD PUSH1 0xE5 SHL DUP2 MSTORE PUSH1 0x20 PUSH1 0x4 DUP3 ADD MSTORE PUSH1 0x1D PUSH1 0x24 DUP3 ADD MSTORE PUSH32 0x45524337323152656365697665724D6F636B3A20726576657274696E67000000 PUSH1 0x44 DUP3 ADD MSTORE PUSH1 0x64 ADD PUSH1 0x40 MLOAD DUP1 SWAP2 SUB SWAP1 REVERT JUMPDEST PUSH1 0x2 PUSH32 0x0 PUSH1 0x3 DUP2 GT ISZERO PUSH2 0x17C JUMPI PUSH2 0x17C PUSH2 0x367 JUMP JUMPDEST SUB PUSH2 0x185 JUMPI PUSH0 DUP1 REVERT JUMPDEST PUSH1 0x3 PUSH32 0x0 PUSH1 0x3 DUP2 GT ISZERO PUSH2 0x1B9 JUMPI PUSH2 0x1B9 PUSH2 0x367 JUMP JUMPDEST SUB PUSH2 0x1CC JUMPI PUSH0 PUSH2 0x1C9 DUP2 DUP1 PUSH2 0x37B JUMP JUMPDEST POP POP JUMPDEST PUSH32 0x28FA6E16458F9C24AA59DDD4085264573006DBE30304837873C7DEAFC702B038 DUP6 DUP6 DUP6 DUP6 GAS PUSH1 0x40 MLOAD PUSH2 0x203 SWAP6 SWAP5 SWAP4 SWAP3 SWAP2 SWAP1 PUSH2 0x39A JUMP JUMPDEST PUSH1 0x40 MLOAD DUP1 SWAP2 SUB SWAP1 LOG1 POP PUSH32 0x0 SWAP5 SWAP4 POP POP POP POP JUMP JUMPDEST PUSH0 PUSH1 0x20 DUP3 DUP5 SUB SLT ISZERO PUSH2 0x245 JUMPI PUSH0 DUP1 REVERT JUMPDEST DUP2 CALLDATALOAD PUSH1 0x1 PUSH1 0x1 PUSH1 0xE0 SHL SUB NOT DUP2 AND DUP2 EQ PUSH2 0x25C JUMPI PUSH0 DUP1 REVERT JUMPDEST SWAP4 SWAP3 POP POP POP JUMP JUMPDEST DUP1 CALLDATALOAD PUSH1 0x1 PUSH1 0x1 PUSH1 0xA0 SHL SUB DUP2 AND DUP2 EQ PUSH2 0x279 JUMPI PUSH0 DUP1 REVERT JUMPDEST SWAP2 SWAP1 POP JUMP JUMPDEST PUSH4 0x4E487B71 PUSH1 0xE0 SHL PUSH0 MSTORE PUSH1 0x41 PUSH1 0x4 MSTORE PUSH1 0x24 PUSH0 REVERT JUMPDEST PUSH0 DUP1 PUSH0 DUP1 PUSH1 0x80 DUP6 DUP8 SUB SLT ISZERO PUSH2 0x2A5 JUMPI PUSH0 DUP1 REVERT JUMPDEST PUSH2 0x2AE DUP6 PUSH2 0x263 JUMP JUMPDEST SWAP4 POP PUSH2 0x2BC PUSH1 0x20 DUP7 ADD PUSH2 0x263 JUMP JUMPDEST SWAP3 POP PUSH1 0x40 DUP6 ADD CALLDATALOAD SWAP2 POP PUSH1 0x60 DUP6 ADD CALLDATALOAD PUSH8 0xFFFFFFFFFFFFFFFF DUP1 DUP3 GT ISZERO PUSH2 0x2DF JUMPI PUSH0 DUP1 REVERT JUMPDEST DUP2 DUP8 ADD SWAP2 POP DUP8 PUSH1 0x1F DUP4 ADD SLT PUSH2 0x2F2 JUMPI PUSH0 DUP1 REVERT JUMPDEST DUP2 CALLDATALOAD DUP2 DUP2 GT ISZERO PUSH2 0x304 JUMPI PUSH2 0x304 PUSH2 0x27E JUMP JUMPDEST PUSH1 0x40 MLOAD PUSH1 0x1F DUP3 ADD PUSH1 0x1F NOT SWAP1 DUP2 AND PUSH1 0x3F ADD AND DUP2 ADD SWAP1 DUP4 DUP3 GT DUP2 DUP4 LT OR ISZERO PUSH2 0x32C JUMPI PUSH2 0x32C PUSH2 0x27E JUMP JUMPDEST DUP2 PUSH1 0x40 MSTORE DUP3 DUP2 MSTORE DUP11 PUSH1 0x20 DUP5 DUP8 ADD ADD GT ISZERO PUSH2 0x344 JUMPI PUSH0 DUP1 REVERT JUMPDEST DUP3 PUSH1 0x20 DUP7 ADD PUSH1 0x20 DUP4 ADD CALLDATACOPY PUSH0 PUSH1 0x20 DUP5 DUP4 ADD ADD MSTORE DUP1 SWAP6 POP POP POP POP POP POP SWAP3 SWAP6 SWAP2 SWAP5 POP SWAP3 POP JUMP JUMPDEST PUSH4 0x4E487B71 PUSH1 0xE0 SHL PUSH0 MSTORE PUSH1 0x21 PUSH1 0x4 MSTORE PUSH1 0x24 PUSH0 REVERT JUMPDEST PUSH0 DUP3 PUSH2 0x395 JUMPI PUSH4 0x4E487B71 PUSH1 0xE0 SHL PUSH0 MSTORE PUSH1 0x12 PUSH1 0x4 MSTORE PUSH1 0x24 PUSH0 REVERT JUMPDEST POP DIV SWAP1 JUMP JUMPDEST PUSH0 PUSH1 0x1 DUP1 PUSH1 0xA0 SHL SUB DUP1 DUP9 AND DUP4 MSTORE PUSH1 0x20 DUP2 DUP9 AND PUSH1 0x20 DUP6 ADD MSTORE DUP7 PUSH1 0x40 DUP6 ADD MSTORE PUSH1 0xA0 PUSH1 0x60 DUP6 ADD MSTORE DUP6 MLOAD SWAP2 POP DUP2 PUSH1 0xA0 DUP6 ADD MSTORE PUSH0 JUMPDEST DUP3 DUP2 LT ISZERO PUSH2 0x3E6 JUMPI DUP7 DUP2 ADD DUP3 ADD MLOAD DUP6 DUP3 ADD PUSH1 0xC0 ADD MSTORE DUP2 ADD PUSH2 0x3CA JUMP JUMPDEST POP POP PUSH0 PUSH1 0xC0 DUP3 DUP6 ADD ADD MSTORE PUSH1 0xC0 PUSH1 0x1F NOT PUSH1 0x1F DUP4 ADD AND DUP5 ADD ADD SWAP2 POP POP DUP3 PUSH1 0x80 DUP4 ADD MSTORE SWAP7 SWAP6 POP POP POP POP POP POP JUMP INVALID LOG2 PUSH5 0x6970667358 0x22 SLT KECCAK256 RETURNDATACOPY 0xAF 0xA8 0xE6 EXTCODECOPY JUMPDEST CALLDATACOPY MSTORE8 0xD2 SWAP11 SWAP9 PUSH26 0x1EEF36C17EB322E43E4B6F00B981A0B6E547F66364736F6C6343 STOP ADDMOD XOR STOP CALLER "
		},
		"gasEstimates": {
			"creation": {
				"codeDepositCost": "218800",
				"executionCost": "infinite",
				"totalCost": "infinite"
			},
			"external": {
				"onERC721Received(address,address,uint256,bytes)": "infinite",
				"supportsInterface(bytes4)": "401"
			}
		},
		"methodIdentifiers": {
			"onERC721Received(address,address,uint256,bytes)": "150b7a02",
			"supportsInterface(bytes4)": "01ffc9a7"
		}
	},
	"abi": [
		{
			"inputs": [
				{
					"internalType": "bytes4",
					"name": "retval",
					"type": "bytes4"
				},
				{
					"internalType": "enum ERC721ReceiverMock.Error",
					"name": "error",
					"type": "uint8"
				}
			],
			"stateMutability": "nonpayable",
			"type": "constructor"
		},
		{
			"anonymous": false,
			"inputs": [
				{
					"indexed": false,
					"internalType": "address",
					"name": "operator",
					"type": "address"
				},
				{
					"indexed": false,
					"internalType": "address",
					"name": "from",
					"type": "address"
				},
				{
					"indexed": false,
					"internalType": "uint256",
					"name": "tokenId",
					"type": "uint256"
				},
				{
					"indexed": false,
					"internalType": "bytes",
					"name": "data",
					"type": "bytes"
				},
				{
					"indexed": false,
					"internalType": "uint256",
					"name": "gas",
					"type": "uint256"
				}
			],
			"name": "Received",
			"type": "event"
		},
		{
			"inputs": [
				{
					"internalType": "address",
					"name": "operator",
					"type": "address"
				},
				{
					"internalType": "address",
					"name": "from",
					"type": "address"
				},
				{
					"internalType": "uint256",
					"name": "tokenId",
					"type": "uint256"
				},
				{
					"internalType": "bytes",
					"name": "data",
					"type": "bytes"
				}
			],
			"name": "onERC721Received",
			"outputs": [
				{
					"internalType": "bytes4",
					"name": "",
					"type": "bytes4"
				}
			],
			"stateMutability": "nonpayable",
			"type": "function"
		},
		{
			"inputs": [
				{
					"internalType": "bytes4",
					"name": "interfaceId",
					"type": "bytes4"
				}
			],
			"name": "supportsInterface",
			"outputs": [
				{
					"internalType": "bool",
					"name": "",
					"type": "bool"
				}
			],
			"stateMutability": "view",
			"type": "function"
		}
	]
}